{
  "contractName": "Accounting",
  "abi": [
    {
      "constant": true,
      "inputs": [],
      "name": "m_fundsUsedFromBoundaryBucket",
      "outputs": [
        {
          "name": "",
          "type": "uint128"
        }
      ],
      "payable": false,
      "stateMutability": "view",
      "type": "function"
    },
    {
      "constant": true,
      "inputs": [],
      "name": "m_boundaryFeeNumerator",
      "outputs": [
        {
          "name": "",
          "type": "uint128"
        }
      ],
      "payable": false,
      "stateMutability": "view",
      "type": "function"
    },
    {
      "constant": true,
      "inputs": [],
      "name": "m_fundsUsed",
      "outputs": [
        {
          "name": "",
          "type": "uint128"
        }
      ],
      "payable": false,
      "stateMutability": "view",
      "type": "function"
    },
    {
      "constant": true,
      "inputs": [
        {
          "name": "",
          "type": "uint256"
        }
      ],
      "name": "m_contributionPerFeeNumerator",
      "outputs": [
        {
          "name": "",
          "type": "uint128"
        }
      ],
      "payable": false,
      "stateMutability": "view",
      "type": "function"
    },
    {
      "constant": true,
      "inputs": [
        {
          "name": "",
          "type": "address"
        }
      ],
      "name": "m_feeNumeratorPerContributor",
      "outputs": [
        {
          "name": "",
          "type": "uint128"
        }
      ],
      "payable": false,
      "stateMutability": "view",
      "type": "function"
    },
    {
      "constant": true,
      "inputs": [
        {
          "name": "",
          "type": "address"
        }
      ],
      "name": "m_contributionPerContributor",
      "outputs": [
        {
          "name": "",
          "type": "uint128"
        }
      ],
      "payable": false,
      "stateMutability": "view",
      "type": "function"
    },
    {
      "constant": true,
      "inputs": [],
      "name": "FEE_DENOMINATOR",
      "outputs": [
        {
          "name": "",
          "type": "uint128"
        }
      ],
      "payable": false,
      "stateMutability": "view",
      "type": "function"
    },
    {
      "constant": true,
      "inputs": [],
      "name": "m_owner",
      "outputs": [
        {
          "name": "",
          "type": "address"
        }
      ],
      "payable": false,
      "stateMutability": "view",
      "type": "function"
    },
    {
      "constant": true,
      "inputs": [],
      "name": "m_isFinalized",
      "outputs": [
        {
          "name": "",
          "type": "bool"
        }
      ],
      "payable": false,
      "stateMutability": "view",
      "type": "function"
    },
    {
      "inputs": [
        {
          "name": "owner",
          "type": "address"
        }
      ],
      "payable": false,
      "stateMutability": "nonpayable",
      "type": "constructor"
    },
    {
      "constant": false,
      "inputs": [
        {
          "name": "contributor",
          "type": "address"
        },
        {
          "name": "amount",
          "type": "uint128"
        },
        {
          "name": "feeNumerator",
          "type": "uint128"
        }
      ],
      "name": "contribute",
      "outputs": [
        {
          "name": "depositedLessFees",
          "type": "uint128"
        },
        {
          "name": "depositedFees",
          "type": "uint128"
        }
      ],
      "payable": false,
      "stateMutability": "nonpayable",
      "type": "function"
    },
    {
      "constant": false,
      "inputs": [
        {
          "name": "contributor",
          "type": "address"
        }
      ],
      "name": "withdrawContribution",
      "outputs": [
        {
          "name": "withdrawnLessFees",
          "type": "uint128"
        },
        {
          "name": "withdrawnFees",
          "type": "uint128"
        }
      ],
      "payable": false,
      "stateMutability": "nonpayable",
      "type": "function"
    },
    {
      "constant": false,
      "inputs": [
        {
          "name": "amountDisputed",
          "type": "uint128"
        }
      ],
      "name": "finalize",
      "outputs": [],
      "payable": false,
      "stateMutability": "nonpayable",
      "type": "function"
    },
    {
      "constant": true,
      "inputs": [],
      "name": "getTotalContribution",
      "outputs": [
        {
          "name": "",
          "type": "uint256"
        }
      ],
      "payable": false,
      "stateMutability": "view",
      "type": "function"
    },
    {
      "constant": true,
      "inputs": [],
      "name": "getTotalFeesOffered",
      "outputs": [
        {
          "name": "",
          "type": "uint256"
        }
      ],
      "payable": false,
      "stateMutability": "view",
      "type": "function"
    },
    {
      "constant": true,
      "inputs": [],
      "name": "getOwner",
      "outputs": [
        {
          "name": "",
          "type": "address"
        }
      ],
      "payable": false,
      "stateMutability": "view",
      "type": "function"
    },
    {
      "constant": true,
      "inputs": [],
      "name": "isFinalized",
      "outputs": [
        {
          "name": "",
          "type": "bool"
        }
      ],
      "payable": false,
      "stateMutability": "view",
      "type": "function"
    },
    {
      "constant": true,
      "inputs": [
        {
          "name": "contributor",
          "type": "address"
        }
      ],
      "name": "calculateProceeds",
      "outputs": [
        {
          "name": "rep",
          "type": "uint128"
        },
        {
          "name": "disputeTokens",
          "type": "uint128"
        }
      ],
      "payable": false,
      "stateMutability": "view",
      "type": "function"
    },
    {
      "constant": true,
      "inputs": [],
      "name": "calculateFees",
      "outputs": [
        {
          "name": "",
          "type": "uint128"
        }
      ],
      "payable": false,
      "stateMutability": "view",
      "type": "function"
    },
    {
      "constant": true,
      "inputs": [
        {
          "name": "amount",
          "type": "uint128"
        },
        {
          "name": "feeNumerator",
          "type": "uint128"
        }
      ],
      "name": "addFeesOnTop",
      "outputs": [
        {
          "name": "",
          "type": "uint128"
        }
      ],
      "payable": false,
      "stateMutability": "pure",
      "type": "function"
    }
  ],
  "bytecode": "0x60806040526101f7805460ff1916905534801561001b57600080fd5b50604051602080611215833981016040525160008054600160a060020a03909216600160a060020a03199092169190911790556111b88061005d6000396000f3006080604052600436106101065763ffffffff7c010000000000000000000000000000000000000000000000000000000060003504166308caa910811461010b5780631230dc1314610132578063228c4a511461016357806328d21f92146101785780632ec75523146101bf5780635edfa1f8146101d457806368707ce1146101e957806377a39a3d1461020157806378cacd6e14610222578063893d20e8146102555780638d4e4083146102865780638f86c59c146102af578063925025ba146102c457806398266550146102e5578063a35c470914610308578063d73792a914610329578063deff41c11461033e578063dfe29a8614610353578063e0dd81f814610368575b600080fd5b34801561011757600080fd5b5061012061038f565b60408051918252519081900360200190f35b34801561013e57600080fd5b506101476103ef565b604080516001608060020a039092168252519081900360200190f35b34801561016f57600080fd5b50610147610413565b34801561018457600080fd5b50610199600160a060020a0360043516610423565b604080516001608060020a03938416815291909216602082015281519081900390910190f35b3480156101cb57600080fd5b5061014761062e565b3480156101e057600080fd5b50610147610643565b3480156101f557600080fd5b506101476004356106f4565b34801561020d57600080fd5b50610147600160a060020a0360043516610725565b34801561022e57600080fd5b50610199600160a060020a03600435166001608060020a0360243581169060443516610741565b34801561026157600080fd5b5061026a610b6d565b60408051600160a060020a039092168252519081900360200190f35b34801561029257600080fd5b5061029b610b7c565b604080519115158252519081900360200190f35b3480156102bb57600080fd5b50610120610b86565b3480156102d057600080fd5b50610147600160a060020a0360043516610bf6565b3480156102f157600080fd5b506103066001608060020a0360043516610c12565b005b34801561031457600080fd5b50610199600160a060020a0360043516610d77565b34801561033557600080fd5b50610147610f45565b34801561034a57600080fd5b5061026a610f4b565b34801561035f57600080fd5b5061029b610f5a565b34801561037457600080fd5b506101476001608060020a0360043581169060243516610f64565b600080805b6103e86001608060020a03821610156103e95760016001608060020a0382166103e881106103be57fe5b60028104909101546001608060020a0360106001938416026101000a90910416929092019101610394565b50919050565b6101f85470010000000000000000000000000000000090046001608060020a031681565b6101f8546001608060020a031681565b6101f7546000908190819081908190819060ff1615156104b3576040805160e560020a62461bcd02815260206004820152602660248201527f4d6574686f64206f6e6c7920616c6c6f7765642061667465722066696e616c6960448201527f7a6174696f6e0000000000000000000000000000000000000000000000000000606482015290519081900360840190fd5b600160a060020a03871660009081526101f560209081526040808320546101f6909252909120546001608060020a0391821695501692508215156104fd5760009550859450610625565b6101f8546001608060020a03908116908516101561052a57600094506105238385610f64565b9550610625565b6101f8546001608060020a03908116908516111561056d576101f85492945084926105239084906105659087906001608060020a0316610f7d565b6103e8610f9b565b6101f8546001608060020a0385811691161461058557fe5b60016001608060020a0385166103e8811061059c57fe5b60028104919091015460019091166010026101000a90046001608060020a03169150600082116105c857fe5b506101f8546001608060020a0370010000000000000000000000000000000090910481169082168111156105f857fe5b61060383828461101e565b94506106226106128486610f64565b61061c8484610f7d565b8461101e565b95505b50505050915091565b6101f75461010090046001608060020a031681565b6101f75460009060ff1615156106c9576040805160e560020a62461bcd02815260206004820152602660248201527f4d6574686f64206f6e6c7920616c6c6f7765642061667465722066696e616c6960448201527f7a6174696f6e0000000000000000000000000000000000000000000000000000606482015290519081900360840190fd5b6101f7546101f8546106ef916001608060020a03610100909104811691166103e861101e565b905090565b6001816103e8811061070257fe5b60029182820401919006601002915054906101000a90046001608060020a031681565b6101f5602052600090815260409020546001608060020a031681565b600080548190600160a060020a031633146107a6576040805160e560020a62461bcd02815260206004820152600e60248201527f4e6f7420417574686f72697a6564000000000000000000000000000000000000604482015290519081900360640190fd5b6101f75460ff1615610828576040805160e560020a62461bcd02815260206004820152602760248201527f4d6574686f64206f6e6c7920616c6c6f776564206265666f72652066696e616c60448201527f697a6174696f6e00000000000000000000000000000000000000000000000000606482015290519081900360840190fd5b60006001608060020a038516116108af576040805160e560020a62461bcd02815260206004820152602260248201527f476f747461206861766520736f6d657468696e6720746f20636f6e747269627560448201527f7465000000000000000000000000000000000000000000000000000000000000606482015290519081900360840190fd5b6103e86001608060020a038516066001608060020a031615610941576040805160e560020a62461bcd02815260206004820152602b60248201527f416d6f756e74206d75737420626520646976697369626c65206279206665652060448201527f64656e6f6d696e61746f72000000000000000000000000000000000000000000606482015290519081900360840190fd5b6000836001608060020a03161015801561096557506103e86001608060020a038416105b15156109bb576040805160e560020a62461bcd02815260206004820152601060248201527f426164206665654e756d657261746f7200000000000000000000000000000000604482015290519081900360640190fd5b600160a060020a03851660009081526101f660205260409020546001608060020a031615610a7f576040805160e560020a62461bcd02815260206004820152604160248201527f4f6e652068617320746f2077697468647261772070726576696f757320636f6e60448201527f747269627574696f6e206265666f7265206d616b696e672061206e6577206f6e60648201527f6500000000000000000000000000000000000000000000000000000000000000608482015290519081900360a40190fd5b600160a060020a03851660009081526101f66020908152604080832080546001608060020a03808a166fffffffffffffffffffffffffffffffff19928316179092556101f5909352922080549286169290911682179055610b0d906001906103e88110610ae857fe5b600291828204019190066010029054906101000a90046001608060020a031685611068565b60016001608060020a0385166103e88110610b2457fe5b600291828204019190066010026101000a8154816001608060020a0302191690836001608060020a0316021790555083610b6185856103e8610f9b565b91509150935093915050565b600054600160a060020a031690565b6101f75460ff1690565b600080805b6103e86001608060020a03821610156103e957610be060016001608060020a0383166103e88110610bb857fe5b600291828204019190066010029054906101000a90046001608060020a0316826103e8610f9b565b6001608060020a03169190910190600101610b8b565b6101f6602052600090815260409020546001608060020a031681565b600054600160a060020a03163314610c74576040805160e560020a62461bcd02815260206004820152600e60248201527f4e6f7420417574686f72697a6564000000000000000000000000000000000000604482015290519081900360640190fd5b6101f75460ff1615610cf6576040805160e560020a62461bcd02815260206004820152602760248201527f4d6574686f64206f6e6c7920616c6c6f776564206265666f72652066696e616c60448201527f697a6174696f6e00000000000000000000000000000000000000000000000000606482015290519081900360840190fd5b6101f78054600160ff199091161770ffffffffffffffffffffffffffffffff0019166101006001608060020a03841602179055610d3281611083565b6101f880546001608060020a03938416928416700100000000000000000000000000000000029316929092176fffffffffffffffffffffffffffffffff191617905550565b60008054819081908190600160a060020a03163314610de0576040805160e560020a62461bcd02815260206004820152600e60248201527f4e6f7420417574686f72697a6564000000000000000000000000000000000000604482015290519081900360640190fd5b6101f75460ff1615610e62576040805160e560020a62461bcd02815260206004820152602760248201527f4d6574686f64206f6e6c7920616c6c6f776564206265666f72652066696e616c60448201527f697a6174696f6e00000000000000000000000000000000000000000000000000606482015290519081900360840190fd5b5050600160a060020a03831660009081526101f66020908152604080832080546fffffffffffffffffffffffffffffffff1981169091556101f5909252909120546001608060020a039182169116610ee66001826103e88110610ec157fe5b600291828204019190066010029054906101000a90046001608060020a031683610f7d565b60016001608060020a0383166103e88110610efd57fe5b600291828204019190066010026101000a8154816001608060020a0302191690836001608060020a0316021790555081610f3a83836103e8610f9b565b935093505050915091565b6103e881565b600054600160a060020a031681565b6101f75460ff1681565b6000610f76836105656103e885611068565b9392505050565b60006001608060020a038083169084161015610f9557fe5b50900390565b600080808080806001608060020a0387168110610fb457fe5b886001608060020a03169450876001608060020a03169350866001608060020a0316925082848602811515610fe557fe5b0615610fed57fe5b82848602811515610ffa57fe5b0491508190506001608060020a038116811461101257fe5b98975050505050505050565b600080808080806001608060020a038716811061103757fe5b886001608060020a03169450876001608060020a03169350866001608060020a0316925082848602811515610ffa57fe5b60008282016001608060020a038085169082161015610f7657fe5b6000806103e8818080806001608060020a0388168111156110a057fe5b6000856001608060020a03161180156110cb5750876001608060020a0316836001608060020a031611155b15611123576000199094019382915060016001608060020a0386166103e881106110f157fe5b600291828204019190066010029054906101000a90046001608060020a0316935061111c8285611068565b92506110a0565b826001608060020a0316886001608060020a031611156111435782611145565b875b90506001608060020a03808316908216101561115d57fe5b84965061116a8183610f7d565b95506001608060020a03808516908716111561118257fe5b50505050509150915600a165627a7a723058203ae9cf2e16f5b6e8b1d08fca4641d477483488481468a3557e0b5e0db13414010029",
  "source": "pragma solidity 0.4.24;\n\nimport \"./IAccounting.sol\";\n\n/**\n * Keeps track of all contributions, and calculates how much each contributor\n * is entitled to.\n *\n * Doesn't actually hold any funds, just keeps records.\n */\ncontract Accounting is IAccounting {\n  uint128 public constant FEE_DENOMINATOR = 1000;\n  address public m_owner;\n\n  uint128[FEE_DENOMINATOR] public m_contributionPerFeeNumerator;\n  mapping(address => uint128) public m_feeNumeratorPerContributor;\n  mapping(address => uint128) public m_contributionPerContributor;\n\n  // populated at finalization\n  bool public m_isFinalized = false;\n  uint128 public m_fundsUsed;\n  uint128 public m_boundaryFeeNumerator;\n  uint128 public m_fundsUsedFromBoundaryBucket;\n\n  constructor(address owner) public {\n    m_owner = owner;\n  }\n\n  modifier ownerOnly() {\n    require(msg.sender == m_owner, \"Not Authorized\");\n    _;\n  }\n\n  modifier beforeFinalizationOnly() {\n    require(!m_isFinalized, \"Method only allowed before finalization\");\n    _;\n  }\n\n  modifier afterFinalizationOnly() {\n    require(m_isFinalized, \"Method only allowed after finalization\");\n    _;\n  }\n\n  function contribute(\n    address contributor,\n    uint128 amount,\n    uint128 feeNumerator\n  ) external ownerOnly beforeFinalizationOnly returns(\n    uint128 depositedLessFees,\n    uint128 depositedFees\n  ) {\n    require(amount > 0, \"Gotta have something to contribute\");\n    require(\n      amount % FEE_DENOMINATOR == 0,\n      \"Amount must be divisible by fee denominator\"\n    );\n    require(\n      feeNumerator >= 0 && feeNumerator < FEE_DENOMINATOR,\n      \"Bad feeNumerator\"\n    );\n    require(\n      m_contributionPerContributor[contributor] == 0,\n      \"One has to withdraw previous contribution before making a new one\"\n    );\n\n    m_contributionPerContributor[contributor] = amount;\n    m_feeNumeratorPerContributor[contributor] = feeNumerator;\n    m_contributionPerFeeNumerator[feeNumerator] = safeAdd(\n      m_contributionPerFeeNumerator[feeNumerator],\n      amount\n    );\n\n    return (amount, safeMulDivExact(amount, feeNumerator, FEE_DENOMINATOR));\n  }\n\n  function withdrawContribution(\n    address contributor\n  ) external ownerOnly beforeFinalizationOnly returns(\n    uint128 withdrawnLessFees,\n    uint128 withdrawnFees\n  ) {\n    uint128 amount = m_contributionPerContributor[contributor];\n\n    m_contributionPerContributor[contributor] = 0;\n\n    uint128 feeNumerator = m_feeNumeratorPerContributor[contributor];\n    m_contributionPerFeeNumerator[feeNumerator] = safeSub(\n      m_contributionPerFeeNumerator[feeNumerator],\n      amount\n    );\n\n    return (amount, safeMulDivExact(amount, feeNumerator, FEE_DENOMINATOR));\n  }\n\n  /**\n   * Someone may have sent us (by mistake or maliciously) extra dispute tokens.\n   * This is not fatal, but we need to be aware that amountDisputed may actually\n   * be greater than the REP contributed and not crash.\n   */\n  function finalize(\n    uint128 amountDisputed\n  ) external ownerOnly beforeFinalizationOnly {\n    m_isFinalized = true;\n    m_fundsUsed = amountDisputed;\n    (m_boundaryFeeNumerator, m_fundsUsedFromBoundaryBucket) = findBoundaryBucketForAmountDisputed(\n      amountDisputed\n    );\n  }\n\n  function getTotalContribution() external view returns(uint256) {\n    uint256 total = 0;\n    for (uint128 i = 0; i < FEE_DENOMINATOR; ++i) {\n      total += m_contributionPerFeeNumerator[i];\n    }\n    return total;\n  }\n\n  function getTotalFeesOffered() external view returns(uint256) {\n    uint256 total = 0;\n    for (uint128 i = 0; i < FEE_DENOMINATOR; ++i) {\n      total += safeMulDivExact(\n        m_contributionPerFeeNumerator[i],\n        i,\n        FEE_DENOMINATOR\n      );\n    }\n    return total;\n  }\n\n  function getOwner() external view returns(address) {\n    return m_owner;\n  }\n\n  function isFinalized() external view returns(bool) {\n    return m_isFinalized;\n  }\n\n  /**\n   * Return value is how much REP and dispute tokens the contributor is entitled to.\n   *\n   * Does not change the state, as accounting is finalized at that moment.\n   *\n   * In case of partial fill, we round down, leaving some dust in the contract.\n   */\n  function calculateProceeds(\n    address contributor\n  ) external view afterFinalizationOnly returns(\n    uint128 rep,\n    uint128 disputeTokens\n  ) {\n    uint128 contributorFeeNumerator = m_feeNumeratorPerContributor[contributor];\n    uint128 originalContributionOfContributor = m_contributionPerContributor[contributor];\n\n    if (originalContributionOfContributor == 0) {\n      return (0, 0);\n    }\n\n    if (contributorFeeNumerator < m_boundaryFeeNumerator) {\n      // this contributor didn't make it into dispute round,\n      // just refund their contribution with prepaid fees\n      disputeTokens = 0;\n      rep = addFeesOnTop(\n        originalContributionOfContributor,\n        contributorFeeNumerator\n      );\n    } else if (contributorFeeNumerator > m_boundaryFeeNumerator) {\n      // this contributor fully got into dispute round,\n      // give them dispute tokens in full, and refund unused portion of fee\n      disputeTokens = originalContributionOfContributor;\n      rep = safeMulDivExact(\n        originalContributionOfContributor,\n        safeSub(contributorFeeNumerator, m_boundaryFeeNumerator),\n        FEE_DENOMINATOR\n      );\n    } else {\n      assert(contributorFeeNumerator == m_boundaryFeeNumerator);\n      // most complex case, contributor partially got into dispute rounds\n      uint128 usableFundsContributedInBucket = m_contributionPerFeeNumerator[contributorFeeNumerator];\n      // assertion gotta be true because contributor admittedly did some\n      // contribution\n      assert(usableFundsContributedInBucket > 0);\n      uint128 fundsUsedInBucket = m_fundsUsedFromBoundaryBucket;\n      assert(fundsUsedInBucket <= usableFundsContributedInBucket);\n\n      // award dispute tokens pro rata\n      disputeTokens = safeMulDiv(\n        originalContributionOfContributor,\n        fundsUsedInBucket,\n        usableFundsContributedInBucket\n      );\n      // refund rep for the unused portion of contribution + fees\n      rep = safeMulDiv(\n        addFeesOnTop(\n          originalContributionOfContributor,\n          contributorFeeNumerator\n        ),\n        safeSub(usableFundsContributedInBucket, fundsUsedInBucket),\n        usableFundsContributedInBucket\n      );\n    }\n  }\n\n  /**\n   * Calculate fee that will be split between contract admin and\n   * account that triggered dispute transaction.\n   *\n   * In case of partial fill, we round down, leaving some dust in the contract.\n   */\n  function calculateFees() external view afterFinalizationOnly returns(\n    uint128\n  ) {\n    return safeMulDiv(m_fundsUsed, m_boundaryFeeNumerator, FEE_DENOMINATOR);\n  }\n\n  function addFeesOnTop(\n    uint128 amount,\n    uint128 feeNumerator\n  ) public pure returns(uint128) {\n    return safeMulDivExact(\n      amount,\n      safeAdd(FEE_DENOMINATOR, feeNumerator),\n      FEE_DENOMINATOR\n    );\n  }\n\n  /**\n   * Finds such lowest fee bucket, that all buckets with fee higher than that\n   * were fully included in the dispute. From that will also follow that none\n   * of the funds from buckets with fee lower than that were included in the\n   * dispute.\n   *\n   * Also calculates how much funds from the boundary bucket were included in\n   * the dispute (normally current bucket participated partially).\n   *\n   * The returned index will always be a valid feeNumerator.\n   */\n  function findBoundaryBucketForAmountDisputed(\n    uint128 amountDisputed\n  ) internal view returns(\n    uint128 feeNumerator,\n    uint128 fundsUsedFromBoundaryBucket\n  ) {\n    // initialize with one-past-last bucket; loop will do at least one iteration\n    uint128 tentativeBoundaryBucket = FEE_DENOMINATOR;\n    uint128 usableFundsInCurrentBucket;\n    uint128 usableFundsWithCurrentBucket = 0;\n    uint128 usableFundsInBucketsWithHigherFee;\n\n    // length of the loop constrained by constant FEE_DENOMINATOR\n    assert(\n      tentativeBoundaryBucket > 0 && usableFundsWithCurrentBucket <= amountDisputed\n    );\n    while (tentativeBoundaryBucket > 0 && usableFundsWithCurrentBucket <= amountDisputed) {\n      tentativeBoundaryBucket -= 1;\n      usableFundsInBucketsWithHigherFee = usableFundsWithCurrentBucket;\n      // TODO: consider skipping executions if usableFundsInCurrentBucket = 0\n      // Not skipping now to make it more evident that 1000 iterations of full\n      // loop body (worst case) is OK gas-wise. I.e. we make sure that\n      // worst-case is triggered frequently enough to not become a surprise.\n      usableFundsInCurrentBucket = m_contributionPerFeeNumerator[tentativeBoundaryBucket];\n      usableFundsWithCurrentBucket = safeAdd(\n        usableFundsInBucketsWithHigherFee,\n        usableFundsInCurrentBucket\n      );\n    }\n\n    // this is needed to protect against corner cases if someone sent dispute\n    // tokens into this contract directly in excess from what contributors funded\n    uint128 cappedAmountDisputed = amountDisputed <= usableFundsWithCurrentBucket ? amountDisputed : usableFundsWithCurrentBucket;\n\n    assert(cappedAmountDisputed >= usableFundsInBucketsWithHigherFee);\n\n    feeNumerator = tentativeBoundaryBucket;\n    fundsUsedFromBoundaryBucket = safeSub(\n      cappedAmountDisputed,\n      usableFundsInBucketsWithHigherFee\n    );\n    assert(fundsUsedFromBoundaryBucket <= usableFundsInCurrentBucket);\n  }\n\n  function safeAdd(uint128 a, uint128 b) internal pure returns(uint128) {\n    uint128 r = a + b;\n    assert(r >= a);\n    return r;\n  }\n\n  function safeSub(uint128 a, uint128 b) internal pure returns(uint128) {\n    assert(a >= b);\n    return a - b;\n  }\n\n  function safeMulDiv(uint128 a, uint128 b, uint128 c) internal pure returns(\n    uint128\n  ) {\n    assert(c > 0);\n    uint256 wa = a;\n    uint256 wb = b;\n    uint256 wc = c;\n\n    uint256 result = wa * wb / wc;\n    uint128 result128 = uint128(result);\n\n    assert(result == result128);\n    return result128;\n  }\n\n  function safeMulDivExact(\n    uint128 a,\n    uint128 b,\n    uint128 c\n  ) internal pure returns(uint128) {\n    assert(c > 0);\n    uint256 wa = a;\n    uint256 wb = b;\n    uint256 wc = c;\n\n    assert((wa * wb) % wc == 0);\n    uint256 result = wa * wb / wc;\n    uint128 result128 = uint128(result);\n\n    assert(result == result128);\n    return result128;\n  }\n}\n",
  "sourcePath": "/src/contracts/Accounting.sol",
  "compiler": {
    "name": "solc",
    "version": "0.4.24+commit.e67f0147.Emscripten.clang"
  },
  "schemaVersion": "2.0.1",
  "updatedAt": "2018-11-09T20:22:38.278Z"
}