{
  "contractName": "Accounting",
  "abi": [
    {
      "constant": true,
      "inputs": [
        {
          "name": "",
          "type": "address"
        }
      ],
      "name": "m_feeNumeratorPerContributor",
      "outputs": [
        {
          "name": "",
          "type": "uint128"
        }
      ],
      "payable": false,
      "stateMutability": "view",
      "type": "function"
    },
    {
      "constant": true,
      "inputs": [
        {
          "name": "",
          "type": "address"
        }
      ],
      "name": "m_contributionPerContributor",
      "outputs": [
        {
          "name": "",
          "type": "uint128"
        }
      ],
      "payable": false,
      "stateMutability": "view",
      "type": "function"
    },
    {
      "constant": true,
      "inputs": [],
      "name": "TREE_DEPTH_EDGES",
      "outputs": [
        {
          "name": "",
          "type": "uint128"
        }
      ],
      "payable": false,
      "stateMutability": "view",
      "type": "function"
    },
    {
      "constant": true,
      "inputs": [],
      "name": "FEE_DENOMINATOR",
      "outputs": [
        {
          "name": "",
          "type": "uint128"
        }
      ],
      "payable": false,
      "stateMutability": "view",
      "type": "function"
    },
    {
      "constant": true,
      "inputs": [],
      "name": "m_owner",
      "outputs": [
        {
          "name": "",
          "type": "address"
        }
      ],
      "payable": false,
      "stateMutability": "view",
      "type": "function"
    },
    {
      "constant": true,
      "inputs": [],
      "name": "m_isFinalized",
      "outputs": [
        {
          "name": "",
          "type": "bool"
        }
      ],
      "payable": false,
      "stateMutability": "view",
      "type": "function"
    },
    {
      "constant": true,
      "inputs": [],
      "name": "TREE_SPLIT_WIDTH",
      "outputs": [
        {
          "name": "",
          "type": "uint128"
        }
      ],
      "payable": false,
      "stateMutability": "view",
      "type": "function"
    },
    {
      "constant": true,
      "inputs": [
        {
          "name": "",
          "type": "uint128"
        }
      ],
      "name": "m_contributionTree",
      "outputs": [
        {
          "name": "usableFunds",
          "type": "uint128"
        },
        {
          "name": "fee",
          "type": "uint128"
        }
      ],
      "payable": false,
      "stateMutability": "view",
      "type": "function"
    },
    {
      "inputs": [
        {
          "name": "owner",
          "type": "address"
        }
      ],
      "payable": false,
      "stateMutability": "nonpayable",
      "type": "constructor"
    },
    {
      "constant": true,
      "inputs": [],
      "name": "getOwner",
      "outputs": [
        {
          "name": "",
          "type": "address"
        }
      ],
      "payable": false,
      "stateMutability": "view",
      "type": "function"
    },
    {
      "constant": false,
      "inputs": [
        {
          "name": "contributor",
          "type": "address"
        },
        {
          "name": "amount",
          "type": "uint128"
        },
        {
          "name": "feeNumerator",
          "type": "uint128"
        }
      ],
      "name": "contribute",
      "outputs": [
        {
          "name": "depositedLessFees",
          "type": "uint128"
        },
        {
          "name": "depositedFees",
          "type": "uint128"
        }
      ],
      "payable": false,
      "stateMutability": "nonpayable",
      "type": "function"
    },
    {
      "constant": true,
      "inputs": [
        {
          "name": "feeNumerator",
          "type": "uint128"
        }
      ],
      "name": "getContributedForFeeNumerator",
      "outputs": [
        {
          "name": "",
          "type": "uint128"
        }
      ],
      "payable": false,
      "stateMutability": "view",
      "type": "function"
    },
    {
      "constant": false,
      "inputs": [
        {
          "name": "contributor",
          "type": "address"
        }
      ],
      "name": "withdrawContribution",
      "outputs": [
        {
          "name": "withdrawnLessFees",
          "type": "uint128"
        },
        {
          "name": "withdrawnFees",
          "type": "uint128"
        }
      ],
      "payable": false,
      "stateMutability": "nonpayable",
      "type": "function"
    },
    {
      "constant": false,
      "inputs": [
        {
          "name": "amountDisputed",
          "type": "uint128"
        }
      ],
      "name": "finalize",
      "outputs": [],
      "payable": false,
      "stateMutability": "nonpayable",
      "type": "function"
    },
    {
      "constant": true,
      "inputs": [],
      "name": "isFinalized",
      "outputs": [
        {
          "name": "",
          "type": "bool"
        }
      ],
      "payable": false,
      "stateMutability": "view",
      "type": "function"
    },
    {
      "constant": true,
      "inputs": [
        {
          "name": "contributor",
          "type": "address"
        }
      ],
      "name": "calculateProceeds",
      "outputs": [
        {
          "name": "rep",
          "type": "uint128"
        },
        {
          "name": "disputeTokens",
          "type": "uint128"
        }
      ],
      "payable": false,
      "stateMutability": "view",
      "type": "function"
    },
    {
      "constant": true,
      "inputs": [],
      "name": "calculateFees",
      "outputs": [
        {
          "name": "",
          "type": "uint128"
        }
      ],
      "payable": false,
      "stateMutability": "view",
      "type": "function"
    }
  ],
  "bytecode": "0x60806040526000600460006101000a81548160ff02191690831515021790555034801561002b57600080fd5b5060405160208061270483398101806040528101908080519060200190929190505050806000806101000a81548173ffffffffffffffffffffffffffffffffffffffff021916908373ffffffffffffffffffffffffffffffffffffffff160217905550506126668061009e6000396000f3006080604052600436106100e6576000357c0100000000000000000000000000000000000000000000000000000000900463ffffffff16806328d21f92146100eb5780635edfa1f81461019157806377a39a3d146101e057806378cacd6e1461025b578063893d20e8146103395780638d4e408314610390578063925025ba146103bf578063982665501461043a578063a35c470914610479578063a728cb951461051f578063bc07beaa1461056e578063d73792a9146105e5578063deff41c114610634578063dfe29a861461068b578063f0666e67146106ba578063fc908a6a14610709575b600080fd5b3480156100f757600080fd5b5061012c600480360381019080803573ffffffffffffffffffffffffffffffffffffffff1690602001909291905050506107ab565b60405180836fffffffffffffffffffffffffffffffff166fffffffffffffffffffffffffffffffff168152602001826fffffffffffffffffffffffffffffffff166fffffffffffffffffffffffffffffffff1681526020019250505060405180910390f35b34801561019d57600080fd5b506101a6610b7d565b60405180826fffffffffffffffffffffffffffffffff166fffffffffffffffffffffffffffffffff16815260200191505060405180910390f35b3480156101ec57600080fd5b50610221600480360381019080803573ffffffffffffffffffffffffffffffffffffffff169060200190929190505050610d8d565b60405180826fffffffffffffffffffffffffffffffff166fffffffffffffffffffffffffffffffff16815260200191505060405180910390f35b34801561026757600080fd5b506102d4600480360381019080803573ffffffffffffffffffffffffffffffffffffffff16906020019092919080356fffffffffffffffffffffffffffffffff16906020019092919080356fffffffffffffffffffffffffffffffff169060200190929190505050610dbc565b60405180836fffffffffffffffffffffffffffffffff166fffffffffffffffffffffffffffffffff168152602001826fffffffffffffffffffffffffffffffff166fffffffffffffffffffffffffffffffff1681526020019250505060405180910390f35b34801561034557600080fd5b5061034e611635565b604051808273ffffffffffffffffffffffffffffffffffffffff1673ffffffffffffffffffffffffffffffffffffffff16815260200191505060405180910390f35b34801561039c57600080fd5b506103a561165e565b604051808215151515815260200191505060405180910390f35b3480156103cb57600080fd5b50610400600480360381019080803573ffffffffffffffffffffffffffffffffffffffff169060200190929190505050611675565b60405180826fffffffffffffffffffffffffffffffff166fffffffffffffffffffffffffffffffff16815260200191505060405180910390f35b34801561044657600080fd5b5061047760048036038101908080356fffffffffffffffffffffffffffffffff1690602001909291905050506116a4565b005b34801561048557600080fd5b506104ba600480360381019080803573ffffffffffffffffffffffffffffffffffffffff1690602001909291905050506118b2565b60405180836fffffffffffffffffffffffffffffffff166fffffffffffffffffffffffffffffffff168152602001826fffffffffffffffffffffffffffffffff166fffffffffffffffffffffffffffffffff1681526020019250505060405180910390f35b34801561052b57600080fd5b50610534611deb565b60405180826fffffffffffffffffffffffffffffffff166fffffffffffffffffffffffffffffffff16815260200191505060405180910390f35b34801561057a57600080fd5b506105ab60048036038101908080356fffffffffffffffffffffffffffffffff169060200190929190505050611df0565b60405180826fffffffffffffffffffffffffffffffff166fffffffffffffffffffffffffffffffff16815260200191505060405180910390f35b3480156105f157600080fd5b506105fa611eee565b60405180826fffffffffffffffffffffffffffffffff166fffffffffffffffffffffffffffffffff16815260200191505060405180910390f35b34801561064057600080fd5b50610649611ef6565b604051808273ffffffffffffffffffffffffffffffffffffffff1673ffffffffffffffffffffffffffffffffffffffff16815260200191505060405180910390f35b34801561069757600080fd5b506106a0611f1b565b604051808215151515815260200191505060405180910390f35b3480156106c657600080fd5b506106cf611f2e565b60405180826fffffffffffffffffffffffffffffffff166fffffffffffffffffffffffffffffffff16815260200191505060405180910390f35b34801561071557600080fd5b5061074660048036038101908080356fffffffffffffffffffffffffffffffff169060200190929190505050611f33565b60405180836fffffffffffffffffffffffffffffffff166fffffffffffffffffffffffffffffffff168152602001826fffffffffffffffffffffffffffffffff166fffffffffffffffffffffffffffffffff1681526020019250505060405180910390f35b600080600080600080600460009054906101000a900460ff16151561085e576040517f08c379a00000000000000000000000000000000000000000000000000000000081526004018080602001828103825260268152602001807f4d6574686f64206f6e6c7920616c6c6f7765642061667465722066696e616c6981526020017f7a6174696f6e000000000000000000000000000000000000000000000000000081525060400191505060405180910390fd5b600260008873ffffffffffffffffffffffffffffffffffffffff1673ffffffffffffffffffffffffffffffffffffffff16815260200190815260200160002060009054906101000a90046fffffffffffffffffffffffffffffffff169350600360008873ffffffffffffffffffffffffffffffffffffffff1673ffffffffffffffffffffffffffffffffffffffff16815260200190815260200160002060009054906101000a90046fffffffffffffffffffffffffffffffff1692506000836fffffffffffffffffffffffffffffffff1614156109475760008081915080905095509550610b74565b600460019054906101000a90046fffffffffffffffffffffffffffffffff166fffffffffffffffffffffffffffffffff16846fffffffffffffffffffffffffffffffff16101561099d5782955060009450610b73565b600460019054906101000a90046fffffffffffffffffffffffffffffffff166fffffffffffffffffffffffffffffffff16846fffffffffffffffffffffffffffffffff161115610a0e5760009550610a07836109fd6003600a0a87611f8f565b6003600a0a611fcc565b9450610b72565b600460019054906101000a90046fffffffffffffffffffffffffffffffff166fffffffffffffffffffffffffffffffff16846fffffffffffffffffffffffffffffffff16141515610a5b57fe5b60016000610a70610a6a61208a565b8761209b565b6fffffffffffffffffffffffffffffffff166fffffffffffffffffffffffffffffffff16815260200190815260200160002060000160009054906101000a90046fffffffffffffffffffffffffffffffff1691506000826fffffffffffffffffffffffffffffffff16111515610ae257fe5b600560009054906101000a90046fffffffffffffffffffffffffffffffff169050816fffffffffffffffffffffffffffffffff16816fffffffffffffffffffffffffffffffff1611151515610b3357fe5b610b59610b5284610b486003600a0a88611f8f565b6003600a0a611fcc565b828461210d565b9450610b6f83610b698484611f8f565b8461210d565b95505b5b5b50505050915091565b6000806000806000600460009054906101000a900460ff161515610c2f576040517f08c379a00000000000000000000000000000000000000000000000000000000081526004018080602001828103825260268152602001807f4d6574686f64206f6e6c7920616c6c6f7765642061667465722066696e616c6981526020017f7a6174696f6e000000000000000000000000000000000000000000000000000081525060400191505060405180910390fd5b610ca1600560009054906101000a90046fffffffffffffffffffffffffffffffff16600460019054906101000a90046fffffffffffffffffffffffffffffffff16610c9c6003600a0a600460019054906101000a90046fffffffffffffffffffffffffffffffff16611f8f565b61210d565b9350839250600460019054906101000a90046fffffffffffffffffffffffffffffffff16610ccd61208a565b0191505b6000826fffffffffffffffffffffffffffffffff16141515610d8357610cf6826121b2565b15610d0b57610d048261221e565b9150610d7e565b610d1682600161209b565b9050610d788360016000846fffffffffffffffffffffffffffffffff166fffffffffffffffffffffffffffffffff16815260200190815260200160002060000160109054906101000a90046fffffffffffffffffffffffffffffffff1661209b565b92508091505b610cd1565b8294505050505090565b60026020528060005260406000206000915054906101000a90046fffffffffffffffffffffffffffffffff1681565b6000806000610dc96125fc565b6000809054906101000a900473ffffffffffffffffffffffffffffffffffffffff1673ffffffffffffffffffffffffffffffffffffffff163373ffffffffffffffffffffffffffffffffffffffff16141515610e8d576040517f08c379a000000000000000000000000000000000000000000000000000000000815260040180806020018281038252600e8152602001807f4e6f7420417574686f72697a656400000000000000000000000000000000000081525060200191505060405180910390fd5b600460009054906101000a900460ff16151515610f38576040517f08c379a00000000000000000000000000000000000000000000000000000000081526004018080602001828103825260278152602001807f4d6574686f64206f6e6c7920616c6c6f776564206265666f72652066696e616c81526020017f697a6174696f6e0000000000000000000000000000000000000000000000000081525060400191505060405180910390fd5b6000866fffffffffffffffffffffffffffffffff16111515610fe8576040517f08c379a00000000000000000000000000000000000000000000000000000000081526004018080602001828103825260228152602001807f476f747461206861766520736f6d657468696e6720746f20636f6e747269627581526020017f746500000000000000000000000000000000000000000000000000000000000081525060400191505060405180910390fd5b60006003600a0a6fffffffffffffffffffffffffffffffff16876fffffffffffffffffffffffffffffffff1681151561101d57fe5b066fffffffffffffffffffffffffffffffff161415156110cb576040517f08c379a000000000000000000000000000000000000000000000000000000000815260040180806020018281038252602b8152602001807f416d6f756e74206d75737420626520646976697369626c65206279206665652081526020017f64656e6f6d696e61746f7200000000000000000000000000000000000000000081525060400191505060405180910390fd5b6000856fffffffffffffffffffffffffffffffff161015801561111557506003600a0a6fffffffffffffffffffffffffffffffff16856fffffffffffffffffffffffffffffffff16105b1515611189576040517f08c379a00000000000000000000000000000000000000000000000000000000081526004018080602001828103825260108152602001807f426164206665654e756d657261746f720000000000000000000000000000000081525060200191505060405180910390fd5b6000600360008973ffffffffffffffffffffffffffffffffffffffff1673ffffffffffffffffffffffffffffffffffffffff16815260200190815260200160002060009054906101000a90046fffffffffffffffffffffffffffffffff166fffffffffffffffffffffffffffffffff161415156112ba576040517f08c379a00000000000000000000000000000000000000000000000000000000081526004018080602001828103825260418152602001807f4f6e652068617320746f2077697468647261772070726576696f757320636f6e81526020017f747269627574696f6e206265666f7265206d616b696e672061206e6577206f6e81526020017f650000000000000000000000000000000000000000000000000000000000000081525060600191505060405180910390fd5b85600360008973ffffffffffffffffffffffffffffffffffffffff1673ffffffffffffffffffffffffffffffffffffffff16815260200190815260200160002060006101000a8154816fffffffffffffffffffffffffffffffff02191690836fffffffffffffffffffffffffffffffff16021790555084600260008973ffffffffffffffffffffffffffffffffffffffff1673ffffffffffffffffffffffffffffffffffffffff16815260200190815260200160002060006101000a8154816fffffffffffffffffffffffffffffffff02191690836fffffffffffffffffffffffffffffffff1602179055506113c2866113b86003600a0a88611f8f565b6003600a0a611fcc565b93506113d386866003600a0a611fcc565b92506113e66113e061208a565b8661209b565b91505b60011561162b5760016000836fffffffffffffffffffffffffffffffff166fffffffffffffffffffffffffffffffff1681526020019081526020016000206040805190810160405290816000820160009054906101000a90046fffffffffffffffffffffffffffffffff166fffffffffffffffffffffffffffffffff166fffffffffffffffffffffffffffffffff1681526020016000820160109054906101000a90046fffffffffffffffffffffffffffffffff166fffffffffffffffffffffffffffffffff166fffffffffffffffffffffffffffffffff168152505090506114d681600001518561209b565b81600001906fffffffffffffffffffffffffffffffff1690816fffffffffffffffffffffffffffffffff168152505061151381602001518461209b565b81602001906fffffffffffffffffffffffffffffffff1690816fffffffffffffffffffffffffffffffff16815250508060016000846fffffffffffffffffffffffffffffffff166fffffffffffffffffffffffffffffffff16815260200190815260200160002060008201518160000160006101000a8154816fffffffffffffffffffffffffffffffff02191690836fffffffffffffffffffffffffffffffff16021790555060208201518160000160106101000a8154816fffffffffffffffffffffffffffffffff02191690836fffffffffffffffffffffffffffffffff1602179055509050506000826fffffffffffffffffffffffffffffffff16141561161b5761162b565b6116248261221e565b91506113e9565b5050935093915050565b60008060009054906101000a900473ffffffffffffffffffffffffffffffffffffffff16905090565b6000600460009054906101000a900460ff16905090565b60036020528060005260406000206000915054906101000a90046fffffffffffffffffffffffffffffffff1681565b6000809054906101000a900473ffffffffffffffffffffffffffffffffffffffff1673ffffffffffffffffffffffffffffffffffffffff163373ffffffffffffffffffffffffffffffffffffffff16141515611768576040517f08c379a000000000000000000000000000000000000000000000000000000000815260040180806020018281038252600e8152602001807f4e6f7420417574686f72697a656400000000000000000000000000000000000081525060200191505060405180910390fd5b600460009054906101000a900460ff16151515611813576040517f08c379a00000000000000000000000000000000000000000000000000000000081526004018080602001828103825260278152602001807f4d6574686f64206f6e6c7920616c6c6f776564206265666f72652066696e616c81526020017f697a6174696f6e0000000000000000000000000000000000000000000000000081525060400191505060405180910390fd5b6001600460006101000a81548160ff02191690831515021790555061183781612278565b60046001600560008491906101000a8154816fffffffffffffffffffffffffffffffff02191690836fffffffffffffffffffffffffffffffff1602179055508391906101000a8154816fffffffffffffffffffffffffffffffff02191690836fffffffffffffffffffffffffffffffff160217905550505050565b60008060008060006118c26125fc565b6000809054906101000a900473ffffffffffffffffffffffffffffffffffffffff1673ffffffffffffffffffffffffffffffffffffffff163373ffffffffffffffffffffffffffffffffffffffff16141515611986576040517f08c379a000000000000000000000000000000000000000000000000000000000815260040180806020018281038252600e8152602001807f4e6f7420417574686f72697a656400000000000000000000000000000000000081525060200191505060405180910390fd5b600460009054906101000a900460ff16151515611a31576040517f08c379a00000000000000000000000000000000000000000000000000000000081526004018080602001828103825260278152602001807f4d6574686f64206f6e6c7920616c6c6f776564206265666f72652066696e616c81526020017f697a6174696f6e0000000000000000000000000000000000000000000000000081525060400191505060405180910390fd5b600360008873ffffffffffffffffffffffffffffffffffffffff1673ffffffffffffffffffffffffffffffffffffffff16815260200190815260200160002060009054906101000a90046fffffffffffffffffffffffffffffffff1693506000600360008973ffffffffffffffffffffffffffffffffffffffff1673ffffffffffffffffffffffffffffffffffffffff16815260200190815260200160002060006101000a8154816fffffffffffffffffffffffffffffffff02191690836fffffffffffffffffffffffffffffffff160217905550600260008873ffffffffffffffffffffffffffffffffffffffff1673ffffffffffffffffffffffffffffffffffffffff16815260200190815260200160002060009054906101000a90046fffffffffffffffffffffffffffffffff169250611b8084611b766003600a0a86611f8f565b6003600a0a611fcc565b9550611b9184846003600a0a611fcc565b945082611b9c61208a565b0191505b600115611de25760016000836fffffffffffffffffffffffffffffffff166fffffffffffffffffffffffffffffffff1681526020019081526020016000206040805190810160405290816000820160009054906101000a90046fffffffffffffffffffffffffffffffff166fffffffffffffffffffffffffffffffff166fffffffffffffffffffffffffffffffff1681526020016000820160109054906101000a90046fffffffffffffffffffffffffffffffff166fffffffffffffffffffffffffffffffff166fffffffffffffffffffffffffffffffff16815250509050611c8d816000015187611f8f565b81600001906fffffffffffffffffffffffffffffffff1690816fffffffffffffffffffffffffffffffff1681525050611cca816020015186611f8f565b81602001906fffffffffffffffffffffffffffffffff1690816fffffffffffffffffffffffffffffffff16815250508060016000846fffffffffffffffffffffffffffffffff166fffffffffffffffffffffffffffffffff16815260200190815260200160002060008201518160000160006101000a8154816fffffffffffffffffffffffffffffffff02191690836fffffffffffffffffffffffffffffffff16021790555060208201518160000160106101000a8154816fffffffffffffffffffffffffffffffff02191690836fffffffffffffffffffffffffffffffff1602179055509050506000826fffffffffffffffffffffffffffffffff161415611dd257611de2565b611ddb8261221e565b9150611ba0565b50505050915091565b600381565b6000611dfa6125fc565b6001600084611e0761208a565b016fffffffffffffffffffffffffffffffff166fffffffffffffffffffffffffffffffff1681526020019081526020016000206040805190810160405290816000820160009054906101000a90046fffffffffffffffffffffffffffffffff166fffffffffffffffffffffffffffffffff166fffffffffffffffffffffffffffffffff1681526020016000820160109054906101000a90046fffffffffffffffffffffffffffffffff166fffffffffffffffffffffffffffffffff166fffffffffffffffffffffffffffffffff168152505090508060200151816000015101915050919050565b6003600a0a81565b6000809054906101000a900473ffffffffffffffffffffffffffffffffffffffff1681565b600460009054906101000a900460ff1681565b600a81565b60016020528060005260406000206000915090508060000160009054906101000a90046fffffffffffffffffffffffffffffffff16908060000160109054906101000a90046fffffffffffffffffffffffffffffffff16905082565b6000816fffffffffffffffffffffffffffffffff16836fffffffffffffffffffffffffffffffff1610151515611fc157fe5b818303905092915050565b6000806000806000806000876fffffffffffffffffffffffffffffffff16111515611ff357fe5b886fffffffffffffffffffffffffffffffff169450876fffffffffffffffffffffffffffffffff169350866fffffffffffffffffffffffffffffffff16925060008385870281151561204157fe5b0614151561204b57fe5b8284860281151561205857fe5b049150819050806fffffffffffffffffffffffffffffffff168214151561207b57fe5b80955050505050509392505050565b60006120966003612473565b905090565b6000808284019050836fffffffffffffffffffffffffffffffff16816fffffffffffffffffffffffffffffffff16101580156120fb5750826fffffffffffffffffffffffffffffffff16816fffffffffffffffffffffffffffffffff1610155b151561210357fe5b8091505092915050565b6000806000806000806000876fffffffffffffffffffffffffffffffff1611151561213457fe5b886fffffffffffffffffffffffffffffffff169450876fffffffffffffffffffffffffffffffff169350866fffffffffffffffffffffffffffffffff1692508284860281151561218057fe5b049150819050806fffffffffffffffffffffffffffffffff16821415156121a357fe5b80955050505050509392505050565b600080826fffffffffffffffffffffffffffffffff161115156121d157fe5b6000600a6fffffffffffffffffffffffffffffffff16836fffffffffffffffffffffffffffffffff1681151561220357fe5b066fffffffffffffffffffffffffffffffff16149050919050565b600080826fffffffffffffffffffffffffffffffff1611151561223d57fe5b600a6fffffffffffffffffffffffffffffffff16600183036fffffffffffffffffffffffffffffffff1681151561227057fe5b049050919050565b6000806000806000806000809450600091505b6001156123b45760016000866fffffffffffffffffffffffffffffffff166fffffffffffffffffffffffffffffffff16815260200190815260200160002060000160009054906101000a90046fffffffffffffffffffffffffffffffff1693506122f5828561209b565b9250876fffffffffffffffffffffffffffffffff16836fffffffffffffffffffffffffffffffff161115801561233e57506000856fffffffffffffffffffffffffffffffff1614155b8015612350575061234e8561250b565b155b1561236a57612360856001611f8f565b94508291506123af565b61237261208a565b6fffffffffffffffffffffffffffffffff16856fffffffffffffffffffffffffffffffff161015156123a3576123b4565b6123ac8561257a565b94505b61228b565b826fffffffffffffffffffffffffffffffff16886fffffffffffffffffffffffffffffffff1611156123e657826123e8565b875b9050816fffffffffffffffffffffffffffffffff16816fffffffffffffffffffffffffffffffff161015151561241a57fe5b61242b8561242661208a565b611f8f565b96506124378183611f8f565b9550836fffffffffffffffffffffffffffffffff16866fffffffffffffffffffffffffffffffff161115151561246957fe5b5050505050915091565b600080826fffffffffffffffffffffffffffffffff1614156124985760009050612506565b60036fffffffffffffffffffffffffffffffff16826fffffffffffffffffffffffffffffffff16111515156124c957fe5b6001600a036fffffffffffffffffffffffffffffffff16600183600a0a036fffffffffffffffffffffffffffffffff1681151561250257fe5b0490505b919050565b600080826fffffffffffffffffffffffffffffffff1611151561252a57fe5b6000600a6fffffffffffffffffffffffffffffffff16600184036fffffffffffffffffffffffffffffffff1681151561255f57fe5b066fffffffffffffffffffffffffffffffff16149050919050565b600061259161258a83600a612598565b600a61209b565b9050919050565b6000806000806000866fffffffffffffffffffffffffffffffff169350856fffffffffffffffffffffffffffffffff1692508284029150819050806fffffffffffffffffffffffffffffffff16821415156125ef57fe5b8094505050505092915050565b604080519081016040528060006fffffffffffffffffffffffffffffffff16815260200160006fffffffffffffffffffffffffffffffff16815250905600a165627a7a72305820f8daaaf86a785868d8117a46923462b4410b702ac5b3dc29e5a6c5f93fa402880029",
  "source": "pragma solidity ^0.4.24;\n\nimport \"./IAccounting.sol\";\n\n/**\n * Keeps track of all contributions, and calculates how much each contributor\n * is entitled to.\n *\n * Doesn't actually hold any funds, just keeps records.\n */\ncontract Accounting is IAccounting {\n  uint128 constant public TREE_DEPTH_EDGES = 3;\n  uint128 constant public TREE_SPLIT_WIDTH = 10;\n  uint128 constant public FEE_DENOMINATOR = TREE_SPLIT_WIDTH ** TREE_DEPTH_EDGES;\n  address public m_owner;\n\n  struct ContributionTreeNode {\n    uint128 usableFunds;\n    uint128 fee;\n  }\n\n  // tree is stored flattened in array, 1 element is root node, then\n  // TREE_SPLIT_WIDTH nodes are first layer, then TREE_SPLIT_WIDTH**2 edges\n  // are second layer and so on.\n  // root node represents total contribution, whereas\n  // last layer represents contribution for each individual fee numerator.\n  // This is used as array, but Solidity has trouble calculating size\n  // statically, so mapping will do\n  mapping(uint128 => ContributionTreeNode) public m_contributionTree;\n\n  // TODO: merge the following two into a struct\n  mapping(address => uint128) public m_feeNumeratorPerContributor;\n  mapping(address => uint128) public m_contributionPerContributor;\n\n  // populated at finalization\n  bool public m_isFinalized = false;\n  uint128 m_boundaryFeeNumerator;\n  uint128 m_fundsUsedFromBoundaryBucket;\n\n  constructor(address owner) public {\n    m_owner = owner;\n  }\n\n  modifier ownerOnly() {\n    require (msg.sender == m_owner, \"Not Authorized\");\n    _;\n  }\n\n  modifier beforeFinalizationOnly() {\n    require (!m_isFinalized, \"Method only allowed before finalization\");\n    _;\n  }\n\n  modifier afterFinalizationOnly() {\n    require (m_isFinalized, \"Method only allowed after finalization\");\n    _;\n  }\n\n  function getOwner() external view returns (address) {\n    return m_owner;\n  }\n\n  function totalNodesOnTopNLevels(uint128 n) internal pure returns (uint128) {\n    if (n == 0) {\n      return 0;\n    }\n    assert(n <= TREE_DEPTH_EDGES);\n    return (TREE_SPLIT_WIDTH ** n - 1) / (TREE_SPLIT_WIDTH - 1);\n  }\n\n  function getFirstLeafIndex() internal pure returns (uint128) {\n    return totalNodesOnTopNLevels(TREE_DEPTH_EDGES);\n  }\n\n  function nodeParent(uint128 node) internal pure returns (uint128) {\n    assert(node > 0);\n    return (node - 1) / TREE_SPLIT_WIDTH;\n  }\n\n  function nodeFirstChild(uint128 node) internal pure returns (uint128) {\n    return safeAdd(safeMul(node, TREE_SPLIT_WIDTH), 1);\n  }\n\n  function nodeLastChild(uint128 node) internal pure returns (uint128) {\n    return safeAdd(safeMul(node, TREE_SPLIT_WIDTH), TREE_SPLIT_WIDTH);\n  }\n\n  function nodeIsFirstChild(uint128 node) internal pure returns (bool) {\n    assert(node > 0);\n    return (node - 1) % TREE_SPLIT_WIDTH == 0;\n  }\n\n  function nodeIsLastChild(uint128 node) internal pure returns (bool) {\n    assert(node > 0);\n    return node % TREE_SPLIT_WIDTH == 0;\n  }\n\n  function contribute(\n    address contributor,\n    uint128 amount,\n    uint128 feeNumerator\n  ) external ownerOnly beforeFinalizationOnly returns (\n    uint128 depositedLessFees,\n    uint128 depositedFees\n  ) {\n    require(\n      amount > 0,\n      \"Gotta have something to contribute\"\n    );\n    require(\n      amount % FEE_DENOMINATOR == 0,\n      \"Amount must be divisible by fee denominator\"\n    );\n    require(\n      feeNumerator >= 0 && feeNumerator < FEE_DENOMINATOR,\n      \"Bad feeNumerator\"\n    );\n    require(\n      m_contributionPerContributor[contributor] == 0,\n      \"One has to withdraw previous contribution before making a new one\"\n    );\n\n    m_contributionPerContributor[contributor] = amount;\n    m_feeNumeratorPerContributor[contributor] = feeNumerator;\n\n    depositedLessFees = safeMulDivExact(\n      amount,\n      safeSub(FEE_DENOMINATOR, feeNumerator),\n      FEE_DENOMINATOR\n    );\n    depositedFees = safeMulDivExact(amount, feeNumerator, FEE_DENOMINATOR);\n\n    uint128 nodeIndex = safeAdd(getFirstLeafIndex(), feeNumerator);\n    // length of the loop is TREE_DEPTH_EDGES\n    while (true) {\n      ContributionTreeNode memory node = m_contributionTree[nodeIndex];\n      node.usableFunds = safeAdd(node.usableFunds, depositedLessFees);\n      node.fee = safeAdd(node.fee, depositedFees);\n      m_contributionTree[nodeIndex] = node;\n      if (nodeIndex == 0) {\n        break;\n      }\n      nodeIndex = nodeParent(nodeIndex);\n    }\n  }\n\n  function getContributedForFeeNumerator(\n    uint128 feeNumerator\n  ) external view returns (uint128) {\n    ContributionTreeNode memory node = m_contributionTree[\n      getFirstLeafIndex() + feeNumerator\n    ];\n    return node.usableFunds + node.fee;\n  }\n\n  function withdrawContribution(\n    address contributor\n  ) external ownerOnly beforeFinalizationOnly returns (\n    uint128 withdrawnLessFees,\n    uint128 withdrawnFees\n  ) {\n    uint128 amount = m_contributionPerContributor[contributor];\n    m_contributionPerContributor[contributor] = 0;\n    uint128 feeNumerator = m_feeNumeratorPerContributor[contributor];\n\n    withdrawnLessFees = safeMulDivExact(\n      amount,\n      safeSub(FEE_DENOMINATOR, feeNumerator),\n      FEE_DENOMINATOR\n    );\n    withdrawnFees = safeMulDivExact(amount, feeNumerator, FEE_DENOMINATOR);\n\n    uint128 nodeIndex = getFirstLeafIndex() + feeNumerator;\n    // length of the loop is TREE_DEPTH_EDGES\n    while (true) {\n      ContributionTreeNode memory node = m_contributionTree[nodeIndex];\n      node.usableFunds = safeSub(node.usableFunds, withdrawnLessFees);\n      node.fee = safeSub(node.fee, withdrawnFees);\n      m_contributionTree[nodeIndex] = node;\n      if (nodeIndex == 0) {\n        break;\n      }\n      nodeIndex = nodeParent(nodeIndex);\n    }\n  }\n\n  /**\n   * Someone may have sent us (by mistake or maliciously) extra dispute tokens.\n   * This is not fatal, but we need to be aware that amountDisputed may actually\n   * be greater than the REP contributed and not crash.\n   */\n  function finalize(uint128 amountDisputed) external ownerOnly beforeFinalizationOnly {\n    m_isFinalized = true;\n    (\n      m_boundaryFeeNumerator,\n      m_fundsUsedFromBoundaryBucket\n    ) = findBoundaryBucketForAmountDisputed(amountDisputed);\n  }\n\n  function isFinalized() external view returns (bool) {\n    return m_isFinalized;\n  }\n\n  /**\n   * Finds such lowest fee bucket, that all buckets with fee higher than that\n   * were fully included in the dispute. From that will also follow that none\n   * of the funds from buckets with fee lower than that were included in the\n   * dispute.\n   *\n   * Also calculates how much funds from the boundary bucket were included in\n   * the dispute (normally current bucket participated partially).\n   *\n   * The returned index will always be a valid feeNumerator.\n   */\n  function findBoundaryBucketForAmountDisputed(\n    uint128 amountDisputed\n  ) internal view returns (uint128 feeNumerator, uint128 fundsUsedFromBoundaryBucket) {\n    uint128 tentativeBoundaryBucketNode = 0; // start from root node\n    uint128 usableFundsInCurrentBucket;\n    uint128 usableFundsWithCurrentBucket;\n    uint128 usableFundsInBucketsWithHigherFee = 0;\n\n    // length of the loop is TREE_DEPTH_EDGES * TREE_SPLIT_WIDTH\n    // we descend the tree from root node, at each step moving one step left or\n    // into last child\n    while (true) {\n      usableFundsInCurrentBucket = m_contributionTree[\n        tentativeBoundaryBucketNode\n      ].usableFunds;\n      usableFundsWithCurrentBucket = safeAdd(\n        usableFundsInBucketsWithHigherFee,\n        usableFundsInCurrentBucket\n      );\n\n      if (\n        usableFundsWithCurrentBucket <= amountDisputed &&\n        tentativeBoundaryBucketNode != 0 &&\n        !nodeIsFirstChild(tentativeBoundaryBucketNode)\n      ) {\n        // This subtree has fully dusputed, proceed to sibling with lower fee.\n        tentativeBoundaryBucketNode = safeSub(tentativeBoundaryBucketNode, 1);\n        usableFundsInBucketsWithHigherFee = usableFundsWithCurrentBucket;\n      } else {\n        // This subtree has NOT fully disputed, or it has no siblings\n        // with lower fee.\n        if (tentativeBoundaryBucketNode >= getFirstLeafIndex()) {\n          // we descended into a leaf\n          break;\n        } else {\n          // Descend into last child\n          tentativeBoundaryBucketNode = nodeLastChild(tentativeBoundaryBucketNode);\n        }\n      }\n    }\n\n    // this is needed to protect against corner cases if someone sent dispute\n    // tokens into this contract directly in excess from what contributors funded\n    uint128 cappedAmountDisputed = amountDisputed <= usableFundsWithCurrentBucket\n      ? amountDisputed\n      : usableFundsWithCurrentBucket;\n\n    assert(cappedAmountDisputed >= usableFundsInBucketsWithHigherFee);\n\n    feeNumerator = safeSub(tentativeBoundaryBucketNode, getFirstLeafIndex());\n    fundsUsedFromBoundaryBucket = safeSub(\n      cappedAmountDisputed,\n      usableFundsInBucketsWithHigherFee\n    );\n    assert(fundsUsedFromBoundaryBucket <= usableFundsInCurrentBucket);\n  }\n\n  function safeAdd(uint128 a, uint128 b) internal pure returns (uint128) {\n    uint128 r = a + b;\n    assert(r >= a && r >= b);\n    return r;\n  }\n\n  function safeSub(uint128 a, uint128 b) internal pure returns (uint128) {\n    assert(a >= b);\n    return a - b;\n  }\n\n  function safeMul(uint128 a, uint128 b) internal pure returns (uint128) {\n    uint256 wa = a;\n    uint256 wb = b;\n\n    uint256 result = wa * wb;\n    uint128 result128 = uint128(result);\n\n    assert(result == result128);\n    return result128;\n  }\n\n  function safeMulDiv(uint128 a, uint128 b, uint128 c) internal pure returns (uint128) {\n    assert(c > 0);\n    uint256 wa = a;\n    uint256 wb = b;\n    uint256 wc = c;\n\n    uint256 result = wa * wb / wc;\n    uint128 result128 = uint128(result);\n\n    assert(result == result128);\n    return result128;\n  }\n\n  function safeMulDivExact(uint128 a, uint128 b, uint128 c) internal pure returns (uint128) {\n    assert(c > 0);\n    uint256 wa = a;\n    uint256 wb = b;\n    uint256 wc = c;\n\n    assert((wa * wb) % wc == 0);\n    uint256 result = wa * wb / wc;\n    uint128 result128 = uint128(result);\n\n    assert(result == result128);\n    return result128;\n  }\n\n  /**\n   * Return value is how much REP and dispute tokens the contributor is entitled to.\n   *\n   * Does not change the state, as accounting is finalized at that moment.\n   *\n   * In case of partial fill, we round down, leaving some dust in the contract.\n   */\n  function calculateProceeds(\n    address contributor\n  ) external afterFinalizationOnly view returns (uint128 rep, uint128 disputeTokens) {\n    uint128 contributorFeeNumerator = m_feeNumeratorPerContributor[contributor];\n    uint128 originalContributionOfContributor = m_contributionPerContributor[contributor];\n\n    if (originalContributionOfContributor == 0) {\n      return (0, 0);\n    }\n\n    if (contributorFeeNumerator < m_boundaryFeeNumerator) {\n      // this contributor didn't make it into dispute round, just refund REP\n      rep = originalContributionOfContributor;\n      disputeTokens = 0;\n    } else if (contributorFeeNumerator > m_boundaryFeeNumerator) {\n      // this contributor fully got into dispute round, award dispute tokens\n      // while subtracting fee\n      rep = 0;\n      disputeTokens = safeMulDivExact(\n        originalContributionOfContributor,\n        safeSub(FEE_DENOMINATOR, contributorFeeNumerator),\n        FEE_DENOMINATOR\n      );\n    } else {\n      assert(contributorFeeNumerator == m_boundaryFeeNumerator);\n      // most complex case, contributor partially got into dispute rounds\n      uint128 usableFundsContributedInBucket = m_contributionTree[\n        safeAdd(getFirstLeafIndex(), contributorFeeNumerator)\n      ].usableFunds;\n      // assertion gotta be true because contributor admittedly did some\n      // contribution\n      assert(usableFundsContributedInBucket > 0);\n      uint128 fundsUsedInBucket = m_fundsUsedFromBoundaryBucket;\n      assert(fundsUsedInBucket <= usableFundsContributedInBucket);\n\n      // award dispute tokens proportionally, less fee\n      disputeTokens = safeMulDiv(\n        safeMulDivExact(\n          originalContributionOfContributor,\n          safeSub(FEE_DENOMINATOR, contributorFeeNumerator),\n          FEE_DENOMINATOR\n        ),\n        fundsUsedInBucket,\n        usableFundsContributedInBucket\n      );\n      // refund rep for the rest\n      rep = safeMulDiv(\n        originalContributionOfContributor,\n        safeSub(usableFundsContributedInBucket, fundsUsedInBucket),\n        usableFundsContributedInBucket\n      );\n    }\n  }\n\n  /**\n   * Calculate fee that will be split between contract admin and\n   * account that triggered dispute transaction.\n   *\n   * In case of partial fill, we round down, leaving some dust in the contract.\n   */\n  function calculateFees() external afterFinalizationOnly view returns (uint128) {\n    uint128 feesFromBoundaryBucket = safeMulDiv(\n      m_fundsUsedFromBoundaryBucket,\n      m_boundaryFeeNumerator,\n      safeSub(FEE_DENOMINATOR, m_boundaryFeeNumerator)\n    );\n\n    uint128 totalFees = feesFromBoundaryBucket;\n    uint128 previouslyProcessedNode = getFirstLeafIndex() + m_boundaryFeeNumerator;\n\n    // iterate over buckets that have fully participated\n    // length of the loop is TREE_DEPTH_EDGES * TREE_SPLIT_WIDTH\n    while (previouslyProcessedNode != 0) {\n      if (nodeIsLastChild(previouslyProcessedNode)) {\n        // we processed all children of some parent\n        // in other words, we processed the whole subtree of that parent, go up\n        previouslyProcessedNode = nodeParent(previouslyProcessedNode);\n      } else {\n        // we can collect fee from child with slightly higher fee\n        uint128 nodeIndex = safeAdd(previouslyProcessedNode, 1);\n        totalFees = safeAdd(\n          totalFees,\n          m_contributionTree[nodeIndex].fee\n        );\n        previouslyProcessedNode = nodeIndex;\n      }\n    }\n\n    return totalFees;\n  }\n}\n",
  "sourcePath": "/src/contracts/Accounting.sol",
  "compiler": {
    "name": "solc",
    "version": "0.4.24+commit.e67f0147.Emscripten.clang"
  },
  "schemaVersion": "2.0.1",
  "updatedAt": "2018-11-01T00:44:05.480Z"
}