{
  "contractName": "Accounting",
  "abi": [
    {
      "constant": true,
      "inputs": [],
      "name": "m_fundsUsedFromBoundaryBucket",
      "outputs": [
        {
          "name": "",
          "type": "uint128"
        }
      ],
      "payable": false,
      "stateMutability": "view",
      "type": "function"
    },
    {
      "constant": true,
      "inputs": [],
      "name": "m_boundaryFeeNumerator",
      "outputs": [
        {
          "name": "",
          "type": "uint128"
        }
      ],
      "payable": false,
      "stateMutability": "view",
      "type": "function"
    },
    {
      "constant": true,
      "inputs": [],
      "name": "m_fundsUsed",
      "outputs": [
        {
          "name": "",
          "type": "uint128"
        }
      ],
      "payable": false,
      "stateMutability": "view",
      "type": "function"
    },
    {
      "constant": true,
      "inputs": [
        {
          "name": "",
          "type": "uint256"
        }
      ],
      "name": "m_contributionPerFeeNumerator",
      "outputs": [
        {
          "name": "",
          "type": "uint128"
        }
      ],
      "payable": false,
      "stateMutability": "view",
      "type": "function"
    },
    {
      "constant": true,
      "inputs": [
        {
          "name": "",
          "type": "address"
        }
      ],
      "name": "m_feeNumeratorPerContributor",
      "outputs": [
        {
          "name": "",
          "type": "uint128"
        }
      ],
      "payable": false,
      "stateMutability": "view",
      "type": "function"
    },
    {
      "constant": true,
      "inputs": [
        {
          "name": "",
          "type": "address"
        }
      ],
      "name": "m_contributionPerContributor",
      "outputs": [
        {
          "name": "",
          "type": "uint128"
        }
      ],
      "payable": false,
      "stateMutability": "view",
      "type": "function"
    },
    {
      "constant": true,
      "inputs": [],
      "name": "FEE_DENOMINATOR",
      "outputs": [
        {
          "name": "",
          "type": "uint128"
        }
      ],
      "payable": false,
      "stateMutability": "view",
      "type": "function"
    },
    {
      "constant": true,
      "inputs": [],
      "name": "m_owner",
      "outputs": [
        {
          "name": "",
          "type": "address"
        }
      ],
      "payable": false,
      "stateMutability": "view",
      "type": "function"
    },
    {
      "constant": true,
      "inputs": [],
      "name": "m_isFinalized",
      "outputs": [
        {
          "name": "",
          "type": "bool"
        }
      ],
      "payable": false,
      "stateMutability": "view",
      "type": "function"
    },
    {
      "inputs": [
        {
          "name": "owner",
          "type": "address"
        }
      ],
      "payable": false,
      "stateMutability": "nonpayable",
      "type": "constructor"
    },
    {
      "constant": false,
      "inputs": [
        {
          "name": "contributor",
          "type": "address"
        },
        {
          "name": "amount",
          "type": "uint128"
        },
        {
          "name": "feeNumerator",
          "type": "uint128"
        }
      ],
      "name": "contribute",
      "outputs": [
        {
          "name": "depositedLessFees",
          "type": "uint128"
        },
        {
          "name": "depositedFees",
          "type": "uint128"
        }
      ],
      "payable": false,
      "stateMutability": "nonpayable",
      "type": "function"
    },
    {
      "constant": false,
      "inputs": [
        {
          "name": "contributor",
          "type": "address"
        }
      ],
      "name": "withdrawContribution",
      "outputs": [
        {
          "name": "withdrawnLessFees",
          "type": "uint128"
        },
        {
          "name": "withdrawnFees",
          "type": "uint128"
        }
      ],
      "payable": false,
      "stateMutability": "nonpayable",
      "type": "function"
    },
    {
      "constant": false,
      "inputs": [
        {
          "name": "amountDisputed",
          "type": "uint128"
        }
      ],
      "name": "finalize",
      "outputs": [],
      "payable": false,
      "stateMutability": "nonpayable",
      "type": "function"
    },
    {
      "constant": true,
      "inputs": [],
      "name": "getTotalContribution",
      "outputs": [
        {
          "name": "",
          "type": "uint256"
        }
      ],
      "payable": false,
      "stateMutability": "view",
      "type": "function"
    },
    {
      "constant": true,
      "inputs": [],
      "name": "getTotalFeesOffered",
      "outputs": [
        {
          "name": "",
          "type": "uint256"
        }
      ],
      "payable": false,
      "stateMutability": "view",
      "type": "function"
    },
    {
      "constant": true,
      "inputs": [
        {
          "name": "amountDisputed",
          "type": "uint128"
        }
      ],
      "name": "getProjectedFee",
      "outputs": [
        {
          "name": "feeNumerator",
          "type": "uint128"
        },
        {
          "name": "fundsUsedFromBoundaryBucket",
          "type": "uint128"
        }
      ],
      "payable": false,
      "stateMutability": "view",
      "type": "function"
    },
    {
      "constant": true,
      "inputs": [],
      "name": "getOwner",
      "outputs": [
        {
          "name": "",
          "type": "address"
        }
      ],
      "payable": false,
      "stateMutability": "view",
      "type": "function"
    },
    {
      "constant": true,
      "inputs": [],
      "name": "isFinalized",
      "outputs": [
        {
          "name": "",
          "type": "bool"
        }
      ],
      "payable": false,
      "stateMutability": "view",
      "type": "function"
    },
    {
      "constant": true,
      "inputs": [
        {
          "name": "contributor",
          "type": "address"
        }
      ],
      "name": "calculateProceeds",
      "outputs": [
        {
          "name": "rep",
          "type": "uint128"
        },
        {
          "name": "disputeTokens",
          "type": "uint128"
        }
      ],
      "payable": false,
      "stateMutability": "view",
      "type": "function"
    },
    {
      "constant": true,
      "inputs": [],
      "name": "calculateFees",
      "outputs": [
        {
          "name": "",
          "type": "uint128"
        }
      ],
      "payable": false,
      "stateMutability": "view",
      "type": "function"
    },
    {
      "constant": true,
      "inputs": [
        {
          "name": "amount",
          "type": "uint128"
        },
        {
          "name": "feeNumerator",
          "type": "uint128"
        }
      ],
      "name": "addFeesOnTop",
      "outputs": [
        {
          "name": "",
          "type": "uint128"
        }
      ],
      "payable": false,
      "stateMutability": "pure",
      "type": "function"
    }
  ],
  "bytecode": "0x60806040526101f8805460ff1916905534801561001b57600080fd5b5060405160208061126a833981016040525160008054600160a060020a03909216600160a060020a031990921691909117905561120d8061005d6000396000f3006080604052600436106101115763ffffffff7c010000000000000000000000000000000000000000000000000000000060003504166308caa91081146101165780631230dc131461013d578063228c4a511461016e57806328d21f92146101835780632ec75523146101ca57806354c67330146101df5780635edfa1f81461020057806368707ce11461021557806377a39a3d1461022d57806378cacd6e1461024e578063893d20e8146102815780638d4e4083146102b25780638f86c59c146102db578063925025ba146102f05780639826655014610311578063a35c470914610334578063d73792a914610355578063deff41c11461036a578063dfe29a861461037f578063e0dd81f814610394575b600080fd5b34801561012257600080fd5b5061012b6103bb565b60408051918252519081900360200190f35b34801561014957600080fd5b506101526103ca565b604080516001608060020a039092168252519081900360200190f35b34801561017a57600080fd5b506101526103e1565b34801561018f57600080fd5b506101a4600160a060020a03600435166103f1565b604080516001608060020a03938416815291909216602082015281519081900390910190f35b3480156101d657600080fd5b506101526105ef565b3480156101eb57600080fd5b506101a46001608060020a0360043516610604565b34801561020c57600080fd5b5061015261061a565b34801561022157600080fd5b506101526004356106cb565b34801561023957600080fd5b50610152600160a060020a03600435166106fc565b34801561025a57600080fd5b506101a4600160a060020a03600435166001608060020a0360243581169060443516610718565b34801561028d57600080fd5b50610296610bb6565b60408051600160a060020a039092168252519081900360200190f35b3480156102be57600080fd5b506102c7610bc5565b604080519115158252519081900360200190f35b3480156102e757600080fd5b5061012b610bcf565b3480156102fc57600080fd5b50610152600160a060020a0360043516610be5565b34801561031d57600080fd5b506103326001608060020a0360043516610c01565b005b34801561034057600080fd5b506101a4600160a060020a0360043516610d59565b34801561036157600080fd5b50610152610f9a565b34801561037657600080fd5b50610296610fa0565b34801561038b57600080fd5b506102c7610faf565b3480156103a057600080fd5b506101526001608060020a0360043581169060243516610fb9565b6001546001608060020a031690565b6101f954608060020a90046001608060020a031681565b6101f9546001608060020a031681565b6101f8546000908190819081908190819060ff161515610481576040805160e560020a62461bcd02815260206004820152602660248201527f4d6574686f64206f6e6c7920616c6c6f7765642061667465722066696e616c6960448201527f7a6174696f6e0000000000000000000000000000000000000000000000000000606482015290519081900360840190fd5b600160a060020a03871660009081526101f660209081526040808320546101f7909252909120546001608060020a0391821695501692508215156104cb57600095508594506105e6565b6101f9546001608060020a0390811690851610156104f857600094506104f18385610fb9565b95506105e6565b6101f9546001608060020a03908116908516111561053b576101f95492945084926104f19084906105339087906001608060020a0316610fd2565b6103e8610ff0565b6101f9546001608060020a0385811691161461055357fe5b60026001608060020a0385166103e8811061056a57fe5b60028104919091015460019091166010026101000a90046001608060020a031691506000821161059657fe5b506101f9546001608060020a03608060020a90910481169082168111156105b957fe5b6105c4838284611073565b94506105e36105d38486610fb9565b6105dd8484610fd2565b84611073565b95505b50505050915091565b6101f85461010090046001608060020a031681565b600080610610836110bd565b9094909350915050565b6101f85460009060ff1615156106a0576040805160e560020a62461bcd02815260206004820152602660248201527f4d6574686f64206f6e6c7920616c6c6f7765642061667465722066696e616c6960448201527f7a6174696f6e0000000000000000000000000000000000000000000000000000606482015290519081900360840190fd5b6101f8546101f9546106c6916001608060020a03610100909104811691166103e8611073565b905090565b6002816103e881106106d957fe5b60029182820401919006601002915054906101000a90046001608060020a031681565b6101f6602052600090815260409020546001608060020a031681565b6000805481908190600160a060020a0316331461077f576040805160e560020a62461bcd02815260206004820152600e60248201527f4e6f7420417574686f72697a6564000000000000000000000000000000000000604482015290519081900360640190fd5b6101f85460ff1615610801576040805160e560020a62461bcd02815260206004820152602760248201527f4d6574686f64206f6e6c7920616c6c6f776564206265666f72652066696e616c60448201527f697a6174696f6e00000000000000000000000000000000000000000000000000606482015290519081900360840190fd5b60006001608060020a03861611610888576040805160e560020a62461bcd02815260206004820152602260248201527f476f747461206861766520736f6d657468696e6720746f20636f6e747269627560448201527f7465000000000000000000000000000000000000000000000000000000000000606482015290519081900360840190fd5b6103e86001608060020a038616066001608060020a03161561091a576040805160e560020a62461bcd02815260206004820152602b60248201527f416d6f756e74206d75737420626520646976697369626c65206279206665652060448201527f64656e6f6d696e61746f72000000000000000000000000000000000000000000606482015290519081900360840190fd5b6000846001608060020a03161015801561093e57506103e86001608060020a038516105b1515610994576040805160e560020a62461bcd02815260206004820152601060248201527f426164206665654e756d657261746f7200000000000000000000000000000000604482015290519081900360640190fd5b600160a060020a03861660009081526101f760205260409020546001608060020a031615610a58576040805160e560020a62461bcd02815260206004820152604160248201527f4f6e652068617320746f2077697468647261772070726576696f757320636f6e60448201527f747269627574696f6e206265666f7265206d616b696e672061206e6577206f6e60648201527f6500000000000000000000000000000000000000000000000000000000000000608482015290519081900360a40190fd5b600160a060020a03861660009081526101f76020908152604080832080546001608060020a03808b166fffffffffffffffffffffffffffffffff19928316179092556101f6909352922080549287169290911682179055610ae6906002906103e88110610ac157fe5b600291828204019190066010029054906101000a90046001608060020a0316866111c6565b60026001608060020a0386166103e88110610afd57fe5b600291828204019190066010026101000a8154816001608060020a0302191690836001608060020a03160217905550610b3985856103e8610ff0565b600154909150610b52906001608060020a0316866111c6565b600180546fffffffffffffffffffffffffffffffff19166001608060020a039283161790819055610b8c91608060020a90910416826111c6565b600180546001608060020a03928316608060020a0292169190911790558492509050935093915050565b600054600160a060020a031690565b6101f85460ff1690565b600154608060020a90046001608060020a031690565b6101f7602052600090815260409020546001608060020a031681565b600054600160a060020a03163314610c63576040805160e560020a62461bcd02815260206004820152600e60248201527f4e6f7420417574686f72697a6564000000000000000000000000000000000000604482015290519081900360640190fd5b6101f85460ff1615610ce5576040805160e560020a62461bcd02815260206004820152602760248201527f4d6574686f64206f6e6c7920616c6c6f776564206265666f72652066696e616c60448201527f697a6174696f6e00000000000000000000000000000000000000000000000000606482015290519081900360840190fd5b6101f88054600160ff199091161770ffffffffffffffffffffffffffffffff0019166101006001608060020a03841602179055610d21816110bd565b6101f980546001608060020a03938416928416608060020a029316929092176fffffffffffffffffffffffffffffffff191617905550565b600080548190819081908190600160a060020a03163314610dc4576040805160e560020a62461bcd02815260206004820152600e60248201527f4e6f7420417574686f72697a6564000000000000000000000000000000000000604482015290519081900360640190fd5b6101f85460ff1615610e46576040805160e560020a62461bcd02815260206004820152602760248201527f4d6574686f64206f6e6c7920616c6c6f776564206265666f72652066696e616c60448201527f697a6174696f6e00000000000000000000000000000000000000000000000000606482015290519081900360840190fd5b600160a060020a03861660009081526101f76020908152604080832080546fffffffffffffffffffffffffffffffff1981169091556101f6909252909120546001608060020a039182169450169150610ecb6002836103e88110610ea657fe5b600291828204019190066010029054906101000a90046001608060020a031684610fd2565b60026001608060020a0384166103e88110610ee257fe5b600291828204019190066010026101000a8154816001608060020a0302191690836001608060020a03160217905550610f1e83836103e8610ff0565b600154909150610f37906001608060020a031684610fd2565b600180546fffffffffffffffffffffffffffffffff19166001608060020a039283161790819055610f7191608060020a9091041682610fd2565b600180546001608060020a03928316608060020a02921691909117905591959194509092505050565b6103e881565b600054600160a060020a031681565b6101f85460ff1681565b6000610fcb836105336103e8856111c6565b9392505050565b60006001608060020a038083169084161015610fea57fe5b50900390565b600080808080806001608060020a038716811061100957fe5b886001608060020a03169450876001608060020a03169350866001608060020a031692508284860281151561103a57fe5b061561104257fe5b8284860281151561104f57fe5b0491508190506001608060020a038116811461106757fe5b98975050505050505050565b600080808080806001608060020a038716811061108c57fe5b886001608060020a03169450876001608060020a03169350866001608060020a031692508284860281151561104f57fe5b6000806103e8818080806001608060020a0388168111156110da57fe5b6000856001608060020a03161180156111055750876001608060020a0316836001608060020a031611155b1561115d576000199094019382915060026001608060020a0386166103e8811061112b57fe5b600291828204019190066010029054906101000a90046001608060020a0316935061115682856111c6565b92506110da565b826001608060020a0316886001608060020a0316111561117d578261117f565b875b90506001608060020a03808316908216101561119757fe5b8496506111a48183610fd2565b95506001608060020a0380851690871611156111bc57fe5b5050505050915091565b60008282016001608060020a038085169082161015610fcb57fe00a165627a7a72305820bec17e25b1964df89adae557d27bbff6a29a289b35b0bade43426ae97b601be80029",
  "source": "pragma solidity 0.4.24;\n\nimport \"./IAccounting.sol\";\n\n/**\n * Keeps track of all contributions, and calculates how much each contributor\n * is entitled to.\n *\n * Doesn't actually hold any funds, just keeps records.\n */\ncontract Accounting is IAccounting {\n  uint128 public constant FEE_DENOMINATOR = 1000;\n  address public m_owner;\n\n  uint128 private m_totalContribution;\n  uint128 private m_totalFeesOffered;\n  uint128[FEE_DENOMINATOR] public m_contributionPerFeeNumerator;\n  mapping(address => uint128) public m_feeNumeratorPerContributor;\n  mapping(address => uint128) public m_contributionPerContributor;\n\n  // populated at finalization\n  bool public m_isFinalized = false;\n  uint128 public m_fundsUsed;\n  uint128 public m_boundaryFeeNumerator;\n  uint128 public m_fundsUsedFromBoundaryBucket;\n\n  constructor(address owner) public {\n    m_owner = owner;\n  }\n\n  modifier ownerOnly() {\n    require(msg.sender == m_owner, \"Not Authorized\");\n    _;\n  }\n\n  modifier beforeFinalizationOnly() {\n    require(!m_isFinalized, \"Method only allowed before finalization\");\n    _;\n  }\n\n  modifier afterFinalizationOnly() {\n    require(m_isFinalized, \"Method only allowed after finalization\");\n    _;\n  }\n\n  function contribute(\n    address contributor,\n    uint128 amount,\n    uint128 feeNumerator\n  ) external ownerOnly beforeFinalizationOnly returns(\n    uint128 depositedLessFees,\n    uint128 depositedFees\n  ) {\n    require(amount > 0, \"Gotta have something to contribute\");\n    require(\n      amount % FEE_DENOMINATOR == 0,\n      \"Amount must be divisible by fee denominator\"\n    );\n    require(\n      feeNumerator >= 0 && feeNumerator < FEE_DENOMINATOR,\n      \"Bad feeNumerator\"\n    );\n    require(\n      m_contributionPerContributor[contributor] == 0,\n      \"One has to withdraw previous contribution before making a new one\"\n    );\n\n    m_contributionPerContributor[contributor] = amount;\n    m_feeNumeratorPerContributor[contributor] = feeNumerator;\n    m_contributionPerFeeNumerator[feeNumerator] = safeAdd(\n      m_contributionPerFeeNumerator[feeNumerator],\n      amount\n    );\n\n    uint128 feeAmount = safeMulDivExact(amount, feeNumerator, FEE_DENOMINATOR);\n\n    m_totalContribution = safeAdd(m_totalContribution, amount);\n    m_totalFeesOffered = safeAdd(m_totalFeesOffered, feeAmount);\n\n    return (amount, feeAmount);\n  }\n\n  function withdrawContribution(\n    address contributor\n  ) external ownerOnly beforeFinalizationOnly returns(\n    uint128 withdrawnLessFees,\n    uint128 withdrawnFees\n  ) {\n    uint128 amount = m_contributionPerContributor[contributor];\n\n    m_contributionPerContributor[contributor] = 0;\n\n    uint128 feeNumerator = m_feeNumeratorPerContributor[contributor];\n    m_contributionPerFeeNumerator[feeNumerator] = safeSub(\n      m_contributionPerFeeNumerator[feeNumerator],\n      amount\n    );\n\n    uint128 feeAmount = safeMulDivExact(amount, feeNumerator, FEE_DENOMINATOR);\n\n    m_totalContribution = safeSub(m_totalContribution, amount);\n    m_totalFeesOffered = safeSub(m_totalFeesOffered, feeAmount);\n\n    return (amount, feeAmount);\n  }\n\n  /**\n   * Someone may have sent us (by mistake or maliciously) extra dispute tokens.\n   * This is not fatal, but we need to be aware that amountDisputed may actually\n   * be greater than the REP contributed and not crash.\n   */\n  function finalize(\n    uint128 amountDisputed\n  ) external ownerOnly beforeFinalizationOnly {\n    m_isFinalized = true;\n    m_fundsUsed = amountDisputed;\n    (m_boundaryFeeNumerator, m_fundsUsedFromBoundaryBucket) = findBoundaryBucketForAmountDisputed(\n      amountDisputed\n    );\n  }\n\n  function getTotalContribution() external view returns(uint256) {\n    return m_totalContribution;\n  }\n\n  function getTotalFeesOffered() external view returns(uint256) {\n    return m_totalFeesOffered;\n  }\n\n  function getProjectedFee(uint128 amountDisputed) external view returns(\n    uint128 feeNumerator,\n    uint128 fundsUsedFromBoundaryBucket\n  ) {\n    (feeNumerator, fundsUsedFromBoundaryBucket) = findBoundaryBucketForAmountDisputed(\n      amountDisputed\n    );\n  }\n\n  function getOwner() external view returns(address) {\n    return m_owner;\n  }\n\n  function isFinalized() external view returns(bool) {\n    return m_isFinalized;\n  }\n\n  /**\n   * Return value is how much REP and dispute tokens the contributor is entitled to.\n   *\n   * Does not change the state, as accounting is finalized at that moment.\n   *\n   * In case of partial fill, we round down, leaving some dust in the contract.\n   */\n  function calculateProceeds(\n    address contributor\n  ) external view afterFinalizationOnly returns(\n    uint128 rep,\n    uint128 disputeTokens\n  ) {\n    uint128 contributorFeeNumerator = m_feeNumeratorPerContributor[contributor];\n    uint128 originalContributionOfContributor = m_contributionPerContributor[contributor];\n\n    if (originalContributionOfContributor == 0) {\n      return (0, 0);\n    }\n\n    if (contributorFeeNumerator < m_boundaryFeeNumerator) {\n      // this contributor didn't make it into dispute round,\n      // just refund their contribution with prepaid fees\n      disputeTokens = 0;\n      rep = addFeesOnTop(\n        originalContributionOfContributor,\n        contributorFeeNumerator\n      );\n    } else if (contributorFeeNumerator > m_boundaryFeeNumerator) {\n      // this contributor fully got into dispute round,\n      // give them dispute tokens in full, and refund unused portion of fee\n      disputeTokens = originalContributionOfContributor;\n      rep = safeMulDivExact(\n        originalContributionOfContributor,\n        safeSub(contributorFeeNumerator, m_boundaryFeeNumerator),\n        FEE_DENOMINATOR\n      );\n    } else {\n      assert(contributorFeeNumerator == m_boundaryFeeNumerator);\n      // most complex case, contributor partially got into dispute rounds\n      uint128 usableFundsContributedInBucket = m_contributionPerFeeNumerator[contributorFeeNumerator];\n      // assertion gotta be true because contributor admittedly did some\n      // contribution\n      assert(usableFundsContributedInBucket > 0);\n      uint128 fundsUsedInBucket = m_fundsUsedFromBoundaryBucket;\n      assert(fundsUsedInBucket <= usableFundsContributedInBucket);\n\n      // award dispute tokens pro rata\n      disputeTokens = safeMulDiv(\n        originalContributionOfContributor,\n        fundsUsedInBucket,\n        usableFundsContributedInBucket\n      );\n      // refund rep for the unused portion of contribution + fees\n      rep = safeMulDiv(\n        addFeesOnTop(\n          originalContributionOfContributor,\n          contributorFeeNumerator\n        ),\n        safeSub(usableFundsContributedInBucket, fundsUsedInBucket),\n        usableFundsContributedInBucket\n      );\n    }\n  }\n\n  /**\n   * Calculate fee that will be split between contract admin and\n   * account that triggered dispute transaction.\n   *\n   * In case of partial fill, we round down, leaving some dust in the contract.\n   */\n  function calculateFees() external view afterFinalizationOnly returns(\n    uint128\n  ) {\n    return safeMulDiv(m_fundsUsed, m_boundaryFeeNumerator, FEE_DENOMINATOR);\n  }\n\n  function addFeesOnTop(\n    uint128 amount,\n    uint128 feeNumerator\n  ) public pure returns(uint128) {\n    return safeMulDivExact(\n      amount,\n      safeAdd(FEE_DENOMINATOR, feeNumerator),\n      FEE_DENOMINATOR\n    );\n  }\n\n  /**\n   * Finds such lowest fee bucket, that all buckets with fee higher than that\n   * were fully included in the dispute. From that will also follow that none\n   * of the funds from buckets with fee lower than that were included in the\n   * dispute.\n   *\n   * Also calculates how much funds from the boundary bucket were included in\n   * the dispute (normally current bucket participated partially).\n   *\n   * The returned index will always be a valid feeNumerator.\n   */\n  function findBoundaryBucketForAmountDisputed(\n    uint128 amountDisputed\n  ) internal view returns(\n    uint128 feeNumerator,\n    uint128 fundsUsedFromBoundaryBucket\n  ) {\n    // initialize with one-past-last bucket; loop will do at least one iteration\n    uint128 tentativeBoundaryBucket = FEE_DENOMINATOR;\n    uint128 usableFundsInCurrentBucket;\n    uint128 usableFundsWithCurrentBucket = 0;\n    uint128 usableFundsInBucketsWithHigherFee;\n\n    // length of the loop constrained by constant FEE_DENOMINATOR\n    assert(\n      tentativeBoundaryBucket > 0 && usableFundsWithCurrentBucket <= amountDisputed\n    );\n    while (tentativeBoundaryBucket > 0 && usableFundsWithCurrentBucket <= amountDisputed) {\n      tentativeBoundaryBucket -= 1;\n      usableFundsInBucketsWithHigherFee = usableFundsWithCurrentBucket;\n      // TODO: consider skipping executions if usableFundsInCurrentBucket = 0\n      // Not skipping now to make it more evident that 1000 iterations of full\n      // loop body (worst case) is OK gas-wise. I.e. we make sure that\n      // worst-case is triggered frequently enough to not become a surprise.\n      usableFundsInCurrentBucket = m_contributionPerFeeNumerator[tentativeBoundaryBucket];\n      usableFundsWithCurrentBucket = safeAdd(\n        usableFundsInBucketsWithHigherFee,\n        usableFundsInCurrentBucket\n      );\n    }\n\n    // this is needed to protect against corner cases if someone sent dispute\n    // tokens into this contract directly in excess from what contributors funded\n    uint128 cappedAmountDisputed = amountDisputed <= usableFundsWithCurrentBucket ? amountDisputed : usableFundsWithCurrentBucket;\n\n    assert(cappedAmountDisputed >= usableFundsInBucketsWithHigherFee);\n\n    feeNumerator = tentativeBoundaryBucket;\n    fundsUsedFromBoundaryBucket = safeSub(\n      cappedAmountDisputed,\n      usableFundsInBucketsWithHigherFee\n    );\n    assert(fundsUsedFromBoundaryBucket <= usableFundsInCurrentBucket);\n  }\n\n  function safeAdd(uint128 a, uint128 b) internal pure returns(uint128) {\n    uint128 r = a + b;\n    assert(r >= a);\n    return r;\n  }\n\n  function safeSub(uint128 a, uint128 b) internal pure returns(uint128) {\n    assert(a >= b);\n    return a - b;\n  }\n\n  function safeMulDiv(uint128 a, uint128 b, uint128 c) internal pure returns(\n    uint128\n  ) {\n    assert(c > 0);\n    uint256 wa = a;\n    uint256 wb = b;\n    uint256 wc = c;\n\n    uint256 result = wa * wb / wc;\n    uint128 result128 = uint128(result);\n\n    assert(result == result128);\n    return result128;\n  }\n\n  function safeMulDivExact(\n    uint128 a,\n    uint128 b,\n    uint128 c\n  ) internal pure returns(uint128) {\n    assert(c > 0);\n    uint256 wa = a;\n    uint256 wb = b;\n    uint256 wc = c;\n\n    assert((wa * wb) % wc == 0);\n    uint256 result = wa * wb / wc;\n    uint128 result128 = uint128(result);\n\n    assert(result == result128);\n    return result128;\n  }\n}\n",
  "sourcePath": "/src/contracts/Accounting.sol",
  "compiler": {
    "name": "solc",
    "version": "0.4.24+commit.e67f0147.Emscripten.clang"
  },
  "schemaVersion": "2.0.1",
  "updatedAt": "2018-11-09T23:52:45.351Z"
}