{
  "contractName": "Accounting",
  "abi": [
    {
      "constant": true,
      "inputs": [],
      "name": "m_fundsUsedFromBoundaryBucket",
      "outputs": [
        {
          "name": "",
          "type": "uint128"
        }
      ],
      "payable": false,
      "stateMutability": "view",
      "type": "function"
    },
    {
      "constant": true,
      "inputs": [],
      "name": "m_boundaryFeeNumerator",
      "outputs": [
        {
          "name": "",
          "type": "uint128"
        }
      ],
      "payable": false,
      "stateMutability": "view",
      "type": "function"
    },
    {
      "constant": true,
      "inputs": [],
      "name": "m_fundsUsed",
      "outputs": [
        {
          "name": "",
          "type": "uint128"
        }
      ],
      "payable": false,
      "stateMutability": "view",
      "type": "function"
    },
    {
      "constant": true,
      "inputs": [
        {
          "name": "",
          "type": "uint256"
        }
      ],
      "name": "m_contributionPerFeeNumerator",
      "outputs": [
        {
          "name": "",
          "type": "uint128"
        }
      ],
      "payable": false,
      "stateMutability": "view",
      "type": "function"
    },
    {
      "constant": true,
      "inputs": [
        {
          "name": "",
          "type": "address"
        }
      ],
      "name": "m_feeNumeratorPerContributor",
      "outputs": [
        {
          "name": "",
          "type": "uint128"
        }
      ],
      "payable": false,
      "stateMutability": "view",
      "type": "function"
    },
    {
      "constant": true,
      "inputs": [
        {
          "name": "",
          "type": "address"
        }
      ],
      "name": "m_contributionPerContributor",
      "outputs": [
        {
          "name": "",
          "type": "uint128"
        }
      ],
      "payable": false,
      "stateMutability": "view",
      "type": "function"
    },
    {
      "constant": true,
      "inputs": [],
      "name": "FEE_DENOMINATOR",
      "outputs": [
        {
          "name": "",
          "type": "uint128"
        }
      ],
      "payable": false,
      "stateMutability": "view",
      "type": "function"
    },
    {
      "constant": true,
      "inputs": [],
      "name": "m_owner",
      "outputs": [
        {
          "name": "",
          "type": "address"
        }
      ],
      "payable": false,
      "stateMutability": "view",
      "type": "function"
    },
    {
      "constant": true,
      "inputs": [],
      "name": "m_isFinalized",
      "outputs": [
        {
          "name": "",
          "type": "bool"
        }
      ],
      "payable": false,
      "stateMutability": "view",
      "type": "function"
    },
    {
      "inputs": [
        {
          "name": "owner",
          "type": "address"
        }
      ],
      "payable": false,
      "stateMutability": "nonpayable",
      "type": "constructor"
    },
    {
      "constant": true,
      "inputs": [],
      "name": "getOwner",
      "outputs": [
        {
          "name": "",
          "type": "address"
        }
      ],
      "payable": false,
      "stateMutability": "view",
      "type": "function"
    },
    {
      "constant": true,
      "inputs": [
        {
          "name": "amount",
          "type": "uint128"
        },
        {
          "name": "feeNumerator",
          "type": "uint128"
        }
      ],
      "name": "addFeesOnTop",
      "outputs": [
        {
          "name": "",
          "type": "uint128"
        }
      ],
      "payable": false,
      "stateMutability": "pure",
      "type": "function"
    },
    {
      "constant": false,
      "inputs": [
        {
          "name": "contributor",
          "type": "address"
        },
        {
          "name": "amount",
          "type": "uint128"
        },
        {
          "name": "feeNumerator",
          "type": "uint128"
        }
      ],
      "name": "contribute",
      "outputs": [
        {
          "name": "depositedLessFees",
          "type": "uint128"
        },
        {
          "name": "depositedFees",
          "type": "uint128"
        }
      ],
      "payable": false,
      "stateMutability": "nonpayable",
      "type": "function"
    },
    {
      "constant": false,
      "inputs": [
        {
          "name": "contributor",
          "type": "address"
        }
      ],
      "name": "withdrawContribution",
      "outputs": [
        {
          "name": "withdrawnLessFees",
          "type": "uint128"
        },
        {
          "name": "withdrawnFees",
          "type": "uint128"
        }
      ],
      "payable": false,
      "stateMutability": "nonpayable",
      "type": "function"
    },
    {
      "constant": false,
      "inputs": [
        {
          "name": "amountDisputed",
          "type": "uint128"
        }
      ],
      "name": "finalize",
      "outputs": [],
      "payable": false,
      "stateMutability": "nonpayable",
      "type": "function"
    },
    {
      "constant": true,
      "inputs": [],
      "name": "isFinalized",
      "outputs": [
        {
          "name": "",
          "type": "bool"
        }
      ],
      "payable": false,
      "stateMutability": "view",
      "type": "function"
    },
    {
      "constant": true,
      "inputs": [
        {
          "name": "contributor",
          "type": "address"
        }
      ],
      "name": "calculateProceeds",
      "outputs": [
        {
          "name": "rep",
          "type": "uint128"
        },
        {
          "name": "disputeTokens",
          "type": "uint128"
        }
      ],
      "payable": false,
      "stateMutability": "view",
      "type": "function"
    },
    {
      "constant": true,
      "inputs": [],
      "name": "calculateFees",
      "outputs": [
        {
          "name": "",
          "type": "uint128"
        }
      ],
      "payable": false,
      "stateMutability": "view",
      "type": "function"
    }
  ],
  "bytecode": "0x608060405260006101f760006101000a81548160ff02191690831515021790555034801561002c57600080fd5b50604051602080611f3a83398101806040528101908080519060200190929190505050806000806101000a81548173ffffffffffffffffffffffffffffffffffffffff021916908373ffffffffffffffffffffffffffffffffffffffff16021790555050611e9b8061009f6000396000f3006080604052600436106100f1576000357c0100000000000000000000000000000000000000000000000000000000900463ffffffff1680631230dc13146100f6578063228c4a511461014557806328d21f92146101945780632ec755231461023a5780635edfa1f81461028957806368707ce1146102d857806377a39a3d1461033d57806378cacd6e146103b8578063893d20e8146104965780638d4e4083146104ed578063925025ba1461051c5780639826655014610597578063a35c4709146105d6578063d73792a91461067c578063deff41c1146106cb578063dfe29a8614610722578063e0dd81f814610751575b600080fd5b34801561010257600080fd5b5061010b6107e4565b60405180826fffffffffffffffffffffffffffffffff166fffffffffffffffffffffffffffffffff16815260200191505060405180910390f35b34801561015157600080fd5b5061015a610807565b60405180826fffffffffffffffffffffffffffffffff166fffffffffffffffffffffffffffffffff16815260200191505060405180910390f35b3480156101a057600080fd5b506101d5600480360381019080803573ffffffffffffffffffffffffffffffffffffffff16906020019092919050505061082a565b60405180836fffffffffffffffffffffffffffffffff166fffffffffffffffffffffffffffffffff168152602001826fffffffffffffffffffffffffffffffff166fffffffffffffffffffffffffffffffff1681526020019250505060405180910390f35b34801561024657600080fd5b5061024f610bf5565b60405180826fffffffffffffffffffffffffffffffff166fffffffffffffffffffffffffffffffff16815260200191505060405180910390f35b34801561029557600080fd5b5061029e610c18565b60405180826fffffffffffffffffffffffffffffffff166fffffffffffffffffffffffffffffffff16815260200191505060405180910390f35b3480156102e457600080fd5b5061030360048036038101908080359060200190929190505050610d15565b60405180826fffffffffffffffffffffffffffffffff166fffffffffffffffffffffffffffffffff16815260200191505060405180910390f35b34801561034957600080fd5b5061037e600480360381019080803573ffffffffffffffffffffffffffffffffffffffff169060200190929190505050610d51565b60405180826fffffffffffffffffffffffffffffffff166fffffffffffffffffffffffffffffffff16815260200191505060405180910390f35b3480156103c457600080fd5b50610431600480360381019080803573ffffffffffffffffffffffffffffffffffffffff16906020019092919080356fffffffffffffffffffffffffffffffff16906020019092919080356fffffffffffffffffffffffffffffffff169060200190929190505050610d81565b60405180836fffffffffffffffffffffffffffffffff166fffffffffffffffffffffffffffffffff168152602001826fffffffffffffffffffffffffffffffff166fffffffffffffffffffffffffffffffff1681526020019250505060405180910390f35b3480156104a257600080fd5b506104ab611431565b604051808273ffffffffffffffffffffffffffffffffffffffff1673ffffffffffffffffffffffffffffffffffffffff16815260200191505060405180910390f35b3480156104f957600080fd5b5061050261145a565b604051808215151515815260200191505060405180910390f35b34801561052857600080fd5b5061055d600480360381019080803573ffffffffffffffffffffffffffffffffffffffff169060200190929190505050611472565b60405180826fffffffffffffffffffffffffffffffff166fffffffffffffffffffffffffffffffff16815260200191505060405180910390f35b3480156105a357600080fd5b506105d460048036038101908080356fffffffffffffffffffffffffffffffff1690602001909291905050506114a2565b005b3480156105e257600080fd5b50610617600480360381019080803573ffffffffffffffffffffffffffffffffffffffff1690602001909291905050506116ee565b60405180836fffffffffffffffffffffffffffffffff166fffffffffffffffffffffffffffffffff168152602001826fffffffffffffffffffffffffffffffff166fffffffffffffffffffffffffffffffff1681526020019250505060405180910390f35b34801561068857600080fd5b50610691611a69565b60405180826fffffffffffffffffffffffffffffffff166fffffffffffffffffffffffffffffffff16815260200191505060405180910390f35b3480156106d757600080fd5b506106e0611a6f565b604051808273ffffffffffffffffffffffffffffffffffffffff1673ffffffffffffffffffffffffffffffffffffffff16815260200191505060405180910390f35b34801561072e57600080fd5b50610737611a94565b604051808215151515815260200191505060405180910390f35b34801561075d57600080fd5b506107aa60048036038101908080356fffffffffffffffffffffffffffffffff16906020019092919080356fffffffffffffffffffffffffffffffff169060200190929190505050611aa8565b60405180826fffffffffffffffffffffffffffffffff166fffffffffffffffffffffffffffffffff16815260200191505060405180910390f35b6101f860109054906101000a90046fffffffffffffffffffffffffffffffff1681565b6101f860009054906101000a90046fffffffffffffffffffffffffffffffff1681565b6000806000806000806101f760009054906101000a900460ff1615156108de576040517f08c379a00000000000000000000000000000000000000000000000000000000081526004018080602001828103825260268152602001807f4d6574686f64206f6e6c7920616c6c6f7765642061667465722066696e616c6981526020017f7a6174696f6e000000000000000000000000000000000000000000000000000081525060400191505060405180910390fd5b6101f560008873ffffffffffffffffffffffffffffffffffffffff1673ffffffffffffffffffffffffffffffffffffffff16815260200190815260200160002060009054906101000a90046fffffffffffffffffffffffffffffffff1693506101f660008873ffffffffffffffffffffffffffffffffffffffff1673ffffffffffffffffffffffffffffffffffffffff16815260200190815260200160002060009054906101000a90046fffffffffffffffffffffffffffffffff1692506000836fffffffffffffffffffffffffffffffff1614156109c95760008081915080905095509550610bec565b6101f860009054906101000a90046fffffffffffffffffffffffffffffffff166fffffffffffffffffffffffffffffffff16846fffffffffffffffffffffffffffffffff161015610a295760009450610a228385611aa8565b9550610beb565b6101f860009054906101000a90046fffffffffffffffffffffffffffffffff166fffffffffffffffffffffffffffffffff16846fffffffffffffffffffffffffffffffff161115610ab357829450610aac83610aa4866101f860009054906101000a90046fffffffffffffffffffffffffffffffff16611aca565b6103e8611b07565b9550610bea565b6101f860009054906101000a90046fffffffffffffffffffffffffffffffff166fffffffffffffffffffffffffffffffff16846fffffffffffffffffffffffffffffffff16141515610b0157fe5b6001846fffffffffffffffffffffffffffffffff166103e881101515610b2357fe5b600291828204019190066010029054906101000a90046fffffffffffffffffffffffffffffffff1691506000826fffffffffffffffffffffffffffffffff16111515610b6b57fe5b6101f860109054906101000a90046fffffffffffffffffffffffffffffffff169050816fffffffffffffffffffffffffffffffff16816fffffffffffffffffffffffffffffffff1611151515610bbd57fe5b610bc8838284611bc5565b9450610be7610bd78486611aa8565b610be18484611aca565b84611bc5565b95505b5b5b50505050915091565b6101f760019054906101000a90046fffffffffffffffffffffffffffffffff1681565b60006101f760009054906101000a900460ff161515610cc5576040517f08c379a00000000000000000000000000000000000000000000000000000000081526004018080602001828103825260268152602001807f4d6574686f64206f6e6c7920616c6c6f7765642061667465722066696e616c6981526020017f7a6174696f6e000000000000000000000000000000000000000000000000000081525060400191505060405180910390fd5b610d106101f760019054906101000a90046fffffffffffffffffffffffffffffffff166101f860009054906101000a90046fffffffffffffffffffffffffffffffff166103e8611bc5565b905090565b6001816103e881101515610d2557fe5b60029182820401919006601002915054906101000a90046fffffffffffffffffffffffffffffffff1681565b6101f56020528060005260406000206000915054906101000a90046fffffffffffffffffffffffffffffffff1681565b6000806000809054906101000a900473ffffffffffffffffffffffffffffffffffffffff1673ffffffffffffffffffffffffffffffffffffffff163373ffffffffffffffffffffffffffffffffffffffff16141515610e48576040517f08c379a000000000000000000000000000000000000000000000000000000000815260040180806020018281038252600e8152602001807f4e6f7420417574686f72697a656400000000000000000000000000000000000081525060200191505060405180910390fd5b6101f760009054906101000a900460ff16151515610ef4576040517f08c379a00000000000000000000000000000000000000000000000000000000081526004018080602001828103825260278152602001807f4d6574686f64206f6e6c7920616c6c6f776564206265666f72652066696e616c81526020017f697a6174696f6e0000000000000000000000000000000000000000000000000081525060400191505060405180910390fd5b6000846fffffffffffffffffffffffffffffffff16111515610fa4576040517f08c379a00000000000000000000000000000000000000000000000000000000081526004018080602001828103825260228152602001807f476f747461206861766520736f6d657468696e6720746f20636f6e747269627581526020017f746500000000000000000000000000000000000000000000000000000000000081525060400191505060405180910390fd5b60006103e86fffffffffffffffffffffffffffffffff16856fffffffffffffffffffffffffffffffff16811515610fd757fe5b066fffffffffffffffffffffffffffffffff16141515611085576040517f08c379a000000000000000000000000000000000000000000000000000000000815260040180806020018281038252602b8152602001807f416d6f756e74206d75737420626520646976697369626c65206279206665652081526020017f64656e6f6d696e61746f7200000000000000000000000000000000000000000081525060400191505060405180910390fd5b6000836fffffffffffffffffffffffffffffffff16101580156110cd57506103e86fffffffffffffffffffffffffffffffff16836fffffffffffffffffffffffffffffffff16105b1515611141576040517f08c379a00000000000000000000000000000000000000000000000000000000081526004018080602001828103825260108152602001807f426164206665654e756d657261746f720000000000000000000000000000000081525060200191505060405180910390fd5b60006101f660008773ffffffffffffffffffffffffffffffffffffffff1673ffffffffffffffffffffffffffffffffffffffff16815260200190815260200160002060009054906101000a90046fffffffffffffffffffffffffffffffff166fffffffffffffffffffffffffffffffff16141515611273576040517f08c379a00000000000000000000000000000000000000000000000000000000081526004018080602001828103825260418152602001807f4f6e652068617320746f2077697468647261772070726576696f757320636f6e81526020017f747269627574696f6e206265666f7265206d616b696e672061206e6577206f6e81526020017f650000000000000000000000000000000000000000000000000000000000000081525060600191505060405180910390fd5b836101f660008773ffffffffffffffffffffffffffffffffffffffff1673ffffffffffffffffffffffffffffffffffffffff16815260200190815260200160002060006101000a8154816fffffffffffffffffffffffffffffffff02191690836fffffffffffffffffffffffffffffffff160217905550826101f560008773ffffffffffffffffffffffffffffffffffffffff1673ffffffffffffffffffffffffffffffffffffffff16815260200190815260200160002060006101000a8154816fffffffffffffffffffffffffffffffff02191690836fffffffffffffffffffffffffffffffff1602179055506113b46001846fffffffffffffffffffffffffffffffff166103e88110151561138657fe5b600291828204019190066010029054906101000a90046fffffffffffffffffffffffffffffffff1685611c6a565b6001846fffffffffffffffffffffffffffffffff166103e8811015156113d657fe5b600291828204019190066010026101000a8154816fffffffffffffffffffffffffffffffff02191690836fffffffffffffffffffffffffffffffff1602179055508361142585856103e8611b07565b91509150935093915050565b60008060009054906101000a900473ffffffffffffffffffffffffffffffffffffffff16905090565b60006101f760009054906101000a900460ff16905090565b6101f66020528060005260406000206000915054906101000a90046fffffffffffffffffffffffffffffffff1681565b6000809054906101000a900473ffffffffffffffffffffffffffffffffffffffff1673ffffffffffffffffffffffffffffffffffffffff163373ffffffffffffffffffffffffffffffffffffffff16141515611566576040517f08c379a000000000000000000000000000000000000000000000000000000000815260040180806020018281038252600e8152602001807f4e6f7420417574686f72697a656400000000000000000000000000000000000081525060200191505060405180910390fd5b6101f760009054906101000a900460ff16151515611612576040517f08c379a00000000000000000000000000000000000000000000000000000000081526004018080602001828103825260278152602001807f4d6574686f64206f6e6c7920616c6c6f776564206265666f72652066696e616c81526020017f697a6174696f6e0000000000000000000000000000000000000000000000000081525060400191505060405180910390fd5b60016101f760006101000a81548160ff021916908315150217905550806101f760016101000a8154816fffffffffffffffffffffffffffffffff02191690836fffffffffffffffffffffffffffffffff16021790555061167181611cac565b6101f860006101f860108491906101000a8154816fffffffffffffffffffffffffffffffff02191690836fffffffffffffffffffffffffffffffff1602179055508391906101000a8154816fffffffffffffffffffffffffffffffff02191690836fffffffffffffffffffffffffffffffff160217905550505050565b6000806000806000809054906101000a900473ffffffffffffffffffffffffffffffffffffffff1673ffffffffffffffffffffffffffffffffffffffff163373ffffffffffffffffffffffffffffffffffffffff161415156117b8576040517f08c379a000000000000000000000000000000000000000000000000000000000815260040180806020018281038252600e8152602001807f4e6f7420417574686f72697a656400000000000000000000000000000000000081525060200191505060405180910390fd5b6101f760009054906101000a900460ff16151515611864576040517f08c379a00000000000000000000000000000000000000000000000000000000081526004018080602001828103825260278152602001807f4d6574686f64206f6e6c7920616c6c6f776564206265666f72652066696e616c81526020017f697a6174696f6e0000000000000000000000000000000000000000000000000081525060400191505060405180910390fd5b6101f660008673ffffffffffffffffffffffffffffffffffffffff1673ffffffffffffffffffffffffffffffffffffffff16815260200190815260200160002060009054906101000a90046fffffffffffffffffffffffffffffffff16915060006101f660008773ffffffffffffffffffffffffffffffffffffffff1673ffffffffffffffffffffffffffffffffffffffff16815260200190815260200160002060006101000a8154816fffffffffffffffffffffffffffffffff02191690836fffffffffffffffffffffffffffffffff1602179055506101f560008673ffffffffffffffffffffffffffffffffffffffff1673ffffffffffffffffffffffffffffffffffffffff16815260200190815260200160002060009054906101000a90046fffffffffffffffffffffffffffffffff1690506119ed6001826fffffffffffffffffffffffffffffffff166103e8811015156119bf57fe5b600291828204019190066010029054906101000a90046fffffffffffffffffffffffffffffffff1683611aca565b6001826fffffffffffffffffffffffffffffffff166103e881101515611a0f57fe5b600291828204019190066010026101000a8154816fffffffffffffffffffffffffffffffff02191690836fffffffffffffffffffffffffffffffff16021790555081611a5e83836103e8611b07565b935093505050915091565b6103e881565b6000809054906101000a900473ffffffffffffffffffffffffffffffffffffffff1681565b6101f760009054906101000a900460ff1681565b6000611ac283611aba6103e885611c6a565b6103e8611b07565b905092915050565b6000816fffffffffffffffffffffffffffffffff16836fffffffffffffffffffffffffffffffff1610151515611afc57fe5b818303905092915050565b6000806000806000806000876fffffffffffffffffffffffffffffffff16111515611b2e57fe5b886fffffffffffffffffffffffffffffffff169450876fffffffffffffffffffffffffffffffff169350866fffffffffffffffffffffffffffffffff169250600083858702811515611b7c57fe5b06141515611b8657fe5b82848602811515611b9357fe5b049150819050806fffffffffffffffffffffffffffffffff1682141515611bb657fe5b80955050505050509392505050565b6000806000806000806000876fffffffffffffffffffffffffffffffff16111515611bec57fe5b886fffffffffffffffffffffffffffffffff169450876fffffffffffffffffffffffffffffffff169350866fffffffffffffffffffffffffffffffff16925082848602811515611c3857fe5b049150819050806fffffffffffffffffffffffffffffffff1682141515611c5b57fe5b80955050505050509392505050565b6000808284019050836fffffffffffffffffffffffffffffffff16816fffffffffffffffffffffffffffffffff1610151515611ca257fe5b8091505092915050565b60008060008060008060006103e89450600092506000856fffffffffffffffffffffffffffffffff16118015611d065750876fffffffffffffffffffffffffffffffff16836fffffffffffffffffffffffffffffffff1611155b1515611d0e57fe5b5b6000856fffffffffffffffffffffffffffffffff16118015611d555750876fffffffffffffffffffffffffffffffff16836fffffffffffffffffffffffffffffffff1611155b15611dc0576001850394508291506001856fffffffffffffffffffffffffffffffff166103e881101515611d8557fe5b600291828204019190066010029054906101000a90046fffffffffffffffffffffffffffffffff169350611db98285611c6a565b9250611d0f565b826fffffffffffffffffffffffffffffffff16886fffffffffffffffffffffffffffffffff161115611df25782611df4565b875b9050816fffffffffffffffffffffffffffffffff16816fffffffffffffffffffffffffffffffff1610151515611e2657fe5b849650611e338183611aca565b9550836fffffffffffffffffffffffffffffffff16866fffffffffffffffffffffffffffffffff1611151515611e6557fe5b50505050509150915600a165627a7a72305820c88280011dfa4883cdbc24581407beb691497942f3958cfefa9d61fafaf280be0029",
  "source": "pragma solidity 0.4.24;\n\nimport \"./IAccounting.sol\";\n\n/**\n * Keeps track of all contributions, and calculates how much each contributor\n * is entitled to.\n *\n * Doesn't actually hold any funds, just keeps records.\n */\ncontract Accounting is IAccounting {\n  uint128 constant public FEE_DENOMINATOR = 1000;\n  address public m_owner;\n\n  uint128[FEE_DENOMINATOR] public m_contributionPerFeeNumerator;\n  mapping(address => uint128) public m_feeNumeratorPerContributor;\n  mapping(address => uint128) public m_contributionPerContributor;\n\n  // populated at finalization\n  bool public m_isFinalized = false;\n  uint128 public m_fundsUsed;\n  uint128 public m_boundaryFeeNumerator;\n  uint128 public m_fundsUsedFromBoundaryBucket;\n\n  constructor(address owner) public {\n    m_owner = owner;\n  }\n\n  modifier ownerOnly() {\n    require (msg.sender == m_owner, \"Not Authorized\");\n    _;\n  }\n\n  modifier beforeFinalizationOnly() {\n    require (!m_isFinalized, \"Method only allowed before finalization\");\n    _;\n  }\n\n  modifier afterFinalizationOnly() {\n    require (m_isFinalized, \"Method only allowed after finalization\");\n    _;\n  }\n\n  function getOwner() external view returns (address) {\n    return m_owner;\n  }\n\n  function addFeesOnTop(\n    uint128 amount,\n    uint128 feeNumerator\n  ) public pure returns (uint128) {\n    return safeMulDivExact(\n      amount,\n      safeAdd(FEE_DENOMINATOR, feeNumerator),\n      FEE_DENOMINATOR\n    );\n  }\n\n  function contribute(\n    address contributor,\n    uint128 amount,\n    uint128 feeNumerator\n  ) external ownerOnly beforeFinalizationOnly returns (\n    uint128 depositedLessFees,\n    uint128 depositedFees\n  ) {\n    require(\n      amount > 0,\n      \"Gotta have something to contribute\"\n    );\n    require(\n      amount % FEE_DENOMINATOR == 0,\n      \"Amount must be divisible by fee denominator\"\n    );\n    require(\n      feeNumerator >= 0 && feeNumerator < FEE_DENOMINATOR,\n      \"Bad feeNumerator\"\n    );\n    require(\n      m_contributionPerContributor[contributor] == 0,\n      \"One has to withdraw previous contribution before making a new one\"\n    );\n\n    m_contributionPerContributor[contributor] = amount;\n    m_feeNumeratorPerContributor[contributor] = feeNumerator;\n    m_contributionPerFeeNumerator[feeNumerator] = safeAdd(\n      m_contributionPerFeeNumerator[feeNumerator],\n      amount\n    );\n\n    return (amount, safeMulDivExact(amount, feeNumerator, FEE_DENOMINATOR));\n  }\n\n  function withdrawContribution(\n    address contributor\n  ) external ownerOnly beforeFinalizationOnly returns (\n    uint128 withdrawnLessFees,\n    uint128 withdrawnFees\n  ) {\n    uint128 amount = m_contributionPerContributor[contributor];\n\n    m_contributionPerContributor[contributor] = 0;\n\n    uint128 feeNumerator = m_feeNumeratorPerContributor[contributor];\n    m_contributionPerFeeNumerator[feeNumerator] = safeSub(\n      m_contributionPerFeeNumerator[feeNumerator],\n      amount\n    );\n\n    return (amount, safeMulDivExact(amount, feeNumerator, FEE_DENOMINATOR));\n  }\n\n  /**\n   * Someone may have sent us (by mistake or maliciously) extra dispute tokens.\n   * This is not fatal, but we need to be aware that amountDisputed may actually\n   * be greater than the REP contributed and not crash.\n   */\n  function finalize(uint128 amountDisputed) external ownerOnly beforeFinalizationOnly {\n    m_isFinalized = true;\n    m_fundsUsed = amountDisputed;\n    (\n      m_boundaryFeeNumerator,\n      m_fundsUsedFromBoundaryBucket\n    ) = findBoundaryBucketForAmountDisputed(amountDisputed);\n  }\n\n  function isFinalized() external view returns (bool) {\n    return m_isFinalized;\n  }\n\n  /**\n   * Finds such lowest fee bucket, that all buckets with fee higher than that\n   * were fully included in the dispute. From that will also follow that none\n   * of the funds from buckets with fee lower than that were included in the\n   * dispute.\n   *\n   * Also calculates how much funds from the boundary bucket were included in\n   * the dispute (normally current bucket participated partially).\n   *\n   * The returned index will always be a valid feeNumerator.\n   */\n  function findBoundaryBucketForAmountDisputed(\n    uint128 amountDisputed\n  ) internal view returns (uint128 feeNumerator, uint128 fundsUsedFromBoundaryBucket) {\n    // initialize with one-past-last bucket; loop will do at least one iteration\n    uint128 tentativeBoundaryBucket = FEE_DENOMINATOR;\n    uint128 usableFundsInCurrentBucket;\n    uint128 usableFundsWithCurrentBucket = 0;\n    uint128 usableFundsInBucketsWithHigherFee;\n\n    // length of the loop constrained by constant FEE_DENOMINATOR\n    assert(tentativeBoundaryBucket > 0 && usableFundsWithCurrentBucket <= amountDisputed);\n    while (tentativeBoundaryBucket > 0 && usableFundsWithCurrentBucket <= amountDisputed) {\n      tentativeBoundaryBucket -= 1;\n      usableFundsInBucketsWithHigherFee = usableFundsWithCurrentBucket;\n      // TODO: consider skipping executions if usableFundsInCurrentBucket = 0\n      // Not skipping now to make it more evident that 1000 iterations of full\n      // loop body (worst case) is OK gas-wise. I.e. we make sure that\n      // worst-case is triggered frequently enough to not become a surprise.\n      usableFundsInCurrentBucket = m_contributionPerFeeNumerator[tentativeBoundaryBucket];\n      usableFundsWithCurrentBucket = safeAdd(\n        usableFundsInBucketsWithHigherFee,\n        usableFundsInCurrentBucket\n      );\n    }\n\n    // this is needed to protect against corner cases if someone sent dispute\n    // tokens into this contract directly in excess from what contributors funded\n    uint128 cappedAmountDisputed = amountDisputed <= usableFundsWithCurrentBucket\n      ? amountDisputed\n      : usableFundsWithCurrentBucket;\n\n    assert(cappedAmountDisputed >= usableFundsInBucketsWithHigherFee);\n\n    feeNumerator = tentativeBoundaryBucket;\n    fundsUsedFromBoundaryBucket = safeSub(\n      cappedAmountDisputed,\n      usableFundsInBucketsWithHigherFee\n    );\n    assert(fundsUsedFromBoundaryBucket <= usableFundsInCurrentBucket);\n  }\n\n  function safeAdd(uint128 a, uint128 b) internal pure returns (uint128) {\n    uint128 r = a + b;\n    assert(r >= a);\n    return r;\n  }\n\n  function safeSub(uint128 a, uint128 b) internal pure returns (uint128) {\n    assert(a >= b);\n    return a - b;\n  }\n\n  function safeMulDiv(uint128 a, uint128 b, uint128 c) internal pure returns (uint128) {\n    assert(c > 0);\n    uint256 wa = a;\n    uint256 wb = b;\n    uint256 wc = c;\n\n    uint256 result = wa * wb / wc;\n    uint128 result128 = uint128(result);\n\n    assert(result == result128);\n    return result128;\n  }\n\n  function safeMulDivExact(uint128 a, uint128 b, uint128 c) internal pure returns (uint128) {\n    assert(c > 0);\n    uint256 wa = a;\n    uint256 wb = b;\n    uint256 wc = c;\n\n    assert((wa * wb) % wc == 0);\n    uint256 result = wa * wb / wc;\n    uint128 result128 = uint128(result);\n\n    assert(result == result128);\n    return result128;\n  }\n\n  /**\n   * Return value is how much REP and dispute tokens the contributor is entitled to.\n   *\n   * Does not change the state, as accounting is finalized at that moment.\n   *\n   * In case of partial fill, we round down, leaving some dust in the contract.\n   */\n  function calculateProceeds(\n    address contributor\n  ) external afterFinalizationOnly view returns (uint128 rep, uint128 disputeTokens) {\n    uint128 contributorFeeNumerator = m_feeNumeratorPerContributor[contributor];\n    uint128 originalContributionOfContributor = m_contributionPerContributor[contributor];\n\n    if (originalContributionOfContributor == 0) {\n      return (0, 0);\n    }\n\n    if (contributorFeeNumerator < m_boundaryFeeNumerator) {\n      // this contributor didn't make it into dispute round,\n      // just refund their contribution with prepaid fees\n      disputeTokens = 0;\n      rep = addFeesOnTop(\n        originalContributionOfContributor,\n        contributorFeeNumerator\n      );\n    } else if (contributorFeeNumerator > m_boundaryFeeNumerator) {\n      // this contributor fully got into dispute round,\n      // give them dispute tokens in full, and refund unused portion of fee\n      disputeTokens = originalContributionOfContributor;\n      rep = safeMulDivExact(\n        originalContributionOfContributor,\n        safeSub(contributorFeeNumerator, m_boundaryFeeNumerator),\n        FEE_DENOMINATOR\n      );\n    } else {\n      assert(contributorFeeNumerator == m_boundaryFeeNumerator);\n      // most complex case, contributor partially got into dispute rounds\n      uint128 usableFundsContributedInBucket = m_contributionPerFeeNumerator[contributorFeeNumerator];\n      // assertion gotta be true because contributor admittedly did some\n      // contribution\n      assert(usableFundsContributedInBucket > 0);\n      uint128 fundsUsedInBucket = m_fundsUsedFromBoundaryBucket;\n      assert(fundsUsedInBucket <= usableFundsContributedInBucket);\n\n      // award dispute tokens pro rata\n      disputeTokens = safeMulDiv(\n        originalContributionOfContributor,\n        fundsUsedInBucket,\n        usableFundsContributedInBucket\n      );\n      // refund rep for the unused portion of contribution + fees\n      rep = safeMulDiv(\n        addFeesOnTop(\n          originalContributionOfContributor,\n          contributorFeeNumerator\n        ),\n        safeSub(usableFundsContributedInBucket, fundsUsedInBucket),\n        usableFundsContributedInBucket\n      );\n    }\n  }\n\n  /**\n   * Calculate fee that will be split between contract admin and\n   * account that triggered dispute transaction.\n   *\n   * In case of partial fill, we round down, leaving some dust in the contract.\n   */\n  function calculateFees() external afterFinalizationOnly view returns (uint128) {\n    return safeMulDiv(m_fundsUsed, m_boundaryFeeNumerator, FEE_DENOMINATOR);\n  }\n}\n",
  "sourcePath": "/src/contracts/Accounting.sol",
  "compiler": {
    "name": "solc",
    "version": "0.4.24+commit.e67f0147.Emscripten.clang"
  },
  "schemaVersion": "2.0.1",
  "updatedAt": "2018-11-02T01:40:36.553Z"
}