{
  "contractName": "Accounting",
  "abi": [
    {
      "constant": true,
      "inputs": [
        {
          "name": "",
          "type": "uint256"
        }
      ],
      "name": "m_contributionPerFeeNumerator",
      "outputs": [
        {
          "name": "",
          "type": "uint128"
        }
      ],
      "payable": false,
      "stateMutability": "view",
      "type": "function"
    },
    {
      "constant": true,
      "inputs": [
        {
          "name": "",
          "type": "address"
        }
      ],
      "name": "m_feeNumeratorPerContributor",
      "outputs": [
        {
          "name": "",
          "type": "uint128"
        }
      ],
      "payable": false,
      "stateMutability": "view",
      "type": "function"
    },
    {
      "constant": true,
      "inputs": [
        {
          "name": "",
          "type": "address"
        }
      ],
      "name": "m_contributionPerContributor",
      "outputs": [
        {
          "name": "",
          "type": "uint128"
        }
      ],
      "payable": false,
      "stateMutability": "view",
      "type": "function"
    },
    {
      "constant": true,
      "inputs": [],
      "name": "FEE_DENOMINATOR",
      "outputs": [
        {
          "name": "",
          "type": "uint128"
        }
      ],
      "payable": false,
      "stateMutability": "view",
      "type": "function"
    },
    {
      "constant": true,
      "inputs": [],
      "name": "m_owner",
      "outputs": [
        {
          "name": "",
          "type": "address"
        }
      ],
      "payable": false,
      "stateMutability": "view",
      "type": "function"
    },
    {
      "constant": true,
      "inputs": [],
      "name": "m_isFinalized",
      "outputs": [
        {
          "name": "",
          "type": "bool"
        }
      ],
      "payable": false,
      "stateMutability": "view",
      "type": "function"
    },
    {
      "inputs": [
        {
          "name": "owner",
          "type": "address"
        }
      ],
      "payable": false,
      "stateMutability": "nonpayable",
      "type": "constructor"
    },
    {
      "constant": true,
      "inputs": [],
      "name": "getOwner",
      "outputs": [
        {
          "name": "",
          "type": "address"
        }
      ],
      "payable": false,
      "stateMutability": "view",
      "type": "function"
    },
    {
      "constant": false,
      "inputs": [
        {
          "name": "contributor",
          "type": "address"
        },
        {
          "name": "amount",
          "type": "uint128"
        },
        {
          "name": "feeNumerator",
          "type": "uint128"
        }
      ],
      "name": "contribute",
      "outputs": [],
      "payable": false,
      "stateMutability": "nonpayable",
      "type": "function"
    },
    {
      "constant": false,
      "inputs": [
        {
          "name": "contributor",
          "type": "address"
        }
      ],
      "name": "withdrawContribution",
      "outputs": [
        {
          "name": "",
          "type": "uint128"
        }
      ],
      "payable": false,
      "stateMutability": "nonpayable",
      "type": "function"
    },
    {
      "constant": false,
      "inputs": [
        {
          "name": "amountDisputed",
          "type": "uint128"
        }
      ],
      "name": "finalize",
      "outputs": [],
      "payable": false,
      "stateMutability": "nonpayable",
      "type": "function"
    },
    {
      "constant": true,
      "inputs": [],
      "name": "isFinalized",
      "outputs": [
        {
          "name": "",
          "type": "bool"
        }
      ],
      "payable": false,
      "stateMutability": "view",
      "type": "function"
    },
    {
      "constant": true,
      "inputs": [
        {
          "name": "a",
          "type": "uint128"
        },
        {
          "name": "b",
          "type": "uint128"
        }
      ],
      "name": "safeAdd",
      "outputs": [
        {
          "name": "",
          "type": "uint128"
        }
      ],
      "payable": false,
      "stateMutability": "pure",
      "type": "function"
    },
    {
      "constant": true,
      "inputs": [
        {
          "name": "a",
          "type": "uint128"
        },
        {
          "name": "b",
          "type": "uint128"
        }
      ],
      "name": "safeSub",
      "outputs": [
        {
          "name": "",
          "type": "uint128"
        }
      ],
      "payable": false,
      "stateMutability": "pure",
      "type": "function"
    },
    {
      "constant": true,
      "inputs": [
        {
          "name": "a",
          "type": "uint128"
        },
        {
          "name": "b",
          "type": "uint128"
        },
        {
          "name": "c",
          "type": "uint128"
        }
      ],
      "name": "safeMulDiv",
      "outputs": [
        {
          "name": "",
          "type": "uint128"
        }
      ],
      "payable": false,
      "stateMutability": "pure",
      "type": "function"
    },
    {
      "constant": true,
      "inputs": [
        {
          "name": "a",
          "type": "uint128"
        },
        {
          "name": "b",
          "type": "uint128"
        },
        {
          "name": "c",
          "type": "uint128"
        }
      ],
      "name": "safeMulDivExact",
      "outputs": [
        {
          "name": "",
          "type": "uint128"
        }
      ],
      "payable": false,
      "stateMutability": "pure",
      "type": "function"
    },
    {
      "constant": true,
      "inputs": [
        {
          "name": "contributor",
          "type": "address"
        }
      ],
      "name": "calculateProceeds",
      "outputs": [
        {
          "name": "rep",
          "type": "uint128"
        },
        {
          "name": "disputeTokens",
          "type": "uint128"
        }
      ],
      "payable": false,
      "stateMutability": "view",
      "type": "function"
    },
    {
      "constant": true,
      "inputs": [],
      "name": "calculateFees",
      "outputs": [
        {
          "name": "",
          "type": "uint128"
        }
      ],
      "payable": false,
      "stateMutability": "view",
      "type": "function"
    }
  ],
  "bytecode": "0x608060405260006101f760006101000a81548160ff02191690831515021790555034801561002c57600080fd5b50604051602080611f6c83398101806040528101908080519060200190929190505050806000806101000a81548173ffffffffffffffffffffffffffffffffffffffff021916908373ffffffffffffffffffffffffffffffffffffffff16021790555050611ecd8061009f6000396000f3006080604052600436106100f1576000357c0100000000000000000000000000000000000000000000000000000000900463ffffffff16806315c9951b146100f657806328d21f92146101895780632d68a03c1461022f5780635edfa1f8146102c25780635eeff60f1461031157806368707ce1146103c0578063751ff05f1461042557806377a39a3d146104d457806378cacd6e1461054f578063893d20e8146105ca5780638d4e408314610621578063925025ba1461065057806398266550146106cb578063a35c47091461070a578063d73792a914610785578063deff41c1146107d4578063dfe29a861461082b575b600080fd5b34801561010257600080fd5b5061014f60048036038101908080356fffffffffffffffffffffffffffffffff16906020019092919080356fffffffffffffffffffffffffffffffff16906020019092919050505061085a565b60405180826fffffffffffffffffffffffffffffffff166fffffffffffffffffffffffffffffffff16815260200191505060405180910390f35b34801561019557600080fd5b506101ca600480360381019080803573ffffffffffffffffffffffffffffffffffffffff1690602001909291905050506108cc565b60405180836fffffffffffffffffffffffffffffffff166fffffffffffffffffffffffffffffffff168152602001826fffffffffffffffffffffffffffffffff166fffffffffffffffffffffffffffffffff1681526020019250505060405180910390f35b34801561023b57600080fd5b5061028860048036038101908080356fffffffffffffffffffffffffffffffff16906020019092919080356fffffffffffffffffffffffffffffffff169060200190929190505050610c80565b60405180826fffffffffffffffffffffffffffffffff166fffffffffffffffffffffffffffffffff16815260200191505060405180910390f35b3480156102ce57600080fd5b506102d7610cbd565b60405180826fffffffffffffffffffffffffffffffff166fffffffffffffffffffffffffffffffff16815260200191505060405180910390f35b34801561031d57600080fd5b5061038660048036038101908080356fffffffffffffffffffffffffffffffff16906020019092919080356fffffffffffffffffffffffffffffffff16906020019092919080356fffffffffffffffffffffffffffffffff169060200190929190505050610e7b565b60405180826fffffffffffffffffffffffffffffffff166fffffffffffffffffffffffffffffffff16815260200191505060405180910390f35b3480156103cc57600080fd5b506103eb60048036038101908080359060200190929190505050610f20565b60405180826fffffffffffffffffffffffffffffffff166fffffffffffffffffffffffffffffffff16815260200191505060405180910390f35b34801561043157600080fd5b5061049a60048036038101908080356fffffffffffffffffffffffffffffffff16906020019092919080356fffffffffffffffffffffffffffffffff16906020019092919080356fffffffffffffffffffffffffffffffff169060200190929190505050610f5c565b60405180826fffffffffffffffffffffffffffffffff166fffffffffffffffffffffffffffffffff16815260200191505060405180910390f35b3480156104e057600080fd5b50610515600480360381019080803573ffffffffffffffffffffffffffffffffffffffff16906020019092919050505061101a565b60405180826fffffffffffffffffffffffffffffffff166fffffffffffffffffffffffffffffffff16815260200191505060405180910390f35b34801561055b57600080fd5b506105c8600480360381019080803573ffffffffffffffffffffffffffffffffffffffff16906020019092919080356fffffffffffffffffffffffffffffffff16906020019092919080356fffffffffffffffffffffffffffffffff16906020019092919050505061104a565b005b3480156105d657600080fd5b506105df6116e2565b604051808273ffffffffffffffffffffffffffffffffffffffff1673ffffffffffffffffffffffffffffffffffffffff16815260200191505060405180910390f35b34801561062d57600080fd5b5061063661170b565b604051808215151515815260200191505060405180910390f35b34801561065c57600080fd5b50610691600480360381019080803573ffffffffffffffffffffffffffffffffffffffff169060200190929190505050611723565b60405180826fffffffffffffffffffffffffffffffff166fffffffffffffffffffffffffffffffff16815260200191505060405180910390f35b3480156106d757600080fd5b5061070860048036038101908080356fffffffffffffffffffffffffffffffff169060200190929190505050611753565b005b34801561071657600080fd5b5061074b600480360381019080803573ffffffffffffffffffffffffffffffffffffffff169060200190929190505050611965565b60405180826fffffffffffffffffffffffffffffffff166fffffffffffffffffffffffffffffffff16815260200191505060405180910390f35b34801561079157600080fd5b5061079a611cf4565b60405180826fffffffffffffffffffffffffffffffff166fffffffffffffffffffffffffffffffff16815260200191505060405180910390f35b3480156107e057600080fd5b506107e9611cfa565b604051808273ffffffffffffffffffffffffffffffffffffffff1673ffffffffffffffffffffffffffffffffffffffff16815260200191505060405180910390f35b34801561083757600080fd5b50610840611d1f565b604051808215151515815260200191505060405180910390f35b6000808284019050836fffffffffffffffffffffffffffffffff16816fffffffffffffffffffffffffffffffff16101580156108ba5750826fffffffffffffffffffffffffffffffff16816fffffffffffffffffffffffffffffffff1610155b15156108c257fe5b8091505092915050565b6000806000806000806101f760009054906101000a900460ff161515610980576040517f08c379a00000000000000000000000000000000000000000000000000000000081526004018080602001828103825260268152602001807f4d6574686f64206f6e6c7920616c6c6f7765642061667465722066696e616c6981526020017f7a6174696f6e000000000000000000000000000000000000000000000000000081525060400191505060405180910390fd5b6101f560008873ffffffffffffffffffffffffffffffffffffffff1673ffffffffffffffffffffffffffffffffffffffff16815260200190815260200160002060009054906101000a90046fffffffffffffffffffffffffffffffff1693506101f660008873ffffffffffffffffffffffffffffffffffffffff1673ffffffffffffffffffffffffffffffffffffffff16815260200190815260200160002060009054906101000a90046fffffffffffffffffffffffffffffffff1692506000836fffffffffffffffffffffffffffffffff161415610a6b5760008081915080905095509550610c77565b6101f760019054906101000a90046fffffffffffffffffffffffffffffffff166fffffffffffffffffffffffffffffffff16846fffffffffffffffffffffffffffffffff161015610ac25782955060009450610c76565b6101f760019054906101000a90046fffffffffffffffffffffffffffffffff166fffffffffffffffffffffffffffffffff16846fffffffffffffffffffffffffffffffff161115610b305760009550610b2983610b216103e887610c80565b6103e8610f5c565b9450610c75565b6101f760019054906101000a90046fffffffffffffffffffffffffffffffff166fffffffffffffffffffffffffffffffff16846fffffffffffffffffffffffffffffffff16141515610b7e57fe5b6001846fffffffffffffffffffffffffffffffff166103e881101515610ba057fe5b600291828204019190066010029054906101000a90046fffffffffffffffffffffffffffffffff1691506101f860009054906101000a90046fffffffffffffffffffffffffffffffff1690506000826fffffffffffffffffffffffffffffffff16111515610c0a57fe5b816fffffffffffffffffffffffffffffffff16816fffffffffffffffffffffffffffffffff1611151515610c3a57fe5b610c5c610c5584610c4d6103e888610c80565b6103e8610f5c565b8284610e7b565b9450610c7283610c6c8484610c80565b84610e7b565b95505b5b5b50505050915091565b6000816fffffffffffffffffffffffffffffffff16836fffffffffffffffffffffffffffffffff1610151515610cb257fe5b818303905092915050565b60008060006101f760009054906101000a900460ff161515610d6d576040517f08c379a00000000000000000000000000000000000000000000000000000000081526004018080602001828103825260268152602001807f4d6574686f64206f6e6c7920616c6c6f7765642061667465722066696e616c6981526020017f7a6174696f6e000000000000000000000000000000000000000000000000000081525060400191505060405180910390fd5b610db86101f860009054906101000a90046fffffffffffffffffffffffffffffffff166101f760019054906101000a90046fffffffffffffffffffffffffffffffff166103e8610e7b565b915060016101f760019054906101000a90046fffffffffffffffffffffffffffffffff160190505b6103e86fffffffffffffffffffffffffffffffff16816fffffffffffffffffffffffffffffffff161015610e7357610e646001826fffffffffffffffffffffffffffffffff166103e881101515610e3357fe5b600291828204019190066010029054906101000a90046fffffffffffffffffffffffffffffffff16826103e8610e7b565b82019150600181019050610de0565b819250505090565b6000806000806000806000876fffffffffffffffffffffffffffffffff16111515610ea257fe5b886fffffffffffffffffffffffffffffffff169450876fffffffffffffffffffffffffffffffff169350866fffffffffffffffffffffffffffffffff16925082848602811515610eee57fe5b049150819050806fffffffffffffffffffffffffffffffff1682141515610f1157fe5b80955050505050509392505050565b6001816103e881101515610f3057fe5b60029182820401919006601002915054906101000a90046fffffffffffffffffffffffffffffffff1681565b6000806000806000806000876fffffffffffffffffffffffffffffffff16111515610f8357fe5b886fffffffffffffffffffffffffffffffff169450876fffffffffffffffffffffffffffffffff169350866fffffffffffffffffffffffffffffffff169250600083858702811515610fd157fe5b06141515610fdb57fe5b82848602811515610fe857fe5b049150819050806fffffffffffffffffffffffffffffffff168214151561100b57fe5b80955050505050509392505050565b6101f56020528060005260406000206000915054906101000a90046fffffffffffffffffffffffffffffffff1681565b6000809054906101000a900473ffffffffffffffffffffffffffffffffffffffff1673ffffffffffffffffffffffffffffffffffffffff163373ffffffffffffffffffffffffffffffffffffffff1614151561110e576040517f08c379a000000000000000000000000000000000000000000000000000000000815260040180806020018281038252600e8152602001807f4e6f7420417574686f72697a656400000000000000000000000000000000000081525060200191505060405180910390fd5b6101f760009054906101000a900460ff161515156111ba576040517f08c379a00000000000000000000000000000000000000000000000000000000081526004018080602001828103825260278152602001807f4d6574686f64206f6e6c7920616c6c6f776564206265666f72652066696e616c81526020017f697a6174696f6e0000000000000000000000000000000000000000000000000081525060400191505060405180910390fd5b6000826fffffffffffffffffffffffffffffffff1611151561126a576040517f08c379a00000000000000000000000000000000000000000000000000000000081526004018080602001828103825260228152602001807f476f747461206861766520736f6d657468696e6720746f20636f6e747269627581526020017f746500000000000000000000000000000000000000000000000000000000000081525060400191505060405180910390fd5b60006103e86fffffffffffffffffffffffffffffffff16836fffffffffffffffffffffffffffffffff1681151561129d57fe5b066fffffffffffffffffffffffffffffffff1614151561134b576040517f08c379a000000000000000000000000000000000000000000000000000000000815260040180806020018281038252602b8152602001807f416d6f756e74206d75737420626520646976697369626c65206279206665652081526020017f64656e6f6d696e61746f7200000000000000000000000000000000000000000081525060400191505060405180910390fd5b6000816fffffffffffffffffffffffffffffffff161015801561139357506103e86fffffffffffffffffffffffffffffffff16816fffffffffffffffffffffffffffffffff16105b1515611407576040517f08c379a00000000000000000000000000000000000000000000000000000000081526004018080602001828103825260108152602001807f426164206665654e756d657261746f720000000000000000000000000000000081525060200191505060405180910390fd5b60006101f660008573ffffffffffffffffffffffffffffffffffffffff1673ffffffffffffffffffffffffffffffffffffffff16815260200190815260200160002060009054906101000a90046fffffffffffffffffffffffffffffffff166fffffffffffffffffffffffffffffffff16141515611539576040517f08c379a00000000000000000000000000000000000000000000000000000000081526004018080602001828103825260418152602001807f4f6e652068617320746f2077697468647261772070726576696f757320636f6e81526020017f747269627574696f6e206265666f7265206d616b696e672061206e6577206f6e81526020017f650000000000000000000000000000000000000000000000000000000000000081525060600191505060405180910390fd5b816101f660008573ffffffffffffffffffffffffffffffffffffffff1673ffffffffffffffffffffffffffffffffffffffff16815260200190815260200160002060006101000a8154816fffffffffffffffffffffffffffffffff02191690836fffffffffffffffffffffffffffffffff160217905550806101f560008573ffffffffffffffffffffffffffffffffffffffff1673ffffffffffffffffffffffffffffffffffffffff16815260200190815260200160002060006101000a8154816fffffffffffffffffffffffffffffffff02191690836fffffffffffffffffffffffffffffffff16021790555061167a6001826fffffffffffffffffffffffffffffffff166103e88110151561164c57fe5b600291828204019190066010029054906101000a90046fffffffffffffffffffffffffffffffff168361085a565b6001826fffffffffffffffffffffffffffffffff166103e88110151561169c57fe5b600291828204019190066010026101000a8154816fffffffffffffffffffffffffffffffff02191690836fffffffffffffffffffffffffffffffff160217905550505050565b60008060009054906101000a900473ffffffffffffffffffffffffffffffffffffffff16905090565b60006101f760009054906101000a900460ff16905090565b6101f66020528060005260406000206000915054906101000a90046fffffffffffffffffffffffffffffffff1681565b6000809054906101000a900473ffffffffffffffffffffffffffffffffffffffff1673ffffffffffffffffffffffffffffffffffffffff163373ffffffffffffffffffffffffffffffffffffffff16141515611817576040517f08c379a000000000000000000000000000000000000000000000000000000000815260040180806020018281038252600e8152602001807f4e6f7420417574686f72697a656400000000000000000000000000000000000081525060200191505060405180910390fd5b6101f760009054906101000a900460ff161515156118c3576040517f08c379a00000000000000000000000000000000000000000000000000000000081526004018080602001828103825260278152602001807f4d6574686f64206f6e6c7920616c6c6f776564206265666f72652066696e616c81526020017f697a6174696f6e0000000000000000000000000000000000000000000000000081525060400191505060405180910390fd5b60016101f760006101000a81548160ff0219169083151502179055506118e881611d33565b6101f760016101f860008491906101000a8154816fffffffffffffffffffffffffffffffff02191690836fffffffffffffffffffffffffffffffff1602179055508391906101000a8154816fffffffffffffffffffffffffffffffff02191690836fffffffffffffffffffffffffffffffff160217905550505050565b60008060008060009054906101000a900473ffffffffffffffffffffffffffffffffffffffff1673ffffffffffffffffffffffffffffffffffffffff163373ffffffffffffffffffffffffffffffffffffffff16141515611a2e576040517f08c379a000000000000000000000000000000000000000000000000000000000815260040180806020018281038252600e8152602001807f4e6f7420417574686f72697a656400000000000000000000000000000000000081525060200191505060405180910390fd5b6101f760009054906101000a900460ff16151515611ada576040517f08c379a00000000000000000000000000000000000000000000000000000000081526004018080602001828103825260278152602001807f4d6574686f64206f6e6c7920616c6c6f776564206265666f72652066696e616c81526020017f697a6174696f6e0000000000000000000000000000000000000000000000000081525060400191505060405180910390fd5b6101f660008573ffffffffffffffffffffffffffffffffffffffff1673ffffffffffffffffffffffffffffffffffffffff16815260200190815260200160002060009054906101000a90046fffffffffffffffffffffffffffffffff1691506000826fffffffffffffffffffffffffffffffff161415611b5c57819250611ced565b60006101f660008673ffffffffffffffffffffffffffffffffffffffff1673ffffffffffffffffffffffffffffffffffffffff16815260200190815260200160002060006101000a8154816fffffffffffffffffffffffffffffffff02191690836fffffffffffffffffffffffffffffffff1602179055506101f560008573ffffffffffffffffffffffffffffffffffffffff1673ffffffffffffffffffffffffffffffffffffffff16815260200190815260200160002060009054906101000a90046fffffffffffffffffffffffffffffffff169050611c866001826fffffffffffffffffffffffffffffffff166103e881101515611c5857fe5b600291828204019190066010029054906101000a90046fffffffffffffffffffffffffffffffff1683610c80565b6001826fffffffffffffffffffffffffffffffff166103e881101515611ca857fe5b600291828204019190066010026101000a8154816fffffffffffffffffffffffffffffffff02191690836fffffffffffffffffffffffffffffffff1602179055508192505b5050919050565b6103e881565b6000809054906101000a900473ffffffffffffffffffffffffffffffffffffffff1681565b6101f760009054906101000a900460ff1681565b600080600080600080600080945060016103e80393506000846fffffffffffffffffffffffffffffffff16111515611d6757fe5b5b600115611e23576001846fffffffffffffffffffffffffffffffff166103e881101515611d9157fe5b600291828204019190066010029054906101000a90046fffffffffffffffffffffffffffffffff169250611dc5858461085a565b91506000846fffffffffffffffffffffffffffffffff161480611e0b5750876fffffffffffffffffffffffffffffffff16826fffffffffffffffffffffffffffffffff16115b15611e1557611e23565b600184039350819450611d68565b876fffffffffffffffffffffffffffffffff16826fffffffffffffffffffffffffffffffff1611611e545781611e56565b875b9050846fffffffffffffffffffffffffffffffff16816fffffffffffffffffffffffffffffffff1610151515611e8857fe5b839650611e958186610c80565b955050505050509150915600a165627a7a7230582077d28a412566522adb413318a406f818e9e201b26dc2fad43a7ae1e3e6bfafdd0029",
  "source": "pragma solidity ^0.4.24;\n\nimport \"./IAccounting.sol\";\n\n/**\n * Keeps track of all contributions, and calculates how much each contributor\n * is entitled to.\n *\n * Doesn't actually hold any funds, just keeps records.\n */\ncontract Accounting is IAccounting {\n  uint128 constant public FEE_DENOMINATOR = 1000;\n  address public m_owner;\n\n  uint128[FEE_DENOMINATOR] public m_contributionPerFeeNumerator;\n  mapping(address => uint128) public m_feeNumeratorPerContributor;\n  mapping(address => uint128) public m_contributionPerContributor;\n\n  // populated at finalization\n  bool public m_isFinalized = false;\n  uint128 m_boundaryFeeNumerator;\n  uint128 m_fundsUsedFromBoundaryBucket;\n\n  constructor(address owner) public {\n    m_owner = owner;\n  }\n\n  modifier ownerOnly() {\n    require (msg.sender == m_owner, \"Not Authorized\");\n    _;\n  }\n\n  modifier beforeFinalizationOnly() {\n    require (!m_isFinalized, \"Method only allowed before finalization\");\n    _;\n  }\n\n  modifier afterFinalizationOnly() {\n    require (m_isFinalized, \"Method only allowed after finalization\");\n    _;\n  }\n\n  function getOwner() external view returns (address) {\n    return m_owner;\n  }\n\n  function contribute(\n    address contributor,\n    uint128 amount,\n    uint128 feeNumerator\n  ) external ownerOnly beforeFinalizationOnly {\n    require(\n      amount > 0,\n      \"Gotta have something to contribute\"\n    );\n    require(\n      amount % FEE_DENOMINATOR == 0,\n      \"Amount must be divisible by fee denominator\"\n    );\n    require(\n      feeNumerator >= 0 && feeNumerator < FEE_DENOMINATOR,\n      \"Bad feeNumerator\"\n    );\n    require(\n      m_contributionPerContributor[contributor] == 0,\n      \"One has to withdraw previous contribution before making a new one\"\n    );\n\n    m_contributionPerContributor[contributor] = amount;\n    m_feeNumeratorPerContributor[contributor] = feeNumerator;\n    m_contributionPerFeeNumerator[feeNumerator] = safeAdd(\n      m_contributionPerFeeNumerator[feeNumerator],\n      amount\n    );\n  }\n\n  function withdrawContribution(\n    address contributor\n  ) external ownerOnly beforeFinalizationOnly returns (uint128) {\n    uint128 amount = m_contributionPerContributor[contributor];\n\n    if (amount == 0) {\n      return amount;\n    }\n\n    m_contributionPerContributor[contributor] = 0;\n\n    uint128 feeNumerator = m_feeNumeratorPerContributor[contributor];\n    m_contributionPerFeeNumerator[feeNumerator] = safeSub(\n      m_contributionPerFeeNumerator[feeNumerator],\n      amount\n    );\n    return amount;\n  }\n\n  /**\n   * Someone may have sent us (by mistake or maliciously) extra dispute tokens.\n   * This is not fatal, but we need to be aware that amountDisputed may actually\n   * be greater than the REP contributed and not crash.\n   */\n  function finalize(uint128 amountDisputed) external ownerOnly beforeFinalizationOnly {\n    m_isFinalized = true;\n    (\n      m_boundaryFeeNumerator,\n      m_fundsUsedFromBoundaryBucket\n    ) = findBoundaryBucketForAmountDisputed(amountDisputed);\n  }\n\n  function isFinalized() external view returns (bool) {\n    return m_isFinalized;\n  }\n\n  /**\n   * Finds such lowest fee bucket, that all buckets with fee higher than that\n   * were fully included in the dispute, and none of the funds from buckets\n   * with fee lower than that were included in the dispute.\n   *\n   * Also calculates how much funds from the boundary bucket were included in\n   * the dispute (normally current bucket participated partially).\n   *\n   * The returned index will always be a valid feeNumerator.\n   */\n  function findBoundaryBucketForAmountDisputed(\n    uint128 amountDisputed\n  ) internal view returns (uint128 feeNumerator, uint128 fundsUsedFromBoundaryBucket) {\n    uint128 fundsInBucketsWithHigherFee = 0;\n    uint128 tentativeBoundaryBucket = FEE_DENOMINATOR - 1;\n\n    uint128 fundsInCurrentBucket;\n    uint128 fundsWithCurrentBucket;\n\n    // length of the loop constrained by constant FEE_DENOMINATOR\n    assert(tentativeBoundaryBucket > 0);\n    while (true) {\n      fundsInCurrentBucket = m_contributionPerFeeNumerator[tentativeBoundaryBucket];\n      fundsWithCurrentBucket = safeAdd(fundsInBucketsWithHigherFee, fundsInCurrentBucket);\n\n      if (tentativeBoundaryBucket == 0 || fundsWithCurrentBucket > amountDisputed) {\n        break;\n      }\n\n      tentativeBoundaryBucket -= 1;\n      fundsInBucketsWithHigherFee = fundsWithCurrentBucket;\n    }\n\n    // this is needed to protect against corner cases if someone sent dispute\n    // tokens into this contract directly in excess from what contributors funded\n    uint128 safeFundsWithCurrentBucket = fundsWithCurrentBucket > amountDisputed\n      ? amountDisputed\n      : fundsWithCurrentBucket;\n\n    assert(safeFundsWithCurrentBucket >= fundsInBucketsWithHigherFee);\n\n    feeNumerator = tentativeBoundaryBucket;\n    fundsUsedFromBoundaryBucket = safeSub(safeFundsWithCurrentBucket, fundsInBucketsWithHigherFee);\n  }\n\n  function safeAdd(uint128 a, uint128 b) public pure returns (uint128) {\n    uint128 r = a + b;\n    assert(r >= a && r >= b);\n    return r;\n  }\n\n  function safeSub(uint128 a, uint128 b) public pure returns (uint128) {\n    assert(a >= b);\n    return a - b;\n  }\n\n  function safeMulDiv(uint128 a, uint128 b, uint128 c) public pure returns (uint128) {\n    assert(c > 0);\n    uint256 wa = a;\n    uint256 wb = b;\n    uint256 wc = c;\n\n    uint256 result = wa * wb / wc;\n    uint128 result128 = uint128(result);\n\n    assert(result == result128);\n    return result128;\n  }\n\n  function safeMulDivExact(uint128 a, uint128 b, uint128 c) public pure returns (uint128) {\n    assert(c > 0);\n    uint256 wa = a;\n    uint256 wb = b;\n    uint256 wc = c;\n\n    assert((wa * wb) % wc == 0);\n    uint256 result = wa * wb / wc;\n    uint128 result128 = uint128(result);\n\n    assert(result == result128);\n    return result128;\n  }\n\n  /**\n   * Return value is how much REP and dispute tokens the contributor is entitled to.\n   *\n   * Does not change the state, as accounting is finalized at that moment.\n   *\n   * In case of partial fill, we round down, leaving some dust in the contract.\n   */\n  function calculateProceeds(\n    address contributor\n    ) external afterFinalizationOnly view returns (uint128 rep, uint128 disputeTokens) {\n    uint128 contributorFeeNumerator = m_feeNumeratorPerContributor[contributor];\n    uint128 originalContributionOfContributor = m_contributionPerContributor[contributor];\n\n    if (originalContributionOfContributor == 0) {\n      return (0, 0);\n    }\n\n    if (contributorFeeNumerator < m_boundaryFeeNumerator) {\n      // this contributor didn't make it into dispute round, just refund REP\n      rep = originalContributionOfContributor;\n      disputeTokens = 0;\n    } else if (contributorFeeNumerator > m_boundaryFeeNumerator) {\n      // this contributor fully got into dispute round, award dispute tokens\n      // while subtracting fee\n      rep = 0;\n      disputeTokens = safeMulDivExact(\n        originalContributionOfContributor,\n        safeSub(FEE_DENOMINATOR, contributorFeeNumerator),\n        FEE_DENOMINATOR\n      );\n    } else {\n      assert(contributorFeeNumerator == m_boundaryFeeNumerator);\n      // most complex case, contributor partially got into dispute rounds\n      uint128 totalBucketSize = m_contributionPerFeeNumerator[contributorFeeNumerator];\n      uint128 filledBucketSize = m_fundsUsedFromBoundaryBucket;\n      assert(totalBucketSize > 0);\n      assert(filledBucketSize <= totalBucketSize);\n\n      // award dispute tokens proportionally, less fee\n      disputeTokens = safeMulDiv(\n        safeMulDivExact(\n          originalContributionOfContributor,\n          safeSub(FEE_DENOMINATOR, contributorFeeNumerator),\n          FEE_DENOMINATOR\n        ),\n        filledBucketSize,\n        totalBucketSize\n      );\n      // refund rep for the rest\n      rep = safeMulDiv(\n        originalContributionOfContributor,\n        safeSub(totalBucketSize, filledBucketSize),\n        totalBucketSize\n      );\n    }\n  }\n\n  /**\n   * Calculate fee that will be split between contract admin and\n   * account that triggered dispute transaction.\n   *\n   * In case of partial fill, we round down, leaving some dust in the contract.\n   */\n  function calculateFees() external afterFinalizationOnly view returns (uint128) {\n    uint128 totalFees = safeMulDiv(\n      m_fundsUsedFromBoundaryBucket,\n      m_boundaryFeeNumerator,\n      FEE_DENOMINATOR\n    );\n\n    uint128 feeNumerator = m_boundaryFeeNumerator + 1;\n\n    while (feeNumerator < FEE_DENOMINATOR) {\n      totalFees += safeMulDiv(\n        m_contributionPerFeeNumerator[feeNumerator],\n        feeNumerator,\n        FEE_DENOMINATOR\n      );\n      feeNumerator += 1;\n    }\n\n    return totalFees;\n  }\n}\n",
  "sourcePath": "/src/contracts/Accounting.sol",
  "compiler": {
    "name": "solc",
    "version": "0.4.24+commit.e67f0147.Emscripten.clang"
  },
  "schemaVersion": "2.0.1",
  "updatedAt": "2018-10-28T19:02:16.942Z"
}