{
  "contractName": "AccountingFactory",
  "abi": [
    {
      "anonymous": false,
      "inputs": [
        {
          "indexed": false,
          "name": "_owner",
          "type": "address"
        },
        {
          "indexed": false,
          "name": "_address",
          "type": "address"
        }
      ],
      "name": "Created",
      "type": "event"
    },
    {
      "constant": false,
      "inputs": [
        {
          "name": "owner",
          "type": "address"
        }
      ],
      "name": "create",
      "outputs": [
        {
          "name": "",
          "type": "address"
        }
      ],
      "payable": false,
      "stateMutability": "nonpayable",
      "type": "function"
    }
  ],
  "bytecode": "0x608060405234801561001057600080fd5b50612140806100206000396000f300608060405260043610610041576000357c0100000000000000000000000000000000000000000000000000000000900463ffffffff1680639ed9331814610046575b600080fd5b34801561005257600080fd5b50610087600480360381019080803573ffffffffffffffffffffffffffffffffffffffff1690602001909291905050506100c9565b604051808273ffffffffffffffffffffffffffffffffffffffff1673ffffffffffffffffffffffffffffffffffffffff16815260200191505060405180910390f35b600080826100d56101ca565b808273ffffffffffffffffffffffffffffffffffffffff1673ffffffffffffffffffffffffffffffffffffffff168152602001915050604051809103906000f080158015610127573d6000803e3d6000fd5b5090507f587ece4cd19692c5be1a4184503d607d45542d2aca0698c0068f52e09ccb541c8382604051808373ffffffffffffffffffffffffffffffffffffffff1673ffffffffffffffffffffffffffffffffffffffff1681526020018273ffffffffffffffffffffffffffffffffffffffff1673ffffffffffffffffffffffffffffffffffffffff1681526020019250505060405180910390a180915050919050565b604051611f3a806101db833901905600608060405260006101f760006101000a81548160ff02191690831515021790555034801561002c57600080fd5b50604051602080611f3a83398101806040528101908080519060200190929190505050806000806101000a81548173ffffffffffffffffffffffffffffffffffffffff021916908373ffffffffffffffffffffffffffffffffffffffff16021790555050611e9b8061009f6000396000f3006080604052600436106100f1576000357c0100000000000000000000000000000000000000000000000000000000900463ffffffff1680631230dc13146100f6578063228c4a511461014557806328d21f92146101945780632ec755231461023a5780635edfa1f81461028957806368707ce1146102d857806377a39a3d1461033d57806378cacd6e146103b8578063893d20e8146104965780638d4e4083146104ed578063925025ba1461051c5780639826655014610597578063a35c4709146105d6578063d73792a91461067c578063deff41c1146106cb578063dfe29a8614610722578063e0dd81f814610751575b600080fd5b34801561010257600080fd5b5061010b6107e4565b60405180826fffffffffffffffffffffffffffffffff166fffffffffffffffffffffffffffffffff16815260200191505060405180910390f35b34801561015157600080fd5b5061015a610807565b60405180826fffffffffffffffffffffffffffffffff166fffffffffffffffffffffffffffffffff16815260200191505060405180910390f35b3480156101a057600080fd5b506101d5600480360381019080803573ffffffffffffffffffffffffffffffffffffffff16906020019092919050505061082a565b60405180836fffffffffffffffffffffffffffffffff166fffffffffffffffffffffffffffffffff168152602001826fffffffffffffffffffffffffffffffff166fffffffffffffffffffffffffffffffff1681526020019250505060405180910390f35b34801561024657600080fd5b5061024f610bf5565b60405180826fffffffffffffffffffffffffffffffff166fffffffffffffffffffffffffffffffff16815260200191505060405180910390f35b34801561029557600080fd5b5061029e610c18565b60405180826fffffffffffffffffffffffffffffffff166fffffffffffffffffffffffffffffffff16815260200191505060405180910390f35b3480156102e457600080fd5b5061030360048036038101908080359060200190929190505050610d15565b60405180826fffffffffffffffffffffffffffffffff166fffffffffffffffffffffffffffffffff16815260200191505060405180910390f35b34801561034957600080fd5b5061037e600480360381019080803573ffffffffffffffffffffffffffffffffffffffff169060200190929190505050610d51565b60405180826fffffffffffffffffffffffffffffffff166fffffffffffffffffffffffffffffffff16815260200191505060405180910390f35b3480156103c457600080fd5b50610431600480360381019080803573ffffffffffffffffffffffffffffffffffffffff16906020019092919080356fffffffffffffffffffffffffffffffff16906020019092919080356fffffffffffffffffffffffffffffffff169060200190929190505050610d81565b60405180836fffffffffffffffffffffffffffffffff166fffffffffffffffffffffffffffffffff168152602001826fffffffffffffffffffffffffffffffff166fffffffffffffffffffffffffffffffff1681526020019250505060405180910390f35b3480156104a257600080fd5b506104ab611431565b604051808273ffffffffffffffffffffffffffffffffffffffff1673ffffffffffffffffffffffffffffffffffffffff16815260200191505060405180910390f35b3480156104f957600080fd5b5061050261145a565b604051808215151515815260200191505060405180910390f35b34801561052857600080fd5b5061055d600480360381019080803573ffffffffffffffffffffffffffffffffffffffff169060200190929190505050611472565b60405180826fffffffffffffffffffffffffffffffff166fffffffffffffffffffffffffffffffff16815260200191505060405180910390f35b3480156105a357600080fd5b506105d460048036038101908080356fffffffffffffffffffffffffffffffff1690602001909291905050506114a2565b005b3480156105e257600080fd5b50610617600480360381019080803573ffffffffffffffffffffffffffffffffffffffff1690602001909291905050506116ee565b60405180836fffffffffffffffffffffffffffffffff166fffffffffffffffffffffffffffffffff168152602001826fffffffffffffffffffffffffffffffff166fffffffffffffffffffffffffffffffff1681526020019250505060405180910390f35b34801561068857600080fd5b50610691611a69565b60405180826fffffffffffffffffffffffffffffffff166fffffffffffffffffffffffffffffffff16815260200191505060405180910390f35b3480156106d757600080fd5b506106e0611a6f565b604051808273ffffffffffffffffffffffffffffffffffffffff1673ffffffffffffffffffffffffffffffffffffffff16815260200191505060405180910390f35b34801561072e57600080fd5b50610737611a94565b604051808215151515815260200191505060405180910390f35b34801561075d57600080fd5b506107aa60048036038101908080356fffffffffffffffffffffffffffffffff16906020019092919080356fffffffffffffffffffffffffffffffff169060200190929190505050611aa8565b60405180826fffffffffffffffffffffffffffffffff166fffffffffffffffffffffffffffffffff16815260200191505060405180910390f35b6101f860109054906101000a90046fffffffffffffffffffffffffffffffff1681565b6101f860009054906101000a90046fffffffffffffffffffffffffffffffff1681565b6000806000806000806101f760009054906101000a900460ff1615156108de576040517f08c379a00000000000000000000000000000000000000000000000000000000081526004018080602001828103825260268152602001807f4d6574686f64206f6e6c7920616c6c6f7765642061667465722066696e616c6981526020017f7a6174696f6e000000000000000000000000000000000000000000000000000081525060400191505060405180910390fd5b6101f560008873ffffffffffffffffffffffffffffffffffffffff1673ffffffffffffffffffffffffffffffffffffffff16815260200190815260200160002060009054906101000a90046fffffffffffffffffffffffffffffffff1693506101f660008873ffffffffffffffffffffffffffffffffffffffff1673ffffffffffffffffffffffffffffffffffffffff16815260200190815260200160002060009054906101000a90046fffffffffffffffffffffffffffffffff1692506000836fffffffffffffffffffffffffffffffff1614156109c95760008081915080905095509550610bec565b6101f860009054906101000a90046fffffffffffffffffffffffffffffffff166fffffffffffffffffffffffffffffffff16846fffffffffffffffffffffffffffffffff161015610a295760009450610a228385611aa8565b9550610beb565b6101f860009054906101000a90046fffffffffffffffffffffffffffffffff166fffffffffffffffffffffffffffffffff16846fffffffffffffffffffffffffffffffff161115610ab357829450610aac83610aa4866101f860009054906101000a90046fffffffffffffffffffffffffffffffff16611aca565b6103e8611b07565b9550610bea565b6101f860009054906101000a90046fffffffffffffffffffffffffffffffff166fffffffffffffffffffffffffffffffff16846fffffffffffffffffffffffffffffffff16141515610b0157fe5b6001846fffffffffffffffffffffffffffffffff166103e881101515610b2357fe5b600291828204019190066010029054906101000a90046fffffffffffffffffffffffffffffffff1691506000826fffffffffffffffffffffffffffffffff16111515610b6b57fe5b6101f860109054906101000a90046fffffffffffffffffffffffffffffffff169050816fffffffffffffffffffffffffffffffff16816fffffffffffffffffffffffffffffffff1611151515610bbd57fe5b610bc8838284611bc5565b9450610be7610bd78486611aa8565b610be18484611aca565b84611bc5565b95505b5b5b50505050915091565b6101f760019054906101000a90046fffffffffffffffffffffffffffffffff1681565b60006101f760009054906101000a900460ff161515610cc5576040517f08c379a00000000000000000000000000000000000000000000000000000000081526004018080602001828103825260268152602001807f4d6574686f64206f6e6c7920616c6c6f7765642061667465722066696e616c6981526020017f7a6174696f6e000000000000000000000000000000000000000000000000000081525060400191505060405180910390fd5b610d106101f760019054906101000a90046fffffffffffffffffffffffffffffffff166101f860009054906101000a90046fffffffffffffffffffffffffffffffff166103e8611bc5565b905090565b6001816103e881101515610d2557fe5b60029182820401919006601002915054906101000a90046fffffffffffffffffffffffffffffffff1681565b6101f56020528060005260406000206000915054906101000a90046fffffffffffffffffffffffffffffffff1681565b6000806000809054906101000a900473ffffffffffffffffffffffffffffffffffffffff1673ffffffffffffffffffffffffffffffffffffffff163373ffffffffffffffffffffffffffffffffffffffff16141515610e48576040517f08c379a000000000000000000000000000000000000000000000000000000000815260040180806020018281038252600e8152602001807f4e6f7420417574686f72697a656400000000000000000000000000000000000081525060200191505060405180910390fd5b6101f760009054906101000a900460ff16151515610ef4576040517f08c379a00000000000000000000000000000000000000000000000000000000081526004018080602001828103825260278152602001807f4d6574686f64206f6e6c7920616c6c6f776564206265666f72652066696e616c81526020017f697a6174696f6e0000000000000000000000000000000000000000000000000081525060400191505060405180910390fd5b6000846fffffffffffffffffffffffffffffffff16111515610fa4576040517f08c379a00000000000000000000000000000000000000000000000000000000081526004018080602001828103825260228152602001807f476f747461206861766520736f6d657468696e6720746f20636f6e747269627581526020017f746500000000000000000000000000000000000000000000000000000000000081525060400191505060405180910390fd5b60006103e86fffffffffffffffffffffffffffffffff16856fffffffffffffffffffffffffffffffff16811515610fd757fe5b066fffffffffffffffffffffffffffffffff16141515611085576040517f08c379a000000000000000000000000000000000000000000000000000000000815260040180806020018281038252602b8152602001807f416d6f756e74206d75737420626520646976697369626c65206279206665652081526020017f64656e6f6d696e61746f7200000000000000000000000000000000000000000081525060400191505060405180910390fd5b6000836fffffffffffffffffffffffffffffffff16101580156110cd57506103e86fffffffffffffffffffffffffffffffff16836fffffffffffffffffffffffffffffffff16105b1515611141576040517f08c379a00000000000000000000000000000000000000000000000000000000081526004018080602001828103825260108152602001807f426164206665654e756d657261746f720000000000000000000000000000000081525060200191505060405180910390fd5b60006101f660008773ffffffffffffffffffffffffffffffffffffffff1673ffffffffffffffffffffffffffffffffffffffff16815260200190815260200160002060009054906101000a90046fffffffffffffffffffffffffffffffff166fffffffffffffffffffffffffffffffff16141515611273576040517f08c379a00000000000000000000000000000000000000000000000000000000081526004018080602001828103825260418152602001807f4f6e652068617320746f2077697468647261772070726576696f757320636f6e81526020017f747269627574696f6e206265666f7265206d616b696e672061206e6577206f6e81526020017f650000000000000000000000000000000000000000000000000000000000000081525060600191505060405180910390fd5b836101f660008773ffffffffffffffffffffffffffffffffffffffff1673ffffffffffffffffffffffffffffffffffffffff16815260200190815260200160002060006101000a8154816fffffffffffffffffffffffffffffffff02191690836fffffffffffffffffffffffffffffffff160217905550826101f560008773ffffffffffffffffffffffffffffffffffffffff1673ffffffffffffffffffffffffffffffffffffffff16815260200190815260200160002060006101000a8154816fffffffffffffffffffffffffffffffff02191690836fffffffffffffffffffffffffffffffff1602179055506113b46001846fffffffffffffffffffffffffffffffff166103e88110151561138657fe5b600291828204019190066010029054906101000a90046fffffffffffffffffffffffffffffffff1685611c6a565b6001846fffffffffffffffffffffffffffffffff166103e8811015156113d657fe5b600291828204019190066010026101000a8154816fffffffffffffffffffffffffffffffff02191690836fffffffffffffffffffffffffffffffff1602179055508361142585856103e8611b07565b91509150935093915050565b60008060009054906101000a900473ffffffffffffffffffffffffffffffffffffffff16905090565b60006101f760009054906101000a900460ff16905090565b6101f66020528060005260406000206000915054906101000a90046fffffffffffffffffffffffffffffffff1681565b6000809054906101000a900473ffffffffffffffffffffffffffffffffffffffff1673ffffffffffffffffffffffffffffffffffffffff163373ffffffffffffffffffffffffffffffffffffffff16141515611566576040517f08c379a000000000000000000000000000000000000000000000000000000000815260040180806020018281038252600e8152602001807f4e6f7420417574686f72697a656400000000000000000000000000000000000081525060200191505060405180910390fd5b6101f760009054906101000a900460ff16151515611612576040517f08c379a00000000000000000000000000000000000000000000000000000000081526004018080602001828103825260278152602001807f4d6574686f64206f6e6c7920616c6c6f776564206265666f72652066696e616c81526020017f697a6174696f6e0000000000000000000000000000000000000000000000000081525060400191505060405180910390fd5b60016101f760006101000a81548160ff021916908315150217905550806101f760016101000a8154816fffffffffffffffffffffffffffffffff02191690836fffffffffffffffffffffffffffffffff16021790555061167181611cac565b6101f860006101f860108491906101000a8154816fffffffffffffffffffffffffffffffff02191690836fffffffffffffffffffffffffffffffff1602179055508391906101000a8154816fffffffffffffffffffffffffffffffff02191690836fffffffffffffffffffffffffffffffff160217905550505050565b6000806000806000809054906101000a900473ffffffffffffffffffffffffffffffffffffffff1673ffffffffffffffffffffffffffffffffffffffff163373ffffffffffffffffffffffffffffffffffffffff161415156117b8576040517f08c379a000000000000000000000000000000000000000000000000000000000815260040180806020018281038252600e8152602001807f4e6f7420417574686f72697a656400000000000000000000000000000000000081525060200191505060405180910390fd5b6101f760009054906101000a900460ff16151515611864576040517f08c379a00000000000000000000000000000000000000000000000000000000081526004018080602001828103825260278152602001807f4d6574686f64206f6e6c7920616c6c6f776564206265666f72652066696e616c81526020017f697a6174696f6e0000000000000000000000000000000000000000000000000081525060400191505060405180910390fd5b6101f660008673ffffffffffffffffffffffffffffffffffffffff1673ffffffffffffffffffffffffffffffffffffffff16815260200190815260200160002060009054906101000a90046fffffffffffffffffffffffffffffffff16915060006101f660008773ffffffffffffffffffffffffffffffffffffffff1673ffffffffffffffffffffffffffffffffffffffff16815260200190815260200160002060006101000a8154816fffffffffffffffffffffffffffffffff02191690836fffffffffffffffffffffffffffffffff1602179055506101f560008673ffffffffffffffffffffffffffffffffffffffff1673ffffffffffffffffffffffffffffffffffffffff16815260200190815260200160002060009054906101000a90046fffffffffffffffffffffffffffffffff1690506119ed6001826fffffffffffffffffffffffffffffffff166103e8811015156119bf57fe5b600291828204019190066010029054906101000a90046fffffffffffffffffffffffffffffffff1683611aca565b6001826fffffffffffffffffffffffffffffffff166103e881101515611a0f57fe5b600291828204019190066010026101000a8154816fffffffffffffffffffffffffffffffff02191690836fffffffffffffffffffffffffffffffff16021790555081611a5e83836103e8611b07565b935093505050915091565b6103e881565b6000809054906101000a900473ffffffffffffffffffffffffffffffffffffffff1681565b6101f760009054906101000a900460ff1681565b6000611ac283611aba6103e885611c6a565b6103e8611b07565b905092915050565b6000816fffffffffffffffffffffffffffffffff16836fffffffffffffffffffffffffffffffff1610151515611afc57fe5b818303905092915050565b6000806000806000806000876fffffffffffffffffffffffffffffffff16111515611b2e57fe5b886fffffffffffffffffffffffffffffffff169450876fffffffffffffffffffffffffffffffff169350866fffffffffffffffffffffffffffffffff169250600083858702811515611b7c57fe5b06141515611b8657fe5b82848602811515611b9357fe5b049150819050806fffffffffffffffffffffffffffffffff1682141515611bb657fe5b80955050505050509392505050565b6000806000806000806000876fffffffffffffffffffffffffffffffff16111515611bec57fe5b886fffffffffffffffffffffffffffffffff169450876fffffffffffffffffffffffffffffffff169350866fffffffffffffffffffffffffffffffff16925082848602811515611c3857fe5b049150819050806fffffffffffffffffffffffffffffffff1682141515611c5b57fe5b80955050505050509392505050565b6000808284019050836fffffffffffffffffffffffffffffffff16816fffffffffffffffffffffffffffffffff1610151515611ca257fe5b8091505092915050565b60008060008060008060006103e89450600092506000856fffffffffffffffffffffffffffffffff16118015611d065750876fffffffffffffffffffffffffffffffff16836fffffffffffffffffffffffffffffffff1611155b1515611d0e57fe5b5b6000856fffffffffffffffffffffffffffffffff16118015611d555750876fffffffffffffffffffffffffffffffff16836fffffffffffffffffffffffffffffffff1611155b15611dc0576001850394508291506001856fffffffffffffffffffffffffffffffff166103e881101515611d8557fe5b600291828204019190066010029054906101000a90046fffffffffffffffffffffffffffffffff169350611db98285611c6a565b9250611d0f565b826fffffffffffffffffffffffffffffffff16886fffffffffffffffffffffffffffffffff161115611df25782611df4565b875b9050816fffffffffffffffffffffffffffffffff16816fffffffffffffffffffffffffffffffff1610151515611e2657fe5b849650611e338183611aca565b9550836fffffffffffffffffffffffffffffffff16866fffffffffffffffffffffffffffffffff1611151515611e6557fe5b50505050509150915600a165627a7a72305820e83beef7b5c2fa096cc506fa362d2d2d328bcce34d969de55ac45ac3466ac5f10029a165627a7a723058209dda68e742f63ba26ebd4de82bf871ec5a7afd6b600c9e9292fa18cbf745e73e0029",
  "source": "pragma solidity 0.4.24;\n\nimport \"./IAccountingFactory.sol\";\nimport \"./IAccounting.sol\";\nimport \"./Accounting.sol\";\n\ncontract AccountingFactory is IAccountingFactory {\n  event Created(address _owner, IAccounting _address);\n\n  function create(address owner) external returns(IAccounting) {\n    IAccounting _address = new Accounting(owner);\n    emit Created(owner, _address);\n    return _address;\n  }\n}\n",
  "sourcePath": "/src/contracts/AccountingFactory.sol",
  "compiler": {
    "name": "solc",
    "version": "0.4.24+commit.e67f0147.Emscripten.clang"
  },
  "schemaVersion": "2.0.1",
  "updatedAt": "2018-11-02T03:05:07.711Z"
}