{
  "contractName": "Accounting",
  "abi": [
    {
      "constant": true,
      "inputs": [
        {
          "name": "",
          "type": "uint256"
        }
      ],
      "name": "m_contributionPerFeeNumerator",
      "outputs": [
        {
          "name": "",
          "type": "uint128"
        }
      ],
      "payable": false,
      "stateMutability": "view",
      "type": "function"
    },
    {
      "constant": true,
      "inputs": [
        {
          "name": "",
          "type": "address"
        }
      ],
      "name": "m_feeNumeratorPerContributor",
      "outputs": [
        {
          "name": "",
          "type": "uint128"
        }
      ],
      "payable": false,
      "stateMutability": "view",
      "type": "function"
    },
    {
      "constant": true,
      "inputs": [
        {
          "name": "",
          "type": "address"
        }
      ],
      "name": "m_contributionPerContributor",
      "outputs": [
        {
          "name": "",
          "type": "uint128"
        }
      ],
      "payable": false,
      "stateMutability": "view",
      "type": "function"
    },
    {
      "constant": true,
      "inputs": [],
      "name": "FEE_DENOMINATOR",
      "outputs": [
        {
          "name": "",
          "type": "uint128"
        }
      ],
      "payable": false,
      "stateMutability": "view",
      "type": "function"
    },
    {
      "constant": true,
      "inputs": [],
      "name": "m_owner",
      "outputs": [
        {
          "name": "",
          "type": "address"
        }
      ],
      "payable": false,
      "stateMutability": "view",
      "type": "function"
    },
    {
      "constant": true,
      "inputs": [],
      "name": "m_isFinalized",
      "outputs": [
        {
          "name": "",
          "type": "bool"
        }
      ],
      "payable": false,
      "stateMutability": "view",
      "type": "function"
    },
    {
      "inputs": [
        {
          "name": "owner",
          "type": "address"
        }
      ],
      "payable": false,
      "stateMutability": "nonpayable",
      "type": "constructor"
    },
    {
      "constant": true,
      "inputs": [],
      "name": "getOwner",
      "outputs": [
        {
          "name": "",
          "type": "address"
        }
      ],
      "payable": false,
      "stateMutability": "view",
      "type": "function"
    },
    {
      "constant": false,
      "inputs": [
        {
          "name": "contributor",
          "type": "address"
        },
        {
          "name": "amount",
          "type": "uint128"
        },
        {
          "name": "feeNumerator",
          "type": "uint128"
        }
      ],
      "name": "contribute",
      "outputs": [
        {
          "name": "depositedLessFees",
          "type": "uint128"
        },
        {
          "name": "depositedFees",
          "type": "uint128"
        }
      ],
      "payable": false,
      "stateMutability": "nonpayable",
      "type": "function"
    },
    {
      "constant": false,
      "inputs": [
        {
          "name": "contributor",
          "type": "address"
        }
      ],
      "name": "withdrawContribution",
      "outputs": [
        {
          "name": "withdrawnLessFees",
          "type": "uint128"
        },
        {
          "name": "withdrawnFees",
          "type": "uint128"
        }
      ],
      "payable": false,
      "stateMutability": "nonpayable",
      "type": "function"
    },
    {
      "constant": false,
      "inputs": [
        {
          "name": "amountDisputed",
          "type": "uint128"
        }
      ],
      "name": "finalize",
      "outputs": [],
      "payable": false,
      "stateMutability": "nonpayable",
      "type": "function"
    },
    {
      "constant": true,
      "inputs": [],
      "name": "isFinalized",
      "outputs": [
        {
          "name": "",
          "type": "bool"
        }
      ],
      "payable": false,
      "stateMutability": "view",
      "type": "function"
    },
    {
      "constant": true,
      "inputs": [
        {
          "name": "a",
          "type": "uint128"
        },
        {
          "name": "b",
          "type": "uint128"
        }
      ],
      "name": "safeAdd",
      "outputs": [
        {
          "name": "",
          "type": "uint128"
        }
      ],
      "payable": false,
      "stateMutability": "pure",
      "type": "function"
    },
    {
      "constant": true,
      "inputs": [
        {
          "name": "a",
          "type": "uint128"
        },
        {
          "name": "b",
          "type": "uint128"
        }
      ],
      "name": "safeSub",
      "outputs": [
        {
          "name": "",
          "type": "uint128"
        }
      ],
      "payable": false,
      "stateMutability": "pure",
      "type": "function"
    },
    {
      "constant": true,
      "inputs": [
        {
          "name": "a",
          "type": "uint128"
        },
        {
          "name": "b",
          "type": "uint128"
        },
        {
          "name": "c",
          "type": "uint128"
        }
      ],
      "name": "safeMulDiv",
      "outputs": [
        {
          "name": "",
          "type": "uint128"
        }
      ],
      "payable": false,
      "stateMutability": "pure",
      "type": "function"
    },
    {
      "constant": true,
      "inputs": [
        {
          "name": "a",
          "type": "uint128"
        },
        {
          "name": "b",
          "type": "uint128"
        },
        {
          "name": "c",
          "type": "uint128"
        }
      ],
      "name": "safeMulDivExact",
      "outputs": [
        {
          "name": "",
          "type": "uint128"
        }
      ],
      "payable": false,
      "stateMutability": "pure",
      "type": "function"
    },
    {
      "constant": true,
      "inputs": [
        {
          "name": "contributor",
          "type": "address"
        }
      ],
      "name": "calculateProceeds",
      "outputs": [
        {
          "name": "rep",
          "type": "uint128"
        },
        {
          "name": "disputeTokens",
          "type": "uint128"
        }
      ],
      "payable": false,
      "stateMutability": "view",
      "type": "function"
    },
    {
      "constant": true,
      "inputs": [],
      "name": "calculateFees",
      "outputs": [
        {
          "name": "",
          "type": "uint128"
        }
      ],
      "payable": false,
      "stateMutability": "view",
      "type": "function"
    }
  ],
  "bytecode": "0x608060405260006101f760006101000a81548160ff02191690831515021790555034801561002c57600080fd5b506040516020806120cd83398101806040528101908080519060200190929190505050806000806101000a81548173ffffffffffffffffffffffffffffffffffffffff021916908373ffffffffffffffffffffffffffffffffffffffff1602179055505061202e8061009f6000396000f3006080604052600436106100f1576000357c0100000000000000000000000000000000000000000000000000000000900463ffffffff16806315c9951b146100f657806328d21f92146101895780632d68a03c1461022f5780635edfa1f8146102c25780635eeff60f1461031157806368707ce1146103c0578063751ff05f1461042557806377a39a3d146104d457806378cacd6e1461054f578063893d20e81461062d5780638d4e408314610684578063925025ba146106b3578063982665501461072e578063a35c47091461076d578063d73792a914610813578063deff41c114610862578063dfe29a86146108b9575b600080fd5b34801561010257600080fd5b5061014f60048036038101908080356fffffffffffffffffffffffffffffffff16906020019092919080356fffffffffffffffffffffffffffffffff1690602001909291905050506108e8565b60405180826fffffffffffffffffffffffffffffffff166fffffffffffffffffffffffffffffffff16815260200191505060405180910390f35b34801561019557600080fd5b506101ca600480360381019080803573ffffffffffffffffffffffffffffffffffffffff16906020019092919050505061095a565b60405180836fffffffffffffffffffffffffffffffff166fffffffffffffffffffffffffffffffff168152602001826fffffffffffffffffffffffffffffffff166fffffffffffffffffffffffffffffffff1681526020019250505060405180910390f35b34801561023b57600080fd5b5061028860048036038101908080356fffffffffffffffffffffffffffffffff16906020019092919080356fffffffffffffffffffffffffffffffff169060200190929190505050610d49565b60405180826fffffffffffffffffffffffffffffffff166fffffffffffffffffffffffffffffffff16815260200191505060405180910390f35b3480156102ce57600080fd5b506102d7610d86565b60405180826fffffffffffffffffffffffffffffffff166fffffffffffffffffffffffffffffffff16815260200191505060405180910390f35b34801561031d57600080fd5b5061038660048036038101908080356fffffffffffffffffffffffffffffffff16906020019092919080356fffffffffffffffffffffffffffffffff16906020019092919080356fffffffffffffffffffffffffffffffff169060200190929190505050610f39565b60405180826fffffffffffffffffffffffffffffffff166fffffffffffffffffffffffffffffffff16815260200191505060405180910390f35b3480156103cc57600080fd5b506103eb60048036038101908080359060200190929190505050610fde565b60405180826fffffffffffffffffffffffffffffffff166fffffffffffffffffffffffffffffffff16815260200191505060405180910390f35b34801561043157600080fd5b5061049a60048036038101908080356fffffffffffffffffffffffffffffffff16906020019092919080356fffffffffffffffffffffffffffffffff16906020019092919080356fffffffffffffffffffffffffffffffff16906020019092919050505061101a565b60405180826fffffffffffffffffffffffffffffffff166fffffffffffffffffffffffffffffffff16815260200191505060405180910390f35b3480156104e057600080fd5b50610515600480360381019080803573ffffffffffffffffffffffffffffffffffffffff1690602001909291905050506110d8565b60405180826fffffffffffffffffffffffffffffffff166fffffffffffffffffffffffffffffffff16815260200191505060405180910390f35b34801561055b57600080fd5b506105c8600480360381019080803573ffffffffffffffffffffffffffffffffffffffff16906020019092919080356fffffffffffffffffffffffffffffffff16906020019092919080356fffffffffffffffffffffffffffffffff169060200190929190505050611108565b60405180836fffffffffffffffffffffffffffffffff166fffffffffffffffffffffffffffffffff168152602001826fffffffffffffffffffffffffffffffff166fffffffffffffffffffffffffffffffff1681526020019250505060405180910390f35b34801561063957600080fd5b506106426117cf565b604051808273ffffffffffffffffffffffffffffffffffffffff1673ffffffffffffffffffffffffffffffffffffffff16815260200191505060405180910390f35b34801561069057600080fd5b506106996117f8565b604051808215151515815260200191505060405180910390f35b3480156106bf57600080fd5b506106f4600480360381019080803573ffffffffffffffffffffffffffffffffffffffff169060200190929190505050611810565b60405180826fffffffffffffffffffffffffffffffff166fffffffffffffffffffffffffffffffff16815260200191505060405180910390f35b34801561073a57600080fd5b5061076b60048036038101908080356fffffffffffffffffffffffffffffffff169060200190929190505050611840565b005b34801561077957600080fd5b506107ae600480360381019080803573ffffffffffffffffffffffffffffffffffffffff169060200190929190505050611a52565b60405180836fffffffffffffffffffffffffffffffff166fffffffffffffffffffffffffffffffff168152602001826fffffffffffffffffffffffffffffffff166fffffffffffffffffffffffffffffffff1681526020019250505060405180910390f35b34801561081f57600080fd5b50610828611de4565b60405180826fffffffffffffffffffffffffffffffff166fffffffffffffffffffffffffffffffff16815260200191505060405180910390f35b34801561086e57600080fd5b50610877611dea565b604051808273ffffffffffffffffffffffffffffffffffffffff1673ffffffffffffffffffffffffffffffffffffffff16815260200191505060405180910390f35b3480156108c557600080fd5b506108ce611e0f565b604051808215151515815260200191505060405180910390f35b6000808284019050836fffffffffffffffffffffffffffffffff16816fffffffffffffffffffffffffffffffff16101580156109485750826fffffffffffffffffffffffffffffffff16816fffffffffffffffffffffffffffffffff1610155b151561095057fe5b8091505092915050565b60008060008060008060006101f760009054906101000a900460ff161515610a10576040517f08c379a00000000000000000000000000000000000000000000000000000000081526004018080602001828103825260268152602001807f4d6574686f64206f6e6c7920616c6c6f7765642061667465722066696e616c6981526020017f7a6174696f6e000000000000000000000000000000000000000000000000000081525060400191505060405180910390fd5b6101f560008973ffffffffffffffffffffffffffffffffffffffff1673ffffffffffffffffffffffffffffffffffffffff16815260200190815260200160002060009054906101000a90046fffffffffffffffffffffffffffffffff1694506101f660008973ffffffffffffffffffffffffffffffffffffffff1673ffffffffffffffffffffffffffffffffffffffff16815260200190815260200160002060009054906101000a90046fffffffffffffffffffffffffffffffff1693506000846fffffffffffffffffffffffffffffffff161415610afb5760008081915080905096509650610d3f565b6101f760019054906101000a90046fffffffffffffffffffffffffffffffff166fffffffffffffffffffffffffffffffff16856fffffffffffffffffffffffffffffffff161015610b525783965060009550610d3e565b6101f760019054906101000a90046fffffffffffffffffffffffffffffffff166fffffffffffffffffffffffffffffffff16856fffffffffffffffffffffffffffffffff161115610bc05760009650610bb984610bb16103e888610d49565b6103e861101a565b9550610d3d565b6101f760019054906101000a90046fffffffffffffffffffffffffffffffff166fffffffffffffffffffffffffffffffff16856fffffffffffffffffffffffffffffffff16141515610c0e57fe5b6001856fffffffffffffffffffffffffffffffff166103e881101515610c3057fe5b600291828204019190066010029054906101000a90046fffffffffffffffffffffffffffffffff1692506000836fffffffffffffffffffffffffffffffff16111515610c7857fe5b610c9083610c886103e888610d49565b6103e861101a565b91506000826fffffffffffffffffffffffffffffffff16111515610cb057fe5b6101f860009054906101000a90046fffffffffffffffffffffffffffffffff169050816fffffffffffffffffffffffffffffffff16816fffffffffffffffffffffffffffffffff1611151515610d0257fe5b610d24610d1d85610d156103e889610d49565b6103e861101a565b8284610f39565b9550610d3a84610d348484610d49565b84610f39565b96505b5b5b5050505050915091565b6000816fffffffffffffffffffffffffffffffff16836fffffffffffffffffffffffffffffffff1610151515610d7b57fe5b818303905092915050565b60008060008060006101f760009054906101000a900460ff161515610e39576040517f08c379a00000000000000000000000000000000000000000000000000000000081526004018080602001828103825260268152602001807f4d6574686f64206f6e6c7920616c6c6f7765642061667465722066696e616c6981526020017f7a6174696f6e000000000000000000000000000000000000000000000000000081525060400191505060405180910390fd5b6101f760019054906101000a90046fffffffffffffffffffffffffffffffff169350610e906101f860009054906101000a90046fffffffffffffffffffffffffffffffff1685610e8b6103e888610d49565b610f39565b92506001840191508290505b6103e86fffffffffffffffffffffffffffffffff16826fffffffffffffffffffffffffffffffff161015610f2f57610f206001836fffffffffffffffffffffffffffffffff166103e881101515610eef57fe5b600291828204019190066010029054906101000a90046fffffffffffffffffffffffffffffffff16836103e8610f39565b81019050600182019150610e9c565b8094505050505090565b6000806000806000806000876fffffffffffffffffffffffffffffffff16111515610f6057fe5b886fffffffffffffffffffffffffffffffff169450876fffffffffffffffffffffffffffffffff169350866fffffffffffffffffffffffffffffffff16925082848602811515610fac57fe5b049150819050806fffffffffffffffffffffffffffffffff1682141515610fcf57fe5b80955050505050509392505050565b6001816103e881101515610fee57fe5b60029182820401919006601002915054906101000a90046fffffffffffffffffffffffffffffffff1681565b6000806000806000806000876fffffffffffffffffffffffffffffffff1611151561104157fe5b886fffffffffffffffffffffffffffffffff169450876fffffffffffffffffffffffffffffffff169350866fffffffffffffffffffffffffffffffff16925060008385870281151561108f57fe5b0614151561109957fe5b828486028115156110a657fe5b049150819050806fffffffffffffffffffffffffffffffff16821415156110c957fe5b80955050505050509392505050565b6101f56020528060005260406000206000915054906101000a90046fffffffffffffffffffffffffffffffff1681565b6000806000809054906101000a900473ffffffffffffffffffffffffffffffffffffffff1673ffffffffffffffffffffffffffffffffffffffff163373ffffffffffffffffffffffffffffffffffffffff161415156111cf576040517f08c379a000000000000000000000000000000000000000000000000000000000815260040180806020018281038252600e8152602001807f4e6f7420417574686f72697a656400000000000000000000000000000000000081525060200191505060405180910390fd5b6101f760009054906101000a900460ff1615151561127b576040517f08c379a00000000000000000000000000000000000000000000000000000000081526004018080602001828103825260278152602001807f4d6574686f64206f6e6c7920616c6c6f776564206265666f72652066696e616c81526020017f697a6174696f6e0000000000000000000000000000000000000000000000000081525060400191505060405180910390fd5b6000846fffffffffffffffffffffffffffffffff1611151561132b576040517f08c379a00000000000000000000000000000000000000000000000000000000081526004018080602001828103825260228152602001807f476f747461206861766520736f6d657468696e6720746f20636f6e747269627581526020017f746500000000000000000000000000000000000000000000000000000000000081525060400191505060405180910390fd5b60006103e86fffffffffffffffffffffffffffffffff16856fffffffffffffffffffffffffffffffff1681151561135e57fe5b066fffffffffffffffffffffffffffffffff1614151561140c576040517f08c379a000000000000000000000000000000000000000000000000000000000815260040180806020018281038252602b8152602001807f416d6f756e74206d75737420626520646976697369626c65206279206665652081526020017f64656e6f6d696e61746f7200000000000000000000000000000000000000000081525060400191505060405180910390fd5b6000836fffffffffffffffffffffffffffffffff161015801561145457506103e86fffffffffffffffffffffffffffffffff16836fffffffffffffffffffffffffffffffff16105b15156114c8576040517f08c379a00000000000000000000000000000000000000000000000000000000081526004018080602001828103825260108152602001807f426164206665654e756d657261746f720000000000000000000000000000000081525060200191505060405180910390fd5b60006101f660008773ffffffffffffffffffffffffffffffffffffffff1673ffffffffffffffffffffffffffffffffffffffff16815260200190815260200160002060009054906101000a90046fffffffffffffffffffffffffffffffff166fffffffffffffffffffffffffffffffff161415156115fa576040517f08c379a00000000000000000000000000000000000000000000000000000000081526004018080602001828103825260418152602001807f4f6e652068617320746f2077697468647261772070726576696f757320636f6e81526020017f747269627574696f6e206265666f7265206d616b696e672061206e6577206f6e81526020017f650000000000000000000000000000000000000000000000000000000000000081525060600191505060405180910390fd5b836101f660008773ffffffffffffffffffffffffffffffffffffffff1673ffffffffffffffffffffffffffffffffffffffff16815260200190815260200160002060006101000a8154816fffffffffffffffffffffffffffffffff02191690836fffffffffffffffffffffffffffffffff160217905550826101f560008773ffffffffffffffffffffffffffffffffffffffff1673ffffffffffffffffffffffffffffffffffffffff16815260200190815260200160002060006101000a8154816fffffffffffffffffffffffffffffffff02191690836fffffffffffffffffffffffffffffffff16021790555061173b6001846fffffffffffffffffffffffffffffffff166103e88110151561170d57fe5b600291828204019190066010029054906101000a90046fffffffffffffffffffffffffffffffff16856108e8565b6001846fffffffffffffffffffffffffffffffff166103e88110151561175d57fe5b600291828204019190066010026101000a8154816fffffffffffffffffffffffffffffffff02191690836fffffffffffffffffffffffffffffffff1602179055506117b6846117ae6103e886610d49565b6103e8610f39565b6117c385856103e8610f39565b91509150935093915050565b60008060009054906101000a900473ffffffffffffffffffffffffffffffffffffffff16905090565b60006101f760009054906101000a900460ff16905090565b6101f66020528060005260406000206000915054906101000a90046fffffffffffffffffffffffffffffffff1681565b6000809054906101000a900473ffffffffffffffffffffffffffffffffffffffff1673ffffffffffffffffffffffffffffffffffffffff163373ffffffffffffffffffffffffffffffffffffffff16141515611904576040517f08c379a000000000000000000000000000000000000000000000000000000000815260040180806020018281038252600e8152602001807f4e6f7420417574686f72697a656400000000000000000000000000000000000081525060200191505060405180910390fd5b6101f760009054906101000a900460ff161515156119b0576040517f08c379a00000000000000000000000000000000000000000000000000000000081526004018080602001828103825260278152602001807f4d6574686f64206f6e6c7920616c6c6f776564206265666f72652066696e616c81526020017f697a6174696f6e0000000000000000000000000000000000000000000000000081525060400191505060405180910390fd5b60016101f760006101000a81548160ff0219169083151502179055506119d581611e23565b6101f760016101f860008491906101000a8154816fffffffffffffffffffffffffffffffff02191690836fffffffffffffffffffffffffffffffff1602179055508391906101000a8154816fffffffffffffffffffffffffffffffff02191690836fffffffffffffffffffffffffffffffff160217905550505050565b6000806000806000809054906101000a900473ffffffffffffffffffffffffffffffffffffffff1673ffffffffffffffffffffffffffffffffffffffff163373ffffffffffffffffffffffffffffffffffffffff16141515611b1c576040517f08c379a000000000000000000000000000000000000000000000000000000000815260040180806020018281038252600e8152602001807f4e6f7420417574686f72697a656400000000000000000000000000000000000081525060200191505060405180910390fd5b6101f760009054906101000a900460ff16151515611bc8576040517f08c379a00000000000000000000000000000000000000000000000000000000081526004018080602001828103825260278152602001807f4d6574686f64206f6e6c7920616c6c6f776564206265666f72652066696e616c81526020017f697a6174696f6e0000000000000000000000000000000000000000000000000081525060400191505060405180910390fd5b6101f660008673ffffffffffffffffffffffffffffffffffffffff1673ffffffffffffffffffffffffffffffffffffffff16815260200190815260200160002060009054906101000a90046fffffffffffffffffffffffffffffffff16915060006101f660008773ffffffffffffffffffffffffffffffffffffffff1673ffffffffffffffffffffffffffffffffffffffff16815260200190815260200160002060006101000a8154816fffffffffffffffffffffffffffffffff02191690836fffffffffffffffffffffffffffffffff1602179055506101f560008673ffffffffffffffffffffffffffffffffffffffff1673ffffffffffffffffffffffffffffffffffffffff16815260200190815260200160002060009054906101000a90046fffffffffffffffffffffffffffffffff169050611d516001826fffffffffffffffffffffffffffffffff166103e881101515611d2357fe5b600291828204019190066010029054906101000a90046fffffffffffffffffffffffffffffffff1683610d49565b6001826fffffffffffffffffffffffffffffffff166103e881101515611d7357fe5b600291828204019190066010026101000a8154816fffffffffffffffffffffffffffffffff02191690836fffffffffffffffffffffffffffffffff160217905550611dcc82611dc46103e884610d49565b6103e8610f39565b611dd983836103e8610f39565b935093505050915091565b6103e881565b6000809054906101000a900473ffffffffffffffffffffffffffffffffffffffff1681565b6101f760009054906101000a900460ff1681565b6000806000806000806000806103e89550600093506000866fffffffffffffffffffffffffffffffff16118015611e7e5750886fffffffffffffffffffffffffffffffff16846fffffffffffffffffffffffffffffffff1611155b1515611e8657fe5b5b6000866fffffffffffffffffffffffffffffffff16118015611ecd5750886fffffffffffffffffffffffffffffffff16846fffffffffffffffffffffffffffffffff1611155b15611f52576001860395508392506001866fffffffffffffffffffffffffffffffff166103e881101515611efd57fe5b600291828204019190066010029054906101000a90046fffffffffffffffffffffffffffffffff169150611f3f82611f376103e889610d49565b6103e861101a565b9450611f4b83866108e8565b9350611e87565b836fffffffffffffffffffffffffffffffff16896fffffffffffffffffffffffffffffffff161115611f845783611f86565b885b9050826fffffffffffffffffffffffffffffffff16816fffffffffffffffffffffffffffffffff1610151515611fb857fe5b859750611fc58184610d49565b9650846fffffffffffffffffffffffffffffffff16876fffffffffffffffffffffffffffffffff1611151515611ff757fe5b5050505050509150915600a165627a7a72305820f94a6cb11d9c98d24be550f4f99559dd115fc1374dbf7237ad5523d8a2bfa99e0029",
  "source": "pragma solidity ^0.4.24;\n\nimport \"./IAccounting.sol\";\n\n/**\n * Keeps track of all contributions, and calculates how much each contributor\n * is entitled to.\n *\n * Doesn't actually hold any funds, just keeps records.\n */\ncontract Accounting is IAccounting {\n  uint128 constant public FEE_DENOMINATOR = 1000;\n  address public m_owner;\n\n  uint128[FEE_DENOMINATOR] public m_contributionPerFeeNumerator;\n  mapping(address => uint128) public m_feeNumeratorPerContributor;\n  mapping(address => uint128) public m_contributionPerContributor;\n\n  // populated at finalization\n  bool public m_isFinalized = false;\n  uint128 m_boundaryFeeNumerator;\n  uint128 m_fundsUsedFromBoundaryBucket;\n\n  constructor(address owner) public {\n    m_owner = owner;\n  }\n\n  modifier ownerOnly() {\n    require (msg.sender == m_owner, \"Not Authorized\");\n    _;\n  }\n\n  modifier beforeFinalizationOnly() {\n    require (!m_isFinalized, \"Method only allowed before finalization\");\n    _;\n  }\n\n  modifier afterFinalizationOnly() {\n    require (m_isFinalized, \"Method only allowed after finalization\");\n    _;\n  }\n\n  function getOwner() external view returns (address) {\n    return m_owner;\n  }\n\n  function contribute(\n    address contributor,\n    uint128 amount,\n    uint128 feeNumerator\n  ) external ownerOnly beforeFinalizationOnly returns (\n    uint128 depositedLessFees,\n    uint128 depositedFees\n  ) {\n    require(\n      amount > 0,\n      \"Gotta have something to contribute\"\n    );\n    require(\n      amount % FEE_DENOMINATOR == 0,\n      \"Amount must be divisible by fee denominator\"\n    );\n    require(\n      feeNumerator >= 0 && feeNumerator < FEE_DENOMINATOR,\n      \"Bad feeNumerator\"\n    );\n    require(\n      m_contributionPerContributor[contributor] == 0,\n      \"One has to withdraw previous contribution before making a new one\"\n    );\n\n    m_contributionPerContributor[contributor] = amount;\n    m_feeNumeratorPerContributor[contributor] = feeNumerator;\n    m_contributionPerFeeNumerator[feeNumerator] = safeAdd(\n      m_contributionPerFeeNumerator[feeNumerator],\n      amount\n    );\n\n    return (\n      safeMulDiv(\n        amount,\n        safeSub(FEE_DENOMINATOR, feeNumerator),\n        FEE_DENOMINATOR\n      ),\n      safeMulDiv(amount, feeNumerator, FEE_DENOMINATOR)\n    );\n  }\n\n  function withdrawContribution(\n    address contributor\n  ) external ownerOnly beforeFinalizationOnly returns (\n    uint128 withdrawnLessFees,\n    uint128 withdrawnFees\n  ) {\n    uint128 amount = m_contributionPerContributor[contributor];\n\n    m_contributionPerContributor[contributor] = 0;\n\n    uint128 feeNumerator = m_feeNumeratorPerContributor[contributor];\n    m_contributionPerFeeNumerator[feeNumerator] = safeSub(\n      m_contributionPerFeeNumerator[feeNumerator],\n      amount\n    );\n\n    return (\n      safeMulDiv(\n        amount,\n        safeSub(FEE_DENOMINATOR, feeNumerator),\n        FEE_DENOMINATOR\n      ),\n      safeMulDiv(amount, feeNumerator, FEE_DENOMINATOR)\n    );\n  }\n\n  /**\n   * Someone may have sent us (by mistake or maliciously) extra dispute tokens.\n   * This is not fatal, but we need to be aware that amountDisputed may actually\n   * be greater than the REP contributed and not crash.\n   */\n  function finalize(uint128 amountDisputed) external ownerOnly beforeFinalizationOnly {\n    m_isFinalized = true;\n    (\n      m_boundaryFeeNumerator,\n      m_fundsUsedFromBoundaryBucket\n    ) = findBoundaryBucketForAmountDisputed(amountDisputed);\n  }\n\n  function isFinalized() external view returns (bool) {\n    return m_isFinalized;\n  }\n\n  /**\n   * Finds such lowest fee bucket, that all buckets with fee higher than that\n   * were fully included in the dispute. From that will also follow that none\n   * of the funds from buckets with fee lower than that were included in the\n   * dispute.\n   *\n   * Also calculates how much funds from the boundary bucket were included in\n   * the dispute (normally current bucket participated partially).\n   *\n   * The returned index will always be a valid feeNumerator.\n   */\n  function findBoundaryBucketForAmountDisputed(\n    uint128 amountDisputed\n  ) internal view returns (uint128 feeNumerator, uint128 fundsUsedFromBoundaryBucket) {\n    // initialize with one-past-last bucket; loop will do at least one iteration\n    uint128 tentativeBoundaryBucket = FEE_DENOMINATOR;\n    uint128 usableFundsInCurrentBucket;\n    uint128 usableFundsWithCurrentBucket = 0;\n    uint128 usableFundsInBucketsWithHigherFee;\n\n    // length of the loop constrained by constant FEE_DENOMINATOR\n    assert(tentativeBoundaryBucket > 0 && usableFundsWithCurrentBucket <= amountDisputed);\n    while (tentativeBoundaryBucket > 0 && usableFundsWithCurrentBucket <= amountDisputed) {\n      tentativeBoundaryBucket -= 1;\n      usableFundsInBucketsWithHigherFee = usableFundsWithCurrentBucket;\n      uint128 fundsInCurrentBucket = m_contributionPerFeeNumerator[tentativeBoundaryBucket];\n      // TODO: consider skipping executions if fundsInCurrentBucket = 0\n      // Not skipping now to make it more evident that 1000 iterations of full\n      // loop body (worst case) is OK gas-wise. I.e. we make sure that\n      // worst-case is triggered frequently enough to not become a surprise.\n      usableFundsInCurrentBucket = safeMulDivExact(\n        fundsInCurrentBucket,\n        safeSub(FEE_DENOMINATOR, tentativeBoundaryBucket),\n        FEE_DENOMINATOR\n      );\n      usableFundsWithCurrentBucket = safeAdd(\n        usableFundsInBucketsWithHigherFee,\n        usableFundsInCurrentBucket\n      );\n    }\n\n    // this is needed to protect against corner cases if someone sent dispute\n    // tokens into this contract directly in excess from what contributors funded\n    uint128 cappedAmountDisputed = amountDisputed <= usableFundsWithCurrentBucket\n      ? amountDisputed\n      : usableFundsWithCurrentBucket;\n\n    assert(cappedAmountDisputed >= usableFundsInBucketsWithHigherFee);\n\n    feeNumerator = tentativeBoundaryBucket;\n    fundsUsedFromBoundaryBucket = safeSub(\n      cappedAmountDisputed,\n      usableFundsInBucketsWithHigherFee\n    );\n    assert(fundsUsedFromBoundaryBucket <= usableFundsInCurrentBucket);\n  }\n\n  function safeAdd(uint128 a, uint128 b) public pure returns (uint128) {\n    uint128 r = a + b;\n    assert(r >= a && r >= b);\n    return r;\n  }\n\n  function safeSub(uint128 a, uint128 b) public pure returns (uint128) {\n    assert(a >= b);\n    return a - b;\n  }\n\n  function safeMulDiv(uint128 a, uint128 b, uint128 c) public pure returns (uint128) {\n    assert(c > 0);\n    uint256 wa = a;\n    uint256 wb = b;\n    uint256 wc = c;\n\n    uint256 result = wa * wb / wc;\n    uint128 result128 = uint128(result);\n\n    assert(result == result128);\n    return result128;\n  }\n\n  function safeMulDivExact(uint128 a, uint128 b, uint128 c) public pure returns (uint128) {\n    assert(c > 0);\n    uint256 wa = a;\n    uint256 wb = b;\n    uint256 wc = c;\n\n    assert((wa * wb) % wc == 0);\n    uint256 result = wa * wb / wc;\n    uint128 result128 = uint128(result);\n\n    assert(result == result128);\n    return result128;\n  }\n\n  /**\n   * Return value is how much REP and dispute tokens the contributor is entitled to.\n   *\n   * Does not change the state, as accounting is finalized at that moment.\n   *\n   * In case of partial fill, we round down, leaving some dust in the contract.\n   */\n  function calculateProceeds(\n    address contributor\n  ) external afterFinalizationOnly view returns (uint128 rep, uint128 disputeTokens) {\n    uint128 contributorFeeNumerator = m_feeNumeratorPerContributor[contributor];\n    uint128 originalContributionOfContributor = m_contributionPerContributor[contributor];\n\n    if (originalContributionOfContributor == 0) {\n      return (0, 0);\n    }\n\n    if (contributorFeeNumerator < m_boundaryFeeNumerator) {\n      // this contributor didn't make it into dispute round, just refund REP\n      rep = originalContributionOfContributor;\n      disputeTokens = 0;\n    } else if (contributorFeeNumerator > m_boundaryFeeNumerator) {\n      // this contributor fully got into dispute round, award dispute tokens\n      // while subtracting fee\n      rep = 0;\n      disputeTokens = safeMulDivExact(\n        originalContributionOfContributor,\n        safeSub(FEE_DENOMINATOR, contributorFeeNumerator),\n        FEE_DENOMINATOR\n      );\n    } else {\n      assert(contributorFeeNumerator == m_boundaryFeeNumerator);\n      // most complex case, contributor partially got into dispute rounds\n      uint128 fundsContributedInBucket = m_contributionPerFeeNumerator[contributorFeeNumerator];\n      // assertion gotta be true because contributor admittedly did some\n      // contribution\n      assert(fundsContributedInBucket > 0);\n      uint128 usableFundsContributedInBucket = safeMulDivExact(\n        fundsContributedInBucket,\n        safeSub(FEE_DENOMINATOR, contributorFeeNumerator),\n        FEE_DENOMINATOR\n      );\n      // assertion gotta be true since contribution must be exactly divisible\n      // by fee denominator\n      assert(usableFundsContributedInBucket > 0);\n      uint128 fundsUsedInBucket = m_fundsUsedFromBoundaryBucket;\n      assert(fundsUsedInBucket <= usableFundsContributedInBucket);\n\n      // award dispute tokens proportionally, less fee\n      disputeTokens = safeMulDiv(\n        safeMulDivExact(\n          originalContributionOfContributor,\n          safeSub(FEE_DENOMINATOR, contributorFeeNumerator),\n          FEE_DENOMINATOR\n        ),\n        fundsUsedInBucket,\n        usableFundsContributedInBucket\n      );\n      // refund rep for the rest\n      rep = safeMulDiv(\n        originalContributionOfContributor,\n        safeSub(usableFundsContributedInBucket, fundsUsedInBucket),\n        usableFundsContributedInBucket\n      );\n    }\n  }\n\n  /**\n   * Calculate fee that will be split between contract admin and\n   * account that triggered dispute transaction.\n   *\n   * In case of partial fill, we round down, leaving some dust in the contract.\n   */\n  function calculateFees() external afterFinalizationOnly view returns (uint128) {\n    uint128 boundaryFeeNumerator = m_boundaryFeeNumerator;\n    uint128 feesFromBoundaryBucket = safeMulDiv(\n      m_fundsUsedFromBoundaryBucket,\n      boundaryFeeNumerator,\n      safeSub(FEE_DENOMINATOR, boundaryFeeNumerator)\n    );\n\n    uint128 feeNumerator = boundaryFeeNumerator + 1;\n    uint128 totalFees = feesFromBoundaryBucket;\n    while (feeNumerator < FEE_DENOMINATOR) {\n      totalFees += safeMulDiv(\n        m_contributionPerFeeNumerator[feeNumerator],\n        feeNumerator,\n        FEE_DENOMINATOR\n      );\n      feeNumerator += 1;\n    }\n\n    return totalFees;\n  }\n}\n",
  "sourcePath": "/src/contracts/Accounting.sol",
  "compiler": {
    "name": "solc",
    "version": "0.4.24+commit.e67f0147.Emscripten.clang"
  },
  "schemaVersion": "2.0.1",
  "updatedAt": "2018-10-29T23:52:19.968Z"
}