{
  "contractName": "Crowdsourcer",
  "abi": [
    {
      "constant": true,
      "inputs": [],
      "name": "m_parent",
      "outputs": [
        {
          "name": "",
          "type": "address"
        }
      ],
      "payable": false,
      "stateMutability": "view",
      "type": "function"
    },
    {
      "constant": true,
      "inputs": [],
      "name": "m_accounting",
      "outputs": [
        {
          "name": "",
          "type": "address"
        }
      ],
      "payable": false,
      "stateMutability": "view",
      "type": "function"
    },
    {
      "constant": true,
      "inputs": [],
      "name": "m_disputer",
      "outputs": [
        {
          "name": "",
          "type": "address"
        }
      ],
      "payable": false,
      "stateMutability": "view",
      "type": "function"
    },
    {
      "inputs": [
        {
          "name": "parent",
          "type": "address"
        },
        {
          "name": "accountingFactory",
          "type": "address"
        },
        {
          "name": "disputerFactory",
          "type": "address"
        },
        {
          "name": "market",
          "type": "address"
        },
        {
          "name": "feeWindowId",
          "type": "uint256"
        },
        {
          "name": "payoutNumerators",
          "type": "uint256[]"
        },
        {
          "name": "invalid",
          "type": "bool"
        }
      ],
      "payable": false,
      "stateMutability": "nonpayable",
      "type": "constructor"
    },
    {
      "constant": true,
      "inputs": [],
      "name": "getParent",
      "outputs": [
        {
          "name": "",
          "type": "address"
        }
      ],
      "payable": false,
      "stateMutability": "view",
      "type": "function"
    },
    {
      "constant": true,
      "inputs": [],
      "name": "getDisputer",
      "outputs": [
        {
          "name": "",
          "type": "address"
        }
      ],
      "payable": false,
      "stateMutability": "view",
      "type": "function"
    },
    {
      "constant": true,
      "inputs": [],
      "name": "getAccounting",
      "outputs": [
        {
          "name": "",
          "type": "address"
        }
      ],
      "payable": false,
      "stateMutability": "view",
      "type": "function"
    },
    {
      "constant": true,
      "inputs": [],
      "name": "getREP",
      "outputs": [
        {
          "name": "",
          "type": "address"
        }
      ],
      "payable": false,
      "stateMutability": "view",
      "type": "function"
    },
    {
      "constant": true,
      "inputs": [],
      "name": "getDisputeToken",
      "outputs": [
        {
          "name": "",
          "type": "address"
        }
      ],
      "payable": false,
      "stateMutability": "view",
      "type": "function"
    },
    {
      "constant": false,
      "inputs": [
        {
          "name": "amount",
          "type": "uint128"
        },
        {
          "name": "feeNumerator",
          "type": "uint128"
        }
      ],
      "name": "contribute",
      "outputs": [],
      "payable": false,
      "stateMutability": "nonpayable",
      "type": "function"
    },
    {
      "constant": false,
      "inputs": [],
      "name": "withdrawContribution",
      "outputs": [],
      "payable": false,
      "stateMutability": "nonpayable",
      "type": "function"
    },
    {
      "constant": true,
      "inputs": [],
      "name": "hasDisputed",
      "outputs": [
        {
          "name": "",
          "type": "bool"
        }
      ],
      "payable": false,
      "stateMutability": "view",
      "type": "function"
    },
    {
      "constant": false,
      "inputs": [],
      "name": "finalize",
      "outputs": [],
      "payable": false,
      "stateMutability": "nonpayable",
      "type": "function"
    },
    {
      "constant": true,
      "inputs": [],
      "name": "isFinalized",
      "outputs": [
        {
          "name": "",
          "type": "bool"
        }
      ],
      "payable": false,
      "stateMutability": "view",
      "type": "function"
    },
    {
      "constant": false,
      "inputs": [
        {
          "name": "contributor",
          "type": "address"
        }
      ],
      "name": "withdrawProceeds",
      "outputs": [],
      "payable": false,
      "stateMutability": "nonpayable",
      "type": "function"
    },
    {
      "constant": false,
      "inputs": [],
      "name": "withdrawFees",
      "outputs": [],
      "payable": false,
      "stateMutability": "nonpayable",
      "type": "function"
    }
  ],
  "bytecode": "0x60806040526000600460006101000a81548160ff0219169083151502179055503480156200002c57600080fd5b5060405162002795380380620027958339810180604052810190808051906020019092919080519060200190929190805190602001909291908051906020019092919080519060200190929190805182019291906020018051906020019092919050505086600160006101000a81548173ffffffffffffffffffffffffffffffffffffffff021916908373ffffffffffffffffffffffffffffffffffffffff1602179055508573ffffffffffffffffffffffffffffffffffffffff16639ed93318306040518263ffffffff167c0100000000000000000000000000000000000000000000000000000000028152600401808273ffffffffffffffffffffffffffffffffffffffff1673ffffffffffffffffffffffffffffffffffffffff168152602001915050602060405180830381600087803b1580156200016d57600080fd5b505af115801562000182573d6000803e3d6000fd5b505050506040513d60208110156200019957600080fd5b81019080805190602001909291905050506000806101000a81548173ffffffffffffffffffffffffffffffffffffffff021916908373ffffffffffffffffffffffffffffffffffffffff1602179055508473ffffffffffffffffffffffffffffffffffffffff1663bdb1300230868686866040518663ffffffff167c0100000000000000000000000000000000000000000000000000000000028152600401808673ffffffffffffffffffffffffffffffffffffffff1673ffffffffffffffffffffffffffffffffffffffff1681526020018573ffffffffffffffffffffffffffffffffffffffff1673ffffffffffffffffffffffffffffffffffffffff1681526020018481526020018060200183151515158152602001828103825284818151815260200191508051906020019060200280838360005b83811015620002ee578082015181840152602081019050620002d1565b505050509050019650505050505050602060405180830381600087803b1580156200031857600080fd5b505af11580156200032d573d6000803e3d6000fd5b505050506040513d60208110156200034457600080fd5b8101908080519060200190929190505050600260006101000a81548173ffffffffffffffffffffffffffffffffffffffff021916908373ffffffffffffffffffffffffffffffffffffffff160217905550505050505050506123e980620003ac6000396000f3006080604052600436106100db576000357c0100000000000000000000000000000000000000000000000000000000900463ffffffff1680630b741b49146100e05780630d616d201461013757806323be12681461014e57806336cfd8ba146101a5578063476343ee146101fc5780634bb278f31461021357806362810c811461022a5780636f2c83ee1461026d57806380f76021146102c45780638d4e40831461031b5780639fe00bbf1461034a578063be27fae7146103a5578063d18959a2146103fc578063def3cb051461042b578063fbe7870514610482575b600080fd5b3480156100ec57600080fd5b506100f56104d9565b604051808273ffffffffffffffffffffffffffffffffffffffff1673ffffffffffffffffffffffffffffffffffffffff16815260200191505060405180910390f35b34801561014357600080fd5b5061014c6104ff565b005b34801561015a57600080fd5b506101636107fa565b604051808273ffffffffffffffffffffffffffffffffffffffff1673ffffffffffffffffffffffffffffffffffffffff16815260200191505060405180910390f35b3480156101b157600080fd5b506101ba61081f565b604051808273ffffffffffffffffffffffffffffffffffffffff1673ffffffffffffffffffffffffffffffffffffffff16815260200191505060405180910390f35b34801561020857600080fd5b50610211610848565b005b34801561021f57600080fd5b50610228610db9565b005b34801561023657600080fd5b5061026b600480360381019080803573ffffffffffffffffffffffffffffffffffffffff1690602001909291905050506115aa565b005b34801561027957600080fd5b50610282611a04565b604051808273ffffffffffffffffffffffffffffffffffffffff1673ffffffffffffffffffffffffffffffffffffffff16815260200191505060405180910390f35b3480156102d057600080fd5b506102d9611acc565b604051808273ffffffffffffffffffffffffffffffffffffffff1673ffffffffffffffffffffffffffffffffffffffff16815260200191505060405180910390f35b34801561032757600080fd5b50610330611af6565b604051808215151515815260200191505060405180910390f35b34801561035657600080fd5b506103a360048036038101908080356fffffffffffffffffffffffffffffffff16906020019092919080356fffffffffffffffffffffffffffffffff169060200190929190505050611bbd565b005b3480156103b157600080fd5b506103ba6121dd565b604051808273ffffffffffffffffffffffffffffffffffffffff1673ffffffffffffffffffffffffffffffffffffffff16815260200191505060405180910390f35b34801561040857600080fd5b50610411612203565b604051808215151515815260200191505060405180910390f35b34801561043757600080fd5b506104406122cb565b604051808273ffffffffffffffffffffffffffffffffffffffff1673ffffffffffffffffffffffffffffffffffffffff16815260200191505060405180910390f35b34801561048e57600080fd5b506104976122f5565b604051808273ffffffffffffffffffffffffffffffffffffffff1673ffffffffffffffffffffffffffffffffffffffff16815260200191505060405180910390f35b600160009054906101000a900473ffffffffffffffffffffffffffffffffffffffff1681565b60008061050a612203565b1515156105a5576040517f08c379a00000000000000000000000000000000000000000000000000000000081526004018080602001828103825260228152602001807f4d6574686f64206f6e6c7920616c6c6f776564206265666f726520646973707581526020017f746500000000000000000000000000000000000000000000000000000000000081525060400191505060405180910390fd5b6105ad611a04565b91506000809054906101000a900473ffffffffffffffffffffffffffffffffffffffff1673ffffffffffffffffffffffffffffffffffffffff1663a35c4709336040518263ffffffff167c0100000000000000000000000000000000000000000000000000000000028152600401808273ffffffffffffffffffffffffffffffffffffffff1673ffffffffffffffffffffffffffffffffffffffff168152602001915050602060405180830381600087803b15801561066b57600080fd5b505af115801561067f573d6000803e3d6000fd5b505050506040513d602081101561069557600080fd5b810190808051906020019092919050505090508173ffffffffffffffffffffffffffffffffffffffff166323b872dd600260009054906101000a900473ffffffffffffffffffffffffffffffffffffffff1633846040518463ffffffff167c0100000000000000000000000000000000000000000000000000000000028152600401808473ffffffffffffffffffffffffffffffffffffffff1673ffffffffffffffffffffffffffffffffffffffff1681526020018373ffffffffffffffffffffffffffffffffffffffff1673ffffffffffffffffffffffffffffffffffffffff168152602001826fffffffffffffffffffffffffffffffff1681526020019350505050602060405180830381600087803b1580156107b357600080fd5b505af11580156107c7573d6000803e3d6000fd5b505050506040513d60208110156107dd57600080fd5b810190808051906020019092919050505015156107f657fe5b5050565b6000809054906101000a900473ffffffffffffffffffffffffffffffffffffffff1681565b60008060009054906101000a900473ffffffffffffffffffffffffffffffffffffffff16905090565b600080600080600080610859611af6565b151561087857610867610db9565b61086f611af6565b151561087757fe5b5b600460009054906101000a900460ff161515156108fd576040517f08c379a000000000000000000000000000000000000000000000000000000000815260040180806020018281038252601a8152602001807f43616e206f6e6c7920636f6c6c6563742066656573206f6e636500000000000081525060200191505060405180910390fd5b6001600460006101000a81548160ff0219169083151502179055506000809054906101000a900473ffffffffffffffffffffffffffffffffffffffff1673ffffffffffffffffffffffffffffffffffffffff16635edfa1f86040518163ffffffff167c0100000000000000000000000000000000000000000000000000000000028152600401602060405180830381600087803b15801561099d57600080fd5b505af11580156109b1573d6000803e3d6000fd5b505050506040513d60208110156109c757600080fd5b81019080805190602001909291905050509550600a866fffffffffffffffffffffffffffffffff168115156109f857fe5b0494508486039350856fffffffffffffffffffffffffffffffff168486016fffffffffffffffffffffffffffffffff16141515610a3157fe5b600160009054906101000a900473ffffffffffffffffffffffffffffffffffffffff1673ffffffffffffffffffffffffffffffffffffffff1663d2a2fc946040518163ffffffff167c0100000000000000000000000000000000000000000000000000000000028152600401602060405180830381600087803b158015610ab757600080fd5b505af1158015610acb573d6000803e3d6000fd5b505050506040513d6020811015610ae157600080fd5b81019080805190602001909291905050509250600260009054906101000a900473ffffffffffffffffffffffffffffffffffffffff1673ffffffffffffffffffffffffffffffffffffffff1663b3f006746040518163ffffffff167c0100000000000000000000000000000000000000000000000000000000028152600401602060405180830381600087803b158015610b7a57600080fd5b505af1158015610b8e573d6000803e3d6000fd5b505050506040513d6020811015610ba457600080fd5b81019080805190602001909291905050509150610bbf6122f5565b90508073ffffffffffffffffffffffffffffffffffffffff1663a9059cbb84876040518363ffffffff167c0100000000000000000000000000000000000000000000000000000000028152600401808373ffffffffffffffffffffffffffffffffffffffff1673ffffffffffffffffffffffffffffffffffffffff168152602001826fffffffffffffffffffffffffffffffff16815260200192505050602060405180830381600087803b158015610c7657600080fd5b505af1158015610c8a573d6000803e3d6000fd5b505050506040513d6020811015610ca057600080fd5b81019080805190602001909291905050501515610cb957fe5b8073ffffffffffffffffffffffffffffffffffffffff1663a9059cbb83866040518363ffffffff167c0100000000000000000000000000000000000000000000000000000000028152600401808373ffffffffffffffffffffffffffffffffffffffff1673ffffffffffffffffffffffffffffffffffffffff168152602001826fffffffffffffffffffffffffffffffff16815260200192505050602060405180830381600087803b158015610d6e57600080fd5b505af1158015610d82573d6000803e3d6000fd5b505050506040513d6020811015610d9857600080fd5b81019080805190602001909291905050501515610db157fe5b505050505050565b600080600080610dc7612203565b1515610e3b576040517f08c379a000000000000000000000000000000000000000000000000000000000815260040180806020018281038252601f8152602001807f43616e206f6e6c792066696e616c697a6520616674657220646973707574650081525060200191505060405180910390fd5b610e43611af6565b151515610eb8576040517f08c379a00000000000000000000000000000000000000000000000000000000081526004018080602001828103825260168152602001807f43616e206f6e6c792066696e616c697a65206f6e63650000000000000000000081525060200191505060405180910390fd5b610ec06122f5565b9350610eca611a04565b9250600260009054906101000a900473ffffffffffffffffffffffffffffffffffffffff1673ffffffffffffffffffffffffffffffffffffffff1663cadbbf636040518163ffffffff167c0100000000000000000000000000000000000000000000000000000000028152600401600060405180830381600087803b158015610f5257600080fd5b505af1158015610f66573d6000803e3d6000fd5b505050508273ffffffffffffffffffffffffffffffffffffffff166323b872dd600260009054906101000a900473ffffffffffffffffffffffffffffffffffffffff16308673ffffffffffffffffffffffffffffffffffffffff166370a08231600260009054906101000a900473ffffffffffffffffffffffffffffffffffffffff166040518263ffffffff167c0100000000000000000000000000000000000000000000000000000000028152600401808273ffffffffffffffffffffffffffffffffffffffff1673ffffffffffffffffffffffffffffffffffffffff168152602001915050602060405180830381600087803b15801561106757600080fd5b505af115801561107b573d6000803e3d6000fd5b505050506040513d602081101561109157600080fd5b81019080805190602001909291905050506040518463ffffffff167c0100000000000000000000000000000000000000000000000000000000028152600401808473ffffffffffffffffffffffffffffffffffffffff1673ffffffffffffffffffffffffffffffffffffffff1681526020018373ffffffffffffffffffffffffffffffffffffffff1673ffffffffffffffffffffffffffffffffffffffff1681526020018281526020019350505050602060405180830381600087803b15801561115a57600080fd5b505af115801561116e573d6000803e3d6000fd5b505050506040513d602081101561118457600080fd5b8101908080519060200190929190505050151561119d57fe5b8373ffffffffffffffffffffffffffffffffffffffff166323b872dd600260009054906101000a900473ffffffffffffffffffffffffffffffffffffffff16308773ffffffffffffffffffffffffffffffffffffffff166370a08231600260009054906101000a900473ffffffffffffffffffffffffffffffffffffffff166040518263ffffffff167c0100000000000000000000000000000000000000000000000000000000028152600401808273ffffffffffffffffffffffffffffffffffffffff1673ffffffffffffffffffffffffffffffffffffffff168152602001915050602060405180830381600087803b15801561129a57600080fd5b505af11580156112ae573d6000803e3d6000fd5b505050506040513d60208110156112c457600080fd5b81019080805190602001909291905050506040518463ffffffff167c0100000000000000000000000000000000000000000000000000000000028152600401808473ffffffffffffffffffffffffffffffffffffffff1673ffffffffffffffffffffffffffffffffffffffff1681526020018373ffffffffffffffffffffffffffffffffffffffff1673ffffffffffffffffffffffffffffffffffffffff1681526020018281526020019350505050602060405180830381600087803b15801561138d57600080fd5b505af11580156113a1573d6000803e3d6000fd5b505050506040513d60208110156113b757600080fd5b810190808051906020019092919050505015156113d057fe5b8373ffffffffffffffffffffffffffffffffffffffff166370a08231306040518263ffffffff167c0100000000000000000000000000000000000000000000000000000000028152600401808273ffffffffffffffffffffffffffffffffffffffff1673ffffffffffffffffffffffffffffffffffffffff168152602001915050602060405180830381600087803b15801561146b57600080fd5b505af115801561147f573d6000803e3d6000fd5b505050506040513d602081101561149557600080fd5b8101908080519060200190929190505050915081905081816fffffffffffffffffffffffffffffffff161415156114c857fe5b6000809054906101000a900473ffffffffffffffffffffffffffffffffffffffff1673ffffffffffffffffffffffffffffffffffffffff166398266550826040518263ffffffff167c010000000000000000000000000000000000000000000000000000000002815260040180826fffffffffffffffffffffffffffffffff166fffffffffffffffffffffffffffffffff168152602001915050600060405180830381600087803b15801561157c57600080fd5b505af1158015611590573d6000803e3d6000fd5b5050505061159c611af6565b15156115a457fe5b50505050565b6000806000806115b8611af6565b15156115d7576115c6610db9565b6115ce611af6565b15156115d657fe5b5b600360008673ffffffffffffffffffffffffffffffffffffffff1673ffffffffffffffffffffffffffffffffffffffff16815260200190815260200160002060009054906101000a900460ff16151515611699576040517f08c379a000000000000000000000000000000000000000000000000000000000815260040180806020018281038252601e8152602001807f43616e206f6e6c7920636f6c6c6563742070726f6365656473206f6e6365000081525060200191505060405180910390fd5b6001600360008773ffffffffffffffffffffffffffffffffffffffff1673ffffffffffffffffffffffffffffffffffffffff16815260200190815260200160002060006101000a81548160ff0219169083151502179055506000809054906101000a900473ffffffffffffffffffffffffffffffffffffffff1673ffffffffffffffffffffffffffffffffffffffff166328d21f92866040518263ffffffff167c0100000000000000000000000000000000000000000000000000000000028152600401808273ffffffffffffffffffffffffffffffffffffffff1673ffffffffffffffffffffffffffffffffffffffff1681526020019150506040805180830381600087803b1580156117ac57600080fd5b505af11580156117c0573d6000803e3d6000fd5b505050506040513d60408110156117d657600080fd5b8101908080519060200190929190805190602001909291905050508094508195505050611801611a04565b915061180b6122f5565b90508173ffffffffffffffffffffffffffffffffffffffff1663a9059cbb86866040518363ffffffff167c0100000000000000000000000000000000000000000000000000000000028152600401808373ffffffffffffffffffffffffffffffffffffffff1673ffffffffffffffffffffffffffffffffffffffff168152602001826fffffffffffffffffffffffffffffffff16815260200192505050602060405180830381600087803b1580156118c257600080fd5b505af11580156118d6573d6000803e3d6000fd5b505050506040513d60208110156118ec57600080fd5b8101908080519060200190929190505050151561190557fe5b8073ffffffffffffffffffffffffffffffffffffffff1663a9059cbb86856040518363ffffffff167c0100000000000000000000000000000000000000000000000000000000028152600401808373ffffffffffffffffffffffffffffffffffffffff1673ffffffffffffffffffffffffffffffffffffffff168152602001826fffffffffffffffffffffffffffffffff16815260200192505050602060405180830381600087803b1580156119ba57600080fd5b505af11580156119ce573d6000803e3d6000fd5b505050506040513d60208110156119e457600080fd5b810190808051906020019092919050505015156119fd57fe5b5050505050565b6000600260009054906101000a900473ffffffffffffffffffffffffffffffffffffffff1673ffffffffffffffffffffffffffffffffffffffff16636f2c83ee6040518163ffffffff167c0100000000000000000000000000000000000000000000000000000000028152600401602060405180830381600087803b158015611a8c57600080fd5b505af1158015611aa0573d6000803e3d6000fd5b505050506040513d6020811015611ab657600080fd5b8101908080519060200190929190505050905090565b6000600160009054906101000a900473ffffffffffffffffffffffffffffffffffffffff16905090565b60008060009054906101000a900473ffffffffffffffffffffffffffffffffffffffff1673ffffffffffffffffffffffffffffffffffffffff16638d4e40836040518163ffffffff167c0100000000000000000000000000000000000000000000000000000000028152600401602060405180830381600087803b158015611b7d57600080fd5b505af1158015611b91573d6000803e3d6000fd5b505050506040513d6020811015611ba757600080fd5b8101908080519060200190929190505050905090565b6000611bc7612203565b151515611c62576040517f08c379a00000000000000000000000000000000000000000000000000000000081526004018080602001828103825260228152602001807f4d6574686f64206f6e6c7920616c6c6f776564206265666f726520646973707581526020017f746500000000000000000000000000000000000000000000000000000000000081525060400191505060405180910390fd5b611c6a611a04565b9050826fffffffffffffffffffffffffffffffff168173ffffffffffffffffffffffffffffffffffffffff166370a08231336040518263ffffffff167c0100000000000000000000000000000000000000000000000000000000028152600401808273ffffffffffffffffffffffffffffffffffffffff1673ffffffffffffffffffffffffffffffffffffffff168152602001915050602060405180830381600087803b158015611d1a57600080fd5b505af1158015611d2e573d6000803e3d6000fd5b505050506040513d6020811015611d4457600080fd5b810190808051906020019092919050505010151515611dcb576040517f08c379a00000000000000000000000000000000000000000000000000000000081526004018080602001828103825260108152602001807f4e6f7420656e6f7567682066756e64730000000000000000000000000000000081525060200191505060405180910390fd5b826fffffffffffffffffffffffffffffffff168173ffffffffffffffffffffffffffffffffffffffff1663dd62ed3e33306040518363ffffffff167c0100000000000000000000000000000000000000000000000000000000028152600401808373ffffffffffffffffffffffffffffffffffffffff1673ffffffffffffffffffffffffffffffffffffffff1681526020018273ffffffffffffffffffffffffffffffffffffffff1673ffffffffffffffffffffffffffffffffffffffff16815260200192505050602060405180830381600087803b158015611ead57600080fd5b505af1158015611ec1573d6000803e3d6000fd5b505050506040513d6020811015611ed757600080fd5b810190808051906020019092919050505010151515611f5e576040517f08c379a00000000000000000000000000000000000000000000000000000000081526004018080602001828103825260148152602001807f4e6f7720656e6f75676820616c6c6f77616e636500000000000000000000000081525060200191505060405180910390fd5b8073ffffffffffffffffffffffffffffffffffffffff166323b872dd33600260009054906101000a900473ffffffffffffffffffffffffffffffffffffffff16866040518463ffffffff167c0100000000000000000000000000000000000000000000000000000000028152600401808473ffffffffffffffffffffffffffffffffffffffff1673ffffffffffffffffffffffffffffffffffffffff1681526020018373ffffffffffffffffffffffffffffffffffffffff1673ffffffffffffffffffffffffffffffffffffffff168152602001826fffffffffffffffffffffffffffffffff1681526020019350505050602060405180830381600087803b15801561206957600080fd5b505af115801561207d573d6000803e3d6000fd5b505050506040513d602081101561209357600080fd5b810190808051906020019092919050505015156120ac57fe5b6000809054906101000a900473ffffffffffffffffffffffffffffffffffffffff1673ffffffffffffffffffffffffffffffffffffffff166378cacd6e3385856040518463ffffffff167c0100000000000000000000000000000000000000000000000000000000028152600401808473ffffffffffffffffffffffffffffffffffffffff1673ffffffffffffffffffffffffffffffffffffffff168152602001836fffffffffffffffffffffffffffffffff166fffffffffffffffffffffffffffffffff168152602001826fffffffffffffffffffffffffffffffff166fffffffffffffffffffffffffffffffff1681526020019350505050600060405180830381600087803b1580156121c057600080fd5b505af11580156121d4573d6000803e3d6000fd5b50505050505050565b600260009054906101000a900473ffffffffffffffffffffffffffffffffffffffff1681565b6000600260009054906101000a900473ffffffffffffffffffffffffffffffffffffffff1673ffffffffffffffffffffffffffffffffffffffff1663d18959a26040518163ffffffff167c0100000000000000000000000000000000000000000000000000000000028152600401602060405180830381600087803b15801561228b57600080fd5b505af115801561229f573d6000803e3d6000fd5b505050506040513d60208110156122b557600080fd5b8101908080519060200190929190505050905090565b6000600260009054906101000a900473ffffffffffffffffffffffffffffffffffffffff16905090565b6000600260009054906101000a900473ffffffffffffffffffffffffffffffffffffffff1673ffffffffffffffffffffffffffffffffffffffff16632e6027526040518163ffffffff167c0100000000000000000000000000000000000000000000000000000000028152600401602060405180830381600087803b15801561237d57600080fd5b505af1158015612391573d6000803e3d6000fd5b505050506040513d60208110156123a757600080fd5b81019080805190602001909291905050509050905600a165627a7a723058201d19c8bbc686faa0f824af231679c25eda1c762b1e96976e51454b65270ba5ba0029",
  "source": "pragma solidity ^0.4.24;\n\nimport \"./IAccounting.sol\";\nimport \"./IAccountingFactory.sol\";\nimport \"./ICrowdsourcer.sol\";\nimport \"./IDisputer.sol\";\nimport \"./IDisputerFactory.sol\";\n\n// TODO: add events (global stream)\ncontract Crowdsourcer is ICrowdsourcer {\n  IAccounting public m_accounting;\n  ICrowdsourcerParent public m_parent;\n  IDisputer public m_disputer;\n\n  mapping(address => bool) m_proceedsCollected;\n  bool m_feesCollected = false;\n\n  constructor(\n    ICrowdsourcerParent parent,\n    IAccountingFactory accountingFactory,\n    IDisputerFactory disputerFactory,\n    address market,\n    uint256 feeWindowId,\n    uint256[] payoutNumerators,\n    bool invalid\n  ) public {\n    m_parent = parent;\n    m_accounting = accountingFactory.create(this);\n    m_disputer = disputerFactory.create(\n      this,\n      market,\n      feeWindowId,\n      payoutNumerators,\n      invalid\n    );\n  }\n\n  modifier beforeDisputeOnly() {\n    require (!hasDisputed(), \"Method only allowed before dispute\");\n    _;\n  }\n\n  modifier requiresFinalization() {\n    if (!isFinalized()) {\n      finalize();\n      assert(isFinalized());\n    }\n    _;\n  }\n\n  function getParent() external view returns (ICrowdsourcerParent) {\n    return m_parent;\n  }\n\n  function getDisputer() external view returns (IDisputer) {\n    return m_disputer;\n  }\n\n  function getAccounting() external view returns (IAccounting) {\n    return m_accounting;\n  }\n\n  function getREP() public view returns (IERC20) {\n    return m_disputer.getREP();\n  }\n\n  function getDisputeToken() public view returns (IERC20) {\n    return m_disputer.getDisputeTokenAddress();\n  }\n\n  function contribute(\n    uint128 amount,\n    uint128 feeNumerator\n  ) external beforeDisputeOnly {\n    IERC20 rep = getREP();\n    require(rep.balanceOf(msg.sender) >= amount, \"Not enough funds\");\n    require(rep.allowance(msg.sender, this) >= amount, \"Now enough allowance\");\n\n    // actually transfer tokens and revert tx if any problem\n    assert(rep.transferFrom(msg.sender, m_disputer, amount));\n\n    // record contribution in accounting (will perform validations)\n    m_accounting.contribute(msg.sender, amount, feeNumerator);\n  }\n\n  function withdrawContribution() external beforeDisputeOnly {\n    IERC20 rep = getREP();\n\n    // record withdrawal in accounting (will perform validations)\n    uint128 withdrawn = m_accounting.withdrawContribution(msg.sender);\n\n    // actually transfer tokens and revert tx if any problem\n    assert(rep.transferFrom(m_disputer, msg.sender, withdrawn));\n  }\n\n  function hasDisputed() public view returns (bool) {\n    return m_disputer.hasDisputed();\n  }\n\n  function finalize() public {\n    require(hasDisputed(), \"Can only finalize after dispute\");\n    require(!isFinalized(), \"Can only finalize once\");\n\n    // now that we've disputed we must know dispute token address\n    IERC20 disputeTokenAddress = getDisputeToken();\n    IERC20 rep = getREP();\n\n    m_disputer.approveManagerToSpendDisputeTokens();\n\n    // retrieve all tokens from disputer for proceeds distribution\n    // This wouldn't work extremely well if it is called from disputer's\n    // dispute() method, but it should only call Augur which we trust.\n    assert(rep.transferFrom(m_disputer, this, rep.balanceOf(m_disputer)));\n    assert(\n      disputeTokenAddress.transferFrom(\n        m_disputer,\n        this,\n        disputeTokenAddress.balanceOf(m_disputer)\n      )\n    );\n\n    uint256 amountDisputed = disputeTokenAddress.balanceOf(this);\n    uint128 amountDisputed128 = uint128(amountDisputed);\n\n    // REP has only so many tokens\n    assert(amountDisputed128 == amountDisputed);\n\n    m_accounting.finalize(amountDisputed128);\n\n    assert(isFinalized());\n  }\n\n  function isFinalized() public view returns (bool) {\n    return m_accounting.isFinalized();\n  }\n\n  function withdrawProceeds(address contributor) external requiresFinalization {\n    require(!m_proceedsCollected[contributor], \"Can only collect proceeds once\");\n\n    // record proceeds have been collected\n    m_proceedsCollected[contributor] = true;\n\n    uint128 refund;\n    uint128 proceeds;\n\n    // calculate how much this contributor is entitled to\n    (refund, proceeds) = m_accounting.calculateProceeds(contributor);\n\n    IERC20 rep = getREP();\n    IERC20 disputeTokenAddress = getDisputeToken();\n\n    // actually deliver the proceeds/refund\n    assert(rep.transfer(contributor, refund));\n    assert(disputeTokenAddress.transfer(contributor, proceeds));\n  }\n\n  function withdrawFees() external requiresFinalization {\n    require(!m_feesCollected, \"Can only collect fees once\");\n\n    m_feesCollected = true;\n\n    uint128 feesTotal = m_accounting.calculateFees();\n    // 10% of fees go to contract author\n    uint128 feesForContractAuthor = feesTotal / 10;\n    uint128 feesForExecutor = feesTotal - feesForContractAuthor;\n\n    assert(feesForContractAuthor + feesForExecutor == feesTotal);\n\n    address contractFeesRecipient = m_parent.getContractFeeReceiver();\n    address executorFeesRecipient = m_disputer.feeReceiver();\n\n    IERC20 disputeTokenAddress = getDisputeToken();\n\n    assert(\n      disputeTokenAddress.transfer(contractFeesRecipient, feesForContractAuthor)\n    );\n    assert(\n      disputeTokenAddress.transfer(executorFeesRecipient, feesForExecutor)\n    );\n  }\n}\n",
  "sourcePath": "/src/contracts/Crowdsourcer.sol",
  "compiler": {
    "name": "solc",
    "version": "0.4.24+commit.e67f0147.Emscripten.clang"
  },
  "schemaVersion": "2.0.1",
  "updatedAt": "2018-10-29T02:49:46.997Z"
}