{
  "contractName": "CrowdsourcerFactory",
  "abi": [
    {
      "constant": true,
      "inputs": [],
      "name": "m_accountingFactory",
      "outputs": [
        {
          "name": "",
          "type": "address"
        }
      ],
      "payable": false,
      "stateMutability": "view",
      "type": "function"
    },
    {
      "constant": true,
      "inputs": [
        {
          "name": "",
          "type": "bytes32"
        }
      ],
      "name": "m_crowdsourcers",
      "outputs": [
        {
          "name": "",
          "type": "address"
        }
      ],
      "payable": false,
      "stateMutability": "view",
      "type": "function"
    },
    {
      "constant": true,
      "inputs": [],
      "name": "m_disputerFactory",
      "outputs": [
        {
          "name": "",
          "type": "address"
        }
      ],
      "payable": false,
      "stateMutability": "view",
      "type": "function"
    },
    {
      "constant": true,
      "inputs": [],
      "name": "m_feeCollector",
      "outputs": [
        {
          "name": "",
          "type": "address"
        }
      ],
      "payable": false,
      "stateMutability": "view",
      "type": "function"
    },
    {
      "inputs": [
        {
          "name": "accountingFactory",
          "type": "address"
        },
        {
          "name": "disputerFactory",
          "type": "address"
        },
        {
          "name": "feeCollector",
          "type": "address"
        }
      ],
      "payable": false,
      "stateMutability": "nonpayable",
      "type": "constructor"
    },
    {
      "anonymous": false,
      "inputs": [
        {
          "indexed": false,
          "name": "crowdsourcer",
          "type": "address"
        },
        {
          "indexed": false,
          "name": "market",
          "type": "address"
        },
        {
          "indexed": false,
          "name": "feeWindowId",
          "type": "uint256"
        },
        {
          "indexed": false,
          "name": "payoutNumerators",
          "type": "uint256[]"
        },
        {
          "indexed": false,
          "name": "invalid",
          "type": "bool"
        }
      ],
      "name": "CrowdsourcerCreated",
      "type": "event"
    },
    {
      "constant": false,
      "inputs": [
        {
          "name": "recipient",
          "type": "address"
        }
      ],
      "name": "transferFeeCollection",
      "outputs": [],
      "payable": false,
      "stateMutability": "nonpayable",
      "type": "function"
    },
    {
      "constant": false,
      "inputs": [
        {
          "name": "market",
          "type": "address"
        },
        {
          "name": "feeWindowId",
          "type": "uint256"
        },
        {
          "name": "payoutNumerators",
          "type": "uint256[]"
        },
        {
          "name": "invalid",
          "type": "bool"
        }
      ],
      "name": "getInitializedCrowdsourcer",
      "outputs": [
        {
          "name": "",
          "type": "address"
        }
      ],
      "payable": false,
      "stateMutability": "nonpayable",
      "type": "function"
    },
    {
      "constant": true,
      "inputs": [],
      "name": "getContractFeeReceiver",
      "outputs": [
        {
          "name": "",
          "type": "address"
        }
      ],
      "payable": false,
      "stateMutability": "view",
      "type": "function"
    },
    {
      "constant": true,
      "inputs": [
        {
          "name": "market",
          "type": "address"
        },
        {
          "name": "feeWindowId",
          "type": "uint256"
        },
        {
          "name": "payoutNumerators",
          "type": "uint256[]"
        },
        {
          "name": "invalid",
          "type": "bool"
        }
      ],
      "name": "maybeGetCrowdsourcer",
      "outputs": [
        {
          "name": "",
          "type": "address"
        }
      ],
      "payable": false,
      "stateMutability": "view",
      "type": "function"
    },
    {
      "constant": false,
      "inputs": [
        {
          "name": "market",
          "type": "address"
        },
        {
          "name": "feeWindowId",
          "type": "uint256"
        },
        {
          "name": "payoutNumerators",
          "type": "uint256[]"
        },
        {
          "name": "invalid",
          "type": "bool"
        }
      ],
      "name": "getCrowdsourcer",
      "outputs": [
        {
          "name": "",
          "type": "address"
        }
      ],
      "payable": false,
      "stateMutability": "nonpayable",
      "type": "function"
    },
    {
      "constant": true,
      "inputs": [
        {
          "name": "feeWindowId",
          "type": "uint256"
        },
        {
          "name": "startFrom",
          "type": "uint256"
        },
        {
          "name": "minFeesOffered",
          "type": "uint256"
        },
        {
          "name": "exclude",
          "type": "address[]"
        }
      ],
      "name": "findCrowdsourcer",
      "outputs": [
        {
          "name": "",
          "type": "uint256"
        },
        {
          "name": "",
          "type": "address"
        }
      ],
      "payable": false,
      "stateMutability": "view",
      "type": "function"
    },
    {
      "constant": true,
      "inputs": [
        {
          "name": "feeWindowId",
          "type": "uint256"
        }
      ],
      "name": "getNumCrowdsourcers",
      "outputs": [
        {
          "name": "",
          "type": "uint256"
        }
      ],
      "payable": false,
      "stateMutability": "view",
      "type": "function"
    },
    {
      "constant": true,
      "inputs": [
        {
          "name": "market",
          "type": "address"
        },
        {
          "name": "feeWindowId",
          "type": "uint256"
        },
        {
          "name": "payoutNumerators",
          "type": "uint256[]"
        },
        {
          "name": "invalid",
          "type": "bool"
        }
      ],
      "name": "hashParams",
      "outputs": [
        {
          "name": "",
          "type": "bytes32"
        }
      ],
      "payable": false,
      "stateMutability": "pure",
      "type": "function"
    }
  ],
  "bytecode": "0x608060405234801561001057600080fd5b50604051606080612fb083398101604090815281516020830151919092015160008054600160a060020a0319908116600160a060020a03958616178255600180548216948616949094179093556002805490931693909116929092179055612f3290819061007e90396000f3006080604052600436106100a05763ffffffff60e060020a6000350416630f7c466c81146100a55780631d6215af146100cf57806334d7d5de1461015657806335a92d161461016b5780633e5e2213146101a157806345e14db5146101c4578063504b0fb5146101dc578063ae8cbc8114610261578063b60e859514610297578063b977405014610302578063d28940b214610317578063d2a2fc941461032c575b600080fd5b3480156100b157600080fd5b506100bd600435610341565b60408051918252519081900360200190f35b3480156100db57600080fd5b50604080516020600460443581810135838102808601850190965280855261013a958335600160a060020a0316956024803596369695606495939492019291829185019084908082843750949750505050913515159250610353915050565b60408051600160a060020a039092168252519081900360200190f35b34801561016257600080fd5b5061013a610582565b34801561017757600080fd5b5061013a60048035600160a060020a03169060248035916044359182019101356064351515610591565b3480156101ad57600080fd5b506101c2600160a060020a03600435166105f1565b005b3480156101d057600080fd5b5061013a600435610699565b3480156101e857600080fd5b5060408051606435600481810135602081810285810182019096528185526102409583359560248035966044359636969095608495929093019290918291850190849080828437509497506106b49650505050505050565b60408051928352600160a060020a0390911660208301528051918290030190f35b34801561026d57600080fd5b5061013a60048035600160a060020a031690602480359160443591820191013560643515156108f9565b3480156102a357600080fd5b5060408051602060046044358181013583810280860185019096528085526100bd958335600160a060020a0316956024803596369695606495939492019291829185019084908082843750949750505050913515159250610a7a915050565b34801561030e57600080fd5b5061013a610b89565b34801561032357600080fd5b5061013a610b98565b34801561033857600080fd5b5061013a610ba7565b60009081526004602052604090205490565b60008060008061036588888888610a7a565b600081815260036020526040902054909350600160a060020a03169150811561039057819350610577565b6000546001543091600160a060020a0390811691168a8a8a8a6103b1610bb6565b600160a060020a038089168252878116602080840191909152878216604084015290861660608301526080820185905282151560c083015260e060a0830181815285519184019190915284519091610100840191868201910280838360005b83811015610428578181015183820152602001610410565b5050505090500198505050505050505050604051809103906000f080158015610455573d6000803e3d6000fd5b5090507f3364ce329fe3fc5df17bf6396b1a086d8f36049a05b412f85c6eceee4874bfab81898989896040518086600160a060020a0316600160a060020a0316815260200185600160a060020a0316600160a060020a031681526020018481526020018060200183151515158152602001828103825284818151815260200191508051906020019060200280838360005b838110156104fe5781810151838201526020016104e6565b50505050905001965050505050505060405180910390a160008781526004602090815260408083208054600181018255908452828420018054600160a060020a03861673ffffffffffffffffffffffffffffffffffffffff19918216811790925587855260039093529220805490911690911790559250825b505050949350505050565b600054600160a060020a031681565b6000806105ce8787878780806020026020016040519081016040528093929190818152602001838360200280828437508b9450610a7a9350505050565b600090815260036020526040902054600160a060020a0316979650505050505050565b600254600160a060020a0316331461066a57604080517f08c379a000000000000000000000000000000000000000000000000000000000815260206004820152600e60248201527f4e6f7420617574686f72697a6564000000000000000000000000000000000000604482015290519081900360640190fd5b6002805473ffffffffffffffffffffffffffffffffffffffff1916600160a060020a0392909216919091179055565b600360205260009081526040902054600160a060020a031681565b60008481526004602052604081208054829190868380805b848410156108e25785848154811015156106e257fe5b9060005260206000200160009054906101000a9004600160a060020a0316925082600160a060020a031663392e53cd6040518163ffffffff1660e060020a028152600401602060405180830381600087803b15801561074057600080fd5b505af1158015610754573d6000803e3d6000fd5b505050506040513d602081101561076a57600080fd5b5051158061086957508983600160a060020a03166336cfd8ba6040518163ffffffff1660e060020a028152600401602060405180830381600087803b1580156107b257600080fd5b505af11580156107c6573d6000803e3d6000fd5b505050506040513d60208110156107dc57600080fd5b5051604080517f8f86c59c0000000000000000000000000000000000000000000000000000000081529051600160a060020a0390921691638f86c59c916004808201926020929091908290030181600087803b15801561083b57600080fd5b505af115801561084f573d6000803e3d6000fd5b505050506040513d602081101561086557600080fd5b5051105b15610873576108d7565b506001905060005b88518110156108c657888181518110151561089257fe5b90602001906020020151600160a060020a031683600160a060020a031614156108be57600091506108c6565b60010161087b565b81156108d7578383975097506108ea565b8360010193506106cc565b836000975097505b50505050505094509492505050565b6000806109368787878780806020026020016040519081016040528093929190818152602001838360200280828437508b94506103539350505050565b905080600160a060020a031663392e53cd6040518163ffffffff1660e060020a028152600401602060405180830381600087803b15801561097657600080fd5b505af115801561098a573d6000803e3d6000fd5b505050506040513d60208110156109a057600080fd5b50511515610a705780600160a060020a0316638129fc1c6040518163ffffffff1660e060020a028152600401600060405180830381600087803b1580156109e657600080fd5b505af11580156109fa573d6000803e3d6000fd5b5050505080600160a060020a031663392e53cd6040518163ffffffff1660e060020a028152600401602060405180830381600087803b158015610a3c57600080fd5b505af1158015610a50573d6000803e3d6000fd5b505050506040513d6020811015610a6657600080fd5b50511515610a7057fe5b9695505050505050565b6000848484846040516020018085600160a060020a0316600160a060020a03166c01000000000000000000000000028152601401848152602001838051906020019060200280838360005b83811015610add578181015183820152602001610ac5565b5050505090500182151515157f01000000000000000000000000000000000000000000000000000000000000000281526001019450505050506040516020818303038152906040526040518082805190602001908083835b60208310610b545780518252601f199092019160209182019101610b35565b5181516020939093036101000a6000190180199091169216919091179052604051920182900390912098975050505050505050565b600154600160a060020a031681565b600254600160a060020a031681565b600254600160a060020a031690565b60405161234080610bc783390190560060806040526000805460ff19908116909155600b805490911690553480156200002757600080fd5b5060405162002340380380620023408339810160408181528251602080850151838601516060808801516080808a015160a08b015160c08c015160088054600160a060020a03808d16600160a060020a03199283161790925560058054838c1690831617905560068054838b16908316179055948d018c528516808d52898d0184905291909c01998b018a90528b1515948b01949094526001805490921690931781556002839055875196999498939791969295919493929091620000f2916003918701906200011c565b50606091909101516003909101805460ff1916911515919091179055506200018c95505050505050565b8280548282559060005260206000209081019282156200015a579160200282015b828111156200015a5782518255916020019190600101906200013d565b50620001689291506200016c565b5090565b6200018991905b8082111562000168576000815560010162000173565b90565b6121a4806200019c6000396000f3006080604052600436106101195763ffffffff60e060020a6000350416630b741b49811461011e5780630d616d201461014f57806323be12681461016657806334d7d5de1461017b57806336cfd8ba14610190578063392e53cd146101a5578063476343ee146101ce5780634bb278f3146101e357806357be2cb8146101f857806362810c81146102195780636f2c83ee1461023a57806380f760211461024f5780638129fc1c146102645780638d4e40831461027957806399b7f3691461028e5780639fe00bbf146102a3578063b9774050146102ca578063be27fae7146102df578063c9204cf5146102f4578063d0d956b114610333578063d18959a214610348578063def3cb051461035d578063fbe7870514610372575b600080fd5b34801561012a57600080fd5b50610133610387565b60408051600160a060020a039092168252519081900360200190f35b34801561015b57600080fd5b50610164610396565b005b34801561017257600080fd5b506101336106ae565b34801561018757600080fd5b506101336106bd565b34801561019c57600080fd5b506101336106cc565b3480156101b157600080fd5b506101ba61072a565b604080519115158252519081900360200190f35b3480156101da57600080fd5b50610164610733565b3480156101ef57600080fd5b50610164610b3e565b34801561020457600080fd5b506101ba600160a060020a0360043516611056565b34801561022557600080fd5b50610164600160a060020a036004351661106b565b34801561024657600080fd5b50610133611372565b34801561025b57600080fd5b50610133611444565b34801561027057600080fd5b50610164611453565b34801561028557600080fd5b506101ba6116ce565b34801561029a57600080fd5b506101ba61176f565b3480156102af57600080fd5b506101646001608060020a0360043581169060243516611778565b3480156102d657600080fd5b50610133611d64565b3480156102eb57600080fd5b50610133611d73565b34801561030057600080fd5b50610309611d82565b60408051600160a060020a0390941684526020840192909252151582820152519081900360600190f35b34801561033f57600080fd5b506101ba611d9d565b34801561035457600080fd5b506101ba611da6565b34801561036957600080fd5b50610133611e47565b34801561037e57600080fd5b50610133611ea5565b600854600160a060020a031681565b60008060006103a361072a565b15156103e7576040805160e560020a62461bcd02815260206004820152601c6024820152600080516020612159833981519152604482015290519081900360640190fd5b6103ef611da6565b1561046a576040805160e560020a62461bcd02815260206004820152602260248201527f4d6574686f64206f6e6c7920616c6c6f776564206265666f726520646973707560448201527f7465000000000000000000000000000000000000000000000000000000000000606482015290519081900360840190fd5b610472611372565b600754604080517fa35c47090000000000000000000000000000000000000000000000000000000081523360048201528151939650600160a060020a039092169263a35c47099260248082019392918290030181600087803b1580156104d757600080fd5b505af11580156104eb573d6000803e3d6000fd5b505050506040513d604081101561050157600080fd5b508051602091820151600954604080517f23b872dd000000000000000000000000000000000000000000000000000000008152600160a060020a0392831660048201523360248201526001608060020a038516604482015290519396509194508616926323b872dd926064808401938290030181600087803b15801561058657600080fd5b505af115801561059a573d6000803e3d6000fd5b505050506040513d60208110156105b057600080fd5b505115156105ba57fe5b604080517fa9059cbb0000000000000000000000000000000000000000000000000000000081523360048201526001608060020a03831660248201529051600160a060020a0385169163a9059cbb9160448083019260209291908290030181600087803b15801561062a57600080fd5b505af115801561063e573d6000803e3d6000fd5b505050506040513d602081101561065457600080fd5b5051151561065e57fe5b610666611f46565b604080513381526001608060020a038416602082015281517f719726f6ad3c598acf803975f0634c207cab0a91259e732d4b84f625d8964043929181900390910190a1505050565b600754600160a060020a031681565b600554600160a060020a031681565b60006106d661072a565b151561071a576040805160e560020a62461bcd02815260206004820152601c6024820152600080516020612159833981519152604482015290519081900360640190fd5b50600754600160a060020a031690565b60005460ff1690565b6000806000806000806107446116ce565b151561076257610752610b3e565b61075a6116ce565b151561076257fe5b600b5460ff16156107bd576040805160e560020a62461bcd02815260206004820152601a60248201527f43616e206f6e6c7920636f6c6c6563742066656573206f6e6365000000000000604482015290519081900360640190fd5b600b805460ff19166001179055600754604080517f5edfa1f80000000000000000000000000000000000000000000000000000000081529051600160a060020a0390921691635edfa1f8916004808201926020929091908290030181600087803b15801561082a57600080fd5b505af115801561083e573d6000803e3d6000fd5b505050506040513d602081101561085457600080fd5b50519550600a6001608060020a0380881691820496508688039550858701161461087a57fe5b600860009054906101000a9004600160a060020a0316600160a060020a031663d2a2fc946040518163ffffffff1660e060020a028152600401602060405180830381600087803b1580156108cd57600080fd5b505af11580156108e1573d6000803e3d6000fd5b505050506040513d60208110156108f757600080fd5b5051600954604080517fb3f006740000000000000000000000000000000000000000000000000000000081529051929550600160a060020a039091169163b3f00674916004808201926020929091908290030181600087803b15801561095c57600080fd5b505af1158015610970573d6000803e3d6000fd5b505050506040513d602081101561098657600080fd5b50519150610992611372565b905080600160a060020a031663a9059cbb84876040518363ffffffff1660e060020a0281526004018083600160a060020a0316600160a060020a03168152602001826001608060020a0316815260200192505050602060405180830381600087803b158015610a0057600080fd5b505af1158015610a14573d6000803e3d6000fd5b505050506040513d6020811015610a2a57600080fd5b50511515610a3457fe5b604080517fa9059cbb000000000000000000000000000000000000000000000000000000008152600160a060020a0384811660048301526001608060020a038716602483015291519183169163a9059cbb916044808201926020929091908290030181600087803b158015610aa857600080fd5b505af1158015610abc573d6000803e3d6000fd5b505050506040513d6020811015610ad257600080fd5b50511515610adc57fe5b60408051600160a060020a038086168252841660208201526001608060020a03808816828401528616606082015290517f3cc6f29dc45640c19c0580785203f54c9b36da57c72ed7b8218249dbf15171299181900360800190a1505050505050565b600080600080610b4c61072a565b1515610b90576040805160e560020a62461bcd02815260206004820152601c6024820152600080516020612159833981519152604482015290519081900360640190fd5b610b98611da6565b1515610bee576040805160e560020a62461bcd02815260206004820152601f60248201527f43616e206f6e6c792066696e616c697a65206166746572206469737075746500604482015290519081900360640190fd5b610bf66116ce565b15610c4b576040805160e560020a62461bcd02815260206004820152601660248201527f43616e206f6e6c792066696e616c697a65206f6e636500000000000000000000604482015290519081900360640190fd5b610c53611ea5565b9350610c5d611372565b9250600960009054906101000a9004600160a060020a0316600160a060020a031663cadbbf636040518163ffffffff1660e060020a028152600401600060405180830381600087803b158015610cb257600080fd5b505af1158015610cc6573d6000803e3d6000fd5b50506009546040805160e060020a6370a08231028152600160a060020a0392831660048201819052915192881694506323b872dd93509091309185916370a08231916024808201926020929091908290030181600087803b158015610d2a57600080fd5b505af1158015610d3e573d6000803e3d6000fd5b505050506040513d6020811015610d5457600080fd5b50516040805160e060020a63ffffffff8716028152600160a060020a0394851660048201529290931660248301526044820152905160648083019260209291908290030181600087803b158015610daa57600080fd5b505af1158015610dbe573d6000803e3d6000fd5b505050506040513d6020811015610dd457600080fd5b50511515610dde57fe5b6009546040805160e060020a6370a08231028152600160a060020a03928316600482018190529151928716926323b872dd9291309185916370a082319160248083019260209291908290030181600087803b158015610e3c57600080fd5b505af1158015610e50573d6000803e3d6000fd5b505050506040513d6020811015610e6657600080fd5b50516040805160e060020a63ffffffff8716028152600160a060020a0394851660048201529290931660248301526044820152905160648083019260209291908290030181600087803b158015610ebc57600080fd5b505af1158015610ed0573d6000803e3d6000fd5b505050506040513d6020811015610ee657600080fd5b50511515610ef057fe5b6040805160e060020a6370a082310281523060048201529051600160a060020a038616916370a082319160248083019260209291908290030181600087803b158015610f3b57600080fd5b505af1158015610f4f573d6000803e3d6000fd5b505050506040513d6020811015610f6557600080fd5b505191508190506001608060020a0381168114610f7e57fe5b600754604080517f982665500000000000000000000000000000000000000000000000000000000081526001608060020a03841660048201529051600160a060020a039092169163982665509160248082019260009290919082900301818387803b158015610fec57600080fd5b505af1158015611000573d6000803e3d6000fd5b5050505061100c6116ce565b151561101457fe5b604080516001608060020a038316815290517fda187b46d7434eeeb80cd3c2055bafdc345c598dbbde79d30fab10203c83497e9181900360200190a150505050565b600a6020526000908152604090205460ff1681565b6000806000806110796116ce565b151561109757611087610b3e565b61108f6116ce565b151561109757fe5b600160a060020a0385166000908152600a602052604090205460ff1615611108576040805160e560020a62461bcd02815260206004820152601e60248201527f43616e206f6e6c7920636f6c6c6563742070726f6365656473206f6e63650000604482015290519081900360640190fd5b600160a060020a038086166000818152600a6020526040808220805460ff1916600117905560075481517f28d21f92000000000000000000000000000000000000000000000000000000008152600481019490945281519416936328d21f9293602480820194918390030190829087803b15801561118557600080fd5b505af1158015611199573d6000803e3d6000fd5b505050506040513d60408110156111af57600080fd5b50805160209091015190945092506111c5611372565b91506111cf611ea5565b905081600160a060020a031663a9059cbb86866040518363ffffffff1660e060020a0281526004018083600160a060020a0316600160a060020a03168152602001826001608060020a0316815260200192505050602060405180830381600087803b15801561123d57600080fd5b505af1158015611251573d6000803e3d6000fd5b505050506040513d602081101561126757600080fd5b5051151561127157fe5b604080517fa9059cbb000000000000000000000000000000000000000000000000000000008152600160a060020a0387811660048301526001608060020a038616602483015291519183169163a9059cbb916044808201926020929091908290030181600087803b1580156112e557600080fd5b505af11580156112f9573d6000803e3d6000fd5b505050506040513d602081101561130f57600080fd5b5051151561131957fe5b60408051600160a060020a03871681526001608060020a03808616602083015286168183015290517fcb905be9549b41589fc77bbb5a3b67dbf9f3b0284ae7a47f0df76c26393b27a59181900360600190a15050505050565b600061137c61072a565b15156113c0576040805160e560020a62461bcd02815260206004820152601c6024820152600080516020612159833981519152604482015290519081900360640190fd5b600960009054906101000a9004600160a060020a0316600160a060020a0316636f2c83ee6040518163ffffffff1660e060020a028152600401602060405180830381600087803b15801561141357600080fd5b505af1158015611427573d6000803e3d6000fd5b505050506040513d602081101561143d57600080fd5b5051905090565b600854600160a060020a031690565b60005460ff16156114ae576040805160e560020a62461bcd02815260206004820152601360248201527f416c726561647920696e697469616c697a656400000000000000000000000000604482015290519081900360640190fd5b6000805460ff19166001178155600554604080517f9ed933180000000000000000000000000000000000000000000000000000000081523060048201529051600160a060020a0390921692639ed93318926024808401936020939083900390910190829087803b15801561152157600080fd5b505af1158015611535573d6000803e3d6000fd5b505050506040513d602081101561154b57600080fd5b50516007805473ffffffffffffffffffffffffffffffffffffffff1916600160a060020a03928316179055600654600154600254600480546040517fbdb1300200000000000000000000000000000000000000000000000000000000815230928101838152948716602482018190526044820185905260ff909216801515608483015260a0606483019081526003805460a48501819052989099169863bdb130029895979496959094929360c401908590801561162757602002820191906000526020600020905b815481526020019060010190808311611613575b50509650505050505050602060405180830381600087803b15801561164b57600080fd5b505af115801561165f573d6000803e3d6000fd5b505050506040513d602081101561167557600080fd5b50516009805473ffffffffffffffffffffffffffffffffffffffff1916600160a060020a039092169190911790556040517f5daa87a0e9463431830481fd4b6e3403442dfb9a12b9c07597e9f61d50b633c890600090a1565b60006116d861072a565b151561171c576040805160e560020a62461bcd02815260206004820152601c6024820152600080516020612159833981519152604482015290519081900360640190fd5b600760009054906101000a9004600160a060020a0316600160a060020a0316638d4e40836040518163ffffffff1660e060020a028152600401602060405180830381600087803b15801561141357600080fd5b60005460ff1681565b60008060008061178661072a565b15156117ca576040805160e560020a62461bcd02815260206004820152601c6024820152600080516020612159833981519152604482015290519081900360640190fd5b6117d2611da6565b1561184d576040805160e560020a62461bcd02815260206004820152602260248201527f4d6574686f64206f6e6c7920616c6c6f776564206265666f726520646973707560448201527f7465000000000000000000000000000000000000000000000000000000000000606482015290519081900360840190fd5b600754604080517fe0dd81f80000000000000000000000000000000000000000000000000000000081526001608060020a03808a166004830152881660248201529051600160a060020a039092169163e0dd81f8916044808201926020929091908290030181600087803b1580156118c457600080fd5b505af11580156118d8573d6000803e3d6000fd5b505050506040513d60208110156118ee57600080fd5b505193506118fa611372565b6040805160e060020a6370a0823102815233600482015290519194506001608060020a03861691600160a060020a038616916370a082319160248083019260209291908290030181600087803b15801561195357600080fd5b505af1158015611967573d6000803e3d6000fd5b505050506040513d602081101561197d57600080fd5b505110156119d5576040805160e560020a62461bcd02815260206004820152601060248201527f4e6f7420656e6f7567682066756e647300000000000000000000000000000000604482015290519081900360640190fd5b604080517fdd62ed3e00000000000000000000000000000000000000000000000000000000815233600482015230602482015290516001608060020a03861691600160a060020a0386169163dd62ed3e916044808201926020929091908290030181600087803b158015611a4857600080fd5b505af1158015611a5c573d6000803e3d6000fd5b505050506040513d6020811015611a7257600080fd5b50511015611aca576040805160e560020a62461bcd02815260206004820152601460248201527f4e6f7720656e6f75676820616c6c6f77616e6365000000000000000000000000604482015290519081900360640190fd5b600754604080517f78cacd6e0000000000000000000000000000000000000000000000000000000081523360048201526001608060020a03808a166024830152881660448201528151600160a060020a03909316926378cacd6e926064808401939192918290030181600087803b158015611b4457600080fd5b505af1158015611b58573d6000803e3d6000fd5b505050506040513d6040811015611b6e57600080fd5b50805160209091015190925090506001608060020a0380831690871614611b9157fe5b836001608060020a03168183016001608060020a0316141515611bb057fe5b600954604080517f23b872dd000000000000000000000000000000000000000000000000000000008152336004820152600160a060020a0392831660248201526001608060020a03851660448201529051918516916323b872dd916064808201926020929091908290030181600087803b158015611c2d57600080fd5b505af1158015611c41573d6000803e3d6000fd5b505050506040513d6020811015611c5757600080fd5b50511515611c6157fe5b604080517f23b872dd0000000000000000000000000000000000000000000000000000000081523360048201523060248201526001608060020a03831660448201529051600160a060020a038516916323b872dd9160648083019260209291908290030181600087803b158015611cd757600080fd5b505af1158015611ceb573d6000803e3d6000fd5b505050506040513d6020811015611d0157600080fd5b50511515611d0b57fe5b611d13611f46565b604080513381526001608060020a03808916602083015287168183015290517f13300c39d77178f4a5208422e562bf8ae2224fa8773b1b77f023f9d47171794f9181900360600190a1505050505050565b600654600160a060020a031681565b600954600160a060020a031681565b600154600254600454600160a060020a039092169160ff1683565b600b5460ff1681565b6000611db061072a565b1515611df4576040805160e560020a62461bcd02815260206004820152601c6024820152600080516020612159833981519152604482015290519081900360640190fd5b600960009054906101000a9004600160a060020a0316600160a060020a031663d18959a26040518163ffffffff1660e060020a028152600401602060405180830381600087803b15801561141357600080fd5b6000611e5161072a565b1515611e95576040805160e560020a62461bcd02815260206004820152601c6024820152600080516020612159833981519152604482015290519081900360640190fd5b50600954600160a060020a031690565b6000611eaf61072a565b1515611ef3576040805160e560020a62461bcd02815260206004820152601c6024820152600080516020612159833981519152604482015290519081900360640190fd5b600960009054906101000a9004600160a060020a0316600160a060020a0316632e6027526040518163ffffffff1660e060020a028152600401602060405180830381600087803b15801561141357600080fd5b6000611f50611372565b9050600760009054906101000a9004600160a060020a0316600160a060020a03166308caa9106040518163ffffffff1660e060020a028152600401602060405180830381600087803b158015611fa557600080fd5b505af1158015611fb9573d6000803e3d6000fd5b505050506040513d6020811015611fcf57600080fd5b50516009546040805160e060020a6370a08231028152600160a060020a0392831660048201529051918416916370a08231916024808201926020929091908290030181600087803b15801561202357600080fd5b505af1158015612037573d6000803e3d6000fd5b505050506040513d602081101561204d57600080fd5b5051101561205757fe5b600760009054906101000a9004600160a060020a0316600160a060020a0316638f86c59c6040518163ffffffff1660e060020a028152600401602060405180830381600087803b1580156120aa57600080fd5b505af11580156120be573d6000803e3d6000fd5b505050506040513d60208110156120d457600080fd5b50516040805160e060020a6370a082310281523060048201529051600160a060020a038416916370a082319160248083019260209291908290030181600087803b15801561212157600080fd5b505af1158015612135573d6000803e3d6000fd5b505050506040513d602081101561214b57600080fd5b5051101561215557fe5b5056004d7573742063616c6c20696e697469616c697a65282920666972737400000000a165627a7a7230582083100091219184c97e8845dfcd4a4eeae269df16d28278ebb0542ca7f731e2df0029a165627a7a723058207191ea0de1a31c0322797008d9df44be900b91f322b56e1d6c592e76f6a8335a0029",
  "source": "pragma solidity 0.4.24;\n\nimport \"./IAccountingFactory.sol\";\nimport \"./IDisputerFactory.sol\";\nimport \"./ICrowdsourcerParent.sol\";\nimport \"./ICrowdsourcer.sol\";\nimport \"./Crowdsourcer.sol\";\nimport \"./DisputerParams.sol\";\n\n/**\n * NOTE: the created crowdsourcers trust the market that was passed in constructor.\n * If a malicious market is passed in, all bets are off.\n *\n * Individual crowdsourcers have no trust relationships with each other.\n */\ncontract CrowdsourcerFactory is ICrowdsourcerParent {\n  event CrowdsourcerCreated(\n    ICrowdsourcer crowdsourcer,\n    Market market,\n    uint256 feeWindowId,\n    uint256[] payoutNumerators,\n    bool invalid\n  );\n\n  IAccountingFactory public m_accountingFactory;\n  IDisputerFactory public m_disputerFactory;\n\n  address public m_feeCollector;\n  mapping(bytes32 => ICrowdsourcer) public m_crowdsourcers;\n  mapping(uint256 => ICrowdsourcer[]) private m_crowdsourcersPerFeeWindow;\n\n  constructor(\n    IAccountingFactory accountingFactory,\n    IDisputerFactory disputerFactory,\n    address feeCollector\n  ) public {\n    m_accountingFactory = accountingFactory;\n    m_disputerFactory = disputerFactory;\n    m_feeCollector = feeCollector;\n  }\n\n  function transferFeeCollection(address recipient) external {\n    require(msg.sender == m_feeCollector, \"Not authorized\");\n    m_feeCollector = recipient;\n  }\n\n  function getInitializedCrowdsourcer(\n    Market market,\n    uint256 feeWindowId,\n    uint256[] payoutNumerators,\n    bool invalid\n  ) external returns(ICrowdsourcer) {\n    ICrowdsourcer crowdsourcer = getCrowdsourcer(\n      market,\n      feeWindowId,\n      payoutNumerators,\n      invalid\n    );\n    if (!crowdsourcer.isInitialized()) {\n      crowdsourcer.initialize();\n      assert(crowdsourcer.isInitialized());\n    }\n    return crowdsourcer;\n  }\n\n  function getContractFeeReceiver() external view returns(address) {\n    return m_feeCollector;\n  }\n\n  function maybeGetCrowdsourcer(\n    Market market,\n    uint256 feeWindowId,\n    uint256[] payoutNumerators,\n    bool invalid\n  ) external view returns(ICrowdsourcer) {\n    bytes32 paramsHash = hashParams(\n      market,\n      feeWindowId,\n      payoutNumerators,\n      invalid\n    );\n    return m_crowdsourcers[paramsHash];\n  }\n\n  function getCrowdsourcer(\n    Market market,\n    uint256 feeWindowId,\n    uint256[] payoutNumerators,\n    bool invalid\n  ) public returns(ICrowdsourcer) {\n    bytes32 paramsHash = hashParams(\n      market,\n      feeWindowId,\n      payoutNumerators,\n      invalid\n    );\n    ICrowdsourcer existing = m_crowdsourcers[paramsHash];\n    if (address(existing) != 0) {\n      return existing;\n    }\n    ICrowdsourcer created = new Crowdsourcer(\n      this,\n      m_accountingFactory,\n      m_disputerFactory,\n      market,\n      feeWindowId,\n      payoutNumerators,\n      invalid\n    );\n    emit CrowdsourcerCreated(\n      created,\n      market,\n      feeWindowId,\n      payoutNumerators,\n      invalid\n    );\n    m_crowdsourcersPerFeeWindow[feeWindowId].push(created);\n    m_crowdsourcers[paramsHash] = created;\n    return created;\n  }\n\n  function findCrowdsourcer(\n    uint256 feeWindowId,\n    uint256 startFrom,\n    uint256 minFeesOffered,\n    ICrowdsourcer[] exclude\n  ) public view returns(uint256, ICrowdsourcer) {\n    ICrowdsourcer[] storage crowdsourcers = m_crowdsourcersPerFeeWindow[feeWindowId];\n    uint256 n = crowdsourcers.length;\n    uint256 i;\n\n    for (i = startFrom; i < n; ++i) {\n      ICrowdsourcer candidate = crowdsourcers[i];\n\n      if (!candidate.isInitialized() || candidate.getAccounting(\n\n      ).getTotalFeesOffered() < minFeesOffered) {\n        continue;\n      }\n\n      bool isGood = true;\n      for (uint256 j = 0; j < exclude.length; ++j) {\n        if (candidate == exclude[j]) {\n          isGood = false;\n          break;\n        }\n      }\n\n      if (isGood) {\n        return (i, candidate);\n      }\n    }\n\n    return (i, ICrowdsourcer(0));\n  }\n\n  function getNumCrowdsourcers(uint256 feeWindowId) public view returns(\n    uint256\n  ) {\n    return m_crowdsourcersPerFeeWindow[feeWindowId].length;\n  }\n\n  function hashParams(\n    Market market,\n    uint256 feeWindowId,\n    uint256[] payoutNumerators,\n    bool invalid\n  ) public pure returns(bytes32) {\n    return keccak256(\n      abi.encodePacked(market, feeWindowId, payoutNumerators, invalid)\n    );\n  }\n}\n",
  "sourcePath": "/src/contracts/CrowdsourcerFactory.sol",
  "compiler": {
    "name": "solc",
    "version": "0.4.24+commit.e67f0147.Emscripten.clang"
  },
  "schemaVersion": "2.0.1",
  "updatedAt": "2018-11-09T22:41:54.448Z"
}