{
  "contractName": "Crowdsourcer",
  "abi": [
    {
      "constant": true,
      "inputs": [],
      "name": "m_parent",
      "outputs": [
        {
          "name": "",
          "type": "address"
        }
      ],
      "payable": false,
      "stateMutability": "view",
      "type": "function"
    },
    {
      "constant": true,
      "inputs": [],
      "name": "m_accounting",
      "outputs": [
        {
          "name": "",
          "type": "address"
        }
      ],
      "payable": false,
      "stateMutability": "view",
      "type": "function"
    },
    {
      "constant": true,
      "inputs": [],
      "name": "m_accountingFactory",
      "outputs": [
        {
          "name": "",
          "type": "address"
        }
      ],
      "payable": false,
      "stateMutability": "view",
      "type": "function"
    },
    {
      "constant": true,
      "inputs": [
        {
          "name": "",
          "type": "address"
        }
      ],
      "name": "m_proceedsCollected",
      "outputs": [
        {
          "name": "",
          "type": "bool"
        }
      ],
      "payable": false,
      "stateMutability": "view",
      "type": "function"
    },
    {
      "constant": true,
      "inputs": [],
      "name": "m_isInitialized",
      "outputs": [
        {
          "name": "",
          "type": "bool"
        }
      ],
      "payable": false,
      "stateMutability": "view",
      "type": "function"
    },
    {
      "constant": true,
      "inputs": [],
      "name": "m_disputerFactory",
      "outputs": [
        {
          "name": "",
          "type": "address"
        }
      ],
      "payable": false,
      "stateMutability": "view",
      "type": "function"
    },
    {
      "constant": true,
      "inputs": [],
      "name": "m_disputer",
      "outputs": [
        {
          "name": "",
          "type": "address"
        }
      ],
      "payable": false,
      "stateMutability": "view",
      "type": "function"
    },
    {
      "constant": true,
      "inputs": [],
      "name": "m_disputerParams",
      "outputs": [
        {
          "name": "market",
          "type": "address"
        },
        {
          "name": "feeWindowId",
          "type": "uint256"
        },
        {
          "name": "invalid",
          "type": "bool"
        }
      ],
      "payable": false,
      "stateMutability": "view",
      "type": "function"
    },
    {
      "constant": true,
      "inputs": [],
      "name": "m_feesCollected",
      "outputs": [
        {
          "name": "",
          "type": "bool"
        }
      ],
      "payable": false,
      "stateMutability": "view",
      "type": "function"
    },
    {
      "inputs": [
        {
          "name": "parent",
          "type": "address"
        },
        {
          "name": "accountingFactory",
          "type": "address"
        },
        {
          "name": "disputerFactory",
          "type": "address"
        },
        {
          "name": "market",
          "type": "address"
        },
        {
          "name": "feeWindowId",
          "type": "uint256"
        },
        {
          "name": "payoutNumerators",
          "type": "uint256[]"
        },
        {
          "name": "invalid",
          "type": "bool"
        }
      ],
      "payable": false,
      "stateMutability": "nonpayable",
      "type": "constructor"
    },
    {
      "anonymous": false,
      "inputs": [
        {
          "indexed": false,
          "name": "contributor",
          "type": "address"
        },
        {
          "indexed": false,
          "name": "amount",
          "type": "uint128"
        },
        {
          "indexed": false,
          "name": "feeNumerator",
          "type": "uint128"
        }
      ],
      "name": "ContributionAccepted",
      "type": "event"
    },
    {
      "anonymous": false,
      "inputs": [
        {
          "indexed": false,
          "name": "contributor",
          "type": "address"
        },
        {
          "indexed": false,
          "name": "amount",
          "type": "uint128"
        }
      ],
      "name": "ContributionWithdrawn",
      "type": "event"
    },
    {
      "anonymous": false,
      "inputs": [
        {
          "indexed": false,
          "name": "amountDisputeTokensAcquired",
          "type": "uint128"
        }
      ],
      "name": "CrowdsourcerFinalized",
      "type": "event"
    },
    {
      "anonymous": false,
      "inputs": [
        {
          "indexed": false,
          "name": "contributor",
          "type": "address"
        },
        {
          "indexed": false,
          "name": "disputeTokensAmount",
          "type": "uint128"
        },
        {
          "indexed": false,
          "name": "repAmount",
          "type": "uint128"
        }
      ],
      "name": "ProceedsWithdrawn",
      "type": "event"
    },
    {
      "anonymous": false,
      "inputs": [
        {
          "indexed": false,
          "name": "contractAuthor",
          "type": "address"
        },
        {
          "indexed": false,
          "name": "executor",
          "type": "address"
        },
        {
          "indexed": false,
          "name": "contractAuthorAmount",
          "type": "uint128"
        },
        {
          "indexed": false,
          "name": "executorAmount",
          "type": "uint128"
        }
      ],
      "name": "FeesWithdrawn",
      "type": "event"
    },
    {
      "constant": true,
      "inputs": [],
      "name": "isInitialized",
      "outputs": [
        {
          "name": "",
          "type": "bool"
        }
      ],
      "payable": false,
      "stateMutability": "view",
      "type": "function"
    },
    {
      "constant": false,
      "inputs": [],
      "name": "initialize",
      "outputs": [],
      "payable": false,
      "stateMutability": "nonpayable",
      "type": "function"
    },
    {
      "constant": true,
      "inputs": [],
      "name": "getParent",
      "outputs": [
        {
          "name": "",
          "type": "address"
        }
      ],
      "payable": false,
      "stateMutability": "view",
      "type": "function"
    },
    {
      "constant": true,
      "inputs": [],
      "name": "getDisputer",
      "outputs": [
        {
          "name": "",
          "type": "address"
        }
      ],
      "payable": false,
      "stateMutability": "view",
      "type": "function"
    },
    {
      "constant": true,
      "inputs": [],
      "name": "getAccounting",
      "outputs": [
        {
          "name": "",
          "type": "address"
        }
      ],
      "payable": false,
      "stateMutability": "view",
      "type": "function"
    },
    {
      "constant": true,
      "inputs": [],
      "name": "getREP",
      "outputs": [
        {
          "name": "",
          "type": "address"
        }
      ],
      "payable": false,
      "stateMutability": "view",
      "type": "function"
    },
    {
      "constant": true,
      "inputs": [],
      "name": "getDisputeToken",
      "outputs": [
        {
          "name": "",
          "type": "address"
        }
      ],
      "payable": false,
      "stateMutability": "view",
      "type": "function"
    },
    {
      "constant": false,
      "inputs": [
        {
          "name": "amount",
          "type": "uint128"
        },
        {
          "name": "feeNumerator",
          "type": "uint128"
        }
      ],
      "name": "contribute",
      "outputs": [],
      "payable": false,
      "stateMutability": "nonpayable",
      "type": "function"
    },
    {
      "constant": false,
      "inputs": [],
      "name": "withdrawContribution",
      "outputs": [],
      "payable": false,
      "stateMutability": "nonpayable",
      "type": "function"
    },
    {
      "constant": true,
      "inputs": [],
      "name": "hasDisputed",
      "outputs": [
        {
          "name": "",
          "type": "bool"
        }
      ],
      "payable": false,
      "stateMutability": "view",
      "type": "function"
    },
    {
      "constant": false,
      "inputs": [],
      "name": "finalize",
      "outputs": [],
      "payable": false,
      "stateMutability": "nonpayable",
      "type": "function"
    },
    {
      "constant": true,
      "inputs": [],
      "name": "isFinalized",
      "outputs": [
        {
          "name": "",
          "type": "bool"
        }
      ],
      "payable": false,
      "stateMutability": "view",
      "type": "function"
    },
    {
      "constant": false,
      "inputs": [
        {
          "name": "contributor",
          "type": "address"
        }
      ],
      "name": "withdrawProceeds",
      "outputs": [],
      "payable": false,
      "stateMutability": "nonpayable",
      "type": "function"
    },
    {
      "constant": false,
      "inputs": [],
      "name": "withdrawFees",
      "outputs": [],
      "payable": false,
      "stateMutability": "nonpayable",
      "type": "function"
    }
  ],
  "bytecode": "0x608060405260008060006101000a81548160ff0219169083151502179055506000600b60006101000a81548160ff0219169083151502179055503480156200004657600080fd5b5060405162003995380380620039958339810180604052810190808051906020019092919080519060200190929190805190602001909291908051906020019092919080519060200190929190805182019291906020018051906020019092919050505086600860006101000a81548173ffffffffffffffffffffffffffffffffffffffff021916908373ffffffffffffffffffffffffffffffffffffffff16021790555085600560006101000a81548173ffffffffffffffffffffffffffffffffffffffff021916908373ffffffffffffffffffffffffffffffffffffffff16021790555084600660006101000a81548173ffffffffffffffffffffffffffffffffffffffff021916908373ffffffffffffffffffffffffffffffffffffffff1602179055506080604051908101604052808573ffffffffffffffffffffffffffffffffffffffff168152602001848152602001838152602001821515815250600160008201518160000160006101000a81548173ffffffffffffffffffffffffffffffffffffffff021916908373ffffffffffffffffffffffffffffffffffffffff1602179055506020820151816001015560408201518160020190805190602001906200021892919062000249565b5060608201518160030160006101000a81548160ff02191690831515021790555090505050505050505050620002c3565b82805482825590600052602060002090810192821562000288579160200282015b82811115620002875782518255916020019190600101906200026a565b5b5090506200029791906200029b565b5090565b620002c091905b80821115620002bc576000816000905550600101620002a2565b5090565b90565b6136c280620002d36000396000f300608060405260043610610133576000357c0100000000000000000000000000000000000000000000000000000000900463ffffffff1680630b741b49146101385780630d616d201461018f57806323be1268146101a657806334d7d5de146101fd57806336cfd8ba14610254578063392e53cd146102ab578063476343ee146102da5780634bb278f3146102f157806357be2cb81461030857806362810c81146103635780636f2c83ee146103a657806380f76021146103fd5780638129fc1c146104545780638d4e40831461046b57806399b7f3691461049a5780639fe00bbf146104c9578063b977405014610524578063be27fae71461057b578063c9204cf5146105d2578063d0d956b11461063b578063d18959a21461066a578063def3cb0514610699578063fbe78705146106f0575b600080fd5b34801561014457600080fd5b5061014d610747565b604051808273ffffffffffffffffffffffffffffffffffffffff1673ffffffffffffffffffffffffffffffffffffffff16815260200191505060405180910390f35b34801561019b57600080fd5b506101a461076d565b005b3480156101b257600080fd5b506101bb610c7e565b604051808273ffffffffffffffffffffffffffffffffffffffff1673ffffffffffffffffffffffffffffffffffffffff16815260200191505060405180910390f35b34801561020957600080fd5b50610212610ca4565b604051808273ffffffffffffffffffffffffffffffffffffffff1673ffffffffffffffffffffffffffffffffffffffff16815260200191505060405180910390f35b34801561026057600080fd5b50610269610cca565b604051808273ffffffffffffffffffffffffffffffffffffffff1673ffffffffffffffffffffffffffffffffffffffff16815260200191505060405180910390f35b3480156102b757600080fd5b506102c0610d70565b604051808215151515815260200191505060405180910390f35b3480156102e657600080fd5b506102ef610d86565b005b3480156102fd57600080fd5b506103066113e7565b005b34801561031457600080fd5b50610349600480360381019080803573ffffffffffffffffffffffffffffffffffffffff169060200190929190505050611cb0565b604051808215151515815260200191505060405180910390f35b34801561036f57600080fd5b506103a4600480360381019080803573ffffffffffffffffffffffffffffffffffffffff169060200190929190505050611cd0565b005b3480156103b257600080fd5b506103bb6121e6565b604051808273ffffffffffffffffffffffffffffffffffffffff1673ffffffffffffffffffffffffffffffffffffffff16815260200191505060405180910390f35b34801561040957600080fd5b5061041261232a565b604051808273ffffffffffffffffffffffffffffffffffffffff1673ffffffffffffffffffffffffffffffffffffffff16815260200191505060405180910390f35b34801561046057600080fd5b50610469612354565b005b34801561047757600080fd5b50610480612731565b604051808215151515815260200191505060405180910390f35b3480156104a657600080fd5b506104af612875565b604051808215151515815260200191505060405180910390f35b3480156104d557600080fd5b5061052260048036038101908080356fffffffffffffffffffffffffffffffff16906020019092919080356fffffffffffffffffffffffffffffffff169060200190929190505050612887565b005b34801561053057600080fd5b506105396132c4565b604051808273ffffffffffffffffffffffffffffffffffffffff1673ffffffffffffffffffffffffffffffffffffffff16815260200191505060405180910390f35b34801561058757600080fd5b506105906132ea565b604051808273ffffffffffffffffffffffffffffffffffffffff1673ffffffffffffffffffffffffffffffffffffffff16815260200191505060405180910390f35b3480156105de57600080fd5b506105e7613310565b604051808473ffffffffffffffffffffffffffffffffffffffff1673ffffffffffffffffffffffffffffffffffffffff16815260200183815260200182151515158152602001935050505060405180910390f35b34801561064757600080fd5b50610650613355565b604051808215151515815260200191505060405180910390f35b34801561067657600080fd5b5061067f613368565b604051808215151515815260200191505060405180910390f35b3480156106a557600080fd5b506106ae6134ac565b604051808273ffffffffffffffffffffffffffffffffffffffff1673ffffffffffffffffffffffffffffffffffffffff16815260200191505060405180910390f35b3480156106fc57600080fd5b50610705613552565b604051808273ffffffffffffffffffffffffffffffffffffffff1673ffffffffffffffffffffffffffffffffffffffff16815260200191505060405180910390f35b600860009054906101000a900473ffffffffffffffffffffffffffffffffffffffff1681565b600080600061077a610d70565b15156107ee576040517f08c379a000000000000000000000000000000000000000000000000000000000815260040180806020018281038252601c8152602001807f4d7573742063616c6c20696e697469616c697a6528292066697273740000000081525060200191505060405180910390fd5b6107f6613368565b151515610891576040517f08c379a00000000000000000000000000000000000000000000000000000000081526004018080602001828103825260228152602001807f4d6574686f64206f6e6c7920616c6c6f776564206265666f726520646973707581526020017f746500000000000000000000000000000000000000000000000000000000000081525060400191505060405180910390fd5b6108996121e6565b9250600760009054906101000a900473ffffffffffffffffffffffffffffffffffffffff1673ffffffffffffffffffffffffffffffffffffffff1663a35c4709336040518263ffffffff167c0100000000000000000000000000000000000000000000000000000000028152600401808273ffffffffffffffffffffffffffffffffffffffff1673ffffffffffffffffffffffffffffffffffffffff1681526020019150506040805180830381600087803b15801561095757600080fd5b505af115801561096b573d6000803e3d6000fd5b505050506040513d604081101561098157600080fd5b81019080805190602001909291908051906020019092919050505080925081935050508273ffffffffffffffffffffffffffffffffffffffff166323b872dd600960009054906101000a900473ffffffffffffffffffffffffffffffffffffffff1633856040518463ffffffff167c0100000000000000000000000000000000000000000000000000000000028152600401808473ffffffffffffffffffffffffffffffffffffffff1673ffffffffffffffffffffffffffffffffffffffff1681526020018373ffffffffffffffffffffffffffffffffffffffff1673ffffffffffffffffffffffffffffffffffffffff168152602001826fffffffffffffffffffffffffffffffff1681526020019350505050602060405180830381600087803b158015610aaf57600080fd5b505af1158015610ac3573d6000803e3d6000fd5b505050506040513d6020811015610ad957600080fd5b81019080805190602001909291905050501515610af257fe5b8273ffffffffffffffffffffffffffffffffffffffff1663a9059cbb33836040518363ffffffff167c0100000000000000000000000000000000000000000000000000000000028152600401808373ffffffffffffffffffffffffffffffffffffffff1673ffffffffffffffffffffffffffffffffffffffff168152602001826fffffffffffffffffffffffffffffffff16815260200192505050602060405180830381600087803b158015610ba757600080fd5b505af1158015610bbb573d6000803e3d6000fd5b505050506040513d6020811015610bd157600080fd5b81019080805190602001909291905050501515610bea57fe5b7f719726f6ad3c598acf803975f0634c207cab0a91259e732d4b84f625d89640433383604051808373ffffffffffffffffffffffffffffffffffffffff1673ffffffffffffffffffffffffffffffffffffffff168152602001826fffffffffffffffffffffffffffffffff166fffffffffffffffffffffffffffffffff1681526020019250505060405180910390a1505050565b600760009054906101000a900473ffffffffffffffffffffffffffffffffffffffff1681565b600560009054906101000a900473ffffffffffffffffffffffffffffffffffffffff1681565b6000610cd4610d70565b1515610d48576040517f08c379a000000000000000000000000000000000000000000000000000000000815260040180806020018281038252601c8152602001807f4d7573742063616c6c20696e697469616c697a6528292066697273740000000081525060200191505060405180910390fd5b600760009054906101000a900473ffffffffffffffffffffffffffffffffffffffff16905090565b60008060009054906101000a900460ff16905090565b600080600080600080610d97612731565b1515610db657610da56113e7565b610dad612731565b1515610db557fe5b5b600b60009054906101000a900460ff16151515610e3b576040517f08c379a000000000000000000000000000000000000000000000000000000000815260040180806020018281038252601a8152602001807f43616e206f6e6c7920636f6c6c6563742066656573206f6e636500000000000081525060200191505060405180910390fd5b6001600b60006101000a81548160ff021916908315150217905550600760009054906101000a900473ffffffffffffffffffffffffffffffffffffffff1673ffffffffffffffffffffffffffffffffffffffff16635edfa1f86040518163ffffffff167c0100000000000000000000000000000000000000000000000000000000028152600401602060405180830381600087803b158015610edc57600080fd5b505af1158015610ef0573d6000803e3d6000fd5b505050506040513d6020811015610f0657600080fd5b81019080805190602001909291905050509550600a866fffffffffffffffffffffffffffffffff16811515610f3757fe5b0494508486039350856fffffffffffffffffffffffffffffffff168486016fffffffffffffffffffffffffffffffff16141515610f7057fe5b600860009054906101000a900473ffffffffffffffffffffffffffffffffffffffff1673ffffffffffffffffffffffffffffffffffffffff1663d2a2fc946040518163ffffffff167c0100000000000000000000000000000000000000000000000000000000028152600401602060405180830381600087803b158015610ff657600080fd5b505af115801561100a573d6000803e3d6000fd5b505050506040513d602081101561102057600080fd5b81019080805190602001909291905050509250600960009054906101000a900473ffffffffffffffffffffffffffffffffffffffff1673ffffffffffffffffffffffffffffffffffffffff1663b3f006746040518163ffffffff167c0100000000000000000000000000000000000000000000000000000000028152600401602060405180830381600087803b1580156110b957600080fd5b505af11580156110cd573d6000803e3d6000fd5b505050506040513d60208110156110e357600080fd5b810190808051906020019092919050505091506110fe6121e6565b90508073ffffffffffffffffffffffffffffffffffffffff1663a9059cbb84876040518363ffffffff167c0100000000000000000000000000000000000000000000000000000000028152600401808373ffffffffffffffffffffffffffffffffffffffff1673ffffffffffffffffffffffffffffffffffffffff168152602001826fffffffffffffffffffffffffffffffff16815260200192505050602060405180830381600087803b1580156111b557600080fd5b505af11580156111c9573d6000803e3d6000fd5b505050506040513d60208110156111df57600080fd5b810190808051906020019092919050505015156111f857fe5b8073ffffffffffffffffffffffffffffffffffffffff1663a9059cbb83866040518363ffffffff167c0100000000000000000000000000000000000000000000000000000000028152600401808373ffffffffffffffffffffffffffffffffffffffff1673ffffffffffffffffffffffffffffffffffffffff168152602001826fffffffffffffffffffffffffffffffff16815260200192505050602060405180830381600087803b1580156112ad57600080fd5b505af11580156112c1573d6000803e3d6000fd5b505050506040513d60208110156112d757600080fd5b810190808051906020019092919050505015156112f057fe5b7f3cc6f29dc45640c19c0580785203f54c9b36da57c72ed7b8218249dbf151712983838787604051808573ffffffffffffffffffffffffffffffffffffffff1673ffffffffffffffffffffffffffffffffffffffff1681526020018473ffffffffffffffffffffffffffffffffffffffff1673ffffffffffffffffffffffffffffffffffffffff168152602001836fffffffffffffffffffffffffffffffff166fffffffffffffffffffffffffffffffff168152602001826fffffffffffffffffffffffffffffffff166fffffffffffffffffffffffffffffffff16815260200194505050505060405180910390a1505050505050565b6000806000806113f5610d70565b1515611469576040517f08c379a000000000000000000000000000000000000000000000000000000000815260040180806020018281038252601c8152602001807f4d7573742063616c6c20696e697469616c697a6528292066697273740000000081525060200191505060405180910390fd5b611471613368565b15156114e5576040517f08c379a000000000000000000000000000000000000000000000000000000000815260040180806020018281038252601f8152602001807f43616e206f6e6c792066696e616c697a6520616674657220646973707574650081525060200191505060405180910390fd5b6114ed612731565b151515611562576040517f08c379a00000000000000000000000000000000000000000000000000000000081526004018080602001828103825260168152602001807f43616e206f6e6c792066696e616c697a65206f6e63650000000000000000000081525060200191505060405180910390fd5b61156a613552565b93506115746121e6565b9250600960009054906101000a900473ffffffffffffffffffffffffffffffffffffffff1673ffffffffffffffffffffffffffffffffffffffff1663cadbbf636040518163ffffffff167c0100000000000000000000000000000000000000000000000000000000028152600401600060405180830381600087803b1580156115fc57600080fd5b505af1158015611610573d6000803e3d6000fd5b505050508273ffffffffffffffffffffffffffffffffffffffff166323b872dd600960009054906101000a900473ffffffffffffffffffffffffffffffffffffffff16308673ffffffffffffffffffffffffffffffffffffffff166370a08231600960009054906101000a900473ffffffffffffffffffffffffffffffffffffffff166040518263ffffffff167c0100000000000000000000000000000000000000000000000000000000028152600401808273ffffffffffffffffffffffffffffffffffffffff1673ffffffffffffffffffffffffffffffffffffffff168152602001915050602060405180830381600087803b15801561171157600080fd5b505af1158015611725573d6000803e3d6000fd5b505050506040513d602081101561173b57600080fd5b81019080805190602001909291905050506040518463ffffffff167c0100000000000000000000000000000000000000000000000000000000028152600401808473ffffffffffffffffffffffffffffffffffffffff1673ffffffffffffffffffffffffffffffffffffffff1681526020018373ffffffffffffffffffffffffffffffffffffffff1673ffffffffffffffffffffffffffffffffffffffff1681526020018281526020019350505050602060405180830381600087803b15801561180457600080fd5b505af1158015611818573d6000803e3d6000fd5b505050506040513d602081101561182e57600080fd5b8101908080519060200190929190505050151561184757fe5b8373ffffffffffffffffffffffffffffffffffffffff166323b872dd600960009054906101000a900473ffffffffffffffffffffffffffffffffffffffff16308773ffffffffffffffffffffffffffffffffffffffff166370a08231600960009054906101000a900473ffffffffffffffffffffffffffffffffffffffff166040518263ffffffff167c0100000000000000000000000000000000000000000000000000000000028152600401808273ffffffffffffffffffffffffffffffffffffffff1673ffffffffffffffffffffffffffffffffffffffff168152602001915050602060405180830381600087803b15801561194457600080fd5b505af1158015611958573d6000803e3d6000fd5b505050506040513d602081101561196e57600080fd5b81019080805190602001909291905050506040518463ffffffff167c0100000000000000000000000000000000000000000000000000000000028152600401808473ffffffffffffffffffffffffffffffffffffffff1673ffffffffffffffffffffffffffffffffffffffff1681526020018373ffffffffffffffffffffffffffffffffffffffff1673ffffffffffffffffffffffffffffffffffffffff1681526020018281526020019350505050602060405180830381600087803b158015611a3757600080fd5b505af1158015611a4b573d6000803e3d6000fd5b505050506040513d6020811015611a6157600080fd5b81019080805190602001909291905050501515611a7a57fe5b8373ffffffffffffffffffffffffffffffffffffffff166370a08231306040518263ffffffff167c0100000000000000000000000000000000000000000000000000000000028152600401808273ffffffffffffffffffffffffffffffffffffffff1673ffffffffffffffffffffffffffffffffffffffff168152602001915050602060405180830381600087803b158015611b1557600080fd5b505af1158015611b29573d6000803e3d6000fd5b505050506040513d6020811015611b3f57600080fd5b8101908080519060200190929190505050915081905081816fffffffffffffffffffffffffffffffff16141515611b7257fe5b600760009054906101000a900473ffffffffffffffffffffffffffffffffffffffff1673ffffffffffffffffffffffffffffffffffffffff166398266550826040518263ffffffff167c010000000000000000000000000000000000000000000000000000000002815260040180826fffffffffffffffffffffffffffffffff166fffffffffffffffffffffffffffffffff168152602001915050600060405180830381600087803b158015611c2757600080fd5b505af1158015611c3b573d6000803e3d6000fd5b50505050611c47612731565b1515611c4f57fe5b7fda187b46d7434eeeb80cd3c2055bafdc345c598dbbde79d30fab10203c83497e8160405180826fffffffffffffffffffffffffffffffff166fffffffffffffffffffffffffffffffff16815260200191505060405180910390a150505050565b600a6020528060005260406000206000915054906101000a900460ff1681565b600080600080611cde612731565b1515611cfd57611cec6113e7565b611cf4612731565b1515611cfc57fe5b5b600a60008673ffffffffffffffffffffffffffffffffffffffff1673ffffffffffffffffffffffffffffffffffffffff16815260200190815260200160002060009054906101000a900460ff16151515611dbf576040517f08c379a000000000000000000000000000000000000000000000000000000000815260040180806020018281038252601e8152602001807f43616e206f6e6c7920636f6c6c6563742070726f6365656473206f6e6365000081525060200191505060405180910390fd5b6001600a60008773ffffffffffffffffffffffffffffffffffffffff1673ffffffffffffffffffffffffffffffffffffffff16815260200190815260200160002060006101000a81548160ff021916908315150217905550600760009054906101000a900473ffffffffffffffffffffffffffffffffffffffff1673ffffffffffffffffffffffffffffffffffffffff166328d21f92866040518263ffffffff167c0100000000000000000000000000000000000000000000000000000000028152600401808273ffffffffffffffffffffffffffffffffffffffff1673ffffffffffffffffffffffffffffffffffffffff1681526020019150506040805180830381600087803b158015611ed357600080fd5b505af1158015611ee7573d6000803e3d6000fd5b505050506040513d6040811015611efd57600080fd5b8101908080519060200190929190805190602001909291905050508094508195505050611f286121e6565b9150611f32613552565b90508173ffffffffffffffffffffffffffffffffffffffff1663a9059cbb86866040518363ffffffff167c0100000000000000000000000000000000000000000000000000000000028152600401808373ffffffffffffffffffffffffffffffffffffffff1673ffffffffffffffffffffffffffffffffffffffff168152602001826fffffffffffffffffffffffffffffffff16815260200192505050602060405180830381600087803b158015611fe957600080fd5b505af1158015611ffd573d6000803e3d6000fd5b505050506040513d602081101561201357600080fd5b8101908080519060200190929190505050151561202c57fe5b8073ffffffffffffffffffffffffffffffffffffffff1663a9059cbb86856040518363ffffffff167c0100000000000000000000000000000000000000000000000000000000028152600401808373ffffffffffffffffffffffffffffffffffffffff1673ffffffffffffffffffffffffffffffffffffffff168152602001826fffffffffffffffffffffffffffffffff16815260200192505050602060405180830381600087803b1580156120e157600080fd5b505af11580156120f5573d6000803e3d6000fd5b505050506040513d602081101561210b57600080fd5b8101908080519060200190929190505050151561212457fe5b7fcb905be9549b41589fc77bbb5a3b67dbf9f3b0284ae7a47f0df76c26393b27a5858486604051808473ffffffffffffffffffffffffffffffffffffffff1673ffffffffffffffffffffffffffffffffffffffff168152602001836fffffffffffffffffffffffffffffffff166fffffffffffffffffffffffffffffffff168152602001826fffffffffffffffffffffffffffffffff166fffffffffffffffffffffffffffffffff168152602001935050505060405180910390a15050505050565b60006121f0610d70565b1515612264576040517f08c379a000000000000000000000000000000000000000000000000000000000815260040180806020018281038252601c8152602001807f4d7573742063616c6c20696e697469616c697a6528292066697273740000000081525060200191505060405180910390fd5b600960009054906101000a900473ffffffffffffffffffffffffffffffffffffffff1673ffffffffffffffffffffffffffffffffffffffff16636f2c83ee6040518163ffffffff167c0100000000000000000000000000000000000000000000000000000000028152600401602060405180830381600087803b1580156122ea57600080fd5b505af11580156122fe573d6000803e3d6000fd5b505050506040513d602081101561231457600080fd5b8101908080519060200190929190505050905090565b6000600860009054906101000a900473ffffffffffffffffffffffffffffffffffffffff16905090565b6000809054906101000a900460ff161515156123d8576040517f08c379a00000000000000000000000000000000000000000000000000000000081526004018080602001828103825260138152602001807f416c726561647920696e697469616c697a65640000000000000000000000000081525060200191505060405180910390fd5b60016000806101000a81548160ff021916908315150217905550600560009054906101000a900473ffffffffffffffffffffffffffffffffffffffff1673ffffffffffffffffffffffffffffffffffffffff16639ed93318306040518263ffffffff167c0100000000000000000000000000000000000000000000000000000000028152600401808273ffffffffffffffffffffffffffffffffffffffff1673ffffffffffffffffffffffffffffffffffffffff168152602001915050602060405180830381600087803b1580156124af57600080fd5b505af11580156124c3573d6000803e3d6000fd5b505050506040513d60208110156124d957600080fd5b8101908080519060200190929190505050600760006101000a81548173ffffffffffffffffffffffffffffffffffffffff021916908373ffffffffffffffffffffffffffffffffffffffff160217905550600660009054906101000a900473ffffffffffffffffffffffffffffffffffffffff1673ffffffffffffffffffffffffffffffffffffffff1663bdb1300230600160000160009054906101000a900473ffffffffffffffffffffffffffffffffffffffff1660018001546001600201600160030160009054906101000a900460ff166040518663ffffffff167c0100000000000000000000000000000000000000000000000000000000028152600401808673ffffffffffffffffffffffffffffffffffffffff1673ffffffffffffffffffffffffffffffffffffffff1681526020018573ffffffffffffffffffffffffffffffffffffffff1673ffffffffffffffffffffffffffffffffffffffff1681526020018481526020018060200183151515158152602001828103825284818154815260200191508054801561269057602002820191906000526020600020905b81548152602001906001019080831161267c575b50509650505050505050602060405180830381600087803b1580156126b457600080fd5b505af11580156126c8573d6000803e3d6000fd5b505050506040513d60208110156126de57600080fd5b8101908080519060200190929190505050600960006101000a81548173ffffffffffffffffffffffffffffffffffffffff021916908373ffffffffffffffffffffffffffffffffffffffff160217905550565b600061273b610d70565b15156127af576040517f08c379a000000000000000000000000000000000000000000000000000000000815260040180806020018281038252601c8152602001807f4d7573742063616c6c20696e697469616c697a6528292066697273740000000081525060200191505060405180910390fd5b600760009054906101000a900473ffffffffffffffffffffffffffffffffffffffff1673ffffffffffffffffffffffffffffffffffffffff16638d4e40836040518163ffffffff167c0100000000000000000000000000000000000000000000000000000000028152600401602060405180830381600087803b15801561283557600080fd5b505af1158015612849573d6000803e3d6000fd5b505050506040513d602081101561285f57600080fd5b8101908080519060200190929190505050905090565b6000809054906101000a900460ff1681565b600080600080612895610d70565b1515612909576040517f08c379a000000000000000000000000000000000000000000000000000000000815260040180806020018281038252601c8152602001807f4d7573742063616c6c20696e697469616c697a6528292066697273740000000081525060200191505060405180910390fd5b612911613368565b1515156129ac576040517f08c379a00000000000000000000000000000000000000000000000000000000081526004018080602001828103825260228152602001807f4d6574686f64206f6e6c7920616c6c6f776564206265666f726520646973707581526020017f746500000000000000000000000000000000000000000000000000000000000081525060400191505060405180910390fd5b600760009054906101000a900473ffffffffffffffffffffffffffffffffffffffff1673ffffffffffffffffffffffffffffffffffffffff1663e0dd81f887876040518363ffffffff167c010000000000000000000000000000000000000000000000000000000002815260040180836fffffffffffffffffffffffffffffffff166fffffffffffffffffffffffffffffffff168152602001826fffffffffffffffffffffffffffffffff166fffffffffffffffffffffffffffffffff16815260200192505050602060405180830381600087803b158015612a8d57600080fd5b505af1158015612aa1573d6000803e3d6000fd5b505050506040513d6020811015612ab757600080fd5b81019080805190602001909291905050509350612ad26121e6565b9250836fffffffffffffffffffffffffffffffff168373ffffffffffffffffffffffffffffffffffffffff166370a08231336040518263ffffffff167c0100000000000000000000000000000000000000000000000000000000028152600401808273ffffffffffffffffffffffffffffffffffffffff1673ffffffffffffffffffffffffffffffffffffffff168152602001915050602060405180830381600087803b158015612b8257600080fd5b505af1158015612b96573d6000803e3d6000fd5b505050506040513d6020811015612bac57600080fd5b810190808051906020019092919050505010151515612c33576040517f08c379a00000000000000000000000000000000000000000000000000000000081526004018080602001828103825260108152602001807f4e6f7420656e6f7567682066756e64730000000000000000000000000000000081525060200191505060405180910390fd5b836fffffffffffffffffffffffffffffffff168373ffffffffffffffffffffffffffffffffffffffff1663dd62ed3e33306040518363ffffffff167c0100000000000000000000000000000000000000000000000000000000028152600401808373ffffffffffffffffffffffffffffffffffffffff1673ffffffffffffffffffffffffffffffffffffffff1681526020018273ffffffffffffffffffffffffffffffffffffffff1673ffffffffffffffffffffffffffffffffffffffff16815260200192505050602060405180830381600087803b158015612d1557600080fd5b505af1158015612d29573d6000803e3d6000fd5b505050506040513d6020811015612d3f57600080fd5b810190808051906020019092919050505010151515612dc6576040517f08c379a00000000000000000000000000000000000000000000000000000000081526004018080602001828103825260148152602001807f4e6f7720656e6f75676820616c6c6f77616e636500000000000000000000000081525060200191505060405180910390fd5b600760009054906101000a900473ffffffffffffffffffffffffffffffffffffffff1673ffffffffffffffffffffffffffffffffffffffff166378cacd6e3388886040518463ffffffff167c0100000000000000000000000000000000000000000000000000000000028152600401808473ffffffffffffffffffffffffffffffffffffffff1673ffffffffffffffffffffffffffffffffffffffff168152602001836fffffffffffffffffffffffffffffffff166fffffffffffffffffffffffffffffffff168152602001826fffffffffffffffffffffffffffffffff166fffffffffffffffffffffffffffffffff16815260200193505050506040805180830381600087803b158015612eda57600080fd5b505af1158015612eee573d6000803e3d6000fd5b505050506040513d6040811015612f0457600080fd5b8101908080519060200190929190805190602001909291905050508092508193505050856fffffffffffffffffffffffffffffffff16826fffffffffffffffffffffffffffffffff16141515612f5657fe5b836fffffffffffffffffffffffffffffffff168183016fffffffffffffffffffffffffffffffff16141515612f8757fe5b8273ffffffffffffffffffffffffffffffffffffffff166323b872dd33600960009054906101000a900473ffffffffffffffffffffffffffffffffffffffff16856040518463ffffffff167c0100000000000000000000000000000000000000000000000000000000028152600401808473ffffffffffffffffffffffffffffffffffffffff1673ffffffffffffffffffffffffffffffffffffffff1681526020018373ffffffffffffffffffffffffffffffffffffffff1673ffffffffffffffffffffffffffffffffffffffff168152602001826fffffffffffffffffffffffffffffffff1681526020019350505050602060405180830381600087803b15801561309257600080fd5b505af11580156130a6573d6000803e3d6000fd5b505050506040513d60208110156130bc57600080fd5b810190808051906020019092919050505015156130d557fe5b8273ffffffffffffffffffffffffffffffffffffffff166323b872dd3330846040518463ffffffff167c0100000000000000000000000000000000000000000000000000000000028152600401808473ffffffffffffffffffffffffffffffffffffffff1673ffffffffffffffffffffffffffffffffffffffff1681526020018373ffffffffffffffffffffffffffffffffffffffff1673ffffffffffffffffffffffffffffffffffffffff168152602001826fffffffffffffffffffffffffffffffff1681526020019350505050602060405180830381600087803b1580156131be57600080fd5b505af11580156131d2573d6000803e3d6000fd5b505050506040513d60208110156131e857600080fd5b8101908080519060200190929190505050151561320157fe5b7f13300c39d77178f4a5208422e562bf8ae2224fa8773b1b77f023f9d47171794f338787604051808473ffffffffffffffffffffffffffffffffffffffff1673ffffffffffffffffffffffffffffffffffffffff168152602001836fffffffffffffffffffffffffffffffff166fffffffffffffffffffffffffffffffff168152602001826fffffffffffffffffffffffffffffffff166fffffffffffffffffffffffffffffffff168152602001935050505060405180910390a1505050505050565b600660009054906101000a900473ffffffffffffffffffffffffffffffffffffffff1681565b600960009054906101000a900473ffffffffffffffffffffffffffffffffffffffff1681565b60018060000160009054906101000a900473ffffffffffffffffffffffffffffffffffffffff16908060010154908060030160009054906101000a900460ff16905083565b600b60009054906101000a900460ff1681565b6000613372610d70565b15156133e6576040517f08c379a000000000000000000000000000000000000000000000000000000000815260040180806020018281038252601c8152602001807f4d7573742063616c6c20696e697469616c697a6528292066697273740000000081525060200191505060405180910390fd5b600960009054906101000a900473ffffffffffffffffffffffffffffffffffffffff1673ffffffffffffffffffffffffffffffffffffffff1663d18959a26040518163ffffffff167c0100000000000000000000000000000000000000000000000000000000028152600401602060405180830381600087803b15801561346c57600080fd5b505af1158015613480573d6000803e3d6000fd5b505050506040513d602081101561349657600080fd5b8101908080519060200190929190505050905090565b60006134b6610d70565b151561352a576040517f08c379a000000000000000000000000000000000000000000000000000000000815260040180806020018281038252601c8152602001807f4d7573742063616c6c20696e697469616c697a6528292066697273740000000081525060200191505060405180910390fd5b600960009054906101000a900473ffffffffffffffffffffffffffffffffffffffff16905090565b600061355c610d70565b15156135d0576040517f08c379a000000000000000000000000000000000000000000000000000000000815260040180806020018281038252601c8152602001807f4d7573742063616c6c20696e697469616c697a6528292066697273740000000081525060200191505060405180910390fd5b600960009054906101000a900473ffffffffffffffffffffffffffffffffffffffff1673ffffffffffffffffffffffffffffffffffffffff16632e6027526040518163ffffffff167c0100000000000000000000000000000000000000000000000000000000028152600401602060405180830381600087803b15801561365657600080fd5b505af115801561366a573d6000803e3d6000fd5b505050506040513d602081101561368057600080fd5b81019080805190602001909291905050509050905600a165627a7a72305820e8a4170bac02fdae94c6dec0f6ad4e09674daad4097514fd54b30e7410ea4a260029",
  "source": "pragma solidity 0.4.24;\n\nimport \"./IAccounting.sol\";\nimport \"./IAccountingFactory.sol\";\nimport \"./ICrowdsourcer.sol\";\nimport \"./IDisputer.sol\";\nimport \"./IDisputerFactory.sol\";\nimport \"./DisputerParams.sol\";\n\ncontract Crowdsourcer is ICrowdsourcer {\n  bool public m_isInitialized = false;\n  DisputerParams.Params public m_disputerParams;\n  IAccountingFactory public m_accountingFactory;\n  IDisputerFactory public m_disputerFactory;\n\n  IAccounting public m_accounting;\n  ICrowdsourcerParent public m_parent;\n  IDisputer public m_disputer;\n\n  mapping(address => bool) public m_proceedsCollected;\n  bool public m_feesCollected = false;\n\n  constructor(\n    ICrowdsourcerParent parent,\n    IAccountingFactory accountingFactory,\n    IDisputerFactory disputerFactory,\n    Market market,\n    uint256 feeWindowId,\n    uint256[] payoutNumerators,\n    bool invalid\n  ) public {\n    m_parent = parent;\n    m_accountingFactory = accountingFactory;\n    m_disputerFactory = disputerFactory;\n    m_disputerParams = DisputerParams.Params(\n      market,\n      feeWindowId,\n      payoutNumerators,\n      invalid\n    );\n  }\n\n  modifier beforeDisputeOnly() {\n    require (!hasDisputed(), \"Method only allowed before dispute\");\n    _;\n  }\n\n  modifier requiresInitialization() {\n    require(isInitialized(), \"Must call initialize() first\");\n    _;\n  }\n\n  modifier requiresFinalization() {\n    if (!isFinalized()) {\n      finalize();\n      assert(isFinalized());\n    }\n    _;\n  }\n\n  function isInitialized() public view returns (bool) {\n    return m_isInitialized;\n  }\n\n  function initialize() external {\n    require(!m_isInitialized, \"Already initialized\");\n    m_isInitialized = true;\n    m_accounting = m_accountingFactory.create(this);\n    m_disputer = m_disputerFactory.create(\n      this,\n      m_disputerParams.market,\n      m_disputerParams.feeWindowId,\n      m_disputerParams.payoutNumerators,\n      m_disputerParams.invalid\n    );\n  }\n\n  function getParent() external view returns (ICrowdsourcerParent) {\n    return m_parent;\n  }\n\n  function getDisputer() external view requiresInitialization returns (IDisputer) {\n    return m_disputer;\n  }\n\n  function getAccounting() external view requiresInitialization returns (IAccounting) {\n    return m_accounting;\n  }\n\n  function getREP() public view requiresInitialization returns (IERC20) {\n    return m_disputer.getREP();\n  }\n\n  function getDisputeToken() public view requiresInitialization returns (IERC20) {\n    return m_disputer.getDisputeTokenAddress();\n  }\n\n  function contribute(\n    uint128 amount,\n    uint128 feeNumerator\n  ) external requiresInitialization beforeDisputeOnly {\n    uint128 amountWithFees = m_accounting.addFeesOnTop(amount, feeNumerator);\n\n    IERC20 rep = getREP();\n    require(rep.balanceOf(msg.sender) >= amountWithFees, \"Not enough funds\");\n    require(\n      rep.allowance(msg.sender, this) >= amountWithFees,\n      \"Now enough allowance\"\n    );\n\n    // record contribution in accounting (will perform validations)\n    uint128 deposited;\n    uint128 depositedFees;\n    (deposited, depositedFees) = m_accounting.contribute(\n      msg.sender,\n      amount,\n      feeNumerator\n    );\n\n    assert(deposited == amount);\n    assert(deposited + depositedFees == amountWithFees);\n\n    // actually transfer tokens and revert tx if any problem\n    assert(rep.transferFrom(msg.sender, m_disputer, deposited));\n    assert(rep.transferFrom(msg.sender, this, depositedFees));\n\n    emit ContributionAccepted(msg.sender, amount, feeNumerator);\n  }\n\n  function withdrawContribution() external requiresInitialization beforeDisputeOnly {\n    IERC20 rep = getREP();\n\n    // record withdrawal in accounting (will perform validations)\n    uint128 withdrawn;\n    uint128 withdrawnFees;\n    (withdrawn, withdrawnFees) = m_accounting.withdrawContribution(msg.sender);\n\n    // actually transfer tokens and revert tx if any problem\n    assert(rep.transferFrom(m_disputer, msg.sender, withdrawn));\n    assert(rep.transfer(msg.sender, withdrawnFees));\n\n    emit ContributionWithdrawn(msg.sender, withdrawn);\n  }\n\n  function hasDisputed() public view requiresInitialization returns (bool) {\n    return m_disputer.hasDisputed();\n  }\n\n  function finalize() public requiresInitialization {\n    require(hasDisputed(), \"Can only finalize after dispute\");\n    require(!isFinalized(), \"Can only finalize once\");\n\n    // now that we've disputed we must know dispute token address\n    IERC20 disputeTokenAddress = getDisputeToken();\n    IERC20 rep = getREP();\n\n    m_disputer.approveManagerToSpendDisputeTokens();\n\n    // retrieve all tokens from disputer for proceeds distribution\n    // This wouldn't work extremely well if it is called from disputer's\n    // dispute() method, but it should only call Augur which we trust.\n    assert(rep.transferFrom(m_disputer, this, rep.balanceOf(m_disputer)));\n    assert(\n      disputeTokenAddress.transferFrom(\n        m_disputer,\n        this,\n        disputeTokenAddress.balanceOf(m_disputer)\n      )\n    );\n\n    uint256 amountDisputed = disputeTokenAddress.balanceOf(this);\n    uint128 amountDisputed128 = uint128(amountDisputed);\n\n    // REP has only so many tokens\n    assert(amountDisputed128 == amountDisputed);\n\n    m_accounting.finalize(amountDisputed128);\n\n    assert(isFinalized());\n\n    emit CrowdsourcerFinalized(amountDisputed128);\n  }\n\n  function isFinalized() public view requiresInitialization returns (bool) {\n    return m_accounting.isFinalized();\n  }\n\n  function withdrawProceeds(address contributor) external requiresFinalization {\n    require(!m_proceedsCollected[contributor], \"Can only collect proceeds once\");\n\n    // record proceeds have been collected\n    m_proceedsCollected[contributor] = true;\n\n    uint128 refund;\n    uint128 proceeds;\n\n    // calculate how much this contributor is entitled to\n    (refund, proceeds) = m_accounting.calculateProceeds(contributor);\n\n    IERC20 rep = getREP();\n    IERC20 disputeTokenAddress = getDisputeToken();\n\n    // actually deliver the proceeds/refund\n    assert(rep.transfer(contributor, refund));\n    assert(disputeTokenAddress.transfer(contributor, proceeds));\n\n    emit ProceedsWithdrawn(contributor, proceeds, refund);\n  }\n\n  function withdrawFees() external requiresFinalization {\n    require(!m_feesCollected, \"Can only collect fees once\");\n\n    m_feesCollected = true;\n\n    uint128 feesTotal = m_accounting.calculateFees();\n    // 10% of fees go to contract author\n    uint128 feesForContractAuthor = feesTotal / 10;\n    uint128 feesForExecutor = feesTotal - feesForContractAuthor;\n\n    assert(feesForContractAuthor + feesForExecutor == feesTotal);\n\n    address contractFeesRecipient = m_parent.getContractFeeReceiver();\n    address executorFeesRecipient = m_disputer.feeReceiver();\n\n    IERC20 rep = getREP();\n\n    assert(rep.transfer(contractFeesRecipient, feesForContractAuthor));\n    assert(rep.transfer(executorFeesRecipient, feesForExecutor));\n\n    emit FeesWithdrawn(\n      contractFeesRecipient,\n      executorFeesRecipient,\n      feesForContractAuthor,\n      feesForExecutor\n    );\n  }\n}\n",
  "sourcePath": "/src/contracts/Crowdsourcer.sol",
  "compiler": {
    "name": "solc",
    "version": "0.4.24+commit.e67f0147.Emscripten.clang"
  },
  "schemaVersion": "2.0.1",
  "updatedAt": "2018-11-02T01:38:49.685Z"
}