{
  "contractName": "Crowdsourcer",
  "abi": [
    {
      "constant": true,
      "inputs": [],
      "name": "m_parent",
      "outputs": [
        {
          "name": "",
          "type": "address"
        }
      ],
      "payable": false,
      "stateMutability": "view",
      "type": "function"
    },
    {
      "constant": true,
      "inputs": [],
      "name": "m_accounting",
      "outputs": [
        {
          "name": "",
          "type": "address"
        }
      ],
      "payable": false,
      "stateMutability": "view",
      "type": "function"
    },
    {
      "constant": true,
      "inputs": [
        {
          "name": "",
          "type": "address"
        }
      ],
      "name": "m_proceedsCollected",
      "outputs": [
        {
          "name": "",
          "type": "bool"
        }
      ],
      "payable": false,
      "stateMutability": "view",
      "type": "function"
    },
    {
      "constant": true,
      "inputs": [],
      "name": "m_disputer",
      "outputs": [
        {
          "name": "",
          "type": "address"
        }
      ],
      "payable": false,
      "stateMutability": "view",
      "type": "function"
    },
    {
      "constant": true,
      "inputs": [],
      "name": "m_feesCollected",
      "outputs": [
        {
          "name": "",
          "type": "bool"
        }
      ],
      "payable": false,
      "stateMutability": "view",
      "type": "function"
    },
    {
      "inputs": [
        {
          "name": "parent",
          "type": "address"
        },
        {
          "name": "accountingFactory",
          "type": "address"
        },
        {
          "name": "disputerFactory",
          "type": "address"
        },
        {
          "name": "market",
          "type": "address"
        },
        {
          "name": "feeWindowId",
          "type": "uint256"
        },
        {
          "name": "payoutNumerators",
          "type": "uint256[]"
        },
        {
          "name": "invalid",
          "type": "bool"
        }
      ],
      "payable": false,
      "stateMutability": "nonpayable",
      "type": "constructor"
    },
    {
      "anonymous": false,
      "inputs": [
        {
          "indexed": false,
          "name": "contributor",
          "type": "address"
        },
        {
          "indexed": false,
          "name": "amount",
          "type": "uint128"
        },
        {
          "indexed": false,
          "name": "feeNumerator",
          "type": "uint128"
        }
      ],
      "name": "ContributionAccepted",
      "type": "event"
    },
    {
      "anonymous": false,
      "inputs": [
        {
          "indexed": false,
          "name": "contributor",
          "type": "address"
        },
        {
          "indexed": false,
          "name": "amount",
          "type": "uint128"
        }
      ],
      "name": "ContributionWithdrawn",
      "type": "event"
    },
    {
      "anonymous": false,
      "inputs": [
        {
          "indexed": false,
          "name": "amountDisputeTokensAcquired",
          "type": "uint128"
        }
      ],
      "name": "CrowdsourcerFinalized",
      "type": "event"
    },
    {
      "anonymous": false,
      "inputs": [
        {
          "indexed": false,
          "name": "contributor",
          "type": "address"
        },
        {
          "indexed": false,
          "name": "disputeTokensAmount",
          "type": "uint128"
        },
        {
          "indexed": false,
          "name": "repAmount",
          "type": "uint128"
        }
      ],
      "name": "ProceedsWithdrawn",
      "type": "event"
    },
    {
      "anonymous": false,
      "inputs": [
        {
          "indexed": false,
          "name": "contractAuthor",
          "type": "address"
        },
        {
          "indexed": false,
          "name": "executor",
          "type": "address"
        },
        {
          "indexed": false,
          "name": "contractAuthorAmount",
          "type": "uint128"
        },
        {
          "indexed": false,
          "name": "executorAmount",
          "type": "uint128"
        }
      ],
      "name": "FeesWithdrawn",
      "type": "event"
    },
    {
      "constant": true,
      "inputs": [],
      "name": "getParent",
      "outputs": [
        {
          "name": "",
          "type": "address"
        }
      ],
      "payable": false,
      "stateMutability": "view",
      "type": "function"
    },
    {
      "constant": true,
      "inputs": [],
      "name": "getDisputer",
      "outputs": [
        {
          "name": "",
          "type": "address"
        }
      ],
      "payable": false,
      "stateMutability": "view",
      "type": "function"
    },
    {
      "constant": true,
      "inputs": [],
      "name": "getAccounting",
      "outputs": [
        {
          "name": "",
          "type": "address"
        }
      ],
      "payable": false,
      "stateMutability": "view",
      "type": "function"
    },
    {
      "constant": true,
      "inputs": [],
      "name": "getREP",
      "outputs": [
        {
          "name": "",
          "type": "address"
        }
      ],
      "payable": false,
      "stateMutability": "view",
      "type": "function"
    },
    {
      "constant": true,
      "inputs": [],
      "name": "getDisputeToken",
      "outputs": [
        {
          "name": "",
          "type": "address"
        }
      ],
      "payable": false,
      "stateMutability": "view",
      "type": "function"
    },
    {
      "constant": false,
      "inputs": [
        {
          "name": "amount",
          "type": "uint128"
        },
        {
          "name": "feeNumerator",
          "type": "uint128"
        }
      ],
      "name": "contribute",
      "outputs": [],
      "payable": false,
      "stateMutability": "nonpayable",
      "type": "function"
    },
    {
      "constant": false,
      "inputs": [],
      "name": "withdrawContribution",
      "outputs": [],
      "payable": false,
      "stateMutability": "nonpayable",
      "type": "function"
    },
    {
      "constant": true,
      "inputs": [],
      "name": "hasDisputed",
      "outputs": [
        {
          "name": "",
          "type": "bool"
        }
      ],
      "payable": false,
      "stateMutability": "view",
      "type": "function"
    },
    {
      "constant": false,
      "inputs": [],
      "name": "finalize",
      "outputs": [],
      "payable": false,
      "stateMutability": "nonpayable",
      "type": "function"
    },
    {
      "constant": true,
      "inputs": [],
      "name": "isFinalized",
      "outputs": [
        {
          "name": "",
          "type": "bool"
        }
      ],
      "payable": false,
      "stateMutability": "view",
      "type": "function"
    },
    {
      "constant": false,
      "inputs": [
        {
          "name": "contributor",
          "type": "address"
        }
      ],
      "name": "withdrawProceeds",
      "outputs": [],
      "payable": false,
      "stateMutability": "nonpayable",
      "type": "function"
    },
    {
      "constant": false,
      "inputs": [],
      "name": "withdrawFees",
      "outputs": [],
      "payable": false,
      "stateMutability": "nonpayable",
      "type": "function"
    }
  ],
  "bytecode": "0x60806040526000600460006101000a81548160ff0219169083151502179055503480156200002c57600080fd5b5060405162002e5938038062002e598339810180604052810190808051906020019092919080519060200190929190805190602001909291908051906020019092919080519060200190929190805182019291906020018051906020019092919050505086600160006101000a81548173ffffffffffffffffffffffffffffffffffffffff021916908373ffffffffffffffffffffffffffffffffffffffff1602179055508573ffffffffffffffffffffffffffffffffffffffff16639ed93318306040518263ffffffff167c0100000000000000000000000000000000000000000000000000000000028152600401808273ffffffffffffffffffffffffffffffffffffffff1673ffffffffffffffffffffffffffffffffffffffff168152602001915050602060405180830381600087803b1580156200016d57600080fd5b505af115801562000182573d6000803e3d6000fd5b505050506040513d60208110156200019957600080fd5b81019080805190602001909291905050506000806101000a81548173ffffffffffffffffffffffffffffffffffffffff021916908373ffffffffffffffffffffffffffffffffffffffff1602179055508473ffffffffffffffffffffffffffffffffffffffff1663bdb1300230868686866040518663ffffffff167c0100000000000000000000000000000000000000000000000000000000028152600401808673ffffffffffffffffffffffffffffffffffffffff1673ffffffffffffffffffffffffffffffffffffffff1681526020018573ffffffffffffffffffffffffffffffffffffffff1673ffffffffffffffffffffffffffffffffffffffff1681526020018481526020018060200183151515158152602001828103825284818151815260200191508051906020019060200280838360005b83811015620002ee578082015181840152602081019050620002d1565b505050509050019650505050505050602060405180830381600087803b1580156200031857600080fd5b505af11580156200032d573d6000803e3d6000fd5b505050506040513d60208110156200034457600080fd5b8101908080519060200190929190505050600260006101000a81548173ffffffffffffffffffffffffffffffffffffffff021916908373ffffffffffffffffffffffffffffffffffffffff16021790555050505050505050612aad80620003ac6000396000f3006080604052600436106100f1576000357c0100000000000000000000000000000000000000000000000000000000900463ffffffff1680630b741b49146100f65780630d616d201461014d57806323be12681461016457806336cfd8ba146101bb578063476343ee146102125780634bb278f31461022957806357be2cb81461024057806362810c811461029b5780636f2c83ee146102de57806380f76021146103355780638d4e40831461038c5780639fe00bbf146103bb578063be27fae714610416578063d0d956b11461046d578063d18959a21461049c578063def3cb05146104cb578063fbe7870514610522575b600080fd5b34801561010257600080fd5b5061010b610579565b604051808273ffffffffffffffffffffffffffffffffffffffff1673ffffffffffffffffffffffffffffffffffffffff16815260200191505060405180910390f35b34801561015957600080fd5b5061016261059f565b005b34801561017057600080fd5b50610179610a35565b604051808273ffffffffffffffffffffffffffffffffffffffff1673ffffffffffffffffffffffffffffffffffffffff16815260200191505060405180910390f35b3480156101c757600080fd5b506101d0610a5a565b604051808273ffffffffffffffffffffffffffffffffffffffff1673ffffffffffffffffffffffffffffffffffffffff16815260200191505060405180910390f35b34801561021e57600080fd5b50610227610a83565b005b34801561023557600080fd5b5061023e6110e3565b005b34801561024c57600080fd5b50610281600480360381019080803573ffffffffffffffffffffffffffffffffffffffff16906020019092919050505061192f565b604051808215151515815260200191505060405180910390f35b3480156102a757600080fd5b506102dc600480360381019080803573ffffffffffffffffffffffffffffffffffffffff16906020019092919050505061194f565b005b3480156102ea57600080fd5b506102f3611e64565b604051808273ffffffffffffffffffffffffffffffffffffffff1673ffffffffffffffffffffffffffffffffffffffff16815260200191505060405180910390f35b34801561034157600080fd5b5061034a611f2c565b604051808273ffffffffffffffffffffffffffffffffffffffff1673ffffffffffffffffffffffffffffffffffffffff16815260200191505060405180910390f35b34801561039857600080fd5b506103a1611f56565b604051808215151515815260200191505060405180910390f35b3480156103c757600080fd5b5061041460048036038101908080356fffffffffffffffffffffffffffffffff16906020019092919080356fffffffffffffffffffffffffffffffff16906020019092919050505061201d565b005b34801561042257600080fd5b5061042b61288e565b604051808273ffffffffffffffffffffffffffffffffffffffff1673ffffffffffffffffffffffffffffffffffffffff16815260200191505060405180910390f35b34801561047957600080fd5b506104826128b4565b604051808215151515815260200191505060405180910390f35b3480156104a857600080fd5b506104b16128c7565b604051808215151515815260200191505060405180910390f35b3480156104d757600080fd5b506104e061298f565b604051808273ffffffffffffffffffffffffffffffffffffffff1673ffffffffffffffffffffffffffffffffffffffff16815260200191505060405180910390f35b34801561052e57600080fd5b506105376129b9565b604051808273ffffffffffffffffffffffffffffffffffffffff1673ffffffffffffffffffffffffffffffffffffffff16815260200191505060405180910390f35b600160009054906101000a900473ffffffffffffffffffffffffffffffffffffffff1681565b60008060006105ac6128c7565b151515610647576040517f08c379a00000000000000000000000000000000000000000000000000000000081526004018080602001828103825260228152602001807f4d6574686f64206f6e6c7920616c6c6f776564206265666f726520646973707581526020017f746500000000000000000000000000000000000000000000000000000000000081525060400191505060405180910390fd5b61064f611e64565b92506000809054906101000a900473ffffffffffffffffffffffffffffffffffffffff1673ffffffffffffffffffffffffffffffffffffffff1663a35c4709336040518263ffffffff167c0100000000000000000000000000000000000000000000000000000000028152600401808273ffffffffffffffffffffffffffffffffffffffff1673ffffffffffffffffffffffffffffffffffffffff1681526020019150506040805180830381600087803b15801561070c57600080fd5b505af1158015610720573d6000803e3d6000fd5b505050506040513d604081101561073657600080fd5b81019080805190602001909291908051906020019092919050505080925081935050508273ffffffffffffffffffffffffffffffffffffffff166323b872dd600260009054906101000a900473ffffffffffffffffffffffffffffffffffffffff1633856040518463ffffffff167c0100000000000000000000000000000000000000000000000000000000028152600401808473ffffffffffffffffffffffffffffffffffffffff1673ffffffffffffffffffffffffffffffffffffffff1681526020018373ffffffffffffffffffffffffffffffffffffffff1673ffffffffffffffffffffffffffffffffffffffff168152602001826fffffffffffffffffffffffffffffffff1681526020019350505050602060405180830381600087803b15801561086457600080fd5b505af1158015610878573d6000803e3d6000fd5b505050506040513d602081101561088e57600080fd5b810190808051906020019092919050505015156108a757fe5b8273ffffffffffffffffffffffffffffffffffffffff1663a9059cbb33836040518363ffffffff167c0100000000000000000000000000000000000000000000000000000000028152600401808373ffffffffffffffffffffffffffffffffffffffff1673ffffffffffffffffffffffffffffffffffffffff168152602001826fffffffffffffffffffffffffffffffff16815260200192505050602060405180830381600087803b15801561095c57600080fd5b505af1158015610970573d6000803e3d6000fd5b505050506040513d602081101561098657600080fd5b8101908080519060200190929190505050151561099f57fe5b7f719726f6ad3c598acf803975f0634c207cab0a91259e732d4b84f625d896404333828401604051808373ffffffffffffffffffffffffffffffffffffffff1673ffffffffffffffffffffffffffffffffffffffff168152602001826fffffffffffffffffffffffffffffffff166fffffffffffffffffffffffffffffffff1681526020019250505060405180910390a1505050565b6000809054906101000a900473ffffffffffffffffffffffffffffffffffffffff1681565b60008060009054906101000a900473ffffffffffffffffffffffffffffffffffffffff16905090565b600080600080600080610a94611f56565b1515610ab357610aa26110e3565b610aaa611f56565b1515610ab257fe5b5b600460009054906101000a900460ff16151515610b38576040517f08c379a000000000000000000000000000000000000000000000000000000000815260040180806020018281038252601a8152602001807f43616e206f6e6c7920636f6c6c6563742066656573206f6e636500000000000081525060200191505060405180910390fd5b6001600460006101000a81548160ff0219169083151502179055506000809054906101000a900473ffffffffffffffffffffffffffffffffffffffff1673ffffffffffffffffffffffffffffffffffffffff16635edfa1f86040518163ffffffff167c0100000000000000000000000000000000000000000000000000000000028152600401602060405180830381600087803b158015610bd857600080fd5b505af1158015610bec573d6000803e3d6000fd5b505050506040513d6020811015610c0257600080fd5b81019080805190602001909291905050509550600a866fffffffffffffffffffffffffffffffff16811515610c3357fe5b0494508486039350856fffffffffffffffffffffffffffffffff168486016fffffffffffffffffffffffffffffffff16141515610c6c57fe5b600160009054906101000a900473ffffffffffffffffffffffffffffffffffffffff1673ffffffffffffffffffffffffffffffffffffffff1663d2a2fc946040518163ffffffff167c0100000000000000000000000000000000000000000000000000000000028152600401602060405180830381600087803b158015610cf257600080fd5b505af1158015610d06573d6000803e3d6000fd5b505050506040513d6020811015610d1c57600080fd5b81019080805190602001909291905050509250600260009054906101000a900473ffffffffffffffffffffffffffffffffffffffff1673ffffffffffffffffffffffffffffffffffffffff1663b3f006746040518163ffffffff167c0100000000000000000000000000000000000000000000000000000000028152600401602060405180830381600087803b158015610db557600080fd5b505af1158015610dc9573d6000803e3d6000fd5b505050506040513d6020811015610ddf57600080fd5b81019080805190602001909291905050509150610dfa611e64565b90508073ffffffffffffffffffffffffffffffffffffffff1663a9059cbb84876040518363ffffffff167c0100000000000000000000000000000000000000000000000000000000028152600401808373ffffffffffffffffffffffffffffffffffffffff1673ffffffffffffffffffffffffffffffffffffffff168152602001826fffffffffffffffffffffffffffffffff16815260200192505050602060405180830381600087803b158015610eb157600080fd5b505af1158015610ec5573d6000803e3d6000fd5b505050506040513d6020811015610edb57600080fd5b81019080805190602001909291905050501515610ef457fe5b8073ffffffffffffffffffffffffffffffffffffffff1663a9059cbb83866040518363ffffffff167c0100000000000000000000000000000000000000000000000000000000028152600401808373ffffffffffffffffffffffffffffffffffffffff1673ffffffffffffffffffffffffffffffffffffffff168152602001826fffffffffffffffffffffffffffffffff16815260200192505050602060405180830381600087803b158015610fa957600080fd5b505af1158015610fbd573d6000803e3d6000fd5b505050506040513d6020811015610fd357600080fd5b81019080805190602001909291905050501515610fec57fe5b7f3cc6f29dc45640c19c0580785203f54c9b36da57c72ed7b8218249dbf151712983838787604051808573ffffffffffffffffffffffffffffffffffffffff1673ffffffffffffffffffffffffffffffffffffffff1681526020018473ffffffffffffffffffffffffffffffffffffffff1673ffffffffffffffffffffffffffffffffffffffff168152602001836fffffffffffffffffffffffffffffffff166fffffffffffffffffffffffffffffffff168152602001826fffffffffffffffffffffffffffffffff166fffffffffffffffffffffffffffffffff16815260200194505050505060405180910390a1505050505050565b6000806000806110f16128c7565b1515611165576040517f08c379a000000000000000000000000000000000000000000000000000000000815260040180806020018281038252601f8152602001807f43616e206f6e6c792066696e616c697a6520616674657220646973707574650081525060200191505060405180910390fd5b61116d611f56565b1515156111e2576040517f08c379a00000000000000000000000000000000000000000000000000000000081526004018080602001828103825260168152602001807f43616e206f6e6c792066696e616c697a65206f6e63650000000000000000000081525060200191505060405180910390fd5b6111ea6129b9565b93506111f4611e64565b9250600260009054906101000a900473ffffffffffffffffffffffffffffffffffffffff1673ffffffffffffffffffffffffffffffffffffffff1663cadbbf636040518163ffffffff167c0100000000000000000000000000000000000000000000000000000000028152600401600060405180830381600087803b15801561127c57600080fd5b505af1158015611290573d6000803e3d6000fd5b505050508273ffffffffffffffffffffffffffffffffffffffff166323b872dd600260009054906101000a900473ffffffffffffffffffffffffffffffffffffffff16308673ffffffffffffffffffffffffffffffffffffffff166370a08231600260009054906101000a900473ffffffffffffffffffffffffffffffffffffffff166040518263ffffffff167c0100000000000000000000000000000000000000000000000000000000028152600401808273ffffffffffffffffffffffffffffffffffffffff1673ffffffffffffffffffffffffffffffffffffffff168152602001915050602060405180830381600087803b15801561139157600080fd5b505af11580156113a5573d6000803e3d6000fd5b505050506040513d60208110156113bb57600080fd5b81019080805190602001909291905050506040518463ffffffff167c0100000000000000000000000000000000000000000000000000000000028152600401808473ffffffffffffffffffffffffffffffffffffffff1673ffffffffffffffffffffffffffffffffffffffff1681526020018373ffffffffffffffffffffffffffffffffffffffff1673ffffffffffffffffffffffffffffffffffffffff1681526020018281526020019350505050602060405180830381600087803b15801561148457600080fd5b505af1158015611498573d6000803e3d6000fd5b505050506040513d60208110156114ae57600080fd5b810190808051906020019092919050505015156114c757fe5b8373ffffffffffffffffffffffffffffffffffffffff166323b872dd600260009054906101000a900473ffffffffffffffffffffffffffffffffffffffff16308773ffffffffffffffffffffffffffffffffffffffff166370a08231600260009054906101000a900473ffffffffffffffffffffffffffffffffffffffff166040518263ffffffff167c0100000000000000000000000000000000000000000000000000000000028152600401808273ffffffffffffffffffffffffffffffffffffffff1673ffffffffffffffffffffffffffffffffffffffff168152602001915050602060405180830381600087803b1580156115c457600080fd5b505af11580156115d8573d6000803e3d6000fd5b505050506040513d60208110156115ee57600080fd5b81019080805190602001909291905050506040518463ffffffff167c0100000000000000000000000000000000000000000000000000000000028152600401808473ffffffffffffffffffffffffffffffffffffffff1673ffffffffffffffffffffffffffffffffffffffff1681526020018373ffffffffffffffffffffffffffffffffffffffff1673ffffffffffffffffffffffffffffffffffffffff1681526020018281526020019350505050602060405180830381600087803b1580156116b757600080fd5b505af11580156116cb573d6000803e3d6000fd5b505050506040513d60208110156116e157600080fd5b810190808051906020019092919050505015156116fa57fe5b8373ffffffffffffffffffffffffffffffffffffffff166370a08231306040518263ffffffff167c0100000000000000000000000000000000000000000000000000000000028152600401808273ffffffffffffffffffffffffffffffffffffffff1673ffffffffffffffffffffffffffffffffffffffff168152602001915050602060405180830381600087803b15801561179557600080fd5b505af11580156117a9573d6000803e3d6000fd5b505050506040513d60208110156117bf57600080fd5b8101908080519060200190929190505050915081905081816fffffffffffffffffffffffffffffffff161415156117f257fe5b6000809054906101000a900473ffffffffffffffffffffffffffffffffffffffff1673ffffffffffffffffffffffffffffffffffffffff166398266550826040518263ffffffff167c010000000000000000000000000000000000000000000000000000000002815260040180826fffffffffffffffffffffffffffffffff166fffffffffffffffffffffffffffffffff168152602001915050600060405180830381600087803b1580156118a657600080fd5b505af11580156118ba573d6000803e3d6000fd5b505050506118c6611f56565b15156118ce57fe5b7fda187b46d7434eeeb80cd3c2055bafdc345c598dbbde79d30fab10203c83497e8160405180826fffffffffffffffffffffffffffffffff166fffffffffffffffffffffffffffffffff16815260200191505060405180910390a150505050565b60036020528060005260406000206000915054906101000a900460ff1681565b60008060008061195d611f56565b151561197c5761196b6110e3565b611973611f56565b151561197b57fe5b5b600360008673ffffffffffffffffffffffffffffffffffffffff1673ffffffffffffffffffffffffffffffffffffffff16815260200190815260200160002060009054906101000a900460ff16151515611a3e576040517f08c379a000000000000000000000000000000000000000000000000000000000815260040180806020018281038252601e8152602001807f43616e206f6e6c7920636f6c6c6563742070726f6365656473206f6e6365000081525060200191505060405180910390fd5b6001600360008773ffffffffffffffffffffffffffffffffffffffff1673ffffffffffffffffffffffffffffffffffffffff16815260200190815260200160002060006101000a81548160ff0219169083151502179055506000809054906101000a900473ffffffffffffffffffffffffffffffffffffffff1673ffffffffffffffffffffffffffffffffffffffff166328d21f92866040518263ffffffff167c0100000000000000000000000000000000000000000000000000000000028152600401808273ffffffffffffffffffffffffffffffffffffffff1673ffffffffffffffffffffffffffffffffffffffff1681526020019150506040805180830381600087803b158015611b5157600080fd5b505af1158015611b65573d6000803e3d6000fd5b505050506040513d6040811015611b7b57600080fd5b8101908080519060200190929190805190602001909291905050508094508195505050611ba6611e64565b9150611bb06129b9565b90508173ffffffffffffffffffffffffffffffffffffffff1663a9059cbb86866040518363ffffffff167c0100000000000000000000000000000000000000000000000000000000028152600401808373ffffffffffffffffffffffffffffffffffffffff1673ffffffffffffffffffffffffffffffffffffffff168152602001826fffffffffffffffffffffffffffffffff16815260200192505050602060405180830381600087803b158015611c6757600080fd5b505af1158015611c7b573d6000803e3d6000fd5b505050506040513d6020811015611c9157600080fd5b81019080805190602001909291905050501515611caa57fe5b8073ffffffffffffffffffffffffffffffffffffffff1663a9059cbb86856040518363ffffffff167c0100000000000000000000000000000000000000000000000000000000028152600401808373ffffffffffffffffffffffffffffffffffffffff1673ffffffffffffffffffffffffffffffffffffffff168152602001826fffffffffffffffffffffffffffffffff16815260200192505050602060405180830381600087803b158015611d5f57600080fd5b505af1158015611d73573d6000803e3d6000fd5b505050506040513d6020811015611d8957600080fd5b81019080805190602001909291905050501515611da257fe5b7fcb905be9549b41589fc77bbb5a3b67dbf9f3b0284ae7a47f0df76c26393b27a5858486604051808473ffffffffffffffffffffffffffffffffffffffff1673ffffffffffffffffffffffffffffffffffffffff168152602001836fffffffffffffffffffffffffffffffff166fffffffffffffffffffffffffffffffff168152602001826fffffffffffffffffffffffffffffffff166fffffffffffffffffffffffffffffffff168152602001935050505060405180910390a15050505050565b6000600260009054906101000a900473ffffffffffffffffffffffffffffffffffffffff1673ffffffffffffffffffffffffffffffffffffffff16636f2c83ee6040518163ffffffff167c0100000000000000000000000000000000000000000000000000000000028152600401602060405180830381600087803b158015611eec57600080fd5b505af1158015611f00573d6000803e3d6000fd5b505050506040513d6020811015611f1657600080fd5b8101908080519060200190929190505050905090565b6000600160009054906101000a900473ffffffffffffffffffffffffffffffffffffffff16905090565b60008060009054906101000a900473ffffffffffffffffffffffffffffffffffffffff1673ffffffffffffffffffffffffffffffffffffffff16638d4e40836040518163ffffffff167c0100000000000000000000000000000000000000000000000000000000028152600401602060405180830381600087803b158015611fdd57600080fd5b505af1158015611ff1573d6000803e3d6000fd5b505050506040513d602081101561200757600080fd5b8101908080519060200190929190505050905090565b600080600061202a6128c7565b1515156120c5576040517f08c379a00000000000000000000000000000000000000000000000000000000081526004018080602001828103825260228152602001807f4d6574686f64206f6e6c7920616c6c6f776564206265666f726520646973707581526020017f746500000000000000000000000000000000000000000000000000000000000081525060400191505060405180910390fd5b6120cd611e64565b9250846fffffffffffffffffffffffffffffffff168373ffffffffffffffffffffffffffffffffffffffff166370a08231336040518263ffffffff167c0100000000000000000000000000000000000000000000000000000000028152600401808273ffffffffffffffffffffffffffffffffffffffff1673ffffffffffffffffffffffffffffffffffffffff168152602001915050602060405180830381600087803b15801561217d57600080fd5b505af1158015612191573d6000803e3d6000fd5b505050506040513d60208110156121a757600080fd5b81019080805190602001909291905050501015151561222e576040517f08c379a00000000000000000000000000000000000000000000000000000000081526004018080602001828103825260108152602001807f4e6f7420656e6f7567682066756e64730000000000000000000000000000000081525060200191505060405180910390fd5b846fffffffffffffffffffffffffffffffff168373ffffffffffffffffffffffffffffffffffffffff1663dd62ed3e33306040518363ffffffff167c0100000000000000000000000000000000000000000000000000000000028152600401808373ffffffffffffffffffffffffffffffffffffffff1673ffffffffffffffffffffffffffffffffffffffff1681526020018273ffffffffffffffffffffffffffffffffffffffff1673ffffffffffffffffffffffffffffffffffffffff16815260200192505050602060405180830381600087803b15801561231057600080fd5b505af1158015612324573d6000803e3d6000fd5b505050506040513d602081101561233a57600080fd5b8101908080519060200190929190505050101515156123c1576040517f08c379a00000000000000000000000000000000000000000000000000000000081526004018080602001828103825260148152602001807f4e6f7720656e6f75676820616c6c6f77616e636500000000000000000000000081525060200191505060405180910390fd5b6000809054906101000a900473ffffffffffffffffffffffffffffffffffffffff1673ffffffffffffffffffffffffffffffffffffffff166378cacd6e3387876040518463ffffffff167c0100000000000000000000000000000000000000000000000000000000028152600401808473ffffffffffffffffffffffffffffffffffffffff1673ffffffffffffffffffffffffffffffffffffffff168152602001836fffffffffffffffffffffffffffffffff166fffffffffffffffffffffffffffffffff168152602001826fffffffffffffffffffffffffffffffff166fffffffffffffffffffffffffffffffff16815260200193505050506040805180830381600087803b1580156124d457600080fd5b505af11580156124e8573d6000803e3d6000fd5b505050506040513d60408110156124fe57600080fd5b8101908080519060200190929190805190602001909291905050508092508193505050846fffffffffffffffffffffffffffffffff168183016fffffffffffffffffffffffffffffffff1614151561255257fe5b8273ffffffffffffffffffffffffffffffffffffffff166323b872dd33600260009054906101000a900473ffffffffffffffffffffffffffffffffffffffff16856040518463ffffffff167c0100000000000000000000000000000000000000000000000000000000028152600401808473ffffffffffffffffffffffffffffffffffffffff1673ffffffffffffffffffffffffffffffffffffffff1681526020018373ffffffffffffffffffffffffffffffffffffffff1673ffffffffffffffffffffffffffffffffffffffff168152602001826fffffffffffffffffffffffffffffffff1681526020019350505050602060405180830381600087803b15801561265d57600080fd5b505af1158015612671573d6000803e3d6000fd5b505050506040513d602081101561268757600080fd5b810190808051906020019092919050505015156126a057fe5b8273ffffffffffffffffffffffffffffffffffffffff166323b872dd3330846040518463ffffffff167c0100000000000000000000000000000000000000000000000000000000028152600401808473ffffffffffffffffffffffffffffffffffffffff1673ffffffffffffffffffffffffffffffffffffffff1681526020018373ffffffffffffffffffffffffffffffffffffffff1673ffffffffffffffffffffffffffffffffffffffff168152602001826fffffffffffffffffffffffffffffffff1681526020019350505050602060405180830381600087803b15801561278957600080fd5b505af115801561279d573d6000803e3d6000fd5b505050506040513d60208110156127b357600080fd5b810190808051906020019092919050505015156127cc57fe5b7f13300c39d77178f4a5208422e562bf8ae2224fa8773b1b77f023f9d47171794f338686604051808473ffffffffffffffffffffffffffffffffffffffff1673ffffffffffffffffffffffffffffffffffffffff168152602001836fffffffffffffffffffffffffffffffff166fffffffffffffffffffffffffffffffff168152602001826fffffffffffffffffffffffffffffffff166fffffffffffffffffffffffffffffffff168152602001935050505060405180910390a15050505050565b600260009054906101000a900473ffffffffffffffffffffffffffffffffffffffff1681565b600460009054906101000a900460ff1681565b6000600260009054906101000a900473ffffffffffffffffffffffffffffffffffffffff1673ffffffffffffffffffffffffffffffffffffffff1663d18959a26040518163ffffffff167c0100000000000000000000000000000000000000000000000000000000028152600401602060405180830381600087803b15801561294f57600080fd5b505af1158015612963573d6000803e3d6000fd5b505050506040513d602081101561297957600080fd5b8101908080519060200190929190505050905090565b6000600260009054906101000a900473ffffffffffffffffffffffffffffffffffffffff16905090565b6000600260009054906101000a900473ffffffffffffffffffffffffffffffffffffffff1673ffffffffffffffffffffffffffffffffffffffff16632e6027526040518163ffffffff167c0100000000000000000000000000000000000000000000000000000000028152600401602060405180830381600087803b158015612a4157600080fd5b505af1158015612a55573d6000803e3d6000fd5b505050506040513d6020811015612a6b57600080fd5b81019080805190602001909291905050509050905600a165627a7a7230582095b093dc816c533c5d730ce3cc5a0494f88448756bc9eb2da7bc990cf3ea31690029",
  "source": "pragma solidity ^0.4.24;\n\nimport \"./IAccounting.sol\";\nimport \"./IAccountingFactory.sol\";\nimport \"./ICrowdsourcer.sol\";\nimport \"./IDisputer.sol\";\nimport \"./IDisputerFactory.sol\";\n\ncontract Crowdsourcer is ICrowdsourcer {\n  IAccounting public m_accounting;\n  ICrowdsourcerParent public m_parent;\n  IDisputer public m_disputer;\n\n  mapping(address => bool) public m_proceedsCollected;\n  bool public m_feesCollected = false;\n\n  constructor(\n    ICrowdsourcerParent parent,\n    IAccountingFactory accountingFactory,\n    IDisputerFactory disputerFactory,\n    address market,\n    uint256 feeWindowId,\n    uint256[] payoutNumerators,\n    bool invalid\n  ) public {\n    m_parent = parent;\n    m_accounting = accountingFactory.create(this);\n    m_disputer = disputerFactory.create(\n      this,\n      market,\n      feeWindowId,\n      payoutNumerators,\n      invalid\n    );\n  }\n\n  modifier beforeDisputeOnly() {\n    require (!hasDisputed(), \"Method only allowed before dispute\");\n    _;\n  }\n\n  modifier requiresFinalization() {\n    if (!isFinalized()) {\n      finalize();\n      assert(isFinalized());\n    }\n    _;\n  }\n\n  function getParent() external view returns (ICrowdsourcerParent) {\n    return m_parent;\n  }\n\n  function getDisputer() external view returns (IDisputer) {\n    return m_disputer;\n  }\n\n  function getAccounting() external view returns (IAccounting) {\n    return m_accounting;\n  }\n\n  function getREP() public view returns (IERC20) {\n    return m_disputer.getREP();\n  }\n\n  function getDisputeToken() public view returns (IERC20) {\n    return m_disputer.getDisputeTokenAddress();\n  }\n\n  function contribute(\n    uint128 amount,\n    uint128 feeNumerator\n  ) external beforeDisputeOnly {\n    IERC20 rep = getREP();\n    require(rep.balanceOf(msg.sender) >= amount, \"Not enough funds\");\n    require(rep.allowance(msg.sender, this) >= amount, \"Now enough allowance\");\n\n    // record contribution in accounting (will perform validations)\n    uint128 depositedLessFees;\n    uint128 depositedFees;\n    (depositedLessFees, depositedFees) = m_accounting.contribute(\n      msg.sender,\n      amount,\n      feeNumerator\n    );\n\n    assert(depositedLessFees + depositedFees == amount);\n\n    // actually transfer tokens and revert tx if any problem\n    assert(rep.transferFrom(msg.sender, m_disputer, depositedLessFees));\n    assert(rep.transferFrom(msg.sender, this, depositedFees));\n\n    emit ContributionAccepted(\n      msg.sender,\n      amount,\n      feeNumerator\n    );\n  }\n\n  function withdrawContribution() external beforeDisputeOnly {\n    IERC20 rep = getREP();\n\n    // record withdrawal in accounting (will perform validations)\n    uint128 withdrawnLessFees;\n    uint128 withdrawnFees;\n    (withdrawnLessFees, withdrawnFees) = m_accounting.withdrawContribution(\n      msg.sender\n    );\n\n    // actually transfer tokens and revert tx if any problem\n    assert(rep.transferFrom(m_disputer, msg.sender, withdrawnLessFees));\n    assert(rep.transfer(msg.sender, withdrawnFees));\n\n    emit ContributionWithdrawn(\n      msg.sender,\n      withdrawnLessFees + withdrawnFees\n    );\n  }\n\n  function hasDisputed() public view returns (bool) {\n    return m_disputer.hasDisputed();\n  }\n\n  function finalize() public {\n    require(hasDisputed(), \"Can only finalize after dispute\");\n    require(!isFinalized(), \"Can only finalize once\");\n\n    // now that we've disputed we must know dispute token address\n    IERC20 disputeTokenAddress = getDisputeToken();\n    IERC20 rep = getREP();\n\n    m_disputer.approveManagerToSpendDisputeTokens();\n\n    // retrieve all tokens from disputer for proceeds distribution\n    // This wouldn't work extremely well if it is called from disputer's\n    // dispute() method, but it should only call Augur which we trust.\n    assert(rep.transferFrom(m_disputer, this, rep.balanceOf(m_disputer)));\n    assert(\n      disputeTokenAddress.transferFrom(\n        m_disputer,\n        this,\n        disputeTokenAddress.balanceOf(m_disputer)\n      )\n    );\n\n    uint256 amountDisputed = disputeTokenAddress.balanceOf(this);\n    uint128 amountDisputed128 = uint128(amountDisputed);\n\n    // REP has only so many tokens\n    assert(amountDisputed128 == amountDisputed);\n\n    m_accounting.finalize(amountDisputed128);\n\n    assert(isFinalized());\n\n    emit CrowdsourcerFinalized(amountDisputed128);\n  }\n\n  function isFinalized() public view returns (bool) {\n    return m_accounting.isFinalized();\n  }\n\n  function withdrawProceeds(address contributor) external requiresFinalization {\n    require(!m_proceedsCollected[contributor], \"Can only collect proceeds once\");\n\n    // record proceeds have been collected\n    m_proceedsCollected[contributor] = true;\n\n    uint128 refund;\n    uint128 proceeds;\n\n    // calculate how much this contributor is entitled to\n    (refund, proceeds) = m_accounting.calculateProceeds(contributor);\n\n    IERC20 rep = getREP();\n    IERC20 disputeTokenAddress = getDisputeToken();\n\n    // actually deliver the proceeds/refund\n    assert(rep.transfer(contributor, refund));\n    assert(disputeTokenAddress.transfer(contributor, proceeds));\n\n    emit ProceedsWithdrawn(contributor, proceeds, refund);\n  }\n\n  function withdrawFees() external requiresFinalization {\n    require(!m_feesCollected, \"Can only collect fees once\");\n\n    m_feesCollected = true;\n\n    uint128 feesTotal = m_accounting.calculateFees();\n    // 10% of fees go to contract author\n    uint128 feesForContractAuthor = feesTotal / 10;\n    uint128 feesForExecutor = feesTotal - feesForContractAuthor;\n\n    assert(feesForContractAuthor + feesForExecutor == feesTotal);\n\n    address contractFeesRecipient = m_parent.getContractFeeReceiver();\n    address executorFeesRecipient = m_disputer.feeReceiver();\n\n    IERC20 rep = getREP();\n\n    assert(rep.transfer(contractFeesRecipient, feesForContractAuthor));\n    assert(rep.transfer(executorFeesRecipient, feesForExecutor));\n\n    emit FeesWithdrawn(\n      contractFeesRecipient,\n      executorFeesRecipient,\n      feesForContractAuthor,\n      feesForExecutor\n    );\n  }\n}\n",
  "sourcePath": "/src/contracts/Crowdsourcer.sol",
  "compiler": {
    "name": "solc",
    "version": "0.4.24+commit.e67f0147.Emscripten.clang"
  },
  "schemaVersion": "2.0.1",
  "updatedAt": "2018-10-30T00:21:04.752Z"
}