{
  "contractName": "Disputer",
  "abi": [
    {
      "constant": true,
      "inputs": [],
      "name": "m_windowEnd",
      "outputs": [
        {
          "name": "",
          "type": "uint256"
        }
      ],
      "payable": false,
      "stateMutability": "view",
      "type": "function"
    },
    {
      "constant": true,
      "inputs": [],
      "name": "m_params",
      "outputs": [
        {
          "name": "market",
          "type": "address"
        },
        {
          "name": "feeWindowId",
          "type": "uint256"
        },
        {
          "name": "invalid",
          "type": "bool"
        }
      ],
      "payable": false,
      "stateMutability": "view",
      "type": "function"
    },
    {
      "constant": true,
      "inputs": [],
      "name": "getDisputeTokenAddress",
      "outputs": [
        {
          "name": "",
          "type": "address"
        }
      ],
      "payable": false,
      "stateMutability": "view",
      "type": "function"
    },
    {
      "constant": true,
      "inputs": [],
      "name": "m_feeReceiver",
      "outputs": [
        {
          "name": "",
          "type": "address"
        }
      ],
      "payable": false,
      "stateMutability": "view",
      "type": "function"
    },
    {
      "constant": true,
      "inputs": [],
      "name": "m_cumulativeRoundsProcessed",
      "outputs": [
        {
          "name": "",
          "type": "uint256"
        }
      ],
      "payable": false,
      "stateMutability": "view",
      "type": "function"
    },
    {
      "constant": true,
      "inputs": [],
      "name": "getREP",
      "outputs": [
        {
          "name": "",
          "type": "address"
        }
      ],
      "payable": false,
      "stateMutability": "view",
      "type": "function"
    },
    {
      "constant": true,
      "inputs": [],
      "name": "getOwner",
      "outputs": [
        {
          "name": "",
          "type": "address"
        }
      ],
      "payable": false,
      "stateMutability": "view",
      "type": "function"
    },
    {
      "constant": true,
      "inputs": [],
      "name": "m_roundNumber",
      "outputs": [
        {
          "name": "",
          "type": "uint256"
        }
      ],
      "payable": false,
      "stateMutability": "view",
      "type": "function"
    },
    {
      "constant": true,
      "inputs": [],
      "name": "m_payoutDistributionHash",
      "outputs": [
        {
          "name": "",
          "type": "bytes32"
        }
      ],
      "payable": false,
      "stateMutability": "view",
      "type": "function"
    },
    {
      "constant": true,
      "inputs": [],
      "name": "feeReceiver",
      "outputs": [
        {
          "name": "",
          "type": "address"
        }
      ],
      "payable": false,
      "stateMutability": "view",
      "type": "function"
    },
    {
      "constant": true,
      "inputs": [],
      "name": "m_windowStart",
      "outputs": [
        {
          "name": "",
          "type": "uint256"
        }
      ],
      "payable": false,
      "stateMutability": "view",
      "type": "function"
    },
    {
      "constant": false,
      "inputs": [],
      "name": "approveManagerToSpendDisputeTokens",
      "outputs": [],
      "payable": false,
      "stateMutability": "nonpayable",
      "type": "function"
    },
    {
      "constant": true,
      "inputs": [],
      "name": "hasDisputed",
      "outputs": [
        {
          "name": "",
          "type": "bool"
        }
      ],
      "payable": false,
      "stateMutability": "view",
      "type": "function"
    },
    {
      "constant": true,
      "inputs": [],
      "name": "m_owner",
      "outputs": [
        {
          "name": "",
          "type": "address"
        }
      ],
      "payable": false,
      "stateMutability": "view",
      "type": "function"
    },
    {
      "constant": true,
      "inputs": [],
      "name": "m_cumulativeDisputeStakeInOurOutcome",
      "outputs": [
        {
          "name": "",
          "type": "uint256"
        }
      ],
      "payable": false,
      "stateMutability": "view",
      "type": "function"
    },
    {
      "constant": true,
      "inputs": [],
      "name": "m_cumulativeDisputeStake",
      "outputs": [
        {
          "name": "",
          "type": "uint256"
        }
      ],
      "payable": false,
      "stateMutability": "view",
      "type": "function"
    },
    {
      "constant": false,
      "inputs": [
        {
          "name": "feeReceiver",
          "type": "address"
        }
      ],
      "name": "dispute",
      "outputs": [],
      "payable": false,
      "stateMutability": "nonpayable",
      "type": "function"
    },
    {
      "inputs": [
        {
          "name": "owner",
          "type": "address"
        },
        {
          "name": "market",
          "type": "address"
        },
        {
          "name": "feeWindowId",
          "type": "uint256"
        },
        {
          "name": "payoutNumerators",
          "type": "uint256[]"
        },
        {
          "name": "invalid",
          "type": "bool"
        }
      ],
      "payable": false,
      "stateMutability": "nonpayable",
      "type": "constructor"
    },
    {
      "constant": true,
      "inputs": [],
      "name": "inferRoundNumber",
      "outputs": [
        {
          "name": "",
          "type": "uint256"
        }
      ],
      "payable": false,
      "stateMutability": "view",
      "type": "function"
    },
    {
      "constant": false,
      "inputs": [],
      "name": "processCumulativeRounds",
      "outputs": [],
      "payable": false,
      "stateMutability": "nonpayable",
      "type": "function"
    },
    {
      "constant": true,
      "inputs": [],
      "name": "shouldProcessCumulativeRounds",
      "outputs": [
        {
          "name": "",
          "type": "bool"
        }
      ],
      "payable": false,
      "stateMutability": "view",
      "type": "function"
    }
  ],
  "bytecode": "0x60806040526000600160006101000a81548173ffffffffffffffffffffffffffffffffffffffff021916908373ffffffffffffffffffffffffffffffffffffffff1602179055503480156200005357600080fd5b50604051620031b9380380620031b98339810180604052810190808051906020019092919080519060200190929190805190602001909291908051820192919060200180519060200190929190505050600080620000c487878787876200036c640100000000026401000000009004565b8573ffffffffffffffffffffffffffffffffffffffff1663870c426d6040518163ffffffff167c0100000000000000000000000000000000000000000000000000000000028152600401602060405180830381600087803b1580156200012957600080fd5b505af11580156200013e573d6000803e3d6000fd5b505050506040513d60208110156200015557600080fd5b810190808051906020019092919050505091508173ffffffffffffffffffffffffffffffffffffffff1663331172f36040518163ffffffff167c0100000000000000000000000000000000000000000000000000000000028152600401602060405180830381600087803b158015620001cd57600080fd5b505af1158015620001e2573d6000803e3d6000fd5b505050506040513d6020811015620001f957600080fd5b810190808051906020019092919050505090508085026008819055508060018601026009819055508573ffffffffffffffffffffffffffffffffffffffff16632443f0ae85856040518363ffffffff167c0100000000000000000000000000000000000000000000000000000000028152600401808060200183151515158152602001828103825284818151815260200191508051906020019060200280838360005b83811015620002b95780820151818401526020810190506200029c565b505050509050019350505050602060405180830381600087803b158015620002e057600080fd5b505af1158015620002f5573d6000803e3d6000fd5b505050506040513d60208110156200030c57600080fd5b8101908080519060200190929190505050600a816000191690555062000340620007b7640100000000026401000000009004565b600b819055506200035f62000d25640100000000026401000000009004565b5050505050505062001250565b846000806101000a81548173ffffffffffffffffffffffffffffffffffffffff021916908373ffffffffffffffffffffffffffffffffffffffff1602179055506080604051908101604052808573ffffffffffffffffffffffffffffffffffffffff168152602001848152602001838152602001821515815250600260008201518160000160006101000a81548173ffffffffffffffffffffffffffffffffffffffff021916908373ffffffffffffffffffffffffffffffffffffffff16021790555060208201518160010155604082015181600201908051906020019062000457929190620011d6565b5060608201518160030160006101000a81548160ff0219169083151502179055509050506200049462001108640100000000026401000000009004565b600660006101000a81548173ffffffffffffffffffffffffffffffffffffffff021916908373ffffffffffffffffffffffffffffffffffffffff160217905550600660009054906101000a900473ffffffffffffffffffffffffffffffffffffffff1673ffffffffffffffffffffffffffffffffffffffff1663095ea7b36000809054906101000a900473ffffffffffffffffffffffffffffffffffffffff167fffffffffffffffffffffffffffffffffffffffffffffffffffffffffffffffff6040518363ffffffff167c0100000000000000000000000000000000000000000000000000000000028152600401808373ffffffffffffffffffffffffffffffffffffffff1673ffffffffffffffffffffffffffffffffffffffff16815260200182815260200192505050602060405180830381600087803b158015620005db57600080fd5b505af1158015620005f0573d6000803e3d6000fd5b505050506040513d60208110156200060757600080fd5b810190808051906020019092919050505015156200062157fe5b60008473ffffffffffffffffffffffffffffffffffffffff161415156200076f57600660009054906101000a900473ffffffffffffffffffffffffffffffffffffffff1673ffffffffffffffffffffffffffffffffffffffff1663095ea7b3857fffffffffffffffffffffffffffffffffffffffffffffffffffffffffffffffff6040518363ffffffff167c0100000000000000000000000000000000000000000000000000000000028152600401808373ffffffffffffffffffffffffffffffffffffffff1673ffffffffffffffffffffffffffffffffffffffff16815260200182815260200192505050602060405180830381600087803b1580156200072857600080fd5b505af11580156200073d573d6000803e3d6000fd5b505050506040513d60208110156200075457600080fd5b810190808051906020019092919050505015156200076e57fe5b5b30600760006101000a81548173ffffffffffffffffffffffffffffffffffffffff021916908373ffffffffffffffffffffffffffffffffffffffff1602179055505050505050565b6000806000806000806000806000600260000160009054906101000a900473ffffffffffffffffffffffffffffffffffffffff1697508773ffffffffffffffffffffffffffffffffffffffff1663870c426d6040518163ffffffff167c0100000000000000000000000000000000000000000000000000000000028152600401602060405180830381600087803b1580156200085257600080fd5b505af115801562000867573d6000803e3d6000fd5b505050506040513d60208110156200087e57600080fd5b810190808051906020019092919050505096508673ffffffffffffffffffffffffffffffffffffffff1663becb1f356040518163ffffffff167c0100000000000000000000000000000000000000000000000000000000028152600401602060405180830381600087803b158015620008f657600080fd5b505af11580156200090b573d6000803e3d6000fd5b505050506040513d60208110156200092257600080fd5b81019080805190602001909291905050501515156200094057600080fd5b600260000160009054906101000a900473ffffffffffffffffffffffffffffffffffffffff1673ffffffffffffffffffffffffffffffffffffffff1663f77f29b16040518163ffffffff167c0100000000000000000000000000000000000000000000000000000000028152600401602060405180830381600087803b158015620009ca57600080fd5b505af1158015620009df573d6000803e3d6000fd5b505050506040513d6020811015620009f657600080fd5b8101908080519060200190929190505050955060008673ffffffffffffffffffffffffffffffffffffffff161415151562000ae5576040517f08c379a00000000000000000000000000000000000000000000000000000000081526004018080602001828103825260478152602001807f6d61676963206f662063686f6f73696e6720726f756e64206e756d626572206281526020017f792074696d657374616d70206f6e6c7920776f726b7320647572696e6720646981526020017f73707574696e670000000000000000000000000000000000000000000000000081525060600191505060405180910390fd5b8773ffffffffffffffffffffffffffffffffffffffff1663fd478ca96040518163ffffffff167c0100000000000000000000000000000000000000000000000000000000028152600401602060405180830381600087803b15801562000b4a57600080fd5b505af115801562000b5f573d6000803e3d6000fd5b505050506040513d602081101562000b7657600080fd5b810190808051906020019092919050505094508673ffffffffffffffffffffffffffffffffffffffff1663331172f36040518163ffffffff167c0100000000000000000000000000000000000000000000000000000000028152600401602060405180830381600087803b15801562000bee57600080fd5b505af115801562000c03573d6000803e3d6000fd5b505050506040513d602081101562000c1a57600080fd5b810190808051906020019092919050505093508573ffffffffffffffffffffffffffffffffffffffff1663c828371e6040518163ffffffff167c0100000000000000000000000000000000000000000000000000000000028152600401602060405180830381600087803b15801562000c9257600080fd5b505af115801562000ca7573d6000803e3d6000fd5b505050506040513d602081101562000cbe57600080fd5b81019080805190602001909291905050509250826008541015151562000ce357600080fd5b826008540391506000848381151562000cf857fe5b0614151562000d0657600080fd5b838281151562000d1257fe5b0490508085019850505050505050505090565b600080600080600260000160009054906101000a900473ffffffffffffffffffffffffffffffffffffffff1693508373ffffffffffffffffffffffffffffffffffffffff16638d4e40836040518163ffffffff167c0100000000000000000000000000000000000000000000000000000000028152600401602060405180830381600087803b15801562000db857600080fd5b505af115801562000dcd573d6000803e3d6000fd5b505050506040513d602081101562000de457600080fd5b810190808051906020019092919050505015151562000e0257600080fd5b8373ffffffffffffffffffffffffffffffffffffffff1663fd478ca96040518163ffffffff167c0100000000000000000000000000000000000000000000000000000000028152600401602060405180830381600087803b15801562000e6757600080fd5b505af115801562000e7c573d6000803e3d6000fd5b505050506040513d602081101562000e9357600080fd5b810190808051906020019092919050505092505b82600e5410801562000ebc5750600b54600e54105b1562001102578373ffffffffffffffffffffffffffffffffffffffff1663bbd37ef3600e546040518263ffffffff167c010000000000000000000000000000000000000000000000000000000002815260040180828152602001915050602060405180830381600087803b15801562000f3457600080fd5b505af115801562000f49573d6000803e3d6000fd5b505050506040513d602081101562000f6057600080fd5b810190808051906020019092919050505091508173ffffffffffffffffffffffffffffffffffffffff1663fc0e3d906040518163ffffffff167c0100000000000000000000000000000000000000000000000000000000028152600401602060405180830381600087803b15801562000fd857600080fd5b505af115801562000fed573d6000803e3d6000fd5b505050506040513d60208110156200100457600080fd5b8101908080519060200190929190505050905080600c60008282540192505081905550600a54600019168273ffffffffffffffffffffffffffffffffffffffff1663dd62f6f36040518163ffffffff167c0100000000000000000000000000000000000000000000000000000000028152600401602060405180830381600087803b1580156200109357600080fd5b505af1158015620010a8573d6000803e3d6000fd5b505050506040513d6020811015620010bf57600080fd5b8101908080519060200190929190505050600019161415620010ec5780600d600082825401925050819055505b600e600081546001019190508190555062000ea7565b50505050565b6000600260000160009054906101000a900473ffffffffffffffffffffffffffffffffffffffff1673ffffffffffffffffffffffffffffffffffffffff1663b80907f26040518163ffffffff167c0100000000000000000000000000000000000000000000000000000000028152600401602060405180830381600087803b1580156200119457600080fd5b505af1158015620011a9573d6000803e3d6000fd5b505050506040513d6020811015620011c057600080fd5b8101908080519060200190929190505050905090565b82805482825590600052602060002090810192821562001215579160200282015b8281111562001214578251825591602001919060010190620011f7565b5b50905062001224919062001228565b5090565b6200124d91905b80821115620012495760008160009055506001016200122f565b5090565b90565b611f5980620012606000396000f300608060405260043610610112576000357c0100000000000000000000000000000000000000000000000000000000900463ffffffff1680630229bfc1146101175780630ff2fd921461014657806315298c77146101715780632e602752146101da57806355af7a83146102315780635eccd424146102885780636199b4c4146102b35780636e370723146102de5780636f2c83ee146102f5578063893d20e81461034c578063a7e9fa43146103a3578063a825ba3d146103ce578063b3f0067414610401578063cab7498614610458578063cadbbf6314610483578063d18959a21461049a578063deff41c1146104c9578063e6a1acff14610520578063eb840e4d1461054b578063f75f9f7b14610576575b600080fd5b34801561012357600080fd5b5061012c6105b9565b604051808215151515815260200191505060405180910390f35b34801561015257600080fd5b5061015b61074d565b6040518082815260200191505060405180910390f35b34801561017d57600080fd5b50610186610753565b604051808473ffffffffffffffffffffffffffffffffffffffff1673ffffffffffffffffffffffffffffffffffffffff16815260200183815260200182151515158152602001935050505060405180910390f35b3480156101e657600080fd5b506101ef610798565b604051808273ffffffffffffffffffffffffffffffffffffffff1673ffffffffffffffffffffffffffffffffffffffff16815260200191505060405180910390f35b34801561023d57600080fd5b5061024661081f565b604051808273ffffffffffffffffffffffffffffffffffffffff1673ffffffffffffffffffffffffffffffffffffffff16815260200191505060405180910390f35b34801561029457600080fd5b5061029d610845565b6040518082815260200191505060405180910390f35b3480156102bf57600080fd5b506102c8610d9b565b6040518082815260200191505060405180910390f35b3480156102ea57600080fd5b506102f3610da1565b005b34801561030157600080fd5b5061030a611170565b604051808273ffffffffffffffffffffffffffffffffffffffff1673ffffffffffffffffffffffffffffffffffffffff16815260200191505060405180910390f35b34801561035857600080fd5b5061036161119a565b604051808273ffffffffffffffffffffffffffffffffffffffff1673ffffffffffffffffffffffffffffffffffffffff16815260200191505060405180910390f35b3480156103af57600080fd5b506103b86111c3565b6040518082815260200191505060405180910390f35b3480156103da57600080fd5b506103e36111c9565b60405180826000191660001916815260200191505060405180910390f35b34801561040d57600080fd5b506104166111cf565b604051808273ffffffffffffffffffffffffffffffffffffffff1673ffffffffffffffffffffffffffffffffffffffff16815260200191505060405180910390f35b34801561046457600080fd5b5061046d611240565b6040518082815260200191505060405180910390f35b34801561048f57600080fd5b50610498611246565b005b3480156104a657600080fd5b506104af61137f565b604051808215151515815260200191505060405180910390f35b3480156104d557600080fd5b506104de6113c2565b604051808273ffffffffffffffffffffffffffffffffffffffff1673ffffffffffffffffffffffffffffffffffffffff16815260200191505060405180910390f35b34801561052c57600080fd5b506105356113e7565b6040518082815260200191505060405180910390f35b34801561055757600080fd5b506105606113ed565b6040518082815260200191505060405180910390f35b34801561058257600080fd5b506105b7600480360381019080803573ffffffffffffffffffffffffffffffffffffffff1690602001909291905050506113f3565b005b6000806000600260000160009054906101000a900473ffffffffffffffffffffffffffffffffffffffff1691508173ffffffffffffffffffffffffffffffffffffffff16638d4e40836040518163ffffffff167c0100000000000000000000000000000000000000000000000000000000028152600401602060405180830381600087803b15801561064a57600080fd5b505af115801561065e573d6000803e3d6000fd5b505050506040513d602081101561067457600080fd5b810190808051906020019092919050505015151561069157600080fd5b8173ffffffffffffffffffffffffffffffffffffffff1663fd478ca96040518163ffffffff167c0100000000000000000000000000000000000000000000000000000000028152600401602060405180830381600087803b1580156106f557600080fd5b505af1158015610709573d6000803e3d6000fd5b505050506040513d602081101561071f57600080fd5b81019080805190602001909291905050509050600b54600e54108015610746575080600e54105b9250505090565b60095481565b60028060000160009054906101000a900473ffffffffffffffffffffffffffffffffffffffff16908060010154908060030160009054906101000a900460ff16905083565b60003073ffffffffffffffffffffffffffffffffffffffff16600760009054906101000a900473ffffffffffffffffffffffffffffffffffffffff1673ffffffffffffffffffffffffffffffffffffffff16141515156107f757600080fd5b600760009054906101000a900473ffffffffffffffffffffffffffffffffffffffff16905090565b600160009054906101000a900473ffffffffffffffffffffffffffffffffffffffff1681565b6000806000806000806000806000600260000160009054906101000a900473ffffffffffffffffffffffffffffffffffffffff1697508773ffffffffffffffffffffffffffffffffffffffff1663870c426d6040518163ffffffff167c0100000000000000000000000000000000000000000000000000000000028152600401602060405180830381600087803b1580156108df57600080fd5b505af11580156108f3573d6000803e3d6000fd5b505050506040513d602081101561090957600080fd5b810190808051906020019092919050505096508673ffffffffffffffffffffffffffffffffffffffff1663becb1f356040518163ffffffff167c0100000000000000000000000000000000000000000000000000000000028152600401602060405180830381600087803b15801561098057600080fd5b505af1158015610994573d6000803e3d6000fd5b505050506040513d60208110156109aa57600080fd5b81019080805190602001909291905050501515156109c757600080fd5b600260000160009054906101000a900473ffffffffffffffffffffffffffffffffffffffff1673ffffffffffffffffffffffffffffffffffffffff1663f77f29b16040518163ffffffff167c0100000000000000000000000000000000000000000000000000000000028152600401602060405180830381600087803b158015610a5057600080fd5b505af1158015610a64573d6000803e3d6000fd5b505050506040513d6020811015610a7a57600080fd5b8101908080519060200190929190505050955060008673ffffffffffffffffffffffffffffffffffffffff1614151515610b68576040517f08c379a00000000000000000000000000000000000000000000000000000000081526004018080602001828103825260478152602001807f6d61676963206f662063686f6f73696e6720726f756e64206e756d626572206281526020017f792074696d657374616d70206f6e6c7920776f726b7320647572696e6720646981526020017f73707574696e670000000000000000000000000000000000000000000000000081525060600191505060405180910390fd5b8773ffffffffffffffffffffffffffffffffffffffff1663fd478ca96040518163ffffffff167c0100000000000000000000000000000000000000000000000000000000028152600401602060405180830381600087803b158015610bcc57600080fd5b505af1158015610be0573d6000803e3d6000fd5b505050506040513d6020811015610bf657600080fd5b810190808051906020019092919050505094508673ffffffffffffffffffffffffffffffffffffffff1663331172f36040518163ffffffff167c0100000000000000000000000000000000000000000000000000000000028152600401602060405180830381600087803b158015610c6d57600080fd5b505af1158015610c81573d6000803e3d6000fd5b505050506040513d6020811015610c9757600080fd5b810190808051906020019092919050505093508573ffffffffffffffffffffffffffffffffffffffff1663c828371e6040518163ffffffff167c0100000000000000000000000000000000000000000000000000000000028152600401602060405180830381600087803b158015610d0e57600080fd5b505af1158015610d22573d6000803e3d6000fd5b505050506040513d6020811015610d3857600080fd5b810190808051906020019092919050505092508260085410151515610d5c57600080fd5b8260085403915060008483811515610d7057fe5b06141515610d7d57600080fd5b8382811515610d8857fe5b0490508085019850505050505050505090565b600e5481565b600080600080600260000160009054906101000a900473ffffffffffffffffffffffffffffffffffffffff1693508373ffffffffffffffffffffffffffffffffffffffff16638d4e40836040518163ffffffff167c0100000000000000000000000000000000000000000000000000000000028152600401602060405180830381600087803b158015610e3357600080fd5b505af1158015610e47573d6000803e3d6000fd5b505050506040513d6020811015610e5d57600080fd5b8101908080519060200190929190505050151515610e7a57600080fd5b8373ffffffffffffffffffffffffffffffffffffffff1663fd478ca96040518163ffffffff167c0100000000000000000000000000000000000000000000000000000000028152600401602060405180830381600087803b158015610ede57600080fd5b505af1158015610ef2573d6000803e3d6000fd5b505050506040513d6020811015610f0857600080fd5b810190808051906020019092919050505092505b82600e54108015610f305750600b54600e54105b1561116a578373ffffffffffffffffffffffffffffffffffffffff1663bbd37ef3600e546040518263ffffffff167c010000000000000000000000000000000000000000000000000000000002815260040180828152602001915050602060405180830381600087803b158015610fa657600080fd5b505af1158015610fba573d6000803e3d6000fd5b505050506040513d6020811015610fd057600080fd5b810190808051906020019092919050505091508173ffffffffffffffffffffffffffffffffffffffff1663fc0e3d906040518163ffffffff167c0100000000000000000000000000000000000000000000000000000000028152600401602060405180830381600087803b15801561104757600080fd5b505af115801561105b573d6000803e3d6000fd5b505050506040513d602081101561107157600080fd5b8101908080519060200190929190505050905080600c60008282540192505081905550600a54600019168273ffffffffffffffffffffffffffffffffffffffff1663dd62f6f36040518163ffffffff167c0100000000000000000000000000000000000000000000000000000000028152600401602060405180830381600087803b1580156110ff57600080fd5b505af1158015611113573d6000803e3d6000fd5b505050506040513d602081101561112957600080fd5b81019080805190602001909291905050506000191614156111555780600d600082825401925050819055505b600e6000815460010191905081905550610f1c565b50505050565b6000600660009054906101000a900473ffffffffffffffffffffffffffffffffffffffff16905090565b60008060009054906101000a900473ffffffffffffffffffffffffffffffffffffffff16905090565b600b5481565b600a5481565b600080600160009054906101000a900473ffffffffffffffffffffffffffffffffffffffff1673ffffffffffffffffffffffffffffffffffffffff161415151561121857600080fd5b600160009054906101000a900473ffffffffffffffffffffffffffffffffffffffff16905090565b60085481565b6000611250610798565b90508073ffffffffffffffffffffffffffffffffffffffff1663095ea7b36000809054906101000a900473ffffffffffffffffffffffffffffffffffffffff167fffffffffffffffffffffffffffffffffffffffffffffffffffffffffffffffff6040518363ffffffff167c0100000000000000000000000000000000000000000000000000000000028152600401808373ffffffffffffffffffffffffffffffffffffffff1673ffffffffffffffffffffffffffffffffffffffff16815260200182815260200192505050602060405180830381600087803b15801561133657600080fd5b505af115801561134a573d6000803e3d6000fd5b505050506040513d602081101561136057600080fd5b8101908080519060200190929190505050151561137c57600080fd5b50565b600080600160009054906101000a900473ffffffffffffffffffffffffffffffffffffffff1673ffffffffffffffffffffffffffffffffffffffff161415905090565b6000809054906101000a900473ffffffffffffffffffffffffffffffffffffffff1681565b600d5481565b600c5481565b600080600080600080600160009054906101000a900473ffffffffffffffffffffffffffffffffffffffff1673ffffffffffffffffffffffffffffffffffffffff161415156114aa576040517f08c379a00000000000000000000000000000000000000000000000000000000081526004018080602001828103825260158152602001807f43616e206f6e6c792064697370757465206f6e6365000000000000000000000081525060200191505060405180910390fd5b6114b2611875565b60008673ffffffffffffffffffffffffffffffffffffffff1614151515611541576040517f08c379a000000000000000000000000000000000000000000000000000000000815260040180806020018281038252601c8152602001807f4d75737420686176652076616c6964206665652072656365697665720000000081525060200191505060405180910390fd5b85600160006101000a81548173ffffffffffffffffffffffffffffffffffffffff021916908373ffffffffffffffffffffffffffffffffffffffff16021790555061158a611170565b94508473ffffffffffffffffffffffffffffffffffffffff166370a08231306040518263ffffffff167c0100000000000000000000000000000000000000000000000000000000028152600401808273ffffffffffffffffffffffffffffffffffffffff1673ffffffffffffffffffffffffffffffffffffffff168152602001915050602060405180830381600087803b15801561162757600080fd5b505af115801561163b573d6000803e3d6000fd5b505050506040513d602081101561165157600080fd5b8101908080519060200190929190505050935061166c611894565b92508473ffffffffffffffffffffffffffffffffffffffff166370a08231306040518263ffffffff167c0100000000000000000000000000000000000000000000000000000000028152600401808273ffffffffffffffffffffffffffffffffffffffff1673ffffffffffffffffffffffffffffffffffffffff168152602001915050602060405180830381600087803b15801561170957600080fd5b505af115801561171d573d6000803e3d6000fd5b505050506040513d602081101561173357600080fd5b8101908080519060200190929190505050915082600760006101000a81548173ffffffffffffffffffffffffffffffffffffffff021916908373ffffffffffffffffffffffffffffffffffffffff1602179055508273ffffffffffffffffffffffffffffffffffffffff166370a08231306040518263ffffffff167c0100000000000000000000000000000000000000000000000000000000028152600401808273ffffffffffffffffffffffffffffffffffffffff1673ffffffffffffffffffffffffffffffffffffffff168152602001915050602060405180830381600087803b15801561182257600080fd5b505af1158015611836573d6000803e3d6000fd5b505050506040513d602081101561184c57600080fd5b81019080805190602001909291905050509050838183011015151561186d57fe5b505050505050565b60085442118015611887575060095442105b151561189257600080fd5b565b600080600080600080600b54600e5410156118b2576118b1610da1565b5b600260000160009054906101000a900473ffffffffffffffffffffffffffffffffffffffff1694506001600d54600302600c54600202030393508473ffffffffffffffffffffffffffffffffffffffff1663c35c08bd600a546040518263ffffffff167c0100000000000000000000000000000000000000000000000000000000028152600401808260001916600019168152602001915050602060405180830381600087803b15801561196557600080fd5b505af1158015611979573d6000803e3d6000fd5b505050506040513d602081101561198f57600080fd5b8101908080519060200190929190505050925060008373ffffffffffffffffffffffffffffffffffffffff1614611a64578273ffffffffffffffffffffffffffffffffffffffff1663fc0e3d906040518163ffffffff167c0100000000000000000000000000000000000000000000000000000000028152600401602060405180830381600087803b158015611a2457600080fd5b505af1158015611a38573d6000803e3d6000fd5b505050506040513d6020811015611a4e57600080fd5b8101908080519060200190929190505050611a67565b60005b91508382101515611ae0576040517f08c379a000000000000000000000000000000000000000000000000000000000815260040180806020018281038252600f8152602001807f57652061726520746f6f206c617465000000000000000000000000000000000081525060200191505060405180910390fd5b8473ffffffffffffffffffffffffffffffffffffffff166358e61e1260028001600260030160009054906101000a900460ff168588036040518463ffffffff167c01000000000000000000000000000000000000000000000000000000000281526004018080602001841515151581526020018381526020018281038252858181548152602001915080548015611b9657602002820191906000526020600020905b815481526020019060010190808311611b82575b5050945050505050602060405180830381600087803b158015611bb857600080fd5b505af1158015611bcc573d6000803e3d6000fd5b505050506040513d6020811015611be257600080fd5b81019080805190602001909291905050501515611bfe57600080fd5b600b548573ffffffffffffffffffffffffffffffffffffffff1663fd478ca96040518163ffffffff167c0100000000000000000000000000000000000000000000000000000000028152600401602060405180830381600087803b158015611c6557600080fd5b505af1158015611c79573d6000803e3d6000fd5b505050506040513d6020811015611c8f57600080fd5b81019080805190602001909291905050501415611d61578473ffffffffffffffffffffffffffffffffffffffff1663c35c08bd600a546040518263ffffffff167c0100000000000000000000000000000000000000000000000000000000028152600401808260001916600019168152602001915050602060405180830381600087803b158015611d1f57600080fd5b505af1158015611d33573d6000803e3d6000fd5b505050506040513d6020811015611d4957600080fd5b81019080805190602001909291905050509550611f25565b8473ffffffffffffffffffffffffffffffffffffffff16636e1066286040518163ffffffff167c0100000000000000000000000000000000000000000000000000000000028152600401602060405180830381600087803b158015611dc557600080fd5b505af1158015611dd9573d6000803e3d6000fd5b505050506040513d6020811015611def57600080fd5b81019080805190602001909291905050509050600a54600019168173ffffffffffffffffffffffffffffffffffffffff1663dd62f6f36040518163ffffffff167c0100000000000000000000000000000000000000000000000000000000028152600401602060405180830381600087803b158015611e6d57600080fd5b505af1158015611e81573d6000803e3d6000fd5b505050506040513d6020811015611e9757600080fd5b810190808051906020019092919050505060001916141515611f21576040517f08c379a000000000000000000000000000000000000000000000000000000000815260040180806020018281038252601a8152602001807f57726f6e672077696e6e696e67207061727469636970616e743f00000000000081525060200191505060405180910390fd5b8095505b5050505050905600a165627a7a72305820c7eaf73817cc918dc3ad515918a20cbf178556c7f9533508a34811d6a7b6de5f0029",
  "source": "pragma solidity 0.4.24;\n\nimport \"./BaseDisputer.sol\";\nimport \"./IDisputer.sol\";\nimport \"./augur/market.sol\";\n\n/**\n * Only the code that really interacts with Augur should be place here,\n * the rest goes into BaseDisputer for better testability.\n */\ncontract Disputer is BaseDisputer {\n  uint256 public m_windowStart;\n  uint256 public m_windowEnd;\n  bytes32 public m_payoutDistributionHash;\n  uint256 public m_roundNumber;\n\n  // we will keep track of all contributions made so far\n  uint256 public m_cumulativeDisputeStake;\n  uint256 public m_cumulativeDisputeStakeInOurOutcome;\n  uint256 public m_cumulativeRoundsProcessed;\n\n  constructor(\n    address owner,\n    Market market,\n    uint256 feeWindowId,\n    uint256[] payoutNumerators,\n    bool invalid\n  ) public {\n    baseInit(owner, market, feeWindowId, payoutNumerators, invalid);\n\n    Universe universe = market.getUniverse();\n    uint256 disputeRoundDuration = universe.getDisputeRoundDurationInSeconds();\n    m_windowStart = feeWindowId * disputeRoundDuration;\n    m_windowEnd = (feeWindowId + 1) * disputeRoundDuration;\n\n    m_payoutDistributionHash = market.derivePayoutDistributionHash(\n      payoutNumerators,\n      invalid\n    );\n\n    m_roundNumber = inferRoundNumber();\n\n    processCumulativeRounds();\n  }\n\n  function inferRoundNumber() public view returns(uint256) {\n    Market market = m_params.market;\n    Universe universe = market.getUniverse();\n    require(!universe.isForking());\n\n    FeeWindow feeWindow = m_params.market.getFeeWindow();\n    require(\n      address(feeWindow) != 0,\n      \"magic of choosing round number by timestamp only works during disputing\"\n    );\n    // once there is a fee window, it always corresponds to next round\n    uint256 nextParticipant = market.getNumParticipants();\n    uint256 disputeRoundDuration = universe.getDisputeRoundDurationInSeconds();\n    uint256 nextParticipantFeeWindowStart = feeWindow.getStartTime();\n    require(m_windowStart >= nextParticipantFeeWindowStart);\n    uint256 feeWindowDifferenceSeconds = m_windowStart - nextParticipantFeeWindowStart;\n    require(feeWindowDifferenceSeconds % disputeRoundDuration == 0);\n    uint256 feeWindowDifferenceRounds = feeWindowDifferenceSeconds / disputeRoundDuration;\n    return nextParticipant + feeWindowDifferenceRounds;\n  }\n\n  // anyone can call this to keep disputer up to date w.r.t. latest rounds sizes\n  function processCumulativeRounds() public {\n    Market market = m_params.market;\n    require(!market.isFinalized());\n    uint256 numParticipants = market.getNumParticipants();\n\n    while (m_cumulativeRoundsProcessed < numParticipants && m_cumulativeRoundsProcessed < m_roundNumber) {\n      ReportingParticipant participant = market.getReportingParticipant(\n        m_cumulativeRoundsProcessed\n      );\n      uint256 stake = participant.getStake();\n      m_cumulativeDisputeStake += stake;\n      if (participant.getPayoutDistributionHash() == m_payoutDistributionHash) {\n        m_cumulativeDisputeStakeInOurOutcome += stake;\n      }\n      ++m_cumulativeRoundsProcessed;\n    }\n  }\n\n  function shouldProcessCumulativeRounds() public view returns(bool) {\n    Market market = m_params.market;\n    require(!market.isFinalized());\n    uint256 numParticipants = market.getNumParticipants();\n    return m_cumulativeRoundsProcessed < m_roundNumber && m_cumulativeRoundsProcessed < numParticipants;\n  }\n\n  function preDisputeCheck() internal {\n    // most frequent reasons for failure, to fail early and save gas\n    require(block.timestamp > m_windowStart && block.timestamp < m_windowEnd);\n  }\n\n  /**\n   * This function should use as little gas as possible, as it will be called\n   * during rush time. Unnecessary operations are postponed for later.\n   *\n   * Can only be called once.\n   */\n  function disputeImpl() internal returns(IERC20) {\n    if (m_cumulativeRoundsProcessed < m_roundNumber) {\n      // hopefully we won't need it, we should prepare contract a few days\n      // before time T\n      processCumulativeRounds();\n    }\n\n    Market market = m_params.market;\n\n    // don't waste gas on safe math\n    uint256 roundSizeMinusOne = 2 * m_cumulativeDisputeStake - 3 * m_cumulativeDisputeStakeInOurOutcome - 1;\n\n    ReportingParticipant crowdsourcerBefore = market.getCrowdsourcer(\n      m_payoutDistributionHash\n    );\n    uint256 alreadyContributed = address(\n      crowdsourcerBefore\n    ) == 0 ? 0 : crowdsourcerBefore.getStake();\n\n    require(alreadyContributed < roundSizeMinusOne, \"We are too late\");\n\n    require(\n      market.contribute(\n        m_params.payoutNumerators,\n        m_params.invalid,\n        roundSizeMinusOne - alreadyContributed\n      )\n    );\n\n    if (market.getNumParticipants() == m_roundNumber) {\n      // we are still within current round\n      return market.getCrowdsourcer(m_payoutDistributionHash);\n    } else {\n      // We somehow overfilled the round. This sucks, but let's try to recover.\n      ReportingParticipant participant = market.getWinningReportingParticipant(\n\n      );\n      require(\n        participant.getPayoutDistributionHash() == m_payoutDistributionHash,\n        \"Wrong winning participant?\"\n      );\n      return IERC20(address(participant));\n    }\n  }\n\n  function getREPImpl() internal view returns(IERC20) {\n    return m_params.market.getReputationToken();\n  }\n}\n",
  "sourcePath": "/src/contracts/Disputer.sol",
  "compiler": {
    "name": "solc",
    "version": "0.4.24+commit.e67f0147.Emscripten.clang"
  },
  "schemaVersion": "2.0.1",
  "updatedAt": "2018-11-02T02:08:45.581Z"
}