{
  "contractName": "Disputer",
  "abi": [
    {
      "constant": true,
      "inputs": [],
      "name": "m_feeReceiver",
      "outputs": [
        {
          "name": "",
          "type": "address"
        }
      ],
      "payable": false,
      "stateMutability": "view",
      "type": "function"
    },
    {
      "constant": true,
      "inputs": [],
      "name": "m_owner",
      "outputs": [
        {
          "name": "",
          "type": "address"
        }
      ],
      "payable": false,
      "stateMutability": "view",
      "type": "function"
    },
    {
      "inputs": [
        {
          "name": "owner",
          "type": "address"
        }
      ],
      "payable": false,
      "stateMutability": "nonpayable",
      "type": "constructor"
    },
    {
      "constant": true,
      "inputs": [],
      "name": "getOwner",
      "outputs": [
        {
          "name": "",
          "type": "address"
        }
      ],
      "payable": false,
      "stateMutability": "view",
      "type": "function"
    },
    {
      "constant": false,
      "inputs": [
        {
          "name": "feeReceiver",
          "type": "address"
        }
      ],
      "name": "dispute",
      "outputs": [],
      "payable": false,
      "stateMutability": "nonpayable",
      "type": "function"
    },
    {
      "constant": true,
      "inputs": [],
      "name": "hasDisputed",
      "outputs": [
        {
          "name": "",
          "type": "bool"
        }
      ],
      "payable": false,
      "stateMutability": "view",
      "type": "function"
    },
    {
      "constant": true,
      "inputs": [],
      "name": "feeReceiver",
      "outputs": [
        {
          "name": "",
          "type": "address"
        }
      ],
      "payable": false,
      "stateMutability": "view",
      "type": "function"
    },
    {
      "constant": true,
      "inputs": [],
      "name": "getREP",
      "outputs": [
        {
          "name": "",
          "type": "address"
        }
      ],
      "payable": false,
      "stateMutability": "view",
      "type": "function"
    },
    {
      "constant": true,
      "inputs": [],
      "name": "getDisputeTokenAddress",
      "outputs": [
        {
          "name": "",
          "type": "address"
        }
      ],
      "payable": false,
      "stateMutability": "view",
      "type": "function"
    },
    {
      "constant": false,
      "inputs": [],
      "name": "approveManagerToSpendDisputeTokens",
      "outputs": [],
      "payable": false,
      "stateMutability": "nonpayable",
      "type": "function"
    }
  ],
  "bytecode": "0x60806040526000600160006101000a81548173ffffffffffffffffffffffffffffffffffffffff021916908373ffffffffffffffffffffffffffffffffffffffff16021790555034801561005257600080fd5b506040516020806107d883398101806040528101908080519060200190929190505050806000806101000a81548173ffffffffffffffffffffffffffffffffffffffff021916908373ffffffffffffffffffffffffffffffffffffffff16021790555050610713806100c56000396000f300608060405260043610610099576000357c0100000000000000000000000000000000000000000000000000000000900463ffffffff1680632e6027521461009e57806355af7a83146100f55780636f2c83ee1461014c578063893d20e8146101a3578063b3f00674146101fa578063cadbbf6314610251578063d18959a214610268578063deff41c114610297578063f75f9f7b146102ee575b600080fd5b3480156100aa57600080fd5b506100b3610331565b604051808273ffffffffffffffffffffffffffffffffffffffff1673ffffffffffffffffffffffffffffffffffffffff16815260200191505060405180910390f35b34801561010157600080fd5b5061010a61033f565b604051808273ffffffffffffffffffffffffffffffffffffffff1673ffffffffffffffffffffffffffffffffffffffff16815260200191505060405180910390f35b34801561015857600080fd5b50610161610365565b604051808273ffffffffffffffffffffffffffffffffffffffff1673ffffffffffffffffffffffffffffffffffffffff16815260200191505060405180910390f35b3480156101af57600080fd5b506101b8610373565b604051808273ffffffffffffffffffffffffffffffffffffffff1673ffffffffffffffffffffffffffffffffffffffff16815260200191505060405180910390f35b34801561020657600080fd5b5061020f61039c565b604051808273ffffffffffffffffffffffffffffffffffffffff1673ffffffffffffffffffffffffffffffffffffffff16815260200191505060405180910390f35b34801561025d57600080fd5b506102666103c6565b005b34801561027457600080fd5b5061027d6104fc565b604051808215151515815260200191505060405180910390f35b3480156102a357600080fd5b506102ac61053f565b604051808273ffffffffffffffffffffffffffffffffffffffff1673ffffffffffffffffffffffffffffffffffffffff16815260200191505060405180910390f35b3480156102fa57600080fd5b5061032f600480360381019080803573ffffffffffffffffffffffffffffffffffffffff169060200190929190505050610564565b005b600080151561033c57fe5b90565b600160009054906101000a900473ffffffffffffffffffffffffffffffffffffffff1681565b600080151561037057fe5b90565b60008060009054906101000a900473ffffffffffffffffffffffffffffffffffffffff16905090565b6000600160009054906101000a900473ffffffffffffffffffffffffffffffffffffffff16905090565b60006103d0610331565b90508073ffffffffffffffffffffffffffffffffffffffff1663095ea7b36000809054906101000a900473ffffffffffffffffffffffffffffffffffffffff167fffffffffffffffffffffffffffffffffffffffffffffffffffffffffffffffff6040518363ffffffff167c0100000000000000000000000000000000000000000000000000000000028152600401808373ffffffffffffffffffffffffffffffffffffffff1673ffffffffffffffffffffffffffffffffffffffff16815260200182815260200192505050602060405180830381600087803b1580156104b657600080fd5b505af11580156104ca573d6000803e3d6000fd5b505050506040513d60208110156104e057600080fd5b810190808051906020019092919050505015156104f957fe5b50565b600080600160009054906101000a900473ffffffffffffffffffffffffffffffffffffffff1673ffffffffffffffffffffffffffffffffffffffff161415905090565b6000809054906101000a900473ffffffffffffffffffffffffffffffffffffffff1681565b60008173ffffffffffffffffffffffffffffffffffffffff16141515156105f3576040517f08c379a000000000000000000000000000000000000000000000000000000000815260040180806020018281038252601c8152602001807f4d75737420686176652076616c6964206665652072656365697665720000000081525060200191505060405180910390fd5b6000600160009054906101000a900473ffffffffffffffffffffffffffffffffffffffff1673ffffffffffffffffffffffffffffffffffffffff161415156106a3576040517f08c379a00000000000000000000000000000000000000000000000000000000081526004018080602001828103825260158152602001807f43616e206f6e6c792064697370757465206f6e6365000000000000000000000081525060200191505060405180910390fd5b80600160006101000a81548173ffffffffffffffffffffffffffffffffffffffff021916908373ffffffffffffffffffffffffffffffffffffffff160217905550505600a165627a7a72305820a2477b610c3f02d026f5fa3e7bc6c2e6fa581d58174402dc636bf3ca0af6f8e40029",
  "source": "pragma solidity ^0.4.24;\n\nimport \"./IDisputer.sol\";\n\ncontract Disputer is IDisputer {\n  address public m_owner;\n  address public m_feeReceiver = 0;\n\n  constructor(address owner) public {\n    m_owner = owner;\n\n    // TODO: approve owner to spend our REP\n    /*\n    IERC20 rep = getREP();\n    assert(rep.approve(owner, 2**256 - 1));\n     */\n  }\n\n  function getOwner() external view returns (address) {\n    return m_owner;\n  }\n\n  /**\n   * This function should use as little gas as possible, as it will be called\n   * during rush time. Unnecessary operations are postponed for later.\n   *\n   * Can only be called once.\n   */\n  function dispute(address feeReceiver) external {\n    require(feeReceiver != 0, \"Must have valid fee receiver\");\n    require(m_feeReceiver == 0, \"Can only dispute once\");\n    m_feeReceiver = feeReceiver;\n    // TODO: actually interact with Augur\n  }\n\n  function hasDisputed() external view returns (bool) {\n    return m_feeReceiver != 0;\n  }\n\n  function feeReceiver() external view returns (address) {\n    return m_feeReceiver;\n  }\n\n  function getREP() external view returns (IERC20) {\n    assert(false);\n    // TODO: actually interact with Augur\n  }\n\n  function getDisputeTokenAddress() public view returns (IERC20) {\n    assert(false);\n    // TODO: actually interact with Augur\n  }\n\n  // intentionally can be called by anyone, as no user input is used\n  function approveManagerToSpendDisputeTokens() external {\n    IERC20 disputeTokenAddress = getDisputeTokenAddress();\n    assert(disputeTokenAddress.approve(m_owner, 2**256 - 1));\n  }\n}\n",
  "sourcePath": "/src/contracts/Disputer.sol",
  "compiler": {
    "name": "solc",
    "version": "0.4.24+commit.e67f0147.Emscripten.clang"
  },
  "schemaVersion": "2.0.1",
  "updatedAt": "2018-10-28T19:02:16.957Z"
}