{
  "contractName": "Disputer",
  "abi": [
    {
      "constant": true,
      "inputs": [],
      "name": "m_windowEnd",
      "outputs": [
        {
          "name": "",
          "type": "uint256"
        }
      ],
      "payable": false,
      "stateMutability": "view",
      "type": "function"
    },
    {
      "constant": true,
      "inputs": [],
      "name": "m_params",
      "outputs": [
        {
          "name": "market",
          "type": "address"
        },
        {
          "name": "feeWindowId",
          "type": "uint256"
        },
        {
          "name": "invalid",
          "type": "bool"
        }
      ],
      "payable": false,
      "stateMutability": "view",
      "type": "function"
    },
    {
      "constant": true,
      "inputs": [],
      "name": "getDisputeTokenAddress",
      "outputs": [
        {
          "name": "",
          "type": "address"
        }
      ],
      "payable": false,
      "stateMutability": "view",
      "type": "function"
    },
    {
      "constant": true,
      "inputs": [],
      "name": "m_disputeToken",
      "outputs": [
        {
          "name": "",
          "type": "address"
        }
      ],
      "payable": false,
      "stateMutability": "view",
      "type": "function"
    },
    {
      "constant": true,
      "inputs": [],
      "name": "m_feeReceiver",
      "outputs": [
        {
          "name": "",
          "type": "address"
        }
      ],
      "payable": false,
      "stateMutability": "view",
      "type": "function"
    },
    {
      "constant": true,
      "inputs": [],
      "name": "m_cumulativeRoundsProcessed",
      "outputs": [
        {
          "name": "",
          "type": "uint256"
        }
      ],
      "payable": false,
      "stateMutability": "view",
      "type": "function"
    },
    {
      "constant": true,
      "inputs": [],
      "name": "m_rep",
      "outputs": [
        {
          "name": "",
          "type": "address"
        }
      ],
      "payable": false,
      "stateMutability": "view",
      "type": "function"
    },
    {
      "constant": true,
      "inputs": [],
      "name": "getREP",
      "outputs": [
        {
          "name": "",
          "type": "address"
        }
      ],
      "payable": false,
      "stateMutability": "view",
      "type": "function"
    },
    {
      "constant": true,
      "inputs": [],
      "name": "getOwner",
      "outputs": [
        {
          "name": "",
          "type": "address"
        }
      ],
      "payable": false,
      "stateMutability": "view",
      "type": "function"
    },
    {
      "constant": true,
      "inputs": [],
      "name": "m_roundNumber",
      "outputs": [
        {
          "name": "",
          "type": "uint256"
        }
      ],
      "payable": false,
      "stateMutability": "view",
      "type": "function"
    },
    {
      "constant": true,
      "inputs": [],
      "name": "m_payoutDistributionHash",
      "outputs": [
        {
          "name": "",
          "type": "bytes32"
        }
      ],
      "payable": false,
      "stateMutability": "view",
      "type": "function"
    },
    {
      "constant": true,
      "inputs": [],
      "name": "feeReceiver",
      "outputs": [
        {
          "name": "",
          "type": "address"
        }
      ],
      "payable": false,
      "stateMutability": "view",
      "type": "function"
    },
    {
      "constant": true,
      "inputs": [],
      "name": "m_windowStart",
      "outputs": [
        {
          "name": "",
          "type": "uint256"
        }
      ],
      "payable": false,
      "stateMutability": "view",
      "type": "function"
    },
    {
      "constant": false,
      "inputs": [],
      "name": "approveManagerToSpendDisputeTokens",
      "outputs": [],
      "payable": false,
      "stateMutability": "nonpayable",
      "type": "function"
    },
    {
      "constant": true,
      "inputs": [],
      "name": "hasDisputed",
      "outputs": [
        {
          "name": "",
          "type": "bool"
        }
      ],
      "payable": false,
      "stateMutability": "view",
      "type": "function"
    },
    {
      "constant": true,
      "inputs": [],
      "name": "m_owner",
      "outputs": [
        {
          "name": "",
          "type": "address"
        }
      ],
      "payable": false,
      "stateMutability": "view",
      "type": "function"
    },
    {
      "constant": true,
      "inputs": [],
      "name": "m_cumulativeDisputeStakeInOurOutcome",
      "outputs": [
        {
          "name": "",
          "type": "uint256"
        }
      ],
      "payable": false,
      "stateMutability": "view",
      "type": "function"
    },
    {
      "constant": true,
      "inputs": [],
      "name": "m_cumulativeDisputeStake",
      "outputs": [
        {
          "name": "",
          "type": "uint256"
        }
      ],
      "payable": false,
      "stateMutability": "view",
      "type": "function"
    },
    {
      "constant": false,
      "inputs": [
        {
          "name": "feeReceiver",
          "type": "address"
        }
      ],
      "name": "dispute",
      "outputs": [],
      "payable": false,
      "stateMutability": "nonpayable",
      "type": "function"
    },
    {
      "inputs": [
        {
          "name": "owner",
          "type": "address"
        },
        {
          "name": "market",
          "type": "address"
        },
        {
          "name": "feeWindowId",
          "type": "uint256"
        },
        {
          "name": "payoutNumerators",
          "type": "uint256[]"
        },
        {
          "name": "invalid",
          "type": "bool"
        }
      ],
      "payable": false,
      "stateMutability": "nonpayable",
      "type": "constructor"
    },
    {
      "constant": true,
      "inputs": [],
      "name": "inferRoundNumber",
      "outputs": [
        {
          "name": "",
          "type": "uint256"
        }
      ],
      "payable": false,
      "stateMutability": "view",
      "type": "function"
    },
    {
      "constant": false,
      "inputs": [],
      "name": "processCumulativeRounds",
      "outputs": [],
      "payable": false,
      "stateMutability": "nonpayable",
      "type": "function"
    },
    {
      "constant": true,
      "inputs": [],
      "name": "shouldProcessCumulativeRounds",
      "outputs": [
        {
          "name": "",
          "type": "bool"
        }
      ],
      "payable": false,
      "stateMutability": "view",
      "type": "function"
    }
  ],
  "bytecode": "0x608060405260018054600160a060020a03191690553480156200002157600080fd5b50604051620023c3380380620023c383398101604090815281516020830151918301516060840151608085015192949192910190600080600160a060020a03861615156200006f57620002af565b620000878787878787640100000000620002bc810204565b85600160a060020a031663870c426d6040518163ffffffff167c0100000000000000000000000000000000000000000000000000000000028152600401602060405180830381600087803b158015620000df57600080fd5b505af1158015620000f4573d6000803e3d6000fd5b505050506040513d60208110156200010b57600080fd5b5051604080517f331172f30000000000000000000000000000000000000000000000000000000081529051919350600160a060020a0384169163331172f3916004808201926020929091908290030181600087803b1580156200016d57600080fd5b505af115801562000182573d6000803e3d6000fd5b505050506040513d60208110156200019957600080fd5b5051858102600855600186018102600955604080517f2443f0ae000000000000000000000000000000000000000000000000000000008152851515602482015260048101918252865160448201528651929350600160a060020a03891692632443f0ae92889288928291606401906020868101910280838360005b838110156200022e57818101518382015260200162000214565b505050509050019350505050602060405180830381600087803b1580156200025557600080fd5b505af11580156200026a573d6000803e3d6000fd5b505050506040513d60208110156200028157600080fd5b5051600a5562000299640100000000620004e2810204565b600b55620002af64010000000062000970810204565b5050505050505062000d97565b60008054600160a060020a03808816600160a060020a0319928316179092556040805160808101825292871680845260208085018890529184018690528415156060850152600280549093161782556003869055845162000324916004919087019062000d2a565b50606091909101516003909101805460ff19169115159190911790556200035364010000000062000c96810204565b60068054600160a060020a031916600160a060020a03928316179081905560008054604080517f095ea7b30000000000000000000000000000000000000000000000000000000081529185166004830152600019602483015251929093169263095ea7b39260448083019360209383900390910190829087803b158015620003da57600080fd5b505af1158015620003ef573d6000803e3d6000fd5b505050506040513d60208110156200040657600080fd5b505115156200041157fe5b600160a060020a03841615620004c957600654604080517f095ea7b3000000000000000000000000000000000000000000000000000000008152600160a060020a03878116600483015260001960248301529151919092169163095ea7b39160448083019260209291908290030181600087803b1580156200049257600080fd5b505af1158015620004a7573d6000803e3d6000fd5b505050506040513d6020811015620004be57600080fd5b50511515620004c957fe5b505060078054600160a060020a03191630179055505050565b6000806000806000806000806000600260000160009054906101000a9004600160a060020a0316975087600160a060020a031663870c426d6040518163ffffffff167c0100000000000000000000000000000000000000000000000000000000028152600401602060405180830381600087803b1580156200056357600080fd5b505af115801562000578573d6000803e3d6000fd5b505050506040513d60208110156200058f57600080fd5b5051604080517fbecb1f350000000000000000000000000000000000000000000000000000000081529051919850600160a060020a0389169163becb1f35916004808201926020929091908290030181600087803b158015620005f157600080fd5b505af115801562000606573d6000803e3d6000fd5b505050506040513d60208110156200061d57600080fd5b5051156200062a57600080fd5b600254604080517ff77f29b10000000000000000000000000000000000000000000000000000000081529051600160a060020a039092169163f77f29b1916004808201926020929091908290030181600087803b1580156200068b57600080fd5b505af1158015620006a0573d6000803e3d6000fd5b505050506040513d6020811015620006b757600080fd5b50519550600160a060020a03861615156200077f57604080517f08c379a000000000000000000000000000000000000000000000000000000000815260206004820152604760248201527f6d61676963206f662063686f6f73696e6720726f756e64206e756d626572206260448201527f792074696d657374616d70206f6e6c7920776f726b7320647572696e6720646960648201527f73707574696e6700000000000000000000000000000000000000000000000000608482015290519081900360a40190fd5b87600160a060020a031663fd478ca96040518163ffffffff167c0100000000000000000000000000000000000000000000000000000000028152600401602060405180830381600087803b158015620007d757600080fd5b505af1158015620007ec573d6000803e3d6000fd5b505050506040513d60208110156200080357600080fd5b5051604080517f331172f30000000000000000000000000000000000000000000000000000000081529051919650600160a060020a0389169163331172f3916004808201926020929091908290030181600087803b1580156200086557600080fd5b505af11580156200087a573d6000803e3d6000fd5b505050506040513d60208110156200089157600080fd5b5051604080517fc828371e0000000000000000000000000000000000000000000000000000000081529051919550600160a060020a0388169163c828371e916004808201926020929091908290030181600087803b158015620008f357600080fd5b505af115801562000908573d6000803e3d6000fd5b505050506040513d60208110156200091f57600080fd5b50516008549093508311156200093457600080fd5b8260085403915083828115156200094757fe5b06156200095357600080fd5b83828115156200095f57fe5b049490940198975050505050505050565b600254604080517f8d4e40830000000000000000000000000000000000000000000000000000000081529051600160a060020a0390921691600091829182918591638d4e40839160048082019260209290919082900301818787803b158015620009d957600080fd5b505af1158015620009ee573d6000803e3d6000fd5b505050506040513d602081101562000a0557600080fd5b50511562000a1257600080fd5b83600160a060020a031663fd478ca96040518163ffffffff167c0100000000000000000000000000000000000000000000000000000000028152600401602060405180830381600087803b15801562000a6a57600080fd5b505af115801562000a7f573d6000803e3d6000fd5b505050506040513d602081101562000a9657600080fd5b505192505b82600e5410801562000ab05750600b54600e54105b1562000c905783600160a060020a031663bbd37ef3600e546040518263ffffffff167c010000000000000000000000000000000000000000000000000000000002815260040180828152602001915050602060405180830381600087803b15801562000b1b57600080fd5b505af115801562000b30573d6000803e3d6000fd5b505050506040513d602081101562000b4757600080fd5b5051604080517ffc0e3d900000000000000000000000000000000000000000000000000000000081529051919350600160a060020a0384169163fc0e3d90916004808201926020929091908290030181600087803b15801562000ba957600080fd5b505af115801562000bbe573d6000803e3d6000fd5b505050506040513d602081101562000bd557600080fd5b5051600c805482019055600a54604080517fdd62f6f300000000000000000000000000000000000000000000000000000000815290519293509091600160a060020a0385169163dd62f6f39160048083019260209291908290030181600087803b15801562000c4357600080fd5b505af115801562000c58573d6000803e3d6000fd5b505050506040513d602081101562000c6f57600080fd5b5051141562000c8157600d8054820190555b600e8054600101905562000a9b565b50505050565b600254604080517fb80907f20000000000000000000000000000000000000000000000000000000081529051600092600160a060020a03169163b80907f291600480830192602092919082900301818787803b15801562000cf657600080fd5b505af115801562000d0b573d6000803e3d6000fd5b505050506040513d602081101562000d2257600080fd5b505190505b90565b82805482825590600052602060002090810192821562000d68579160200282015b8281111562000d6857825182559160200191906001019062000d4b565b5062000d7692915062000d7a565b5090565b62000d2791905b8082111562000d76576000815560010162000d81565b61161c8062000da76000396000f30060806040526004361061010e5763ffffffff60e060020a6000350416630229bfc181146101135780630ff2fd921461013c57806315298c77146101635780632e602752146101a25780633764ea00146101d357806355af7a83146101e85780635eccd424146101fd5780636199b4c4146102125780636a6be1d9146102275780636e3707231461023c5780636f2c83ee14610253578063893d20e814610268578063a7e9fa431461027d578063a825ba3d14610292578063b3f00674146102a7578063cab74986146102bc578063cadbbf63146102d1578063d18959a2146102e6578063deff41c1146102fb578063e6a1acff14610310578063eb840e4d14610325578063f75f9f7b1461033a575b600080fd5b34801561011f57600080fd5b5061012861035b565b604080519115158252519081900360200190f35b34801561014857600080fd5b5061015161047c565b60408051918252519081900360200190f35b34801561016f57600080fd5b50610178610482565b60408051600160a060020a0390941684526020840192909252151582820152519081900360600190f35b3480156101ae57600080fd5b506101b761049d565b60408051600160a060020a039092168252519081900360200190f35b3480156101df57600080fd5b506101b76104c8565b3480156101f457600080fd5b506101b76104d7565b34801561020957600080fd5b506101516104e6565b34801561021e57600080fd5b50610151610913565b34801561023357600080fd5b506101b7610919565b34801561024857600080fd5b50610251610928565b005b34801561025f57600080fd5b506101b7610c08565b34801561027457600080fd5b506101b7610c17565b34801561028957600080fd5b50610151610c26565b34801561029e57600080fd5b50610151610c2c565b3480156102b357600080fd5b506101b7610c32565b3480156102c857600080fd5b50610151610c5c565b3480156102dd57600080fd5b50610251610c62565b3480156102f257600080fd5b50610128610d1b565b34801561030757600080fd5b506101b7610d2c565b34801561031c57600080fd5b50610151610d3b565b34801561033157600080fd5b50610151610d41565b34801561034657600080fd5b50610251600160a060020a0360043516610d47565b600254604080517f8d4e40830000000000000000000000000000000000000000000000000000000081529051600092600160a060020a03169183918391638d4e408391600480830192602092919082900301818787803b1580156103be57600080fd5b505af11580156103d2573d6000803e3d6000fd5b505050506040513d60208110156103e857600080fd5b5051156103f457600080fd5b81600160a060020a031663fd478ca96040518163ffffffff1660e060020a028152600401602060405180830381600087803b15801561043257600080fd5b505af1158015610446573d6000803e3d6000fd5b505050506040513d602081101561045c57600080fd5b5051600b54600e54919250118015610475575080600e54105b9250505090565b60095481565b600254600354600554600160a060020a039092169160ff1683565b600754600090600160a060020a03163014156104b857600080fd5b50600754600160a060020a031690565b600754600160a060020a031681565b600154600160a060020a031681565b6000806000806000806000806000600260000160009054906101000a9004600160a060020a0316975087600160a060020a031663870c426d6040518163ffffffff1660e060020a028152600401602060405180830381600087803b15801561054d57600080fd5b505af1158015610561573d6000803e3d6000fd5b505050506040513d602081101561057757600080fd5b5051604080517fbecb1f350000000000000000000000000000000000000000000000000000000081529051919850600160a060020a0389169163becb1f35916004808201926020929091908290030181600087803b1580156105d857600080fd5b505af11580156105ec573d6000803e3d6000fd5b505050506040513d602081101561060257600080fd5b50511561060e57600080fd5b600254604080517ff77f29b10000000000000000000000000000000000000000000000000000000081529051600160a060020a039092169163f77f29b1916004808201926020929091908290030181600087803b15801561066e57600080fd5b505af1158015610682573d6000803e3d6000fd5b505050506040513d602081101561069857600080fd5b50519550600160a060020a0386161515610748576040805160e560020a62461bcd02815260206004820152604760248201527f6d61676963206f662063686f6f73696e6720726f756e64206e756d626572206260448201527f792074696d657374616d70206f6e6c7920776f726b7320647572696e6720646960648201527f73707574696e6700000000000000000000000000000000000000000000000000608482015290519081900360a40190fd5b87600160a060020a031663fd478ca96040518163ffffffff1660e060020a028152600401602060405180830381600087803b15801561078657600080fd5b505af115801561079a573d6000803e3d6000fd5b505050506040513d60208110156107b057600080fd5b5051604080517f331172f30000000000000000000000000000000000000000000000000000000081529051919650600160a060020a0389169163331172f3916004808201926020929091908290030181600087803b15801561081157600080fd5b505af1158015610825573d6000803e3d6000fd5b505050506040513d602081101561083b57600080fd5b5051604080517fc828371e0000000000000000000000000000000000000000000000000000000081529051919550600160a060020a0388169163c828371e916004808201926020929091908290030181600087803b15801561089c57600080fd5b505af11580156108b0573d6000803e3d6000fd5b505050506040513d60208110156108c657600080fd5b50516008549093508311156108da57600080fd5b8260085403915083828115156108ec57fe5b06156108f757600080fd5b838281151561090257fe5b049490940198975050505050505050565b600e5481565b600654600160a060020a031681565b600254604080517f8d4e40830000000000000000000000000000000000000000000000000000000081529051600160a060020a0390921691600091829182918591638d4e40839160048082019260209290919082900301818787803b15801561099057600080fd5b505af11580156109a4573d6000803e3d6000fd5b505050506040513d60208110156109ba57600080fd5b5051156109c657600080fd5b83600160a060020a031663fd478ca96040518163ffffffff1660e060020a028152600401602060405180830381600087803b158015610a0457600080fd5b505af1158015610a18573d6000803e3d6000fd5b505050506040513d6020811015610a2e57600080fd5b505192505b82600e54108015610a475750600b54600e54105b15610c025783600160a060020a031663bbd37ef3600e546040518263ffffffff1660e060020a02815260040180828152602001915050602060405180830381600087803b158015610a9757600080fd5b505af1158015610aab573d6000803e3d6000fd5b505050506040513d6020811015610ac157600080fd5b5051604080517ffc0e3d900000000000000000000000000000000000000000000000000000000081529051919350600160a060020a0384169163fc0e3d90916004808201926020929091908290030181600087803b158015610b2257600080fd5b505af1158015610b36573d6000803e3d6000fd5b505050506040513d6020811015610b4c57600080fd5b5051600c805482019055600a54604080517fdd62f6f300000000000000000000000000000000000000000000000000000000815290519293509091600160a060020a0385169163dd62f6f39160048083019260209291908290030181600087803b158015610bb957600080fd5b505af1158015610bcd573d6000803e3d6000fd5b505050506040513d6020811015610be357600080fd5b50511415610bf457600d8054820190555b600e80546001019055610a33565b50505050565b600654600160a060020a031690565b600054600160a060020a031690565b600b5481565b600a5481565b600154600090600160a060020a03161515610c4c57600080fd5b50600154600160a060020a031690565b60085481565b6000610c6c61049d565b60008054604080517f095ea7b3000000000000000000000000000000000000000000000000000000008152600160a060020a039283166004820152600019602482015290519394509084169263095ea7b392604480840193602093929083900390910190829087803b158015610ce157600080fd5b505af1158015610cf5573d6000803e3d6000fd5b505050506040513d6020811015610d0b57600080fd5b50511515610d1857600080fd5b50565b600154600160a060020a0316151590565b600054600160a060020a031681565b600d5481565b600c5481565b6001546000908190819081908190600160a060020a031615610db3576040805160e560020a62461bcd02815260206004820152601560248201527f43616e206f6e6c792064697370757465206f6e63650000000000000000000000604482015290519081900360640190fd5b610dbb611040565b600160a060020a0386161515610e1b576040805160e560020a62461bcd02815260206004820152601c60248201527f4d75737420686176652076616c69642066656520726563656976657200000000604482015290519081900360640190fd5b6001805473ffffffffffffffffffffffffffffffffffffffff1916600160a060020a038816179055610e4b610c08565b604080517f70a082310000000000000000000000000000000000000000000000000000000081523060048201529051919650600160a060020a038716916370a08231916024808201926020929091908290030181600087803b158015610eb057600080fd5b505af1158015610ec4573d6000803e3d6000fd5b505050506040513d6020811015610eda57600080fd5b50519350610ee661105f565b604080517f70a082310000000000000000000000000000000000000000000000000000000081523060048201529051919450600160a060020a038716916370a08231916024808201926020929091908290030181600087803b158015610f4b57600080fd5b505af1158015610f5f573d6000803e3d6000fd5b505050506040513d6020811015610f7557600080fd5b50516007805473ffffffffffffffffffffffffffffffffffffffff1916600160a060020a038616908117909155604080517f70a08231000000000000000000000000000000000000000000000000000000008152306004820152905192945090916370a08231916024808201926020929091908290030181600087803b158015610ffe57600080fd5b505af1158015611012573d6000803e3d6000fd5b505050506040513d602081101561102857600080fd5b5051905081810184111561103857fe5b505050505050565b60085442118015611052575060095442105b151561105d57600080fd5b565b600080600080600080600080600b54600e54101561107f5761107f610928565b60028054600d54600c54600a54604080517fc35c08bd000000000000000000000000000000000000000000000000000000008152600481019290925251600160a060020a039094169b5060001960039093029190940203019750889163c35c08bd9160248083019260209291908290030181600087803b15801561110257600080fd5b505af1158015611116573d6000803e3d6000fd5b505050506040513d602081101561112c57600080fd5b50519450600160a060020a038516156111ae5784600160a060020a031663fc0e3d906040518163ffffffff1660e060020a028152600401602060405180830381600087803b15801561117d57600080fd5b505af1158015611191573d6000803e3d6000fd5b505050506040513d60208110156111a757600080fd5b50516111b1565b60005b935085841061120a576040805160e560020a62461bcd02815260206004820152600f60248201527f57652061726520746f6f206c6174650000000000000000000000000000000000604482015290519081900360640190fd5b8386039250611217610c08565b600160a060020a03166370a08231306040518263ffffffff1660e060020a0281526004018082600160a060020a0316600160a060020a03168152602001915050602060405180830381600087803b15801561127157600080fd5b505af1158015611285573d6000803e3d6000fd5b505050506040513d602081101561129b57600080fd5b5051600554909250600160a060020a038816906358e61e129060049060ff168686116112c757856112c9565b865b6040518463ffffffff1660e060020a028152600401808060200184151515158152602001838152602001828103825285818154815260200191508054801561133057602002820191906000526020600020905b81548152602001906001019080831161131c575b5050945050505050602060405180830381600087803b15801561135257600080fd5b505af1158015611366573d6000803e3d6000fd5b505050506040513d602081101561137c57600080fd5b5051151561138957600080fd5b600b5487600160a060020a031663fd478ca96040518163ffffffff1660e060020a028152600401602060405180830381600087803b1580156113ca57600080fd5b505af11580156113de573d6000803e3d6000fd5b505050506040513d60208110156113f457600080fd5b5051141561149457600a54604080517fc35c08bd000000000000000000000000000000000000000000000000000000008152600481019290925251600160a060020a0389169163c35c08bd9160248083019260209291908290030181600087803b15801561146157600080fd5b505af1158015611475573d6000803e3d6000fd5b505050506040513d602081101561148b57600080fd5b505197506115e6565b86600160a060020a0316636e1066286040518163ffffffff1660e060020a028152600401602060405180830381600087803b1580156114d257600080fd5b505af11580156114e6573d6000803e3d6000fd5b505050506040513d60208110156114fc57600080fd5b5051600a54604080517fdd62f6f300000000000000000000000000000000000000000000000000000000815290519293509091600160a060020a0384169163dd62f6f39160048083019260209291908290030181600087803b15801561156157600080fd5b505af1158015611575573d6000803e3d6000fd5b505050506040513d602081101561158b57600080fd5b5051146115e2576040805160e560020a62461bcd02815260206004820152601a60248201527f57726f6e672077696e6e696e67207061727469636970616e743f000000000000604482015290519081900360640190fd5b8097505b50505050505050905600a165627a7a7230582014f7810e187ab4d09334c9e888b42fb9c7cb3b2d983bc16eb21ecaf6ba76bab40029",
  "source": "pragma solidity 0.4.24;\n\nimport \"./BaseDisputer.sol\";\nimport \"./IDisputer.sol\";\nimport \"./augur/market.sol\";\n\n/**\n * Only the code that really interacts with Augur should be place here,\n * the rest goes into BaseDisputer for better testability.\n */\ncontract Disputer is BaseDisputer {\n  uint256 public m_windowStart;\n  uint256 public m_windowEnd;\n  bytes32 public m_payoutDistributionHash;\n  uint256 public m_roundNumber;\n\n  // we will keep track of all contributions made so far\n  uint256 public m_cumulativeDisputeStake;\n  uint256 public m_cumulativeDisputeStakeInOurOutcome;\n  uint256 public m_cumulativeRoundsProcessed;\n\n  constructor(\n    address owner,\n    Market market,\n    uint256 feeWindowId,\n    uint256[] payoutNumerators,\n    bool invalid\n  ) public {\n    if (address(market) == 0) {\n      // needed for easier instantiation for tests, etc.\n      // this will be a _very_ crappy uninitialized instance of Disputer\n      return;\n    }\n\n    baseInit(owner, market, feeWindowId, payoutNumerators, invalid);\n\n    Universe universe = market.getUniverse();\n    uint256 disputeRoundDuration = universe.getDisputeRoundDurationInSeconds();\n    m_windowStart = feeWindowId * disputeRoundDuration;\n    m_windowEnd = (feeWindowId + 1) * disputeRoundDuration;\n\n    m_payoutDistributionHash = market.derivePayoutDistributionHash(\n      payoutNumerators,\n      invalid\n    );\n\n    m_roundNumber = inferRoundNumber();\n\n    processCumulativeRounds();\n  }\n\n  function inferRoundNumber() public view returns(uint256) {\n    Market market = m_params.market;\n    Universe universe = market.getUniverse();\n    require(!universe.isForking());\n\n    FeeWindow feeWindow = m_params.market.getFeeWindow();\n    require(\n      address(feeWindow) != 0,\n      \"magic of choosing round number by timestamp only works during disputing\"\n    );\n    // once there is a fee window, it always corresponds to next round\n    uint256 nextParticipant = market.getNumParticipants();\n    uint256 disputeRoundDuration = universe.getDisputeRoundDurationInSeconds();\n    uint256 nextParticipantFeeWindowStart = feeWindow.getStartTime();\n    require(m_windowStart >= nextParticipantFeeWindowStart);\n    uint256 feeWindowDifferenceSeconds = m_windowStart - nextParticipantFeeWindowStart;\n    require(feeWindowDifferenceSeconds % disputeRoundDuration == 0);\n    uint256 feeWindowDifferenceRounds = feeWindowDifferenceSeconds / disputeRoundDuration;\n    return nextParticipant + feeWindowDifferenceRounds;\n  }\n\n  // anyone can call this to keep disputer up to date w.r.t. latest rounds sizes\n  function processCumulativeRounds() public {\n    Market market = m_params.market;\n    require(!market.isFinalized());\n    uint256 numParticipants = market.getNumParticipants();\n\n    while (m_cumulativeRoundsProcessed < numParticipants && m_cumulativeRoundsProcessed < m_roundNumber) {\n      ReportingParticipant participant = market.getReportingParticipant(\n        m_cumulativeRoundsProcessed\n      );\n      uint256 stake = participant.getStake();\n      m_cumulativeDisputeStake += stake;\n      if (participant.getPayoutDistributionHash() == m_payoutDistributionHash) {\n        m_cumulativeDisputeStakeInOurOutcome += stake;\n      }\n      ++m_cumulativeRoundsProcessed;\n    }\n  }\n\n  function shouldProcessCumulativeRounds() public view returns(bool) {\n    Market market = m_params.market;\n    require(!market.isFinalized());\n    uint256 numParticipants = market.getNumParticipants();\n    return m_cumulativeRoundsProcessed < m_roundNumber && m_cumulativeRoundsProcessed < numParticipants;\n  }\n\n  function preDisputeCheck() internal {\n    // most frequent reasons for failure, to fail early and save gas\n    // solhint-disable-next-line not-rely-on-time\n    require(block.timestamp > m_windowStart && block.timestamp < m_windowEnd);\n  }\n\n  /**\n   * This function should use as little gas as possible, as it will be called\n   * during rush time. Unnecessary operations are postponed for later.\n   *\n   * Can only be called once.\n   */\n  function disputeImpl() internal returns(IERC20) {\n    if (m_cumulativeRoundsProcessed < m_roundNumber) {\n      // hopefully we won't need it, we should prepare contract a few days\n      // before time T\n      processCumulativeRounds();\n    }\n\n    Market market = m_params.market;\n\n    // don't waste gas on safe math\n    uint256 roundSizeMinusOne = 2 * m_cumulativeDisputeStake - 3 * m_cumulativeDisputeStakeInOurOutcome - 1;\n\n    ReportingParticipant crowdsourcerBefore = market.getCrowdsourcer(\n      m_payoutDistributionHash\n    );\n    uint256 alreadyContributed = address(\n      crowdsourcerBefore\n    ) == 0 ? 0 : crowdsourcerBefore.getStake();\n\n    require(alreadyContributed < roundSizeMinusOne, \"We are too late\");\n\n    uint256 optimalContributionSize = roundSizeMinusOne - alreadyContributed;\n    uint256 ourBalance = getREP().balanceOf(this);\n\n    require(\n      market.contribute(\n        m_params.payoutNumerators,\n        m_params.invalid,\n        ourBalance > optimalContributionSize ? optimalContributionSize : ourBalance\n      )\n    );\n\n    if (market.getNumParticipants() == m_roundNumber) {\n      // we are still within current round\n      return market.getCrowdsourcer(m_payoutDistributionHash);\n    } else {\n      // We somehow overfilled the round. This sucks, but let's try to recover.\n      ReportingParticipant participant = market.getWinningReportingParticipant(\n\n      );\n      require(\n        participant.getPayoutDistributionHash() == m_payoutDistributionHash,\n        \"Wrong winning participant?\"\n      );\n      return IERC20(address(participant));\n    }\n  }\n\n  function getREPImpl() internal view returns(IERC20) {\n    return m_params.market.getReputationToken();\n  }\n}\n",
  "sourcePath": "/src/contracts/Disputer.sol",
  "compiler": {
    "name": "solc",
    "version": "0.4.24+commit.e67f0147.Emscripten.clang"
  },
  "schemaVersion": "2.0.1",
  "updatedAt": "2018-11-06T03:07:09.646Z"
}