{
  "contractName": "DisputerFactory",
  "abi": [
    {
      "anonymous": false,
      "inputs": [
        {
          "indexed": false,
          "name": "_owner",
          "type": "address"
        },
        {
          "indexed": false,
          "name": "_address",
          "type": "address"
        },
        {
          "indexed": false,
          "name": "market",
          "type": "address"
        },
        {
          "indexed": false,
          "name": "feeWindowId",
          "type": "uint256"
        },
        {
          "indexed": false,
          "name": "payoutNumerators",
          "type": "uint256[]"
        },
        {
          "indexed": false,
          "name": "invalid",
          "type": "bool"
        }
      ],
      "name": "DisputerCreated",
      "type": "event"
    },
    {
      "constant": false,
      "inputs": [
        {
          "name": "owner",
          "type": "address"
        },
        {
          "name": "market",
          "type": "address"
        },
        {
          "name": "feeWindowId",
          "type": "uint256"
        },
        {
          "name": "payoutNumerators",
          "type": "uint256[]"
        },
        {
          "name": "invalid",
          "type": "bool"
        }
      ],
      "name": "create",
      "outputs": [
        {
          "name": "",
          "type": "address"
        }
      ],
      "payable": false,
      "stateMutability": "nonpayable",
      "type": "function"
    }
  ],
  "bytecode": "0x608060405234801561001057600080fd5b50610ead806100206000396000f300608060405260043610610041576000357c0100000000000000000000000000000000000000000000000000000000900463ffffffff168063bdb1300214610046575b600080fd5b34801561005257600080fd5b506100d5600480360381019080803573ffffffffffffffffffffffffffffffffffffffff169060200190929190803573ffffffffffffffffffffffffffffffffffffffff16906020019092919080359060200190929190803590602001908201803590602001919091929391929390803515159060200190929190505050610117565b604051808273ffffffffffffffffffffffffffffffffffffffff1673ffffffffffffffffffffffffffffffffffffffff16815260200191505060405180910390f35b6000808787878787876101286102f7565b808773ffffffffffffffffffffffffffffffffffffffff1673ffffffffffffffffffffffffffffffffffffffff1681526020018673ffffffffffffffffffffffffffffffffffffffff1673ffffffffffffffffffffffffffffffffffffffff168152602001858152602001806020018315151515815260200182810382528585828181526020019250602002808284378201915050975050505050505050604051809103906000f0801580156101e2573d6000803e3d6000fd5b5090507fdc33eb9102aa503367a57c7a80dce32304f72659b35fbeec109348e46934b3d688828989898989604051808873ffffffffffffffffffffffffffffffffffffffff1673ffffffffffffffffffffffffffffffffffffffff1681526020018773ffffffffffffffffffffffffffffffffffffffff1673ffffffffffffffffffffffffffffffffffffffff1681526020018673ffffffffffffffffffffffffffffffffffffffff1673ffffffffffffffffffffffffffffffffffffffff1681526020018581526020018060200183151515158152602001828103825285858281815260200192506020028082843782019150509850505050505050505060405180910390a1809150509695505050505050565b604051610b7a8061030883390190560060806040526000600160006101000a81548173ffffffffffffffffffffffffffffffffffffffff021916908373ffffffffffffffffffffffffffffffffffffffff16021790555034801561005257600080fd5b50604051610b7a380380610b7a83398101806040528101908080519060200190929190805190602001909291908051906020019092919080518201929190602001805190602001909291905050506100bc85858585856100c6640100000000026401000000009004565b505050505061039d565b6000856000806101000a81548173ffffffffffffffffffffffffffffffffffffffff021916908373ffffffffffffffffffffffffffffffffffffffff16021790555061011f61031d640100000000026401000000009004565b90508073ffffffffffffffffffffffffffffffffffffffff1663095ea7b36000809054906101000a900473ffffffffffffffffffffffffffffffffffffffff167fffffffffffffffffffffffffffffffffffffffffffffffffffffffffffffffff6040518363ffffffff167c0100000000000000000000000000000000000000000000000000000000028152600401808373ffffffffffffffffffffffffffffffffffffffff1673ffffffffffffffffffffffffffffffffffffffff16815260200182815260200192505050602060405180830381600087803b15801561020557600080fd5b505af1158015610219573d6000803e3d6000fd5b505050506040513d602081101561022f57600080fd5b8101908080519060200190929190505050151561024857fe5b6080604051908101604052808673ffffffffffffffffffffffffffffffffffffffff168152602001858152602001848152602001831515815250600260008201518160000160006101000a81548173ffffffffffffffffffffffffffffffffffffffff021916908373ffffffffffffffffffffffffffffffffffffffff1602179055506020820151816001015560408201518160020190805190602001906102f192919061032b565b5060608201518160030160006101000a81548160ff021916908315150217905550905050505050505050565b600080151561032857fe5b90565b828054828255906000526020600020908101928215610367579160200282015b8281111561036657825182559160200191906001019061034b565b5b5090506103749190610378565b5090565b61039a91905b8082111561039657600081600090555060010161037e565b5090565b90565b6107ce806103ac6000396000f3006080604052600436106100a4576000357c0100000000000000000000000000000000000000000000000000000000900463ffffffff1680632e602752146100a957806355af7a83146101005780636f2c83ee14610157578063893d20e8146101ae578063b3f0067414610205578063cadbbf631461025c578063cff0ab9614610273578063d18959a2146102dc578063deff41c11461030b578063f75f9f7b14610362575b600080fd5b3480156100b557600080fd5b506100be6103a5565b604051808273ffffffffffffffffffffffffffffffffffffffff1673ffffffffffffffffffffffffffffffffffffffff16815260200191505060405180910390f35b34801561010c57600080fd5b506101156103b3565b604051808273ffffffffffffffffffffffffffffffffffffffff1673ffffffffffffffffffffffffffffffffffffffff16815260200191505060405180910390f35b34801561016357600080fd5b5061016c6103d9565b604051808273ffffffffffffffffffffffffffffffffffffffff1673ffffffffffffffffffffffffffffffffffffffff16815260200191505060405180910390f35b3480156101ba57600080fd5b506101c36103e7565b604051808273ffffffffffffffffffffffffffffffffffffffff1673ffffffffffffffffffffffffffffffffffffffff16815260200191505060405180910390f35b34801561021157600080fd5b5061021a610410565b604051808273ffffffffffffffffffffffffffffffffffffffff1673ffffffffffffffffffffffffffffffffffffffff16815260200191505060405180910390f35b34801561026857600080fd5b5061027161043a565b005b34801561027f57600080fd5b50610288610570565b604051808473ffffffffffffffffffffffffffffffffffffffff1673ffffffffffffffffffffffffffffffffffffffff16815260200183815260200182151515158152602001935050505060405180910390f35b3480156102e857600080fd5b506102f16105b5565b604051808215151515815260200191505060405180910390f35b34801561031757600080fd5b506103206105f8565b604051808273ffffffffffffffffffffffffffffffffffffffff1673ffffffffffffffffffffffffffffffffffffffff16815260200191505060405180910390f35b34801561036e57600080fd5b506103a3600480360381019080803573ffffffffffffffffffffffffffffffffffffffff16906020019092919050505061061d565b005b60008015156103b057fe5b90565b600160009054906101000a900473ffffffffffffffffffffffffffffffffffffffff1681565b60008015156103e457fe5b90565b60008060009054906101000a900473ffffffffffffffffffffffffffffffffffffffff16905090565b6000600160009054906101000a900473ffffffffffffffffffffffffffffffffffffffff16905090565b60006104446103a5565b90508073ffffffffffffffffffffffffffffffffffffffff1663095ea7b36000809054906101000a900473ffffffffffffffffffffffffffffffffffffffff167fffffffffffffffffffffffffffffffffffffffffffffffffffffffffffffffff6040518363ffffffff167c0100000000000000000000000000000000000000000000000000000000028152600401808373ffffffffffffffffffffffffffffffffffffffff1673ffffffffffffffffffffffffffffffffffffffff16815260200182815260200192505050602060405180830381600087803b15801561052a57600080fd5b505af115801561053e573d6000803e3d6000fd5b505050506040513d602081101561055457600080fd5b8101908080519060200190929190505050151561056d57fe5b50565b60028060000160009054906101000a900473ffffffffffffffffffffffffffffffffffffffff16908060010154908060030160009054906101000a900460ff16905083565b600080600160009054906101000a900473ffffffffffffffffffffffffffffffffffffffff1673ffffffffffffffffffffffffffffffffffffffff161415905090565b6000809054906101000a900473ffffffffffffffffffffffffffffffffffffffff1681565b8060008173ffffffffffffffffffffffffffffffffffffffff16141515156106ad576040517f08c379a000000000000000000000000000000000000000000000000000000000815260040180806020018281038252601c8152602001807f4d75737420686176652076616c6964206665652072656365697665720000000081525060200191505060405180910390fd5b6000600160009054906101000a900473ffffffffffffffffffffffffffffffffffffffff1673ffffffffffffffffffffffffffffffffffffffff1614151561075d576040517f08c379a00000000000000000000000000000000000000000000000000000000081526004018080602001828103825260158152602001807f43616e206f6e6c792064697370757465206f6e6365000000000000000000000081525060200191505060405180910390fd5b80600160006101000a81548173ffffffffffffffffffffffffffffffffffffffff021916908373ffffffffffffffffffffffffffffffffffffffff16021790555050505600a165627a7a7230582097de7518f82d7b86c5004e00abe4afb7e52dd3f26efae3cbf8a581423b5d27c50029a165627a7a72305820e9d08151df9c6378b889baed4bdebd3d01ebb12e4151582f3b1220456805bcab0029",
  "source": "pragma solidity ^0.4.24;\n\nimport \"./IDisputerFactory.sol\";\nimport \"./IDisputer.sol\";\nimport \"./Disputer.sol\";\n\ncontract DisputerFactory is IDisputerFactory {\n  function create(\n    address owner,\n    address market,\n    uint256 feeWindowId,\n    uint256[] payoutNumerators,\n    bool invalid\n  ) external returns (IDisputer) {\n    IDisputer _address = new Disputer(\n      owner,\n      market,\n      feeWindowId,\n      payoutNumerators,\n      invalid\n    );\n    emit DisputerCreated(\n      owner,\n      _address,\n      market,\n      feeWindowId,\n      payoutNumerators,\n      invalid\n    );\n    return _address;\n  }\n}\n",
  "sourcePath": "/src/contracts/DisputerFactory.sol",
  "compiler": {
    "name": "solc",
    "version": "0.4.24+commit.e67f0147.Emscripten.clang"
  },
  "schemaVersion": "2.0.1",
  "updatedAt": "2018-10-30T03:09:45.254Z"
}