{
  "contractName": "Disputer",
  "abi": [
    {
      "constant": true,
      "inputs": [],
      "name": "m_params",
      "outputs": [
        {
          "name": "market",
          "type": "address"
        },
        {
          "name": "feeWindowId",
          "type": "uint256"
        },
        {
          "name": "invalid",
          "type": "bool"
        }
      ],
      "payable": false,
      "stateMutability": "view",
      "type": "function"
    },
    {
      "constant": true,
      "inputs": [],
      "name": "getDisputeTokenAddress",
      "outputs": [
        {
          "name": "",
          "type": "address"
        }
      ],
      "payable": false,
      "stateMutability": "view",
      "type": "function"
    },
    {
      "constant": true,
      "inputs": [],
      "name": "m_feeReceiver",
      "outputs": [
        {
          "name": "",
          "type": "address"
        }
      ],
      "payable": false,
      "stateMutability": "view",
      "type": "function"
    },
    {
      "constant": true,
      "inputs": [],
      "name": "getREP",
      "outputs": [
        {
          "name": "",
          "type": "address"
        }
      ],
      "payable": false,
      "stateMutability": "view",
      "type": "function"
    },
    {
      "constant": true,
      "inputs": [],
      "name": "getOwner",
      "outputs": [
        {
          "name": "",
          "type": "address"
        }
      ],
      "payable": false,
      "stateMutability": "view",
      "type": "function"
    },
    {
      "constant": true,
      "inputs": [],
      "name": "feeReceiver",
      "outputs": [
        {
          "name": "",
          "type": "address"
        }
      ],
      "payable": false,
      "stateMutability": "view",
      "type": "function"
    },
    {
      "constant": false,
      "inputs": [],
      "name": "approveManagerToSpendDisputeTokens",
      "outputs": [],
      "payable": false,
      "stateMutability": "nonpayable",
      "type": "function"
    },
    {
      "constant": true,
      "inputs": [],
      "name": "hasDisputed",
      "outputs": [
        {
          "name": "",
          "type": "bool"
        }
      ],
      "payable": false,
      "stateMutability": "view",
      "type": "function"
    },
    {
      "constant": true,
      "inputs": [],
      "name": "m_owner",
      "outputs": [
        {
          "name": "",
          "type": "address"
        }
      ],
      "payable": false,
      "stateMutability": "view",
      "type": "function"
    },
    {
      "inputs": [
        {
          "name": "owner",
          "type": "address"
        },
        {
          "name": "market",
          "type": "address"
        },
        {
          "name": "feeWindowId",
          "type": "uint256"
        },
        {
          "name": "payoutNumerators",
          "type": "uint256[]"
        },
        {
          "name": "invalid",
          "type": "bool"
        }
      ],
      "payable": false,
      "stateMutability": "nonpayable",
      "type": "constructor"
    },
    {
      "constant": false,
      "inputs": [
        {
          "name": "feeReceiver",
          "type": "address"
        }
      ],
      "name": "dispute",
      "outputs": [],
      "payable": false,
      "stateMutability": "nonpayable",
      "type": "function"
    }
  ],
  "bytecode": "0x60806040526000600160006101000a81548173ffffffffffffffffffffffffffffffffffffffff021916908373ffffffffffffffffffffffffffffffffffffffff1602179055503480156200005357600080fd5b5060405162001014380380620010148339810180604052810190808051906020019092919080519060200190929190805190602001909291908051820192919060200180519060200190929190505050620000c18585858585620000cc640100000000026401000000009004565b505050505062000452565b846000806101000a81548173ffffffffffffffffffffffffffffffffffffffff021916908373ffffffffffffffffffffffffffffffffffffffff1602179055506080604051908101604052808573ffffffffffffffffffffffffffffffffffffffff168152602001848152602001838152602001821515815250600260008201518160000160006101000a81548173ffffffffffffffffffffffffffffffffffffffff021916908373ffffffffffffffffffffffffffffffffffffffff160217905550602082015181600101556040820151816002019080519060200190620001b7929190620003d8565b5060608201518160030160006101000a81548160ff021916908315150217905550905050620001f4620003c9640100000000026401000000009004565b600660006101000a81548173ffffffffffffffffffffffffffffffffffffffff021916908373ffffffffffffffffffffffffffffffffffffffff160217905550600660009054906101000a900473ffffffffffffffffffffffffffffffffffffffff1673ffffffffffffffffffffffffffffffffffffffff1663095ea7b36000809054906101000a900473ffffffffffffffffffffffffffffffffffffffff167fffffffffffffffffffffffffffffffffffffffffffffffffffffffffffffffff6040518363ffffffff167c0100000000000000000000000000000000000000000000000000000000028152600401808373ffffffffffffffffffffffffffffffffffffffff1673ffffffffffffffffffffffffffffffffffffffff16815260200182815260200192505050602060405180830381600087803b1580156200033b57600080fd5b505af115801562000350573d6000803e3d6000fd5b505050506040513d60208110156200036757600080fd5b810190808051906020019092919050505015156200038157fe5b30600760006101000a81548173ffffffffffffffffffffffffffffffffffffffff021916908373ffffffffffffffffffffffffffffffffffffffff1602179055505050505050565b6000801515620003d557fe5b90565b82805482825590600052602060002090810192821562000417579160200282015b8281111562000416578251825591602001919060010190620003f9565b5b5090506200042691906200042a565b5090565b6200044f91905b808211156200044b57600081600090555060010162000431565b5090565b90565b610bb280620004626000396000f3006080604052600436106100a4576000357c0100000000000000000000000000000000000000000000000000000000900463ffffffff16806315298c77146100a95780632e6027521461011257806355af7a83146101695780636f2c83ee146101c0578063893d20e814610217578063b3f006741461026e578063cadbbf63146102c5578063d18959a2146102dc578063deff41c11461030b578063f75f9f7b14610362575b600080fd5b3480156100b557600080fd5b506100be6103a5565b604051808473ffffffffffffffffffffffffffffffffffffffff1673ffffffffffffffffffffffffffffffffffffffff16815260200183815260200182151515158152602001935050505060405180910390f35b34801561011e57600080fd5b506101276103ea565b604051808273ffffffffffffffffffffffffffffffffffffffff1673ffffffffffffffffffffffffffffffffffffffff16815260200191505060405180910390f35b34801561017557600080fd5b5061017e610471565b604051808273ffffffffffffffffffffffffffffffffffffffff1673ffffffffffffffffffffffffffffffffffffffff16815260200191505060405180910390f35b3480156101cc57600080fd5b506101d5610497565b604051808273ffffffffffffffffffffffffffffffffffffffff1673ffffffffffffffffffffffffffffffffffffffff16815260200191505060405180910390f35b34801561022357600080fd5b5061022c6104c1565b604051808273ffffffffffffffffffffffffffffffffffffffff1673ffffffffffffffffffffffffffffffffffffffff16815260200191505060405180910390f35b34801561027a57600080fd5b506102836104ea565b604051808273ffffffffffffffffffffffffffffffffffffffff1673ffffffffffffffffffffffffffffffffffffffff16815260200191505060405180910390f35b3480156102d157600080fd5b506102da61055b565b005b3480156102e857600080fd5b506102f1610694565b604051808215151515815260200191505060405180910390f35b34801561031757600080fd5b506103206106d7565b604051808273ffffffffffffffffffffffffffffffffffffffff1673ffffffffffffffffffffffffffffffffffffffff16815260200191505060405180910390f35b34801561036e57600080fd5b506103a3600480360381019080803573ffffffffffffffffffffffffffffffffffffffff1690602001909291905050506106fc565b005b60028060000160009054906101000a900473ffffffffffffffffffffffffffffffffffffffff16908060010154908060030160009054906101000a900460ff16905083565b60003073ffffffffffffffffffffffffffffffffffffffff16600760009054906101000a900473ffffffffffffffffffffffffffffffffffffffff1673ffffffffffffffffffffffffffffffffffffffff161415151561044957600080fd5b600760009054906101000a900473ffffffffffffffffffffffffffffffffffffffff16905090565b600160009054906101000a900473ffffffffffffffffffffffffffffffffffffffff1681565b6000600660009054906101000a900473ffffffffffffffffffffffffffffffffffffffff16905090565b60008060009054906101000a900473ffffffffffffffffffffffffffffffffffffffff16905090565b600080600160009054906101000a900473ffffffffffffffffffffffffffffffffffffffff1673ffffffffffffffffffffffffffffffffffffffff161415151561053357600080fd5b600160009054906101000a900473ffffffffffffffffffffffffffffffffffffffff16905090565b60006105656103ea565b90508073ffffffffffffffffffffffffffffffffffffffff1663095ea7b36000809054906101000a900473ffffffffffffffffffffffffffffffffffffffff167fffffffffffffffffffffffffffffffffffffffffffffffffffffffffffffffff6040518363ffffffff167c0100000000000000000000000000000000000000000000000000000000028152600401808373ffffffffffffffffffffffffffffffffffffffff1673ffffffffffffffffffffffffffffffffffffffff16815260200182815260200192505050602060405180830381600087803b15801561064b57600080fd5b505af115801561065f573d6000803e3d6000fd5b505050506040513d602081101561067557600080fd5b8101908080519060200190929190505050151561069157600080fd5b50565b600080600160009054906101000a900473ffffffffffffffffffffffffffffffffffffffff1673ffffffffffffffffffffffffffffffffffffffff161415905090565b6000809054906101000a900473ffffffffffffffffffffffffffffffffffffffff1681565b80600080600080600080600160009054906101000a900473ffffffffffffffffffffffffffffffffffffffff1673ffffffffffffffffffffffffffffffffffffffff161415156107b4576040517f08c379a00000000000000000000000000000000000000000000000000000000081526004018080602001828103825260158152602001807f43616e206f6e6c792064697370757465206f6e6365000000000000000000000081525060200191505060405180910390fd5b60008673ffffffffffffffffffffffffffffffffffffffff1614151515610843576040517f08c379a000000000000000000000000000000000000000000000000000000000815260040180806020018281038252601c8152602001807f4d75737420686176652076616c6964206665652072656365697665720000000081525060200191505060405180910390fd5b85600160006101000a81548173ffffffffffffffffffffffffffffffffffffffff021916908373ffffffffffffffffffffffffffffffffffffffff16021790555061088c610497565b94508473ffffffffffffffffffffffffffffffffffffffff166370a08231306040518263ffffffff167c0100000000000000000000000000000000000000000000000000000000028152600401808273ffffffffffffffffffffffffffffffffffffffff1673ffffffffffffffffffffffffffffffffffffffff168152602001915050602060405180830381600087803b15801561092957600080fd5b505af115801561093d573d6000803e3d6000fd5b505050506040513d602081101561095357600080fd5b810190808051906020019092919050505093508473ffffffffffffffffffffffffffffffffffffffff166370a08231306040518263ffffffff167c0100000000000000000000000000000000000000000000000000000000028152600401808273ffffffffffffffffffffffffffffffffffffffff1673ffffffffffffffffffffffffffffffffffffffff168152602001915050602060405180830381600087803b158015610a0157600080fd5b505af1158015610a15573d6000803e3d6000fd5b505050506040513d6020811015610a2b57600080fd5b81019080805190602001909291905050509250610a46610b78565b915081600760006101000a81548173ffffffffffffffffffffffffffffffffffffffff021916908373ffffffffffffffffffffffffffffffffffffffff1602179055508173ffffffffffffffffffffffffffffffffffffffff166370a08231306040518263ffffffff167c0100000000000000000000000000000000000000000000000000000000028152600401808273ffffffffffffffffffffffffffffffffffffffff1673ffffffffffffffffffffffffffffffffffffffff168152602001915050602060405180830381600087803b158015610b2457600080fd5b505af1158015610b38573d6000803e3d6000fd5b505050506040513d6020811015610b4e57600080fd5b810190808051906020019092919050505090508381840110151515610b6f57fe5b50505050505050565b6000801515610b8357fe5b905600a165627a7a723058201f77042402be151f7f1fa7eba90f434336bb425d1509c81d8aff1d515029b8570029",
  "source": "pragma solidity ^0.4.24;\n\nimport \"./BaseDisputer.sol\";\nimport \"./IDisputer.sol\";\n\n/**\n * Only the code that really interacts with Augur should be place here,\n * the rest goes into BaseDisputer for better testability.\n *\n * Gotta be careful around scenario of Augur forking while disputer still holds funds.\n */\ncontract Disputer is BaseDisputer {\n  constructor(\n    address owner,\n    address market,\n    uint256 feeWindowId,\n    uint256[] payoutNumerators,\n    bool invalid\n  ) public {\n    baseInit(owner, market, feeWindowId, payoutNumerators, invalid);\n  }\n\n  /**\n   * This function should use as little gas as possible, as it will be called\n   * during rush time. Unnecessary operations are postponed for later.\n   *\n   * Can only be called once.\n   */\n  function dispute(address feeReceiver) external withDisputeBoilerplate(feeReceiver) {\n    // TODO: actually interact with Augur\n    // this part is not covered by automated tests\n    // however it will be pretty simple; the only thing we require is that it\n    // will take some REP from this contract (as many as it can)\n    // and convert it into dispute tokens\n    // some boilerplate is done in `withDisputeBoilerplate` which has test coverage\n    // if the market contract is malicious it may steal our REP and whatnot,\n    // but by choosing to interact with this crowdsourcer contract users\n    // indicate that they trust this market to do correct dispute\n    // (otherwise dispute tokens aren't worth anything anyway)\n    // If the code here crashes, it is OK, people still can withdraw.\n    // If it loses funds, `withDisputeBoilerplate` will revert transaction.\n  }\n\n  function getREPImpl() internal view returns (IERC20) {\n    assert(false);\n    // TODO: actually interact with Augur\n  }\n\n  function getDisputeTokenAddressImpl() internal view returns (IERC20) {\n    assert(false);\n    // TODO: actually interact with Augur\n  }\n}\n",
  "sourcePath": "/src/contracts/Disputer.sol",
  "compiler": {
    "name": "solc",
    "version": "0.4.24+commit.e67f0147.Emscripten.clang"
  },
  "schemaVersion": "2.0.1",
  "updatedAt": "2018-10-31T00:43:15.065Z"
}