{
  "contractName": "DisputerParams",
  "abi": [
    {
      "constant": true,
      "inputs": [
        {
          "name": "market",
          "type": "address"
        },
        {
          "name": "feeWindowId",
          "type": "uint256"
        },
        {
          "name": "payoutNumerators",
          "type": "uint256[]"
        },
        {
          "name": "invalid",
          "type": "bool"
        }
      ],
      "name": "hashParams",
      "outputs": [
        {
          "name": "",
          "type": "bytes32"
        }
      ],
      "payable": false,
      "stateMutability": "pure",
      "type": "function"
    }
  ],
  "bytecode": "0x61021b610030600b82828239805160001a6073146000811461002057610022565bfe5b5030600052607381538281f3007300000000000000000000000000000000000000003014608060405260043610610058576000357c0100000000000000000000000000000000000000000000000000000000900463ffffffff168063b60e85951461005d575b600080fd5b6100bf600480360381019080803573ffffffffffffffffffffffffffffffffffffffff169060200190929190803590602001909291908035906020019082018035906020019190919293919293908035151590602001909291905050506100dd565b60405180826000191660001916815260200191505060405180910390f35b60008585858585604051602001808673ffffffffffffffffffffffffffffffffffffffff1673ffffffffffffffffffffffffffffffffffffffff166c01000000000000000000000000028152601401858152602001848460200280828437820191505082151515157f0100000000000000000000000000000000000000000000000000000000000000028152600101955050505050506040516020818303038152906040526040518082805190602001908083835b6020831015156101b75780518252602082019150602081019050602083039250610192565b6001836020036101000a03801982511681845116808217855250505050505090500191505060405180910390209050959450505050505600a165627a7a7230582079e1c559773b00e59fea577f5b3e1af16624f2688082c10882ac1f18f6b86acd0029",
  "source": "pragma solidity ^0.4.24;\n\nlibrary DisputerParams {\n  struct Params {\n    address market;\n    uint256 feeWindowId;\n    uint256[] payoutNumerators;\n    bool invalid;\n  }\n\n  function hashParams(\n    address market,\n    uint256 feeWindowId,\n    uint256[] payoutNumerators,\n    bool invalid\n  ) external pure returns (bytes32) {\n    return keccak256(\n      abi.encodePacked(\n        market,\n        feeWindowId,\n        payoutNumerators,\n        invalid\n      )\n    );\n  }\n}\n",
  "sourcePath": "/src/contracts/DisputerParams.sol",
  "compiler": {
    "name": "solc",
    "version": "0.4.24+commit.e67f0147.Emscripten.clang"
  },
  "schemaVersion": "2.0.1",
  "updatedAt": "2018-10-30T01:33:05.556Z"
}