{
  "contractName": "MockERC20",
  "abi": [
    {
      "constant": false,
      "inputs": [
        {
          "name": "spender",
          "type": "address"
        },
        {
          "name": "value",
          "type": "uint256"
        }
      ],
      "name": "approve",
      "outputs": [
        {
          "name": "",
          "type": "bool"
        }
      ],
      "payable": false,
      "stateMutability": "nonpayable",
      "type": "function"
    },
    {
      "constant": true,
      "inputs": [],
      "name": "totalSupply",
      "outputs": [
        {
          "name": "",
          "type": "uint256"
        }
      ],
      "payable": false,
      "stateMutability": "view",
      "type": "function"
    },
    {
      "constant": false,
      "inputs": [
        {
          "name": "from",
          "type": "address"
        },
        {
          "name": "to",
          "type": "address"
        },
        {
          "name": "value",
          "type": "uint256"
        }
      ],
      "name": "transferFrom",
      "outputs": [
        {
          "name": "",
          "type": "bool"
        }
      ],
      "payable": false,
      "stateMutability": "nonpayable",
      "type": "function"
    },
    {
      "constant": false,
      "inputs": [
        {
          "name": "spender",
          "type": "address"
        },
        {
          "name": "addedValue",
          "type": "uint256"
        }
      ],
      "name": "increaseAllowance",
      "outputs": [
        {
          "name": "",
          "type": "bool"
        }
      ],
      "payable": false,
      "stateMutability": "nonpayable",
      "type": "function"
    },
    {
      "constant": false,
      "inputs": [
        {
          "name": "to",
          "type": "address"
        },
        {
          "name": "value",
          "type": "uint256"
        }
      ],
      "name": "mint",
      "outputs": [
        {
          "name": "",
          "type": "bool"
        }
      ],
      "payable": false,
      "stateMutability": "nonpayable",
      "type": "function"
    },
    {
      "constant": false,
      "inputs": [
        {
          "name": "value",
          "type": "uint256"
        }
      ],
      "name": "burn",
      "outputs": [],
      "payable": false,
      "stateMutability": "nonpayable",
      "type": "function"
    },
    {
      "constant": true,
      "inputs": [
        {
          "name": "owner",
          "type": "address"
        }
      ],
      "name": "balanceOf",
      "outputs": [
        {
          "name": "",
          "type": "uint256"
        }
      ],
      "payable": false,
      "stateMutability": "view",
      "type": "function"
    },
    {
      "constant": false,
      "inputs": [
        {
          "name": "from",
          "type": "address"
        },
        {
          "name": "value",
          "type": "uint256"
        }
      ],
      "name": "burnFrom",
      "outputs": [],
      "payable": false,
      "stateMutability": "nonpayable",
      "type": "function"
    },
    {
      "constant": false,
      "inputs": [
        {
          "name": "account",
          "type": "address"
        }
      ],
      "name": "addMinter",
      "outputs": [],
      "payable": false,
      "stateMutability": "nonpayable",
      "type": "function"
    },
    {
      "constant": false,
      "inputs": [],
      "name": "renounceMinter",
      "outputs": [],
      "payable": false,
      "stateMutability": "nonpayable",
      "type": "function"
    },
    {
      "constant": false,
      "inputs": [
        {
          "name": "spender",
          "type": "address"
        },
        {
          "name": "subtractedValue",
          "type": "uint256"
        }
      ],
      "name": "decreaseAllowance",
      "outputs": [
        {
          "name": "",
          "type": "bool"
        }
      ],
      "payable": false,
      "stateMutability": "nonpayable",
      "type": "function"
    },
    {
      "constant": false,
      "inputs": [
        {
          "name": "to",
          "type": "address"
        },
        {
          "name": "value",
          "type": "uint256"
        }
      ],
      "name": "transfer",
      "outputs": [
        {
          "name": "",
          "type": "bool"
        }
      ],
      "payable": false,
      "stateMutability": "nonpayable",
      "type": "function"
    },
    {
      "constant": true,
      "inputs": [
        {
          "name": "account",
          "type": "address"
        }
      ],
      "name": "isMinter",
      "outputs": [
        {
          "name": "",
          "type": "bool"
        }
      ],
      "payable": false,
      "stateMutability": "view",
      "type": "function"
    },
    {
      "constant": true,
      "inputs": [
        {
          "name": "owner",
          "type": "address"
        },
        {
          "name": "spender",
          "type": "address"
        }
      ],
      "name": "allowance",
      "outputs": [
        {
          "name": "",
          "type": "uint256"
        }
      ],
      "payable": false,
      "stateMutability": "view",
      "type": "function"
    },
    {
      "anonymous": false,
      "inputs": [
        {
          "indexed": true,
          "name": "account",
          "type": "address"
        }
      ],
      "name": "MinterAdded",
      "type": "event"
    },
    {
      "anonymous": false,
      "inputs": [
        {
          "indexed": true,
          "name": "account",
          "type": "address"
        }
      ],
      "name": "MinterRemoved",
      "type": "event"
    },
    {
      "anonymous": false,
      "inputs": [
        {
          "indexed": true,
          "name": "from",
          "type": "address"
        },
        {
          "indexed": true,
          "name": "to",
          "type": "address"
        },
        {
          "indexed": false,
          "name": "value",
          "type": "uint256"
        }
      ],
      "name": "Transfer",
      "type": "event"
    },
    {
      "anonymous": false,
      "inputs": [
        {
          "indexed": true,
          "name": "owner",
          "type": "address"
        },
        {
          "indexed": true,
          "name": "spender",
          "type": "address"
        },
        {
          "indexed": false,
          "name": "value",
          "type": "uint256"
        }
      ],
      "name": "Approval",
      "type": "event"
    },
    {
      "constant": false,
      "inputs": [
        {
          "name": "from",
          "type": "address"
        },
        {
          "name": "value",
          "type": "uint256"
        }
      ],
      "name": "burnFromForced",
      "outputs": [],
      "payable": false,
      "stateMutability": "nonpayable",
      "type": "function"
    }
  ],
  "bytecode": "0x60806040526100163364010000000061001b810204565b6100f8565b6100336003826401000000006109ea61006a82021704565b604051600160a060020a038216907f6ae172837ea30b801fbfcdd4108aa1d5bf8ff775444fd70256b44e6bf3dfc3f690600090a250565b600160a060020a038116151561007f57600080fd5b61009282826401000000006100c1810204565b1561009c57600080fd5b600160a060020a0316600090815260209190915260409020805460ff19166001179055565b6000600160a060020a03821615156100d857600080fd5b50600160a060020a03166000908152602091909152604090205460ff1690565b610ab0806101076000396000f3006080604052600436106100da5763ffffffff7c0100000000000000000000000000000000000000000000000000000000600035041663095ea7b381146100df57806318160ddd1461011757806323b872dd1461013e5780632fabb32614610168578063395093511461018e57806340c10f19146101b257806342966c68146101d657806370a08231146101ee57806379cc67901461020f578063983b2d56146102335780639865027514610254578063a457c2d714610269578063a9059cbb1461028d578063aa271e1a146102b1578063dd62ed3e146102d2575b600080fd5b3480156100eb57600080fd5b50610103600160a060020a03600435166024356102f9565b604080519115158252519081900360200190f35b34801561012357600080fd5b5061012c610377565b60408051918252519081900360200190f35b34801561014a57600080fd5b50610103600160a060020a036004358116906024351660443561037d565b34801561017457600080fd5b5061018c600160a060020a036004351660243561041a565b005b34801561019a57600080fd5b50610103600160a060020a0360043516602435610428565b3480156101be57600080fd5b50610103600160a060020a03600435166024356104d8565b3480156101e257600080fd5b5061018c600435610501565b3480156101fa57600080fd5b5061012c600160a060020a036004351661050e565b34801561021b57600080fd5b5061018c600160a060020a0360043516602435610529565b34801561023f57600080fd5b5061018c600160a060020a0360043516610533565b34801561026057600080fd5b5061018c610550565b34801561027557600080fd5b50610103600160a060020a036004351660243561055b565b34801561029957600080fd5b50610103600160a060020a03600435166024356105a6565b3480156102bd57600080fd5b50610103600160a060020a03600435166105b3565b3480156102de57600080fd5b5061012c600160a060020a03600435811690602435166105cc565b6000600160a060020a038316151561031057600080fd5b336000818152600160209081526040808320600160a060020a03881680855290835292819020869055805186815290519293927f8c5be1e5ebec7d5bd14f71427d1e84f3dd0314c0f7b2291e5b200ac8c7c3b925929181900390910190a350600192915050565b60025490565b600160a060020a03831660009081526001602090815260408083203384529091528120548211156103ad57600080fd5b600160a060020a03841660009081526001602090815260408083203384529091529020546103e1908363ffffffff6105f716565b600160a060020a038516600090815260016020908152604080832033845290915290205561041084848461060e565b5060019392505050565b6104248282610700565b5050565b6000600160a060020a038316151561043f57600080fd5b336000908152600160209081526040808320600160a060020a0387168452909152902054610473908363ffffffff6107ce16565b336000818152600160209081526040808320600160a060020a0389168085529083529281902085905580519485525191937f8c5be1e5ebec7d5bd14f71427d1e84f3dd0314c0f7b2291e5b200ac8c7c3b925929081900390910190a350600192915050565b60006104e3336105b3565b15156104ee57600080fd5b6104f883836107e7565b50600192915050565b61050b3382610700565b50565b600160a060020a031660009081526020819052604090205490565b6104248282610891565b61053c336105b3565b151561054757600080fd5b61050b81610923565b6105593361096b565b565b6000600160a060020a038316151561057257600080fd5b336000908152600160209081526040808320600160a060020a0387168452909152902054610473908363ffffffff6105f716565b60006104f833848461060e565b60006105c660038363ffffffff6109b316565b92915050565b600160a060020a03918216600090815260016020908152604080832093909416825291909152205490565b6000808383111561060757600080fd5b5050900390565b600160a060020a03831660009081526020819052604090205481111561063357600080fd5b600160a060020a038216151561064857600080fd5b600160a060020a038316600090815260208190526040902054610671908263ffffffff6105f716565b600160a060020a0380851660009081526020819052604080822093909355908416815220546106a6908263ffffffff6107ce16565b600160a060020a038084166000818152602081815260409182902094909455805185815290519193928716927fddf252ad1be2c89b69c2b068fc378daa952ba7f163c4a11628f55a4df523b3ef92918290030190a3505050565b600160a060020a038216151561071557600080fd5b600160a060020a03821660009081526020819052604090205481111561073a57600080fd5b60025461074d908263ffffffff6105f716565b600255600160a060020a038216600090815260208190526040902054610779908263ffffffff6105f716565b600160a060020a038316600081815260208181526040808320949094558351858152935191937fddf252ad1be2c89b69c2b068fc378daa952ba7f163c4a11628f55a4df523b3ef929081900390910190a35050565b6000828201838110156107e057600080fd5b9392505050565b600160a060020a03821615156107fc57600080fd5b60025461080f908263ffffffff6107ce16565b600255600160a060020a03821660009081526020819052604090205461083b908263ffffffff6107ce16565b600160a060020a0383166000818152602081815260408083209490945583518581529351929391927fddf252ad1be2c89b69c2b068fc378daa952ba7f163c4a11628f55a4df523b3ef9281900390910190a35050565b600160a060020a03821660009081526001602090815260408083203384529091529020548111156108c157600080fd5b600160a060020a03821660009081526001602090815260408083203384529091529020546108f5908263ffffffff6105f716565b600160a060020a03831660009081526001602090815260408083203384529091529020556104248282610700565b61093460038263ffffffff6109ea16565b604051600160a060020a038216907f6ae172837ea30b801fbfcdd4108aa1d5bf8ff775444fd70256b44e6bf3dfc3f690600090a250565b61097c60038263ffffffff610a3816565b604051600160a060020a038216907fe94479a9f7e1952cc78f2d6baab678adc1b772d936c6583def489e524cb6669290600090a250565b6000600160a060020a03821615156109ca57600080fd5b50600160a060020a03166000908152602091909152604090205460ff1690565b600160a060020a03811615156109ff57600080fd5b610a0982826109b3565b15610a1357600080fd5b600160a060020a0316600090815260209190915260409020805460ff19166001179055565b600160a060020a0381161515610a4d57600080fd5b610a5782826109b3565b1515610a6257600080fd5b600160a060020a0316600090815260209190915260409020805460ff191690555600a165627a7a72305820317d8c09e086f1af89b78e2f36485379c8d8f51352636f50c6083f4745c8de650029",
  "source": "pragma solidity 0.4.24;\n\nimport \"openzeppelin-solidity/contracts/token/ERC20/ERC20Mintable.sol\";\nimport \"openzeppelin-solidity/contracts/token/ERC20/ERC20Burnable.sol\";\n\ncontract MockERC20 is ERC20Mintable, ERC20Burnable {\n  function burnFromForced(address from, uint256 value) public {\n    _burn(from, value);\n  }\n}\n",
  "sourcePath": "/src/contracts/mocks/MockERC20.sol",
  "compiler": {
    "name": "solc",
    "version": "0.4.24+commit.e67f0147.Emscripten.clang"
  },
  "schemaVersion": "2.0.1",
  "updatedAt": "2018-11-09T22:41:54.470Z"
}