{
  "contractName": "MockCrowdsourcerParent",
  "abi": [
    {
      "constant": true,
      "inputs": [],
      "name": "m_feeRecipient",
      "outputs": [
        {
          "name": "",
          "type": "address"
        }
      ],
      "payable": false,
      "stateMutability": "view",
      "type": "function"
    },
    {
      "inputs": [
        {
          "name": "feeRecepient",
          "type": "address"
        }
      ],
      "payable": false,
      "stateMutability": "nonpayable",
      "type": "constructor"
    },
    {
      "constant": true,
      "inputs": [],
      "name": "getContractFeeReceiver",
      "outputs": [
        {
          "name": "",
          "type": "address"
        }
      ],
      "payable": false,
      "stateMutability": "view",
      "type": "function"
    }
  ],
  "bytecode": "0x608060405234801561001057600080fd5b5060405160208061014f833981016040525160008054600160a060020a03909216600160a060020a031990921691909117905560fe806100516000396000f30060806040526004361060485763ffffffff7c01000000000000000000000000000000000000000000000000000000006000350416635fbfd48d8114604d578063d2a2fc94146088575b600080fd5b348015605857600080fd5b50605f609a565b6040805173ffffffffffffffffffffffffffffffffffffffff9092168252519081900360200190f35b348015609357600080fd5b50605f60b6565b60005473ffffffffffffffffffffffffffffffffffffffff1681565b60005473ffffffffffffffffffffffffffffffffffffffff16905600a165627a7a72305820f2a86a0ac878e7f85e1eb743f030d9ff996f39f2a033cc1a2c51aca5ddd4ed1c0029",
  "source": "pragma solidity 0.4.24;\n\nimport \"../ICrowdsourcerParent.sol\";\n\ncontract MockCrowdsourcerParent is ICrowdsourcerParent {\n  address public m_feeRecipient;\n\n  constructor(address feeRecepient) public {\n    m_feeRecipient = feeRecepient;\n  }\n\n  function getContractFeeReceiver() external view returns(address) {\n    return m_feeRecipient;\n  }\n}\n",
  "sourcePath": "/src/contracts/mocks/MockCrowdsourcerParent.sol",
  "compiler": {
    "name": "solc",
    "version": "0.4.24+commit.e67f0147.Emscripten.clang"
  },
  "schemaVersion": "2.0.1",
  "updatedAt": "2018-11-02T05:47:03.989Z"
}