{
  "contractName": "MockCrowdsourcerFactory",
  "abi": [
    {
      "constant": true,
      "inputs": [
        {
          "name": "feeWindowId",
          "type": "uint256"
        }
      ],
      "name": "getNumCrowdsourcers",
      "outputs": [
        {
          "name": "",
          "type": "uint256"
        }
      ],
      "payable": false,
      "stateMutability": "view",
      "type": "function"
    },
    {
      "constant": false,
      "inputs": [
        {
          "name": "market",
          "type": "address"
        },
        {
          "name": "feeWindowId",
          "type": "uint256"
        },
        {
          "name": "payoutNumerators",
          "type": "uint256[]"
        },
        {
          "name": "invalid",
          "type": "bool"
        }
      ],
      "name": "getCrowdsourcer",
      "outputs": [
        {
          "name": "",
          "type": "address"
        }
      ],
      "payable": false,
      "stateMutability": "nonpayable",
      "type": "function"
    },
    {
      "constant": true,
      "inputs": [],
      "name": "m_accountingFactory",
      "outputs": [
        {
          "name": "",
          "type": "address"
        }
      ],
      "payable": false,
      "stateMutability": "view",
      "type": "function"
    },
    {
      "constant": true,
      "inputs": [
        {
          "name": "market",
          "type": "address"
        },
        {
          "name": "feeWindowId",
          "type": "uint256"
        },
        {
          "name": "payoutNumerators",
          "type": "uint256[]"
        },
        {
          "name": "invalid",
          "type": "bool"
        }
      ],
      "name": "maybeGetCrowdsourcer",
      "outputs": [
        {
          "name": "",
          "type": "address"
        }
      ],
      "payable": false,
      "stateMutability": "view",
      "type": "function"
    },
    {
      "constant": false,
      "inputs": [
        {
          "name": "recipient",
          "type": "address"
        }
      ],
      "name": "transferFeeCollection",
      "outputs": [],
      "payable": false,
      "stateMutability": "nonpayable",
      "type": "function"
    },
    {
      "constant": true,
      "inputs": [
        {
          "name": "",
          "type": "bytes32"
        }
      ],
      "name": "m_crowdsourcers",
      "outputs": [
        {
          "name": "",
          "type": "address"
        }
      ],
      "payable": false,
      "stateMutability": "view",
      "type": "function"
    },
    {
      "constant": true,
      "inputs": [
        {
          "name": "feeWindowId",
          "type": "uint256"
        },
        {
          "name": "startFrom",
          "type": "uint256"
        },
        {
          "name": "minFeesOffered",
          "type": "uint256"
        },
        {
          "name": "exclude",
          "type": "address[]"
        }
      ],
      "name": "findCrowdsourcer",
      "outputs": [
        {
          "name": "",
          "type": "uint256"
        },
        {
          "name": "",
          "type": "address"
        }
      ],
      "payable": false,
      "stateMutability": "view",
      "type": "function"
    },
    {
      "constant": false,
      "inputs": [
        {
          "name": "market",
          "type": "address"
        },
        {
          "name": "feeWindowId",
          "type": "uint256"
        },
        {
          "name": "payoutNumerators",
          "type": "uint256[]"
        },
        {
          "name": "invalid",
          "type": "bool"
        }
      ],
      "name": "getInitializedCrowdsourcer",
      "outputs": [
        {
          "name": "",
          "type": "address"
        }
      ],
      "payable": false,
      "stateMutability": "nonpayable",
      "type": "function"
    },
    {
      "constant": true,
      "inputs": [
        {
          "name": "market",
          "type": "address"
        },
        {
          "name": "feeWindowId",
          "type": "uint256"
        },
        {
          "name": "payoutNumerators",
          "type": "uint256[]"
        },
        {
          "name": "invalid",
          "type": "bool"
        }
      ],
      "name": "hashParams",
      "outputs": [
        {
          "name": "",
          "type": "bytes32"
        }
      ],
      "payable": false,
      "stateMutability": "pure",
      "type": "function"
    },
    {
      "constant": true,
      "inputs": [],
      "name": "m_disputerFactory",
      "outputs": [
        {
          "name": "",
          "type": "address"
        }
      ],
      "payable": false,
      "stateMutability": "view",
      "type": "function"
    },
    {
      "constant": true,
      "inputs": [],
      "name": "m_feeCollector",
      "outputs": [
        {
          "name": "",
          "type": "address"
        }
      ],
      "payable": false,
      "stateMutability": "view",
      "type": "function"
    },
    {
      "constant": true,
      "inputs": [],
      "name": "getContractFeeReceiver",
      "outputs": [
        {
          "name": "",
          "type": "address"
        }
      ],
      "payable": false,
      "stateMutability": "view",
      "type": "function"
    },
    {
      "inputs": [
        {
          "name": "accountingFactory",
          "type": "address"
        },
        {
          "name": "disputerFactory",
          "type": "address"
        },
        {
          "name": "feeCollector",
          "type": "address"
        }
      ],
      "payable": false,
      "stateMutability": "nonpayable",
      "type": "constructor"
    },
    {
      "anonymous": false,
      "inputs": [
        {
          "indexed": false,
          "name": "crowdsourcer",
          "type": "address"
        },
        {
          "indexed": false,
          "name": "market",
          "type": "address"
        },
        {
          "indexed": false,
          "name": "feeWindowId",
          "type": "uint256"
        },
        {
          "indexed": false,
          "name": "payoutNumerators",
          "type": "uint256[]"
        },
        {
          "indexed": false,
          "name": "invalid",
          "type": "bool"
        }
      ],
      "name": "CrowdsourcerCreated",
      "type": "event"
    },
    {
      "constant": false,
      "inputs": [
        {
          "name": "account",
          "type": "address"
        },
        {
          "name": "amount",
          "type": "uint256"
        }
      ],
      "name": "burnREP",
      "outputs": [],
      "payable": false,
      "stateMutability": "nonpayable",
      "type": "function"
    }
  ],
  "bytecode": "0x608060405234801561001057600080fd5b5060405160608061319083398101604090815281516020830151919092015160008054600160a060020a0319908116600160a060020a0395861617825560018054821694861694909417909355600280549093169390911692909217905561311290819061007e90396000f3006080604052600436106100ab5763ffffffff60e060020a6000350416630f7c466c81146100b05780631d6215af146100da57806334d7d5de1461016157806335a92d16146101765780633e5e2213146101ac57806345e14db5146101cf578063504b0fb5146101e7578063a2059f971461026c578063ae8cbc8114610290578063b60e8595146102c6578063b977405014610331578063d28940b214610346578063d2a2fc941461035b575b600080fd5b3480156100bc57600080fd5b506100c8600435610370565b60408051918252519081900360200190f35b3480156100e657600080fd5b506040805160206004604435818101358381028086018501909652808552610145958335600160a060020a0316956024803596369695606495939492019291829185019084908082843750949750505050913515159250610382915050565b60408051600160a060020a039092168252519081900360200190f35b34801561016d57600080fd5b506101456105b1565b34801561018257600080fd5b5061014560048035600160a060020a031690602480359160443591820191013560643515156105c0565b3480156101b857600080fd5b506101cd600160a060020a0360043516610620565b005b3480156101db57600080fd5b506101456004356106c8565b3480156101f357600080fd5b50604080516064356004818101356020818102858101820190965281855261024b9583359560248035966044359636969095608495929093019290918291850190849080828437509497506106e39650505050505050565b60408051928352600160a060020a0390911660208301528051918290030190f35b34801561027857600080fd5b506101cd600160a060020a0360043516602435610928565b34801561029c57600080fd5b5061014560048035600160a060020a031690602480359160443591820191013560643515156109b2565b3480156102d257600080fd5b5060408051602060046044358181013583810280860185019096528085526100c8958335600160a060020a0316956024803596369695606495939492019291829185019084908082843750949750505050913515159250610b33915050565b34801561033d57600080fd5b50610145610c42565b34801561035257600080fd5b50610145610c51565b34801561036757600080fd5b50610145610c60565b60009081526004602052604090205490565b60008060008061039488888888610b33565b600081815260036020526040902054909350600160a060020a0316915081156103bf578193506105a6565b6000546001543091600160a060020a0390811691168a8a8a8a6103e0610c6f565b600160a060020a038089168252878116602080840191909152878216604084015290861660608301526080820185905282151560c083015260e060a0830181815285519184019190915284519091610100840191868201910280838360005b8381101561045757818101518382015260200161043f565b5050505090500198505050505050505050604051809103906000f080158015610484573d6000803e3d6000fd5b5090507f3364ce329fe3fc5df17bf6396b1a086d8f36049a05b412f85c6eceee4874bfab81898989896040518086600160a060020a0316600160a060020a0316815260200185600160a060020a0316600160a060020a031681526020018481526020018060200183151515158152602001828103825284818151815260200191508051906020019060200280838360005b8381101561052d578181015183820152602001610515565b50505050905001965050505050505060405180910390a160008781526004602090815260408083208054600181018255908452828420018054600160a060020a03861673ffffffffffffffffffffffffffffffffffffffff19918216811790925587855260039093529220805490911690911790559250825b505050949350505050565b600054600160a060020a031681565b6000806105fd8787878780806020026020016040519081016040528093929190818152602001838360200280828437508b9450610b339350505050565b600090815260036020526040902054600160a060020a0316979650505050505050565b600254600160a060020a0316331461069957604080517f08c379a000000000000000000000000000000000000000000000000000000000815260206004820152600e60248201527f4e6f7420617574686f72697a6564000000000000000000000000000000000000604482015290519081900360640190fd5b6002805473ffffffffffffffffffffffffffffffffffffffff1916600160a060020a0392909216919091179055565b600360205260009081526040902054600160a060020a031681565b60008481526004602052604081208054829190868380805b8484101561091157858481548110151561071157fe5b9060005260206000200160009054906101000a9004600160a060020a0316925082600160a060020a031663392e53cd6040518163ffffffff1660e060020a028152600401602060405180830381600087803b15801561076f57600080fd5b505af1158015610783573d6000803e3d6000fd5b505050506040513d602081101561079957600080fd5b5051158061089857508983600160a060020a03166336cfd8ba6040518163ffffffff1660e060020a028152600401602060405180830381600087803b1580156107e157600080fd5b505af11580156107f5573d6000803e3d6000fd5b505050506040513d602081101561080b57600080fd5b5051604080517f8f86c59c0000000000000000000000000000000000000000000000000000000081529051600160a060020a0390921691638f86c59c916004808201926020929091908290030181600087803b15801561086a57600080fd5b505af115801561087e573d6000803e3d6000fd5b505050506040513d602081101561089457600080fd5b5051105b156108a257610906565b506001905060005b88518110156108f55788818151811015156108c157fe5b90602001906020020151600160a060020a031683600160a060020a031614156108ed57600091506108f5565b6001016108aa565b811561090657838397509750610919565b8360010193506106fb565b836000975097505b50505050505094509492505050565b600154604080517fa2059f97000000000000000000000000000000000000000000000000000000008152600160a060020a038581166004830152602482018590529151919092169163a2059f9791604480830192600092919082900301818387803b15801561099657600080fd5b505af11580156109aa573d6000803e3d6000fd5b505050505050565b6000806109ef8787878780806020026020016040519081016040528093929190818152602001838360200280828437508b94506103829350505050565b905080600160a060020a031663392e53cd6040518163ffffffff1660e060020a028152600401602060405180830381600087803b158015610a2f57600080fd5b505af1158015610a43573d6000803e3d6000fd5b505050506040513d6020811015610a5957600080fd5b50511515610b295780600160a060020a0316638129fc1c6040518163ffffffff1660e060020a028152600401600060405180830381600087803b158015610a9f57600080fd5b505af1158015610ab3573d6000803e3d6000fd5b5050505080600160a060020a031663392e53cd6040518163ffffffff1660e060020a028152600401602060405180830381600087803b158015610af557600080fd5b505af1158015610b09573d6000803e3d6000fd5b505050506040513d6020811015610b1f57600080fd5b50511515610b2957fe5b9695505050505050565b6000848484846040516020018085600160a060020a0316600160a060020a03166c01000000000000000000000000028152601401848152602001838051906020019060200280838360005b83811015610b96578181015183820152602001610b7e565b5050505090500182151515157f01000000000000000000000000000000000000000000000000000000000000000281526001019450505050506040516020818303038152906040526040518082805190602001908083835b60208310610c0d5780518252601f199092019160209182019101610bee565b5181516020939093036101000a6000190180199091169216919091179052604051920182900390912098975050505050505050565b600154600160a060020a031681565b600254600160a060020a031681565b600254600160a060020a031690565b60405161246780610c8083390190560060806040526000805460ff19908116909155600b805490911690553480156200002757600080fd5b5060405162002467380380620024678339810160408181528251602080850151838601516060808801516080808a015160a08b015160c08c015160088054600160a060020a03808d16600160a060020a03199283161790925560058054838c1690831617905560068054838b16908316179055948d018c528516808d52898d0184905291909c01998b018a90528b1515948b01949094526001805490921690931781556002839055875196999498939791969295919493929091620000f2916003918701906200011c565b50606091909101516003909101805460ff1916911515919091179055506200018c95505050505050565b8280548282559060005260206000209081019282156200015a579160200282015b828111156200015a5782518255916020019190600101906200013d565b50620001689291506200016c565b5090565b6200018991905b8082111562000168576000815560010162000173565b90565b6122cb806200019c6000396000f3006080604052600436106101245763ffffffff60e060020a6000350416630b741b4981146101295780630d616d201461015a57806323be12681461017157806334d7d5de1461018657806336cfd8ba1461019b578063392e53cd146101b0578063476343ee146101d95780634bb278f3146101ee5780634f3d57641461020357806357be2cb81461029757806362810c81146102b85780636f2c83ee146102d957806380f76021146102ee5780638129fc1c146103035780638d4e40831461031857806399b7f3691461032d5780639fe00bbf14610342578063b977405014610369578063be27fae71461037e578063c9204cf514610393578063d0d956b1146103d2578063d18959a2146103e7578063def3cb05146103fc578063fbe7870514610411575b600080fd5b34801561013557600080fd5b5061013e610426565b60408051600160a060020a039092168252519081900360200190f35b34801561016657600080fd5b5061016f610435565b005b34801561017d57600080fd5b5061013e61074d565b34801561019257600080fd5b5061013e61075c565b3480156101a757600080fd5b5061013e61076b565b3480156101bc57600080fd5b506101c56107c9565b604080519115158252519081900360200190f35b3480156101e557600080fd5b5061016f6107d2565b3480156101fa57600080fd5b5061016f610bdd565b34801561020f57600080fd5b506102186110f5565b6040518085600160a060020a0316600160a060020a031681526020018481526020018060200183151515158152602001828103825284818151815260200191508051906020019060200280838360005b83811015610280578181015183820152602001610268565b505050509050019550505050505060405180910390f35b3480156102a357600080fd5b506101c5600160a060020a036004351661117d565b3480156102c457600080fd5b5061016f600160a060020a0360043516611192565b3480156102e557600080fd5b5061013e611499565b3480156102fa57600080fd5b5061013e61156b565b34801561030f57600080fd5b5061016f61157a565b34801561032457600080fd5b506101c56117f5565b34801561033957600080fd5b506101c5611896565b34801561034e57600080fd5b5061016f6001608060020a036004358116906024351661189f565b34801561037557600080fd5b5061013e611e8b565b34801561038a57600080fd5b5061013e611e9a565b34801561039f57600080fd5b506103a8611ea9565b60408051600160a060020a0390941684526020840192909252151582820152519081900360600190f35b3480156103de57600080fd5b506101c5611ec4565b3480156103f357600080fd5b506101c5611ecd565b34801561040857600080fd5b5061013e611f6e565b34801561041d57600080fd5b5061013e611fcc565b600854600160a060020a031681565b60008060006104426107c9565b1515610486576040805160e560020a62461bcd02815260206004820152601c6024820152600080516020612280833981519152604482015290519081900360640190fd5b61048e611ecd565b15610509576040805160e560020a62461bcd02815260206004820152602260248201527f4d6574686f64206f6e6c7920616c6c6f776564206265666f726520646973707560448201527f7465000000000000000000000000000000000000000000000000000000000000606482015290519081900360840190fd5b610511611499565b600754604080517fa35c47090000000000000000000000000000000000000000000000000000000081523360048201528151939650600160a060020a039092169263a35c47099260248082019392918290030181600087803b15801561057657600080fd5b505af115801561058a573d6000803e3d6000fd5b505050506040513d60408110156105a057600080fd5b508051602091820151600954604080517f23b872dd000000000000000000000000000000000000000000000000000000008152600160a060020a0392831660048201523360248201526001608060020a038516604482015290519396509194508616926323b872dd926064808401938290030181600087803b15801561062557600080fd5b505af1158015610639573d6000803e3d6000fd5b505050506040513d602081101561064f57600080fd5b5051151561065957fe5b604080517fa9059cbb0000000000000000000000000000000000000000000000000000000081523360048201526001608060020a03831660248201529051600160a060020a0385169163a9059cbb9160448083019260209291908290030181600087803b1580156106c957600080fd5b505af11580156106dd573d6000803e3d6000fd5b505050506040513d60208110156106f357600080fd5b505115156106fd57fe5b61070561206d565b604080513381526001608060020a038416602082015281517f719726f6ad3c598acf803975f0634c207cab0a91259e732d4b84f625d8964043929181900390910190a1505050565b600754600160a060020a031681565b600554600160a060020a031681565b60006107756107c9565b15156107b9576040805160e560020a62461bcd02815260206004820152601c6024820152600080516020612280833981519152604482015290519081900360640190fd5b50600754600160a060020a031690565b60005460ff1690565b6000806000806000806107e36117f5565b1515610801576107f1610bdd565b6107f96117f5565b151561080157fe5b600b5460ff161561085c576040805160e560020a62461bcd02815260206004820152601a60248201527f43616e206f6e6c7920636f6c6c6563742066656573206f6e6365000000000000604482015290519081900360640190fd5b600b805460ff19166001179055600754604080517f5edfa1f80000000000000000000000000000000000000000000000000000000081529051600160a060020a0390921691635edfa1f8916004808201926020929091908290030181600087803b1580156108c957600080fd5b505af11580156108dd573d6000803e3d6000fd5b505050506040513d60208110156108f357600080fd5b50519550600a6001608060020a0380881691820496508688039550858701161461091957fe5b600860009054906101000a9004600160a060020a0316600160a060020a031663d2a2fc946040518163ffffffff1660e060020a028152600401602060405180830381600087803b15801561096c57600080fd5b505af1158015610980573d6000803e3d6000fd5b505050506040513d602081101561099657600080fd5b5051600954604080517fb3f006740000000000000000000000000000000000000000000000000000000081529051929550600160a060020a039091169163b3f00674916004808201926020929091908290030181600087803b1580156109fb57600080fd5b505af1158015610a0f573d6000803e3d6000fd5b505050506040513d6020811015610a2557600080fd5b50519150610a31611499565b905080600160a060020a031663a9059cbb84876040518363ffffffff1660e060020a0281526004018083600160a060020a0316600160a060020a03168152602001826001608060020a0316815260200192505050602060405180830381600087803b158015610a9f57600080fd5b505af1158015610ab3573d6000803e3d6000fd5b505050506040513d6020811015610ac957600080fd5b50511515610ad357fe5b604080517fa9059cbb000000000000000000000000000000000000000000000000000000008152600160a060020a0384811660048301526001608060020a038716602483015291519183169163a9059cbb916044808201926020929091908290030181600087803b158015610b4757600080fd5b505af1158015610b5b573d6000803e3d6000fd5b505050506040513d6020811015610b7157600080fd5b50511515610b7b57fe5b60408051600160a060020a038086168252841660208201526001608060020a03808816828401528616606082015290517f3cc6f29dc45640c19c0580785203f54c9b36da57c72ed7b8218249dbf15171299181900360800190a1505050505050565b600080600080610beb6107c9565b1515610c2f576040805160e560020a62461bcd02815260206004820152601c6024820152600080516020612280833981519152604482015290519081900360640190fd5b610c37611ecd565b1515610c8d576040805160e560020a62461bcd02815260206004820152601f60248201527f43616e206f6e6c792066696e616c697a65206166746572206469737075746500604482015290519081900360640190fd5b610c956117f5565b15610cea576040805160e560020a62461bcd02815260206004820152601660248201527f43616e206f6e6c792066696e616c697a65206f6e636500000000000000000000604482015290519081900360640190fd5b610cf2611fcc565b9350610cfc611499565b9250600960009054906101000a9004600160a060020a0316600160a060020a031663cadbbf636040518163ffffffff1660e060020a028152600401600060405180830381600087803b158015610d5157600080fd5b505af1158015610d65573d6000803e3d6000fd5b50506009546040805160e060020a6370a08231028152600160a060020a0392831660048201819052915192881694506323b872dd93509091309185916370a08231916024808201926020929091908290030181600087803b158015610dc957600080fd5b505af1158015610ddd573d6000803e3d6000fd5b505050506040513d6020811015610df357600080fd5b50516040805160e060020a63ffffffff8716028152600160a060020a0394851660048201529290931660248301526044820152905160648083019260209291908290030181600087803b158015610e4957600080fd5b505af1158015610e5d573d6000803e3d6000fd5b505050506040513d6020811015610e7357600080fd5b50511515610e7d57fe5b6009546040805160e060020a6370a08231028152600160a060020a03928316600482018190529151928716926323b872dd9291309185916370a082319160248083019260209291908290030181600087803b158015610edb57600080fd5b505af1158015610eef573d6000803e3d6000fd5b505050506040513d6020811015610f0557600080fd5b50516040805160e060020a63ffffffff8716028152600160a060020a0394851660048201529290931660248301526044820152905160648083019260209291908290030181600087803b158015610f5b57600080fd5b505af1158015610f6f573d6000803e3d6000fd5b505050506040513d6020811015610f8557600080fd5b50511515610f8f57fe5b6040805160e060020a6370a082310281523060048201529051600160a060020a038616916370a082319160248083019260209291908290030181600087803b158015610fda57600080fd5b505af1158015610fee573d6000803e3d6000fd5b505050506040513d602081101561100457600080fd5b505191508190506001608060020a038116811461101d57fe5b600754604080517f982665500000000000000000000000000000000000000000000000000000000081526001608060020a03841660048201529051600160a060020a039092169163982665509160248082019260009290919082900301818387803b15801561108b57600080fd5b505af115801561109f573d6000803e3d6000fd5b505050506110ab6117f5565b15156110b357fe5b604080516001608060020a038316815290517fda187b46d7434eeeb80cd3c2055bafdc345c598dbbde79d30fab10203c83497e9181900360200190a150505050565b600154600254600454600380546040805160208084028201810190925282815260009687966060968896600160a060020a03909316959194929360ff909116929091849183018282801561116857602002820191906000526020600020905b815481526020019060010190808311611154575b50505050509150935093509350935090919293565b600a6020526000908152604090205460ff1681565b6000806000806111a06117f5565b15156111be576111ae610bdd565b6111b66117f5565b15156111be57fe5b600160a060020a0385166000908152600a602052604090205460ff161561122f576040805160e560020a62461bcd02815260206004820152601e60248201527f43616e206f6e6c7920636f6c6c6563742070726f6365656473206f6e63650000604482015290519081900360640190fd5b600160a060020a038086166000818152600a6020526040808220805460ff1916600117905560075481517f28d21f92000000000000000000000000000000000000000000000000000000008152600481019490945281519416936328d21f9293602480820194918390030190829087803b1580156112ac57600080fd5b505af11580156112c0573d6000803e3d6000fd5b505050506040513d60408110156112d657600080fd5b50805160209091015190945092506112ec611499565b91506112f6611fcc565b905081600160a060020a031663a9059cbb86866040518363ffffffff1660e060020a0281526004018083600160a060020a0316600160a060020a03168152602001826001608060020a0316815260200192505050602060405180830381600087803b15801561136457600080fd5b505af1158015611378573d6000803e3d6000fd5b505050506040513d602081101561138e57600080fd5b5051151561139857fe5b604080517fa9059cbb000000000000000000000000000000000000000000000000000000008152600160a060020a0387811660048301526001608060020a038616602483015291519183169163a9059cbb916044808201926020929091908290030181600087803b15801561140c57600080fd5b505af1158015611420573d6000803e3d6000fd5b505050506040513d602081101561143657600080fd5b5051151561144057fe5b60408051600160a060020a03871681526001608060020a03808616602083015286168183015290517fcb905be9549b41589fc77bbb5a3b67dbf9f3b0284ae7a47f0df76c26393b27a59181900360600190a15050505050565b60006114a36107c9565b15156114e7576040805160e560020a62461bcd02815260206004820152601c6024820152600080516020612280833981519152604482015290519081900360640190fd5b600960009054906101000a9004600160a060020a0316600160a060020a0316636f2c83ee6040518163ffffffff1660e060020a028152600401602060405180830381600087803b15801561153a57600080fd5b505af115801561154e573d6000803e3d6000fd5b505050506040513d602081101561156457600080fd5b5051905090565b600854600160a060020a031690565b60005460ff16156115d5576040805160e560020a62461bcd02815260206004820152601360248201527f416c726561647920696e697469616c697a656400000000000000000000000000604482015290519081900360640190fd5b6000805460ff19166001178155600554604080517f9ed933180000000000000000000000000000000000000000000000000000000081523060048201529051600160a060020a0390921692639ed93318926024808401936020939083900390910190829087803b15801561164857600080fd5b505af115801561165c573d6000803e3d6000fd5b505050506040513d602081101561167257600080fd5b50516007805473ffffffffffffffffffffffffffffffffffffffff1916600160a060020a03928316179055600654600154600254600480546040517fbdb1300200000000000000000000000000000000000000000000000000000000815230928101838152948716602482018190526044820185905260ff909216801515608483015260a0606483019081526003805460a48501819052989099169863bdb130029895979496959094929360c401908590801561174e57602002820191906000526020600020905b81548152602001906001019080831161173a575b50509650505050505050602060405180830381600087803b15801561177257600080fd5b505af1158015611786573d6000803e3d6000fd5b505050506040513d602081101561179c57600080fd5b50516009805473ffffffffffffffffffffffffffffffffffffffff1916600160a060020a039092169190911790556040517f5daa87a0e9463431830481fd4b6e3403442dfb9a12b9c07597e9f61d50b633c890600090a1565b60006117ff6107c9565b1515611843576040805160e560020a62461bcd02815260206004820152601c6024820152600080516020612280833981519152604482015290519081900360640190fd5b600760009054906101000a9004600160a060020a0316600160a060020a0316638d4e40836040518163ffffffff1660e060020a028152600401602060405180830381600087803b15801561153a57600080fd5b60005460ff1681565b6000806000806118ad6107c9565b15156118f1576040805160e560020a62461bcd02815260206004820152601c6024820152600080516020612280833981519152604482015290519081900360640190fd5b6118f9611ecd565b15611974576040805160e560020a62461bcd02815260206004820152602260248201527f4d6574686f64206f6e6c7920616c6c6f776564206265666f726520646973707560448201527f7465000000000000000000000000000000000000000000000000000000000000606482015290519081900360840190fd5b600754604080517fe0dd81f80000000000000000000000000000000000000000000000000000000081526001608060020a03808a166004830152881660248201529051600160a060020a039092169163e0dd81f8916044808201926020929091908290030181600087803b1580156119eb57600080fd5b505af11580156119ff573d6000803e3d6000fd5b505050506040513d6020811015611a1557600080fd5b50519350611a21611499565b6040805160e060020a6370a0823102815233600482015290519194506001608060020a03861691600160a060020a038616916370a082319160248083019260209291908290030181600087803b158015611a7a57600080fd5b505af1158015611a8e573d6000803e3d6000fd5b505050506040513d6020811015611aa457600080fd5b50511015611afc576040805160e560020a62461bcd02815260206004820152601060248201527f4e6f7420656e6f7567682066756e647300000000000000000000000000000000604482015290519081900360640190fd5b604080517fdd62ed3e00000000000000000000000000000000000000000000000000000000815233600482015230602482015290516001608060020a03861691600160a060020a0386169163dd62ed3e916044808201926020929091908290030181600087803b158015611b6f57600080fd5b505af1158015611b83573d6000803e3d6000fd5b505050506040513d6020811015611b9957600080fd5b50511015611bf1576040805160e560020a62461bcd02815260206004820152601460248201527f4e6f7720656e6f75676820616c6c6f77616e6365000000000000000000000000604482015290519081900360640190fd5b600754604080517f78cacd6e0000000000000000000000000000000000000000000000000000000081523360048201526001608060020a03808a166024830152881660448201528151600160a060020a03909316926378cacd6e926064808401939192918290030181600087803b158015611c6b57600080fd5b505af1158015611c7f573d6000803e3d6000fd5b505050506040513d6040811015611c9557600080fd5b50805160209091015190925090506001608060020a0380831690871614611cb857fe5b836001608060020a03168183016001608060020a0316141515611cd757fe5b600954604080517f23b872dd000000000000000000000000000000000000000000000000000000008152336004820152600160a060020a0392831660248201526001608060020a03851660448201529051918516916323b872dd916064808201926020929091908290030181600087803b158015611d5457600080fd5b505af1158015611d68573d6000803e3d6000fd5b505050506040513d6020811015611d7e57600080fd5b50511515611d8857fe5b604080517f23b872dd0000000000000000000000000000000000000000000000000000000081523360048201523060248201526001608060020a03831660448201529051600160a060020a038516916323b872dd9160648083019260209291908290030181600087803b158015611dfe57600080fd5b505af1158015611e12573d6000803e3d6000fd5b505050506040513d6020811015611e2857600080fd5b50511515611e3257fe5b611e3a61206d565b604080513381526001608060020a03808916602083015287168183015290517f13300c39d77178f4a5208422e562bf8ae2224fa8773b1b77f023f9d47171794f9181900360600190a1505050505050565b600654600160a060020a031681565b600954600160a060020a031681565b600154600254600454600160a060020a039092169160ff1683565b600b5460ff1681565b6000611ed76107c9565b1515611f1b576040805160e560020a62461bcd02815260206004820152601c6024820152600080516020612280833981519152604482015290519081900360640190fd5b600960009054906101000a9004600160a060020a0316600160a060020a031663d18959a26040518163ffffffff1660e060020a028152600401602060405180830381600087803b15801561153a57600080fd5b6000611f786107c9565b1515611fbc576040805160e560020a62461bcd02815260206004820152601c6024820152600080516020612280833981519152604482015290519081900360640190fd5b50600954600160a060020a031690565b6000611fd66107c9565b151561201a576040805160e560020a62461bcd02815260206004820152601c6024820152600080516020612280833981519152604482015290519081900360640190fd5b600960009054906101000a9004600160a060020a0316600160a060020a0316632e6027526040518163ffffffff1660e060020a028152600401602060405180830381600087803b15801561153a57600080fd5b6000612077611499565b9050600760009054906101000a9004600160a060020a0316600160a060020a03166308caa9106040518163ffffffff1660e060020a028152600401602060405180830381600087803b1580156120cc57600080fd5b505af11580156120e0573d6000803e3d6000fd5b505050506040513d60208110156120f657600080fd5b50516009546040805160e060020a6370a08231028152600160a060020a0392831660048201529051918416916370a08231916024808201926020929091908290030181600087803b15801561214a57600080fd5b505af115801561215e573d6000803e3d6000fd5b505050506040513d602081101561217457600080fd5b5051101561217e57fe5b600760009054906101000a9004600160a060020a0316600160a060020a0316638f86c59c6040518163ffffffff1660e060020a028152600401602060405180830381600087803b1580156121d157600080fd5b505af11580156121e5573d6000803e3d6000fd5b505050506040513d60208110156121fb57600080fd5b50516040805160e060020a6370a082310281523060048201529051600160a060020a038416916370a082319160248083019260209291908290030181600087803b15801561224857600080fd5b505af115801561225c573d6000803e3d6000fd5b505050506040513d602081101561227257600080fd5b5051101561227c57fe5b5056004d7573742063616c6c20696e697469616c697a65282920666972737400000000a165627a7a72305820a47537033bdcc06c5cccc052f955683c24e8c1d6de26ff999423d923c6c4610a0029a165627a7a7230582073ce25a37c6d136c12ef281d084e448381851dd650f333584cf775d458cf20290029",
  "source": "pragma solidity 0.4.24;\n\nimport \"../CrowdsourcerFactory.sol\";\nimport \"./MockDisputerFactory.sol\";\n\ncontract MockCrowdsourcerFactory is CrowdsourcerFactory {\n  constructor(\n    IAccountingFactory accountingFactory,\n    IDisputerFactory disputerFactory,\n    address feeCollector\n    // solhint-disable-next-line no-empty-blocks\n  ) public CrowdsourcerFactory(accountingFactory, disputerFactory, feeCollector) {\n\n  }\n\n  function burnREP(address account, uint256 amount) external {\n    MockDisputerFactory(m_disputerFactory).burnREP(account, amount);\n  }\n}\n",
  "sourcePath": "/src/contracts/mocks/MockCrowdsourcerFactory.sol",
  "compiler": {
    "name": "solc",
    "version": "0.4.24+commit.e67f0147.Emscripten.clang"
  },
  "schemaVersion": "2.0.1",
  "updatedAt": "2018-11-11T01:23:40.077Z"
}