{
  "contractName": "MockDisputer",
  "abi": [
    {
      "constant": true,
      "inputs": [],
      "name": "m_params",
      "outputs": [
        {
          "name": "market",
          "type": "address"
        },
        {
          "name": "feeWindowId",
          "type": "uint256"
        },
        {
          "name": "invalid",
          "type": "bool"
        }
      ],
      "payable": false,
      "stateMutability": "view",
      "type": "function"
    },
    {
      "constant": true,
      "inputs": [],
      "name": "m_repMock",
      "outputs": [
        {
          "name": "",
          "type": "address"
        }
      ],
      "payable": false,
      "stateMutability": "view",
      "type": "function"
    },
    {
      "constant": true,
      "inputs": [],
      "name": "getDisputeTokenAddress",
      "outputs": [
        {
          "name": "",
          "type": "address"
        }
      ],
      "payable": false,
      "stateMutability": "view",
      "type": "function"
    },
    {
      "constant": true,
      "inputs": [],
      "name": "m_disputeToken",
      "outputs": [
        {
          "name": "",
          "type": "address"
        }
      ],
      "payable": false,
      "stateMutability": "view",
      "type": "function"
    },
    {
      "constant": true,
      "inputs": [],
      "name": "m_feeReceiver",
      "outputs": [
        {
          "name": "",
          "type": "address"
        }
      ],
      "payable": false,
      "stateMutability": "view",
      "type": "function"
    },
    {
      "constant": true,
      "inputs": [],
      "name": "m_rep",
      "outputs": [
        {
          "name": "",
          "type": "address"
        }
      ],
      "payable": false,
      "stateMutability": "view",
      "type": "function"
    },
    {
      "constant": true,
      "inputs": [],
      "name": "getREP",
      "outputs": [
        {
          "name": "",
          "type": "address"
        }
      ],
      "payable": false,
      "stateMutability": "view",
      "type": "function"
    },
    {
      "constant": true,
      "inputs": [],
      "name": "getOwner",
      "outputs": [
        {
          "name": "",
          "type": "address"
        }
      ],
      "payable": false,
      "stateMutability": "view",
      "type": "function"
    },
    {
      "constant": true,
      "inputs": [],
      "name": "feeReceiver",
      "outputs": [
        {
          "name": "",
          "type": "address"
        }
      ],
      "payable": false,
      "stateMutability": "view",
      "type": "function"
    },
    {
      "constant": false,
      "inputs": [],
      "name": "approveManagerToSpendDisputeTokens",
      "outputs": [],
      "payable": false,
      "stateMutability": "nonpayable",
      "type": "function"
    },
    {
      "constant": true,
      "inputs": [],
      "name": "hasDisputed",
      "outputs": [
        {
          "name": "",
          "type": "bool"
        }
      ],
      "payable": false,
      "stateMutability": "view",
      "type": "function"
    },
    {
      "constant": true,
      "inputs": [],
      "name": "m_owner",
      "outputs": [
        {
          "name": "",
          "type": "address"
        }
      ],
      "payable": false,
      "stateMutability": "view",
      "type": "function"
    },
    {
      "constant": true,
      "inputs": [],
      "name": "m_amountOfREPToDisputeWith",
      "outputs": [
        {
          "name": "",
          "type": "uint256"
        }
      ],
      "payable": false,
      "stateMutability": "view",
      "type": "function"
    },
    {
      "constant": false,
      "inputs": [
        {
          "name": "feeReceiver",
          "type": "address"
        }
      ],
      "name": "dispute",
      "outputs": [],
      "payable": false,
      "stateMutability": "nonpayable",
      "type": "function"
    },
    {
      "inputs": [
        {
          "name": "owner",
          "type": "address"
        },
        {
          "name": "rep",
          "type": "address"
        },
        {
          "name": "amountOfREPToDisputeWith",
          "type": "uint256"
        },
        {
          "name": "market",
          "type": "address"
        },
        {
          "name": "feeWindowId",
          "type": "uint256"
        },
        {
          "name": "payoutNumerators",
          "type": "uint256[]"
        },
        {
          "name": "invalid",
          "type": "bool"
        }
      ],
      "payable": false,
      "stateMutability": "nonpayable",
      "type": "constructor"
    }
  ],
  "bytecode": "0x608060405260018054600160a060020a031916905534801561002057600080fd5b50604051620017f0380380620017f083398101604090815281516020830151918301516060840151608085015160a086015160c087015160088054600160a060020a031916600160a060020a0389161790556009859055949693949293919291019061009887858585856401000000006100a4810204565b50505050505050610332565b60008054600160a060020a03808816600160a060020a0319928316179092556040805160808101825292871680845260208085018890529184018690528415156060850152600280549093161782556003869055845161010a91600491908701906102cd565b50606091909101516003909101805460ff19169115159190911790556101376401000000006102bd810204565b60068054600160a060020a031916600160a060020a03928316179081905560008054604080517f095ea7b30000000000000000000000000000000000000000000000000000000081529185166004830152600019602483015251929093169263095ea7b39260448083019360209383900390910190829087803b1580156101bd57600080fd5b505af11580156101d1573d6000803e3d6000fd5b505050506040513d60208110156101e757600080fd5b505115156101f157fe5b600160a060020a038416156102a457600654604080517f095ea7b3000000000000000000000000000000000000000000000000000000008152600160a060020a03878116600483015260001960248301529151919092169163095ea7b39160448083019260209291908290030181600087803b15801561027057600080fd5b505af1158015610284573d6000803e3d6000fd5b505050506040513d602081101561029a57600080fd5b505115156102a457fe5b505060078054600160a060020a03191630179055505050565b600854600160a060020a03165b90565b828054828255906000526020600020908101928215610308579160200282015b828111156103085782518255916020019190600101906102ed565b50610314929150610318565b5090565b6102ca91905b80821115610314576000815560010161031e565b6114ae80620003426000396000f3006080604052600436106100cf5763ffffffff7c010000000000000000000000000000000000000000000000000000000060003504166315298c7781146100d45780631597d78f146101135780632e602752146101445780633764ea001461015957806355af7a831461016e5780636a6be1d9146101835780636f2c83ee14610198578063893d20e8146101ad578063b3f00674146101c2578063cadbbf63146101d7578063d18959a2146101ee578063deff41c114610217578063e87fb07c1461022c578063f75f9f7b14610253575b600080fd5b3480156100e057600080fd5b506100e9610274565b60408051600160a060020a0390941684526020840192909252151582820152519081900360600190f35b34801561011f57600080fd5b5061012861028f565b60408051600160a060020a039092168252519081900360200190f35b34801561015057600080fd5b5061012861029e565b34801561016557600080fd5b506101286102c9565b34801561017a57600080fd5b506101286102d8565b34801561018f57600080fd5b506101286102e7565b3480156101a457600080fd5b506101286102f6565b3480156101b957600080fd5b50610128610305565b3480156101ce57600080fd5b50610128610314565b3480156101e357600080fd5b506101ec61033e565b005b3480156101fa57600080fd5b506102036103f7565b604080519115158252519081900360200190f35b34801561022357600080fd5b50610128610408565b34801561023857600080fd5b50610241610417565b60408051918252519081900360200190f35b34801561025f57600080fd5b506101ec600160a060020a036004351661041d565b600254600354600554600160a060020a039092169160ff1683565b600854600160a060020a031681565b600754600090600160a060020a03163014156102b957600080fd5b50600754600160a060020a031690565b600754600160a060020a031681565b600154600160a060020a031681565b600654600160a060020a031681565b600654600160a060020a031690565b600054600160a060020a031690565b600154600090600160a060020a0316151561032e57600080fd5b50600154600160a060020a031690565b600061034861029e565b60008054604080517f095ea7b3000000000000000000000000000000000000000000000000000000008152600160a060020a039283166004820152600019602482015290519394509084169263095ea7b392604480840193602093929083900390910190829087803b1580156103bd57600080fd5b505af11580156103d1573d6000803e3d6000fd5b505050506040513d60208110156103e757600080fd5b505115156103f457600080fd5b50565b600154600160a060020a0316151590565b600054600160a060020a031681565b60095481565b6001546000908190819081908190600160a060020a0316156104a057604080517f08c379a000000000000000000000000000000000000000000000000000000000815260206004820152601560248201527f43616e206f6e6c792064697370757465206f6e63650000000000000000000000604482015290519081900360640190fd5b6104a8610702565b600160a060020a038616151561051f57604080517f08c379a000000000000000000000000000000000000000000000000000000000815260206004820152601c60248201527f4d75737420686176652076616c69642066656520726563656976657200000000604482015290519081900360640190fd5b6001805473ffffffffffffffffffffffffffffffffffffffff1916600160a060020a03881617905561054f6102f6565b6040805160e060020a6370a082310281523060048201529051919650600160a060020a038716916370a08231916024808201926020929091908290030181600087803b15801561059e57600080fd5b505af11580156105b2573d6000803e3d6000fd5b505050506040513d60208110156105c857600080fd5b505193506105d4610704565b6040805160e060020a6370a082310281523060048201529051919450600160a060020a038716916370a08231916024808201926020929091908290030181600087803b15801561062357600080fd5b505af1158015610637573d6000803e3d6000fd5b505050506040513d602081101561064d57600080fd5b50516007805473ffffffffffffffffffffffffffffffffffffffff1916600160a060020a0386169081179091556040805160e060020a6370a08231028152306004820152905192945090916370a08231916024808201926020929091908290030181600087803b1580156106c057600080fd5b505af11580156106d4573d6000803e3d6000fd5b505050506040513d60208110156106ea57600080fd5b505190508181018411156106fa57fe5b505050505050565b565b6009546008546040805160e060020a6370a08231028152306004820152905160009392849283928392600160a060020a0316916370a0823191602480830192602092919082900301818787803b15801561075d57600080fd5b505af1158015610771573d6000803e3d6000fd5b505050506040513d602081101561078757600080fd5b50519250828411610798578361079a565b825b91506107a46108f4565b604051809103906000f0801580156107c0573d6000803e3d6000fd5b50600854604080517f42966c68000000000000000000000000000000000000000000000000000000008152600481018690529051929350600160a060020a03909116916342966c689160248082019260009290919082900301818387803b15801561082a57600080fd5b505af115801561083e573d6000803e3d6000fd5b50505050600954620c54901415156108ec57604080517f40c10f19000000000000000000000000000000000000000000000000000000008152306004820152602481018690529051600160a060020a038316916340c10f199160448083019260209291908290030181600087803b1580156108b857600080fd5b505af11580156108cc573d6000803e3d6000fd5b505050506040513d60208110156108e257600080fd5b505115156108ec57fe5b949350505050565b604051610b7e8061090583390190560060806040526100163364010000000061001b810204565b6100f8565b6100336003826401000000006109b161006a82021704565b604051600160a060020a038216907f6ae172837ea30b801fbfcdd4108aa1d5bf8ff775444fd70256b44e6bf3dfc3f690600090a250565b600160a060020a038116151561007f57600080fd5b61009282826401000000006100c1810204565b1561009c57600080fd5b600160a060020a0316600090815260209190915260409020805460ff19166001179055565b6000600160a060020a03821615156100d857600080fd5b50600160a060020a03166000908152602091909152604090205460ff1690565b610a77806101076000396000f3006080604052600436106100cf5763ffffffff7c0100000000000000000000000000000000000000000000000000000000600035041663095ea7b381146100d457806318160ddd1461010c57806323b872dd14610133578063395093511461015d57806340c10f191461018157806342966c68146101a557806370a08231146101bf57806379cc6790146101e0578063983b2d56146102045780639865027514610225578063a457c2d71461023a578063a9059cbb1461025e578063aa271e1a14610282578063dd62ed3e146102a3575b600080fd5b3480156100e057600080fd5b506100f8600160a060020a03600435166024356102ca565b604080519115158252519081900360200190f35b34801561011857600080fd5b50610121610348565b60408051918252519081900360200190f35b34801561013f57600080fd5b506100f8600160a060020a036004358116906024351660443561034e565b34801561016957600080fd5b506100f8600160a060020a03600435166024356103eb565b34801561018d57600080fd5b506100f8600160a060020a036004351660243561049b565b3480156101b157600080fd5b506101bd6004356104c4565b005b3480156101cb57600080fd5b50610121600160a060020a03600435166104d1565b3480156101ec57600080fd5b506101bd600160a060020a03600435166024356104ec565b34801561021057600080fd5b506101bd600160a060020a03600435166104fa565b34801561023157600080fd5b506101bd610517565b34801561024657600080fd5b506100f8600160a060020a0360043516602435610522565b34801561026a57600080fd5b506100f8600160a060020a036004351660243561056d565b34801561028e57600080fd5b506100f8600160a060020a036004351661057a565b3480156102af57600080fd5b50610121600160a060020a0360043581169060243516610593565b6000600160a060020a03831615156102e157600080fd5b336000818152600160209081526040808320600160a060020a03881680855290835292819020869055805186815290519293927f8c5be1e5ebec7d5bd14f71427d1e84f3dd0314c0f7b2291e5b200ac8c7c3b925929181900390910190a350600192915050565b60025490565b600160a060020a038316600090815260016020908152604080832033845290915281205482111561037e57600080fd5b600160a060020a03841660009081526001602090815260408083203384529091529020546103b2908363ffffffff6105be16565b600160a060020a03851660009081526001602090815260408083203384529091529020556103e18484846105d5565b5060019392505050565b6000600160a060020a038316151561040257600080fd5b336000908152600160209081526040808320600160a060020a0387168452909152902054610436908363ffffffff6106c716565b336000818152600160209081526040808320600160a060020a0389168085529083529281902085905580519485525191937f8c5be1e5ebec7d5bd14f71427d1e84f3dd0314c0f7b2291e5b200ac8c7c3b925929081900390910190a350600192915050565b60006104a63361057a565b15156104b157600080fd5b6104bb83836106e0565b50600192915050565b6104ce338261078a565b50565b600160a060020a031660009081526020819052604090205490565b6104f68282610858565b5050565b6105033361057a565b151561050e57600080fd5b6104ce816108ea565b61052033610932565b565b6000600160a060020a038316151561053957600080fd5b336000908152600160209081526040808320600160a060020a0387168452909152902054610436908363ffffffff6105be16565b60006104bb3384846105d5565b600061058d60038363ffffffff61097a16565b92915050565b600160a060020a03918216600090815260016020908152604080832093909416825291909152205490565b600080838311156105ce57600080fd5b5050900390565b600160a060020a0383166000908152602081905260409020548111156105fa57600080fd5b600160a060020a038216151561060f57600080fd5b600160a060020a038316600090815260208190526040902054610638908263ffffffff6105be16565b600160a060020a03808516600090815260208190526040808220939093559084168152205461066d908263ffffffff6106c716565b600160a060020a038084166000818152602081815260409182902094909455805185815290519193928716927fddf252ad1be2c89b69c2b068fc378daa952ba7f163c4a11628f55a4df523b3ef92918290030190a3505050565b6000828201838110156106d957600080fd5b9392505050565b600160a060020a03821615156106f557600080fd5b600254610708908263ffffffff6106c716565b600255600160a060020a038216600090815260208190526040902054610734908263ffffffff6106c716565b600160a060020a0383166000818152602081815260408083209490945583518581529351929391927fddf252ad1be2c89b69c2b068fc378daa952ba7f163c4a11628f55a4df523b3ef9281900390910190a35050565b600160a060020a038216151561079f57600080fd5b600160a060020a0382166000908152602081905260409020548111156107c457600080fd5b6002546107d7908263ffffffff6105be16565b600255600160a060020a038216600090815260208190526040902054610803908263ffffffff6105be16565b600160a060020a038316600081815260208181526040808320949094558351858152935191937fddf252ad1be2c89b69c2b068fc378daa952ba7f163c4a11628f55a4df523b3ef929081900390910190a35050565b600160a060020a038216600090815260016020908152604080832033845290915290205481111561088857600080fd5b600160a060020a03821660009081526001602090815260408083203384529091529020546108bc908263ffffffff6105be16565b600160a060020a03831660009081526001602090815260408083203384529091529020556104f6828261078a565b6108fb60038263ffffffff6109b116565b604051600160a060020a038216907f6ae172837ea30b801fbfcdd4108aa1d5bf8ff775444fd70256b44e6bf3dfc3f690600090a250565b61094360038263ffffffff6109ff16565b604051600160a060020a038216907fe94479a9f7e1952cc78f2d6baab678adc1b772d936c6583def489e524cb6669290600090a250565b6000600160a060020a038216151561099157600080fd5b50600160a060020a03166000908152602091909152604090205460ff1690565b600160a060020a03811615156109c657600080fd5b6109d0828261097a565b156109da57600080fd5b600160a060020a0316600090815260209190915260409020805460ff19166001179055565b600160a060020a0381161515610a1457600080fd5b610a1e828261097a565b1515610a2957600080fd5b600160a060020a0316600090815260209190915260409020805460ff191690555600a165627a7a72305820b064c4771bf158f254d0bfa8961081168030fa870a8344a86935fb83c32d797a0029a165627a7a723058205885b1a0c4916d427176599a4d594f517c700c8354b4bdf523f6c74b5785c7e20029",
  "source": "pragma solidity 0.4.24;\n\nimport \"../BaseDisputer.sol\";\nimport \"../IDisputer.sol\";\nimport \"./MockERC20.sol\";\n\n/**\n * Version of disputer that doesn't really interact with Augur and instead\n * pretends to have disputed, by minting/burning tokens.\n *\n * Used to test crowdsourcer.\n */\ncontract MockDisputer is BaseDisputer {\n  MockERC20 public m_repMock;\n  uint256 public m_amountOfREPToDisputeWith;\n\n  constructor(\n    address owner,\n    MockERC20 rep,\n    uint256 amountOfREPToDisputeWith,\n    Market market,\n    uint256 feeWindowId,\n    uint256[] payoutNumerators,\n    bool invalid\n  ) public {\n    m_repMock = rep;\n    m_amountOfREPToDisputeWith = amountOfREPToDisputeWith;\n\n    baseInit(owner, market, feeWindowId, payoutNumerators, invalid);\n  }\n\n  function disputeImpl() internal returns(IERC20) {\n    uint256 amountToCreate = m_amountOfREPToDisputeWith;\n    uint256 balance = m_repMock.balanceOf(this);\n    uint256 amountToDestroy = amountToCreate > balance ? balance : amountToCreate;\n\n    // simulate dispute\n    MockERC20 disputeToken_mock = new MockERC20();\n    m_repMock.burn(amountToDestroy);\n\n    // 808080 is special value used in tests to simulate funds loss\n    if (m_amountOfREPToDisputeWith != 808080) {\n      assert(disputeToken_mock.mint(this, amountToCreate));\n    }\n\n    return disputeToken_mock;\n  }\n\n  function getREPImpl() internal view returns(IERC20) {\n    return m_repMock;\n  }\n\n  // solhint-disable-next-line no-empty-blocks\n  function preDisputeCheck() internal {\n\n  }\n}\n",
  "sourcePath": "/src/contracts/mocks/MockDisputer.sol",
  "compiler": {
    "name": "solc",
    "version": "0.4.24+commit.e67f0147.Emscripten.clang"
  },
  "schemaVersion": "2.0.1",
  "updatedAt": "2018-11-02T05:47:03.989Z"
}