{
  "contractName": "MockDisputerFactory",
  "abi": [
    {
      "constant": true,
      "inputs": [],
      "name": "m_accountToGiveSomeREPTo",
      "outputs": [
        {
          "name": "",
          "type": "address"
        }
      ],
      "payable": false,
      "stateMutability": "view",
      "type": "function"
    },
    {
      "constant": true,
      "inputs": [],
      "name": "m_rep",
      "outputs": [
        {
          "name": "",
          "type": "address"
        }
      ],
      "payable": false,
      "stateMutability": "view",
      "type": "function"
    },
    {
      "constant": true,
      "inputs": [],
      "name": "m_amountOfREPToDisputeWith",
      "outputs": [
        {
          "name": "",
          "type": "uint256"
        }
      ],
      "payable": false,
      "stateMutability": "view",
      "type": "function"
    },
    {
      "constant": true,
      "inputs": [],
      "name": "m_amountOfREPToGive",
      "outputs": [
        {
          "name": "",
          "type": "uint256"
        }
      ],
      "payable": false,
      "stateMutability": "view",
      "type": "function"
    },
    {
      "inputs": [
        {
          "name": "accountToGiveSomeREPTo",
          "type": "address"
        },
        {
          "name": "amountOfREPToGive",
          "type": "uint256"
        },
        {
          "name": "amountOfREPToDisputeWith",
          "type": "uint256"
        }
      ],
      "payable": false,
      "stateMutability": "nonpayable",
      "type": "constructor"
    },
    {
      "anonymous": false,
      "inputs": [
        {
          "indexed": false,
          "name": "_owner",
          "type": "address"
        },
        {
          "indexed": false,
          "name": "_address",
          "type": "address"
        },
        {
          "indexed": false,
          "name": "market",
          "type": "address"
        },
        {
          "indexed": false,
          "name": "feeWindowId",
          "type": "uint256"
        },
        {
          "indexed": false,
          "name": "payoutNumerators",
          "type": "uint256[]"
        },
        {
          "indexed": false,
          "name": "invalid",
          "type": "bool"
        }
      ],
      "name": "DisputerCreated",
      "type": "event"
    },
    {
      "constant": false,
      "inputs": [],
      "name": "prepareMocks",
      "outputs": [],
      "payable": false,
      "stateMutability": "nonpayable",
      "type": "function"
    },
    {
      "constant": false,
      "inputs": [
        {
          "name": "account",
          "type": "address"
        },
        {
          "name": "amount",
          "type": "uint256"
        }
      ],
      "name": "burnREP",
      "outputs": [],
      "payable": false,
      "stateMutability": "nonpayable",
      "type": "function"
    },
    {
      "constant": false,
      "inputs": [
        {
          "name": "owner",
          "type": "address"
        },
        {
          "name": "market",
          "type": "address"
        },
        {
          "name": "feeWindowId",
          "type": "uint256"
        },
        {
          "name": "payoutNumerators",
          "type": "uint256[]"
        },
        {
          "name": "invalid",
          "type": "bool"
        }
      ],
      "name": "create",
      "outputs": [
        {
          "name": "",
          "type": "address"
        }
      ],
      "payable": false,
      "stateMutability": "nonpayable",
      "type": "function"
    }
  ],
  "bytecode": "0x608060405260038054600160a060020a031916905534801561002057600080fd5b5060405160608061296c83398101604090815281516020830151919092015160008054600160a060020a03909416600160a060020a0319909416939093179092556001556002556128f6806100766000396000f3006080604052600436106100825763ffffffff7c010000000000000000000000000000000000000000000000000000000060003504166307febed88114610087578063597274661461009e5780636a6be1d9146100cf578063a2059f97146100e4578063bdb1300214610108578063e87fb07c14610146578063fa14192c1461016d575b600080fd5b34801561009357600080fd5b5061009c610182565b005b3480156100aa57600080fd5b506100b3610286565b60408051600160a060020a039092168252519081900360200190f35b3480156100db57600080fd5b506100b3610295565b3480156100f057600080fd5b5061009c600160a060020a03600435166024356102a4565b34801561011457600080fd5b506100b3600160a060020a03600480358216916024803590911691604435916064359081019101356084351515610342565b34801561015257600080fd5b5061015b6104be565b60408051918252519081900360200190f35b34801561017957600080fd5b5061015b6104c4565b600354600160a060020a03161561019557fe5b61019d6104ca565b604051809103906000f0801580156101b9573d6000803e3d6000fd5b506003805473ffffffffffffffffffffffffffffffffffffffff1916600160a060020a03928316179081905560008054600154604080517f40c10f19000000000000000000000000000000000000000000000000000000008152928616600484015260248301919091525192909316926340c10f199260448083019360209383900390910190829087803b15801561025057600080fd5b505af1158015610264573d6000803e3d6000fd5b505050506040513d602081101561027a57600080fd5b5051151561028457fe5b565b600054600160a060020a031681565b600354600160a060020a031681565b600354600160a060020a031615156102b857fe5b600354604080517f2fabb326000000000000000000000000000000000000000000000000000000008152600160a060020a0385811660048301526024820185905291519190921691632fabb32691604480830192600092919082900301818387803b15801561032657600080fd5b505af115801561033a573d6000803e3d6000fd5b505050505050565b6003546000908190600160a060020a0316151561035b57fe5b6003546002548991600160a060020a031690898989898961037a6104da565b600160a060020a03808a1682528881166020808401919091526040830189905290871660608301526080820186905282151560c083015260e060a0830181815290830185905290610100830190869086028082843782019150509950505050505050505050604051809103906000f0801580156103fb573d6000803e3d6000fd5b5090507fdc33eb9102aa503367a57c7a80dce32304f72659b35fbeec109348e46934b3d6888289898989896040518088600160a060020a0316600160a060020a0316815260200187600160a060020a0316600160a060020a0316815260200186600160a060020a0316600160a060020a031681526020018581526020018060200183151515158152602001828103825285858281815260200192506020028082843760405192018290039a509098505050505050505050a1979650505050505050565b60025481565b60015481565b604051610bb7806104eb83390190565b604051611829806110a283390190560060806040526100163364010000000061001b810204565b6100f8565b6100336003826401000000006109ea61006a82021704565b604051600160a060020a038216907f6ae172837ea30b801fbfcdd4108aa1d5bf8ff775444fd70256b44e6bf3dfc3f690600090a250565b600160a060020a038116151561007f57600080fd5b61009282826401000000006100c1810204565b1561009c57600080fd5b600160a060020a0316600090815260209190915260409020805460ff19166001179055565b6000600160a060020a03821615156100d857600080fd5b50600160a060020a03166000908152602091909152604090205460ff1690565b610ab0806101076000396000f3006080604052600436106100da5763ffffffff7c0100000000000000000000000000000000000000000000000000000000600035041663095ea7b381146100df57806318160ddd1461011757806323b872dd1461013e5780632fabb32614610168578063395093511461018e57806340c10f19146101b257806342966c68146101d657806370a08231146101ee57806379cc67901461020f578063983b2d56146102335780639865027514610254578063a457c2d714610269578063a9059cbb1461028d578063aa271e1a146102b1578063dd62ed3e146102d2575b600080fd5b3480156100eb57600080fd5b50610103600160a060020a03600435166024356102f9565b604080519115158252519081900360200190f35b34801561012357600080fd5b5061012c610377565b60408051918252519081900360200190f35b34801561014a57600080fd5b50610103600160a060020a036004358116906024351660443561037d565b34801561017457600080fd5b5061018c600160a060020a036004351660243561041a565b005b34801561019a57600080fd5b50610103600160a060020a0360043516602435610428565b3480156101be57600080fd5b50610103600160a060020a03600435166024356104d8565b3480156101e257600080fd5b5061018c600435610501565b3480156101fa57600080fd5b5061012c600160a060020a036004351661050e565b34801561021b57600080fd5b5061018c600160a060020a0360043516602435610529565b34801561023f57600080fd5b5061018c600160a060020a0360043516610533565b34801561026057600080fd5b5061018c610550565b34801561027557600080fd5b50610103600160a060020a036004351660243561055b565b34801561029957600080fd5b50610103600160a060020a03600435166024356105a6565b3480156102bd57600080fd5b50610103600160a060020a03600435166105b3565b3480156102de57600080fd5b5061012c600160a060020a03600435811690602435166105cc565b6000600160a060020a038316151561031057600080fd5b336000818152600160209081526040808320600160a060020a03881680855290835292819020869055805186815290519293927f8c5be1e5ebec7d5bd14f71427d1e84f3dd0314c0f7b2291e5b200ac8c7c3b925929181900390910190a350600192915050565b60025490565b600160a060020a03831660009081526001602090815260408083203384529091528120548211156103ad57600080fd5b600160a060020a03841660009081526001602090815260408083203384529091529020546103e1908363ffffffff6105f716565b600160a060020a038516600090815260016020908152604080832033845290915290205561041084848461060e565b5060019392505050565b6104248282610700565b5050565b6000600160a060020a038316151561043f57600080fd5b336000908152600160209081526040808320600160a060020a0387168452909152902054610473908363ffffffff6107ce16565b336000818152600160209081526040808320600160a060020a0389168085529083529281902085905580519485525191937f8c5be1e5ebec7d5bd14f71427d1e84f3dd0314c0f7b2291e5b200ac8c7c3b925929081900390910190a350600192915050565b60006104e3336105b3565b15156104ee57600080fd5b6104f883836107e7565b50600192915050565b61050b3382610700565b50565b600160a060020a031660009081526020819052604090205490565b6104248282610891565b61053c336105b3565b151561054757600080fd5b61050b81610923565b6105593361096b565b565b6000600160a060020a038316151561057257600080fd5b336000908152600160209081526040808320600160a060020a0387168452909152902054610473908363ffffffff6105f716565b60006104f833848461060e565b60006105c660038363ffffffff6109b316565b92915050565b600160a060020a03918216600090815260016020908152604080832093909416825291909152205490565b6000808383111561060757600080fd5b5050900390565b600160a060020a03831660009081526020819052604090205481111561063357600080fd5b600160a060020a038216151561064857600080fd5b600160a060020a038316600090815260208190526040902054610671908263ffffffff6105f716565b600160a060020a0380851660009081526020819052604080822093909355908416815220546106a6908263ffffffff6107ce16565b600160a060020a038084166000818152602081815260409182902094909455805185815290519193928716927fddf252ad1be2c89b69c2b068fc378daa952ba7f163c4a11628f55a4df523b3ef92918290030190a3505050565b600160a060020a038216151561071557600080fd5b600160a060020a03821660009081526020819052604090205481111561073a57600080fd5b60025461074d908263ffffffff6105f716565b600255600160a060020a038216600090815260208190526040902054610779908263ffffffff6105f716565b600160a060020a038316600081815260208181526040808320949094558351858152935191937fddf252ad1be2c89b69c2b068fc378daa952ba7f163c4a11628f55a4df523b3ef929081900390910190a35050565b6000828201838110156107e057600080fd5b9392505050565b600160a060020a03821615156107fc57600080fd5b60025461080f908263ffffffff6107ce16565b600255600160a060020a03821660009081526020819052604090205461083b908263ffffffff6107ce16565b600160a060020a0383166000818152602081815260408083209490945583518581529351929391927fddf252ad1be2c89b69c2b068fc378daa952ba7f163c4a11628f55a4df523b3ef9281900390910190a35050565b600160a060020a03821660009081526001602090815260408083203384529091529020548111156108c157600080fd5b600160a060020a03821660009081526001602090815260408083203384529091529020546108f5908263ffffffff6105f716565b600160a060020a03831660009081526001602090815260408083203384529091529020556104248282610700565b61093460038263ffffffff6109ea16565b604051600160a060020a038216907f6ae172837ea30b801fbfcdd4108aa1d5bf8ff775444fd70256b44e6bf3dfc3f690600090a250565b61097c60038263ffffffff610a3816565b604051600160a060020a038216907fe94479a9f7e1952cc78f2d6baab678adc1b772d936c6583def489e524cb6669290600090a250565b6000600160a060020a03821615156109ca57600080fd5b50600160a060020a03166000908152602091909152604090205460ff1690565b600160a060020a03811615156109ff57600080fd5b610a0982826109b3565b15610a1357600080fd5b600160a060020a0316600090815260209190915260409020805460ff19166001179055565b600160a060020a0381161515610a4d57600080fd5b610a5782826109b3565b1515610a6257600080fd5b600160a060020a0316600090815260209190915260409020805460ff191690555600a165627a7a72305820317d8c09e086f1af89b78e2f36485379c8d8f51352636f50c6083f4745c8de650029608060405260018054600160a060020a031916905534801561002057600080fd5b50604051620018293803806200182983398101604090815281516020830151918301516060840151608085015160a086015160c087015160088054600160a060020a031916600160a060020a0389161790556009859055949693949293919291019061009887858585856401000000006100a4810204565b50505050505050610332565b60008054600160a060020a03808816600160a060020a0319928316179092556040805160808101825292871680845260208085018890529184018690528415156060850152600280549093161782556003869055845161010a91600491908701906102cd565b50606091909101516003909101805460ff19169115159190911790556101376401000000006102bd810204565b60068054600160a060020a031916600160a060020a03928316179081905560008054604080517f095ea7b30000000000000000000000000000000000000000000000000000000081529185166004830152600019602483015251929093169263095ea7b39260448083019360209383900390910190829087803b1580156101bd57600080fd5b505af11580156101d1573d6000803e3d6000fd5b505050506040513d60208110156101e757600080fd5b505115156101f157fe5b600160a060020a038416156102a457600654604080517f095ea7b3000000000000000000000000000000000000000000000000000000008152600160a060020a03878116600483015260001960248301529151919092169163095ea7b39160448083019260209291908290030181600087803b15801561027057600080fd5b505af1158015610284573d6000803e3d6000fd5b505050506040513d602081101561029a57600080fd5b505115156102a457fe5b505060078054600160a060020a03191630179055505050565b600854600160a060020a03165b90565b828054828255906000526020600020908101928215610308579160200282015b828111156103085782518255916020019190600101906102ed565b50610314929150610318565b5090565b6102ca91905b80821115610314576000815560010161031e565b6114e780620003426000396000f3006080604052600436106100cf5763ffffffff7c010000000000000000000000000000000000000000000000000000000060003504166315298c7781146100d45780631597d78f146101135780632e602752146101445780633764ea001461015957806355af7a831461016e5780636a6be1d9146101835780636f2c83ee14610198578063893d20e8146101ad578063b3f00674146101c2578063cadbbf63146101d7578063d18959a2146101ee578063deff41c114610217578063e87fb07c1461022c578063f75f9f7b14610253575b600080fd5b3480156100e057600080fd5b506100e9610274565b60408051600160a060020a0390941684526020840192909252151582820152519081900360600190f35b34801561011f57600080fd5b5061012861028f565b60408051600160a060020a039092168252519081900360200190f35b34801561015057600080fd5b5061012861029e565b34801561016557600080fd5b506101286102c9565b34801561017a57600080fd5b506101286102d8565b34801561018f57600080fd5b506101286102e7565b3480156101a457600080fd5b506101286102f6565b3480156101b957600080fd5b50610128610305565b3480156101ce57600080fd5b50610128610314565b3480156101e357600080fd5b506101ec61033e565b005b3480156101fa57600080fd5b506102036103f7565b604080519115158252519081900360200190f35b34801561022357600080fd5b50610128610408565b34801561023857600080fd5b50610241610417565b60408051918252519081900360200190f35b34801561025f57600080fd5b506101ec600160a060020a036004351661041d565b600254600354600554600160a060020a039092169160ff1683565b600854600160a060020a031681565b600754600090600160a060020a03163014156102b957600080fd5b50600754600160a060020a031690565b600754600160a060020a031681565b600154600160a060020a031681565b600654600160a060020a031681565b600654600160a060020a031690565b600054600160a060020a031690565b600154600090600160a060020a0316151561032e57600080fd5b50600154600160a060020a031690565b600061034861029e565b60008054604080517f095ea7b3000000000000000000000000000000000000000000000000000000008152600160a060020a039283166004820152600019602482015290519394509084169263095ea7b392604480840193602093929083900390910190829087803b1580156103bd57600080fd5b505af11580156103d1573d6000803e3d6000fd5b505050506040513d60208110156103e757600080fd5b505115156103f457600080fd5b50565b600154600160a060020a0316151590565b600054600160a060020a031681565b60095481565b6001546000908190819081908190600160a060020a0316156104a057604080517f08c379a000000000000000000000000000000000000000000000000000000000815260206004820152601560248201527f43616e206f6e6c792064697370757465206f6e63650000000000000000000000604482015290519081900360640190fd5b6104a8610702565b600160a060020a038616151561051f57604080517f08c379a000000000000000000000000000000000000000000000000000000000815260206004820152601c60248201527f4d75737420686176652076616c69642066656520726563656976657200000000604482015290519081900360640190fd5b6001805473ffffffffffffffffffffffffffffffffffffffff1916600160a060020a03881617905561054f6102f6565b6040805160e060020a6370a082310281523060048201529051919650600160a060020a038716916370a08231916024808201926020929091908290030181600087803b15801561059e57600080fd5b505af11580156105b2573d6000803e3d6000fd5b505050506040513d60208110156105c857600080fd5b505193506105d4610704565b6040805160e060020a6370a082310281523060048201529051919450600160a060020a038716916370a08231916024808201926020929091908290030181600087803b15801561062357600080fd5b505af1158015610637573d6000803e3d6000fd5b505050506040513d602081101561064d57600080fd5b50516007805473ffffffffffffffffffffffffffffffffffffffff1916600160a060020a0386169081179091556040805160e060020a6370a08231028152306004820152905192945090916370a08231916024808201926020929091908290030181600087803b1580156106c057600080fd5b505af11580156106d4573d6000803e3d6000fd5b505050506040513d60208110156106ea57600080fd5b505190508181018411156106fa57fe5b505050505050565b565b6009546008546040805160e060020a6370a08231028152306004820152905160009392849283928392600160a060020a0316916370a0823191602480830192602092919082900301818787803b15801561075d57600080fd5b505af1158015610771573d6000803e3d6000fd5b505050506040513d602081101561078757600080fd5b50519250828411610798578361079a565b825b91506107a46108f4565b604051809103906000f0801580156107c0573d6000803e3d6000fd5b50600854604080517f42966c68000000000000000000000000000000000000000000000000000000008152600481018690529051929350600160a060020a03909116916342966c689160248082019260009290919082900301818387803b15801561082a57600080fd5b505af115801561083e573d6000803e3d6000fd5b50505050600954620c54901415156108ec57604080517f40c10f19000000000000000000000000000000000000000000000000000000008152306004820152602481018690529051600160a060020a038316916340c10f199160448083019260209291908290030181600087803b1580156108b857600080fd5b505af11580156108cc573d6000803e3d6000fd5b505050506040513d60208110156108e257600080fd5b505115156108ec57fe5b949350505050565b604051610bb78061090583390190560060806040526100163364010000000061001b810204565b6100f8565b6100336003826401000000006109ea61006a82021704565b604051600160a060020a038216907f6ae172837ea30b801fbfcdd4108aa1d5bf8ff775444fd70256b44e6bf3dfc3f690600090a250565b600160a060020a038116151561007f57600080fd5b61009282826401000000006100c1810204565b1561009c57600080fd5b600160a060020a0316600090815260209190915260409020805460ff19166001179055565b6000600160a060020a03821615156100d857600080fd5b50600160a060020a03166000908152602091909152604090205460ff1690565b610ab0806101076000396000f3006080604052600436106100da5763ffffffff7c0100000000000000000000000000000000000000000000000000000000600035041663095ea7b381146100df57806318160ddd1461011757806323b872dd1461013e5780632fabb32614610168578063395093511461018e57806340c10f19146101b257806342966c68146101d657806370a08231146101ee57806379cc67901461020f578063983b2d56146102335780639865027514610254578063a457c2d714610269578063a9059cbb1461028d578063aa271e1a146102b1578063dd62ed3e146102d2575b600080fd5b3480156100eb57600080fd5b50610103600160a060020a03600435166024356102f9565b604080519115158252519081900360200190f35b34801561012357600080fd5b5061012c610377565b60408051918252519081900360200190f35b34801561014a57600080fd5b50610103600160a060020a036004358116906024351660443561037d565b34801561017457600080fd5b5061018c600160a060020a036004351660243561041a565b005b34801561019a57600080fd5b50610103600160a060020a0360043516602435610428565b3480156101be57600080fd5b50610103600160a060020a03600435166024356104d8565b3480156101e257600080fd5b5061018c600435610501565b3480156101fa57600080fd5b5061012c600160a060020a036004351661050e565b34801561021b57600080fd5b5061018c600160a060020a0360043516602435610529565b34801561023f57600080fd5b5061018c600160a060020a0360043516610533565b34801561026057600080fd5b5061018c610550565b34801561027557600080fd5b50610103600160a060020a036004351660243561055b565b34801561029957600080fd5b50610103600160a060020a03600435166024356105a6565b3480156102bd57600080fd5b50610103600160a060020a03600435166105b3565b3480156102de57600080fd5b5061012c600160a060020a03600435811690602435166105cc565b6000600160a060020a038316151561031057600080fd5b336000818152600160209081526040808320600160a060020a03881680855290835292819020869055805186815290519293927f8c5be1e5ebec7d5bd14f71427d1e84f3dd0314c0f7b2291e5b200ac8c7c3b925929181900390910190a350600192915050565b60025490565b600160a060020a03831660009081526001602090815260408083203384529091528120548211156103ad57600080fd5b600160a060020a03841660009081526001602090815260408083203384529091529020546103e1908363ffffffff6105f716565b600160a060020a038516600090815260016020908152604080832033845290915290205561041084848461060e565b5060019392505050565b6104248282610700565b5050565b6000600160a060020a038316151561043f57600080fd5b336000908152600160209081526040808320600160a060020a0387168452909152902054610473908363ffffffff6107ce16565b336000818152600160209081526040808320600160a060020a0389168085529083529281902085905580519485525191937f8c5be1e5ebec7d5bd14f71427d1e84f3dd0314c0f7b2291e5b200ac8c7c3b925929081900390910190a350600192915050565b60006104e3336105b3565b15156104ee57600080fd5b6104f883836107e7565b50600192915050565b61050b3382610700565b50565b600160a060020a031660009081526020819052604090205490565b6104248282610891565b61053c336105b3565b151561054757600080fd5b61050b81610923565b6105593361096b565b565b6000600160a060020a038316151561057257600080fd5b336000908152600160209081526040808320600160a060020a0387168452909152902054610473908363ffffffff6105f716565b60006104f833848461060e565b60006105c660038363ffffffff6109b316565b92915050565b600160a060020a03918216600090815260016020908152604080832093909416825291909152205490565b6000808383111561060757600080fd5b5050900390565b600160a060020a03831660009081526020819052604090205481111561063357600080fd5b600160a060020a038216151561064857600080fd5b600160a060020a038316600090815260208190526040902054610671908263ffffffff6105f716565b600160a060020a0380851660009081526020819052604080822093909355908416815220546106a6908263ffffffff6107ce16565b600160a060020a038084166000818152602081815260409182902094909455805185815290519193928716927fddf252ad1be2c89b69c2b068fc378daa952ba7f163c4a11628f55a4df523b3ef92918290030190a3505050565b600160a060020a038216151561071557600080fd5b600160a060020a03821660009081526020819052604090205481111561073a57600080fd5b60025461074d908263ffffffff6105f716565b600255600160a060020a038216600090815260208190526040902054610779908263ffffffff6105f716565b600160a060020a038316600081815260208181526040808320949094558351858152935191937fddf252ad1be2c89b69c2b068fc378daa952ba7f163c4a11628f55a4df523b3ef929081900390910190a35050565b6000828201838110156107e057600080fd5b9392505050565b600160a060020a03821615156107fc57600080fd5b60025461080f908263ffffffff6107ce16565b600255600160a060020a03821660009081526020819052604090205461083b908263ffffffff6107ce16565b600160a060020a0383166000818152602081815260408083209490945583518581529351929391927fddf252ad1be2c89b69c2b068fc378daa952ba7f163c4a11628f55a4df523b3ef9281900390910190a35050565b600160a060020a03821660009081526001602090815260408083203384529091529020548111156108c157600080fd5b600160a060020a03821660009081526001602090815260408083203384529091529020546108f5908263ffffffff6105f716565b600160a060020a03831660009081526001602090815260408083203384529091529020556104248282610700565b61093460038263ffffffff6109ea16565b604051600160a060020a038216907f6ae172837ea30b801fbfcdd4108aa1d5bf8ff775444fd70256b44e6bf3dfc3f690600090a250565b61097c60038263ffffffff610a3816565b604051600160a060020a038216907fe94479a9f7e1952cc78f2d6baab678adc1b772d936c6583def489e524cb6669290600090a250565b6000600160a060020a03821615156109ca57600080fd5b50600160a060020a03166000908152602091909152604090205460ff1690565b600160a060020a03811615156109ff57600080fd5b610a0982826109b3565b15610a1357600080fd5b600160a060020a0316600090815260209190915260409020805460ff19166001179055565b600160a060020a0381161515610a4d57600080fd5b610a5782826109b3565b1515610a6257600080fd5b600160a060020a0316600090815260209190915260409020805460ff191690555600a165627a7a72305820317d8c09e086f1af89b78e2f36485379c8d8f51352636f50c6083f4745c8de650029a165627a7a7230582031792031ffaf05d2c90749096f53410b72475c554d6db7de7374813142f1d5b40029a165627a7a72305820ea54b926ec13e93388ffa5a640430579c10e0ce741b68211b53dee76128f70150029",
  "source": "pragma solidity 0.4.24;\n\nimport \"../IDisputerFactory.sol\";\nimport \"../IDisputer.sol\";\nimport \"./MockDisputer.sol\";\nimport \"./MockERC20.sol\";\n\ncontract MockDisputerFactory is IDisputerFactory {\n  address public m_accountToGiveSomeREPTo;\n  uint256 public m_amountOfREPToGive;\n  uint256 public m_amountOfREPToDisputeWith;\n\n  MockERC20 public m_rep = MockERC20(0);\n\n  constructor(\n    address accountToGiveSomeREPTo,\n    uint256 amountOfREPToGive,\n    uint256 amountOfREPToDisputeWith\n  ) public {\n    m_accountToGiveSomeREPTo = accountToGiveSomeREPTo;\n    m_amountOfREPToGive = amountOfREPToGive;\n    m_amountOfREPToDisputeWith = amountOfREPToDisputeWith;\n  }\n\n  /**\n   * This is in a separate function to avoid out-of-gas errors during testing\n   */\n  function prepareMocks() external {\n    assert(address(m_rep) == 0);\n    m_rep = new MockERC20();\n    assert(m_rep.mint(m_accountToGiveSomeREPTo, m_amountOfREPToGive));\n  }\n\n  function burnREP(address account, uint256 amount) external {\n    assert(address(m_rep) != 0);\n    m_rep.burnFromForced(account, amount);\n  }\n\n  function create(\n    address owner,\n    Market market,\n    uint256 feeWindowId,\n    uint256[] payoutNumerators,\n    bool invalid\n  ) external returns(IDisputer) {\n    assert(address(m_rep) != 0);\n    IDisputer _address = new MockDisputer(\n      owner,\n      m_rep,\n      m_amountOfREPToDisputeWith,\n      market,\n      feeWindowId,\n      payoutNumerators,\n      invalid\n    );\n    emit DisputerCreated(\n      owner,\n      _address,\n      market,\n      feeWindowId,\n      payoutNumerators,\n      invalid\n    );\n    return _address;\n  }\n}\n",
  "sourcePath": "/src/contracts/mocks/MockDisputerFactory.sol",
  "compiler": {
    "name": "solc",
    "version": "0.4.24+commit.e67f0147.Emscripten.clang"
  },
  "schemaVersion": "2.0.1",
  "updatedAt": "2018-11-09T21:30:42.972Z"
}