{
  "contractName": "MockCrowdsourcerParent",
  "abi": [
    {
      "constant": true,
      "inputs": [],
      "name": "m_feeRecipient",
      "outputs": [
        {
          "name": "",
          "type": "address"
        }
      ],
      "payable": false,
      "stateMutability": "view",
      "type": "function"
    },
    {
      "inputs": [
        {
          "name": "feeRecepient",
          "type": "address"
        }
      ],
      "payable": false,
      "stateMutability": "nonpayable",
      "type": "constructor"
    },
    {
      "constant": true,
      "inputs": [],
      "name": "getContractFeeReceiver",
      "outputs": [
        {
          "name": "",
          "type": "address"
        }
      ],
      "payable": false,
      "stateMutability": "view",
      "type": "function"
    }
  ],
  "bytecode": "0x608060405234801561001057600080fd5b506040516020806101fc83398101806040528101908080519060200190929190505050806000806101000a81548173ffffffffffffffffffffffffffffffffffffffff021916908373ffffffffffffffffffffffffffffffffffffffff16021790555050610179806100836000396000f30060806040526004361061004c576000357c0100000000000000000000000000000000000000000000000000000000900463ffffffff1680635fbfd48d14610051578063d2a2fc94146100a8575b600080fd5b34801561005d57600080fd5b506100666100ff565b604051808273ffffffffffffffffffffffffffffffffffffffff1673ffffffffffffffffffffffffffffffffffffffff16815260200191505060405180910390f35b3480156100b457600080fd5b506100bd610124565b604051808273ffffffffffffffffffffffffffffffffffffffff1673ffffffffffffffffffffffffffffffffffffffff16815260200191505060405180910390f35b6000809054906101000a900473ffffffffffffffffffffffffffffffffffffffff1681565b60008060009054906101000a900473ffffffffffffffffffffffffffffffffffffffff169050905600a165627a7a72305820ea8b4fb7096647d778309a9cd97e07abbef070091646676dbd1c16c3b356cb110029",
  "source": "pragma solidity 0.4.24;\n\nimport \"../ICrowdsourcerParent.sol\";\n\ncontract MockCrowdsourcerParent is ICrowdsourcerParent {\n  address public m_feeRecipient;\n\n  constructor(address feeRecepient) public {\n    m_feeRecipient = feeRecepient;\n  }\n\n  function getContractFeeReceiver() external view returns(address) {\n    return m_feeRecipient;\n  }\n}\n",
  "sourcePath": "/src/contracts/mocks/MockCrowdsourcerParent.sol",
  "compiler": {
    "name": "solc",
    "version": "0.4.24+commit.e67f0147.Emscripten.clang"
  },
  "schemaVersion": "2.0.1",
  "updatedAt": "2018-11-02T05:08:36.953Z"
}