{
  "contractName": "MockCrowdsourcerParent",
  "abi": [
    {
      "inputs": [
        {
          "name": "feeRecepient",
          "type": "address"
        }
      ],
      "payable": false,
      "stateMutability": "nonpayable",
      "type": "constructor"
    },
    {
      "constant": true,
      "inputs": [],
      "name": "getContractFeeReceiver",
      "outputs": [
        {
          "name": "",
          "type": "address"
        }
      ],
      "payable": false,
      "stateMutability": "view",
      "type": "function"
    }
  ],
  "bytecode": "0x608060405234801561001057600080fd5b5060405160208061016f83398101806040528101908080519060200190929190505050806000806101000a81548173ffffffffffffffffffffffffffffffffffffffff021916908373ffffffffffffffffffffffffffffffffffffffff1602179055505060ed806100826000396000f300608060405260043610603f576000357c0100000000000000000000000000000000000000000000000000000000900463ffffffff168063d2a2fc94146044575b600080fd5b348015604f57600080fd5b5060566098565b604051808273ffffffffffffffffffffffffffffffffffffffff1673ffffffffffffffffffffffffffffffffffffffff16815260200191505060405180910390f35b60008060009054906101000a900473ffffffffffffffffffffffffffffffffffffffff169050905600a165627a7a7230582061aa5441efdd2f200c5909498fb906296feb33b70db35e7f0c87e98bd826a3a90029",
  "source": "pragma solidity ^0.4.24;\n\nimport \"../ICrowdsourcerParent.sol\";\n\ncontract MockCrowdsourcerParent is ICrowdsourcerParent {\n  address m_feeRecipient;\n\n  constructor(address feeRecepient) public {\n    m_feeRecipient = feeRecepient;\n  }\n\n  function getContractFeeReceiver() external view returns (address) {\n    return m_feeRecipient;\n  }\n}\n",
  "sourcePath": "/src/contracts/mocks/MockCrowdsourcerParent.sol",
  "compiler": {
    "name": "solc",
    "version": "0.4.24+commit.e67f0147.Emscripten.clang"
  },
  "schemaVersion": "2.0.1",
  "updatedAt": "2018-11-01T04:00:36.755Z"
}