{
  "contractName": "MockERC20",
  "abi": [
    {
      "constant": false,
      "inputs": [
        {
          "name": "spender",
          "type": "address"
        },
        {
          "name": "value",
          "type": "uint256"
        }
      ],
      "name": "approve",
      "outputs": [
        {
          "name": "",
          "type": "bool"
        }
      ],
      "payable": false,
      "stateMutability": "nonpayable",
      "type": "function"
    },
    {
      "constant": true,
      "inputs": [],
      "name": "totalSupply",
      "outputs": [
        {
          "name": "",
          "type": "uint256"
        }
      ],
      "payable": false,
      "stateMutability": "view",
      "type": "function"
    },
    {
      "constant": false,
      "inputs": [
        {
          "name": "from",
          "type": "address"
        },
        {
          "name": "to",
          "type": "address"
        },
        {
          "name": "value",
          "type": "uint256"
        }
      ],
      "name": "transferFrom",
      "outputs": [
        {
          "name": "",
          "type": "bool"
        }
      ],
      "payable": false,
      "stateMutability": "nonpayable",
      "type": "function"
    },
    {
      "constant": false,
      "inputs": [
        {
          "name": "spender",
          "type": "address"
        },
        {
          "name": "addedValue",
          "type": "uint256"
        }
      ],
      "name": "increaseAllowance",
      "outputs": [
        {
          "name": "",
          "type": "bool"
        }
      ],
      "payable": false,
      "stateMutability": "nonpayable",
      "type": "function"
    },
    {
      "constant": false,
      "inputs": [
        {
          "name": "to",
          "type": "address"
        },
        {
          "name": "value",
          "type": "uint256"
        }
      ],
      "name": "mint",
      "outputs": [
        {
          "name": "",
          "type": "bool"
        }
      ],
      "payable": false,
      "stateMutability": "nonpayable",
      "type": "function"
    },
    {
      "constant": false,
      "inputs": [
        {
          "name": "value",
          "type": "uint256"
        }
      ],
      "name": "burn",
      "outputs": [],
      "payable": false,
      "stateMutability": "nonpayable",
      "type": "function"
    },
    {
      "constant": true,
      "inputs": [
        {
          "name": "owner",
          "type": "address"
        }
      ],
      "name": "balanceOf",
      "outputs": [
        {
          "name": "",
          "type": "uint256"
        }
      ],
      "payable": false,
      "stateMutability": "view",
      "type": "function"
    },
    {
      "constant": false,
      "inputs": [
        {
          "name": "from",
          "type": "address"
        },
        {
          "name": "value",
          "type": "uint256"
        }
      ],
      "name": "burnFrom",
      "outputs": [],
      "payable": false,
      "stateMutability": "nonpayable",
      "type": "function"
    },
    {
      "constant": false,
      "inputs": [
        {
          "name": "account",
          "type": "address"
        }
      ],
      "name": "addMinter",
      "outputs": [],
      "payable": false,
      "stateMutability": "nonpayable",
      "type": "function"
    },
    {
      "constant": false,
      "inputs": [],
      "name": "renounceMinter",
      "outputs": [],
      "payable": false,
      "stateMutability": "nonpayable",
      "type": "function"
    },
    {
      "constant": false,
      "inputs": [
        {
          "name": "spender",
          "type": "address"
        },
        {
          "name": "subtractedValue",
          "type": "uint256"
        }
      ],
      "name": "decreaseAllowance",
      "outputs": [
        {
          "name": "",
          "type": "bool"
        }
      ],
      "payable": false,
      "stateMutability": "nonpayable",
      "type": "function"
    },
    {
      "constant": false,
      "inputs": [
        {
          "name": "to",
          "type": "address"
        },
        {
          "name": "value",
          "type": "uint256"
        }
      ],
      "name": "transfer",
      "outputs": [
        {
          "name": "",
          "type": "bool"
        }
      ],
      "payable": false,
      "stateMutability": "nonpayable",
      "type": "function"
    },
    {
      "constant": true,
      "inputs": [
        {
          "name": "account",
          "type": "address"
        }
      ],
      "name": "isMinter",
      "outputs": [
        {
          "name": "",
          "type": "bool"
        }
      ],
      "payable": false,
      "stateMutability": "view",
      "type": "function"
    },
    {
      "constant": true,
      "inputs": [
        {
          "name": "owner",
          "type": "address"
        },
        {
          "name": "spender",
          "type": "address"
        }
      ],
      "name": "allowance",
      "outputs": [
        {
          "name": "",
          "type": "uint256"
        }
      ],
      "payable": false,
      "stateMutability": "view",
      "type": "function"
    },
    {
      "anonymous": false,
      "inputs": [
        {
          "indexed": true,
          "name": "account",
          "type": "address"
        }
      ],
      "name": "MinterAdded",
      "type": "event"
    },
    {
      "anonymous": false,
      "inputs": [
        {
          "indexed": true,
          "name": "account",
          "type": "address"
        }
      ],
      "name": "MinterRemoved",
      "type": "event"
    },
    {
      "anonymous": false,
      "inputs": [
        {
          "indexed": true,
          "name": "from",
          "type": "address"
        },
        {
          "indexed": true,
          "name": "to",
          "type": "address"
        },
        {
          "indexed": false,
          "name": "value",
          "type": "uint256"
        }
      ],
      "name": "Transfer",
      "type": "event"
    },
    {
      "anonymous": false,
      "inputs": [
        {
          "indexed": true,
          "name": "owner",
          "type": "address"
        },
        {
          "indexed": true,
          "name": "spender",
          "type": "address"
        },
        {
          "indexed": false,
          "name": "value",
          "type": "uint256"
        }
      ],
      "name": "Approval",
      "type": "event"
    }
  ],
  "bytecode": "0x60806040526100163364010000000061001b810204565b6100f8565b6100336003826401000000006109b161006a82021704565b604051600160a060020a038216907f6ae172837ea30b801fbfcdd4108aa1d5bf8ff775444fd70256b44e6bf3dfc3f690600090a250565b600160a060020a038116151561007f57600080fd5b61009282826401000000006100c1810204565b1561009c57600080fd5b600160a060020a0316600090815260209190915260409020805460ff19166001179055565b6000600160a060020a03821615156100d857600080fd5b50600160a060020a03166000908152602091909152604090205460ff1690565b610a77806101076000396000f3006080604052600436106100cf5763ffffffff7c0100000000000000000000000000000000000000000000000000000000600035041663095ea7b381146100d457806318160ddd1461010c57806323b872dd14610133578063395093511461015d57806340c10f191461018157806342966c68146101a557806370a08231146101bf57806379cc6790146101e0578063983b2d56146102045780639865027514610225578063a457c2d71461023a578063a9059cbb1461025e578063aa271e1a14610282578063dd62ed3e146102a3575b600080fd5b3480156100e057600080fd5b506100f8600160a060020a03600435166024356102ca565b604080519115158252519081900360200190f35b34801561011857600080fd5b50610121610348565b60408051918252519081900360200190f35b34801561013f57600080fd5b506100f8600160a060020a036004358116906024351660443561034e565b34801561016957600080fd5b506100f8600160a060020a03600435166024356103eb565b34801561018d57600080fd5b506100f8600160a060020a036004351660243561049b565b3480156101b157600080fd5b506101bd6004356104c4565b005b3480156101cb57600080fd5b50610121600160a060020a03600435166104d1565b3480156101ec57600080fd5b506101bd600160a060020a03600435166024356104ec565b34801561021057600080fd5b506101bd600160a060020a03600435166104fa565b34801561023157600080fd5b506101bd610517565b34801561024657600080fd5b506100f8600160a060020a0360043516602435610522565b34801561026a57600080fd5b506100f8600160a060020a036004351660243561056d565b34801561028e57600080fd5b506100f8600160a060020a036004351661057a565b3480156102af57600080fd5b50610121600160a060020a0360043581169060243516610593565b6000600160a060020a03831615156102e157600080fd5b336000818152600160209081526040808320600160a060020a03881680855290835292819020869055805186815290519293927f8c5be1e5ebec7d5bd14f71427d1e84f3dd0314c0f7b2291e5b200ac8c7c3b925929181900390910190a350600192915050565b60025490565b600160a060020a038316600090815260016020908152604080832033845290915281205482111561037e57600080fd5b600160a060020a03841660009081526001602090815260408083203384529091529020546103b2908363ffffffff6105be16565b600160a060020a03851660009081526001602090815260408083203384529091529020556103e18484846105d5565b5060019392505050565b6000600160a060020a038316151561040257600080fd5b336000908152600160209081526040808320600160a060020a0387168452909152902054610436908363ffffffff6106c716565b336000818152600160209081526040808320600160a060020a0389168085529083529281902085905580519485525191937f8c5be1e5ebec7d5bd14f71427d1e84f3dd0314c0f7b2291e5b200ac8c7c3b925929081900390910190a350600192915050565b60006104a63361057a565b15156104b157600080fd5b6104bb83836106e0565b50600192915050565b6104ce338261078a565b50565b600160a060020a031660009081526020819052604090205490565b6104f68282610858565b5050565b6105033361057a565b151561050e57600080fd5b6104ce816108ea565b61052033610932565b565b6000600160a060020a038316151561053957600080fd5b336000908152600160209081526040808320600160a060020a0387168452909152902054610436908363ffffffff6105be16565b60006104bb3384846105d5565b600061058d60038363ffffffff61097a16565b92915050565b600160a060020a03918216600090815260016020908152604080832093909416825291909152205490565b600080838311156105ce57600080fd5b5050900390565b600160a060020a0383166000908152602081905260409020548111156105fa57600080fd5b600160a060020a038216151561060f57600080fd5b600160a060020a038316600090815260208190526040902054610638908263ffffffff6105be16565b600160a060020a03808516600090815260208190526040808220939093559084168152205461066d908263ffffffff6106c716565b600160a060020a038084166000818152602081815260409182902094909455805185815290519193928716927fddf252ad1be2c89b69c2b068fc378daa952ba7f163c4a11628f55a4df523b3ef92918290030190a3505050565b6000828201838110156106d957600080fd5b9392505050565b600160a060020a03821615156106f557600080fd5b600254610708908263ffffffff6106c716565b600255600160a060020a038216600090815260208190526040902054610734908263ffffffff6106c716565b600160a060020a0383166000818152602081815260408083209490945583518581529351929391927fddf252ad1be2c89b69c2b068fc378daa952ba7f163c4a11628f55a4df523b3ef9281900390910190a35050565b600160a060020a038216151561079f57600080fd5b600160a060020a0382166000908152602081905260409020548111156107c457600080fd5b6002546107d7908263ffffffff6105be16565b600255600160a060020a038216600090815260208190526040902054610803908263ffffffff6105be16565b600160a060020a038316600081815260208181526040808320949094558351858152935191937fddf252ad1be2c89b69c2b068fc378daa952ba7f163c4a11628f55a4df523b3ef929081900390910190a35050565b600160a060020a038216600090815260016020908152604080832033845290915290205481111561088857600080fd5b600160a060020a03821660009081526001602090815260408083203384529091529020546108bc908263ffffffff6105be16565b600160a060020a03831660009081526001602090815260408083203384529091529020556104f6828261078a565b6108fb60038263ffffffff6109b116565b604051600160a060020a038216907f6ae172837ea30b801fbfcdd4108aa1d5bf8ff775444fd70256b44e6bf3dfc3f690600090a250565b61094360038263ffffffff6109ff16565b604051600160a060020a038216907fe94479a9f7e1952cc78f2d6baab678adc1b772d936c6583def489e524cb6669290600090a250565b6000600160a060020a038216151561099157600080fd5b50600160a060020a03166000908152602091909152604090205460ff1690565b600160a060020a03811615156109c657600080fd5b6109d0828261097a565b156109da57600080fd5b600160a060020a0316600090815260209190915260409020805460ff19166001179055565b600160a060020a0381161515610a1457600080fd5b610a1e828261097a565b1515610a2957600080fd5b600160a060020a0316600090815260209190915260409020805460ff191690555600a165627a7a72305820b064c4771bf158f254d0bfa8961081168030fa870a8344a86935fb83c32d797a0029",
  "source": "pragma solidity 0.4.24;\n\nimport \"openzeppelin-solidity/contracts/token/ERC20/ERC20Mintable.sol\";\nimport \"openzeppelin-solidity/contracts/token/ERC20/ERC20Burnable.sol\";\n\n// solhint-disable-next-line no-empty-blocks\ncontract MockERC20 is ERC20Mintable, ERC20Burnable {\n\n}\n",
  "sourcePath": "/src/contracts/mocks/MockERC20.sol",
  "compiler": {
    "name": "solc",
    "version": "0.4.24+commit.e67f0147.Emscripten.clang"
  },
  "schemaVersion": "2.0.1",
  "updatedAt": "2018-11-02T05:47:03.991Z"
}