{
  "contractName": "Notary",
  "abi": [
    {
      "constant": true,
      "inputs": [],
      "name": "m_hackedTimestamp",
      "outputs": [
        {
          "name": "",
          "type": "uint256"
        }
      ],
      "payable": false,
      "stateMutability": "view",
      "type": "function"
    },
    {
      "constant": true,
      "inputs": [],
      "name": "m_owner",
      "outputs": [
        {
          "name": "",
          "type": "address"
        }
      ],
      "payable": false,
      "stateMutability": "view",
      "type": "function"
    },
    {
      "inputs": [],
      "payable": false,
      "stateMutability": "nonpayable",
      "type": "constructor"
    },
    {
      "anonymous": false,
      "inputs": [
        {
          "indexed": false,
          "name": "timestamp",
          "type": "uint256"
        }
      ],
      "name": "Hacked",
      "type": "event"
    },
    {
      "constant": false,
      "inputs": [],
      "name": "reportHacked",
      "outputs": [],
      "payable": false,
      "stateMutability": "nonpayable",
      "type": "function"
    },
    {
      "constant": true,
      "inputs": [],
      "name": "isHacked",
      "outputs": [
        {
          "name": "",
          "type": "bool"
        }
      ],
      "payable": false,
      "stateMutability": "view",
      "type": "function"
    }
  ],
  "bytecode": "0x608060405234801561001057600080fd5b5060008054600160a060020a03191633178155600155610237806100356000396000f3006080604052600436106100615763ffffffff7c01000000000000000000000000000000000000000000000000000000006000350416631915aea281146100665780633c16c5001461008f578063a0087416146100a6578063deff41c1146100cd575b600080fd5b34801561007257600080fd5b5061007b61010b565b604080519115158252519081900360200190f35b34801561009b57600080fd5b506100a4610113565b005b3480156100b257600080fd5b506100bb6101e9565b60408051918252519081900360200190f35b3480156100d957600080fd5b506100e26101ef565b6040805173ffffffffffffffffffffffffffffffffffffffff9092168252519081900360200190f35b600154151590565b60005473ffffffffffffffffffffffffffffffffffffffff16331461019957604080517f08c379a000000000000000000000000000000000000000000000000000000000815260206004820152600c60248201527f556e617574686f72697a65640000000000000000000000000000000000000000604482015290519081900360640190fd5b600154156101a657600080fd5b4215156101af57fe5b42600181905560408051918252517f22b7577583f048b2eda63f4c097c575fb3c19bb4fd850783998f416f2f53af6d9181900360200190a1565b60015481565b60005473ffffffffffffffffffffffffffffffffffffffff16815600a165627a7a723058200935274a2d3a1d5c80cae30dafa24226508c1b30da4242a5e5d45f41d1752f2e0029",
  "source": "pragma solidity 0.4.24;\n\ncontract Notary {\n  event Hacked(uint256 timestamp);\n\n  address public m_owner;\n  uint256 public m_hackedTimestamp;\n\n  constructor() public {\n    m_owner = msg.sender;\n    m_hackedTimestamp = 0;\n  }\n\n  modifier restricted() {\n    require(msg.sender == m_owner, \"Unauthorized\");\n    _;\n  }\n\n  function reportHacked() external restricted {\n    require(m_hackedTimestamp == 0);\n    // solhint-disable-next-line not-rely-on-time\n    assert(block.timestamp != 0);\n    // solhint-disable-next-line not-rely-on-time\n    m_hackedTimestamp = block.timestamp;\n    // solhint-disable-next-line not-rely-on-time\n    emit Hacked(block.timestamp);\n  }\n\n  function isHacked() external view returns(bool) {\n    return m_hackedTimestamp != 0;\n  }\n}\n",
  "sourcePath": "/src/contracts/bounty/Notary.sol",
  "compiler": {
    "name": "solc",
    "version": "0.4.24+commit.e67f0147.Emscripten.clang"
  },
  "schemaVersion": "2.0.1",
  "updatedAt": "2018-11-09T22:41:54.457Z"
}