{
  "contractName": "VictimFactory",
  "abi": [
    {
      "constant": true,
      "inputs": [],
      "name": "m_trustedUniverse",
      "outputs": [
        {
          "name": "",
          "type": "address"
        }
      ],
      "payable": false,
      "stateMutability": "view",
      "type": "function"
    },
    {
      "constant": true,
      "inputs": [
        {
          "name": "",
          "type": "address"
        }
      ],
      "name": "m_hackers",
      "outputs": [
        {
          "name": "",
          "type": "address"
        }
      ],
      "payable": false,
      "stateMutability": "view",
      "type": "function"
    },
    {
      "constant": true,
      "inputs": [],
      "name": "m_notary",
      "outputs": [
        {
          "name": "",
          "type": "address"
        }
      ],
      "payable": false,
      "stateMutability": "view",
      "type": "function"
    },
    {
      "constant": true,
      "inputs": [],
      "name": "m_factory",
      "outputs": [
        {
          "name": "",
          "type": "address"
        }
      ],
      "payable": false,
      "stateMutability": "view",
      "type": "function"
    },
    {
      "inputs": [
        {
          "name": "factory",
          "type": "address"
        },
        {
          "name": "trustedUniverse",
          "type": "address"
        }
      ],
      "payable": false,
      "stateMutability": "nonpayable",
      "type": "constructor"
    },
    {
      "anonymous": false,
      "inputs": [
        {
          "indexed": false,
          "name": "hacker",
          "type": "address"
        },
        {
          "indexed": false,
          "name": "victim",
          "type": "address"
        }
      ],
      "name": "VictimCreated",
      "type": "event"
    },
    {
      "anonymous": false,
      "inputs": [
        {
          "indexed": false,
          "name": "hacker",
          "type": "address"
        },
        {
          "indexed": false,
          "name": "victim",
          "type": "address"
        }
      ],
      "name": "ClaimFailed",
      "type": "event"
    },
    {
      "anonymous": false,
      "inputs": [
        {
          "indexed": false,
          "name": "hacker",
          "type": "address"
        },
        {
          "indexed": false,
          "name": "victim",
          "type": "address"
        }
      ],
      "name": "ClaimSucceeded",
      "type": "event"
    },
    {
      "constant": false,
      "inputs": [
        {
          "name": "market",
          "type": "address"
        },
        {
          "name": "feeWindowId",
          "type": "uint256"
        },
        {
          "name": "payoutNumerators",
          "type": "uint256[]"
        },
        {
          "name": "invalid",
          "type": "bool"
        },
        {
          "name": "amount",
          "type": "uint128"
        },
        {
          "name": "fee",
          "type": "uint128"
        }
      ],
      "name": "createVictim",
      "outputs": [
        {
          "name": "",
          "type": "address"
        }
      ],
      "payable": false,
      "stateMutability": "nonpayable",
      "type": "function"
    },
    {
      "constant": false,
      "inputs": [
        {
          "name": "victim",
          "type": "address"
        }
      ],
      "name": "claimHacked",
      "outputs": [
        {
          "name": "",
          "type": "bool"
        }
      ],
      "payable": false,
      "stateMutability": "nonpayable",
      "type": "function"
    },
    {
      "constant": true,
      "inputs": [],
      "name": "isHacked",
      "outputs": [
        {
          "name": "",
          "type": "bool"
        }
      ],
      "payable": false,
      "stateMutability": "view",
      "type": "function"
    }
  ],
  "bytecode": "0x608060405234801561001057600080fd5b50604051604080611c6f83398101604052805160209091015160018054600160a060020a03808416600160a060020a03199283161790925560008054928516929091169190911790556100616100a6565b604051809103906000f08015801561007d573d6000803e3d6000fd5b5060028054600160a060020a031916600160a060020a0392909216919091179055506100b69050565b60405161026c80611a0383390190565b61193e806100c56000396000f300608060405260043610620000715763ffffffff60e060020a6000350416631915aea28114620000765780631f2392de14620000a2578063616e169914620000d65780636716424e14620000fa5780638973e349146200011e578063cc33f8431462000136578063f64337e6146200014e575b600080fd5b3480156200008357600080fd5b506200008e620001a3565b604080519115158252519081900360200190f35b348015620000af57600080fd5b50620000ba62000236565b60408051600160a060020a039092168252519081900360200190f35b348015620000e357600080fd5b50620000ba600160a060020a036004351662000245565b3480156200010757600080fd5b506200008e600160a060020a036004351662000260565b3480156200012b57600080fd5b50620000ba6200049d565b3480156200014357600080fd5b50620000ba620004ac565b3480156200015b57600080fd5b50620000ba60048035600160a060020a031690602480359160443591820191013560643515156084356fffffffffffffffffffffffffffffffff9081169060a43516620004bb565b600254604080517f1915aea20000000000000000000000000000000000000000000000000000000081529051600092600160a060020a031691631915aea291600480830192602092919082900301818787803b1580156200020357600080fd5b505af115801562000218573d6000803e3d6000fd5b505050506040513d60208110156200022f57600080fd5b5051905090565b600154600160a060020a031681565b600360205260009081526040902054600160a060020a031681565b600080625a06e05a10156200027457600080fd5b600160a060020a03838116600090815260036020526040902054163314620002fd57604080517f08c379a000000000000000000000000000000000000000000000000000000000815260206004820152600f60248201527f4974206973206e6f7420796f7572730000000000000000000000000000000000604482015290519081900360640190fd5b600160a060020a038316600081815260036020526040808220805473ffffffffffffffffffffffffffffffffffffffff1916905580517f76616c69646174652829000000000000000000000000000000000000000000008152815190819003600a01812063ffffffff60e060020a91829004908116909102825291519192624c4b40926004808401938290030181838887f1935050505090508015620003e65760408051338152600160a060020a038516602082015281517f527a3d7c7faaac3b55ca40d091d806c63bf244fc36a8fbb25f7a07e002450fed929181900390910190a162000497565b60408051338152600160a060020a038516602082015281517fdc990c01752f549c17b4d2ba4914d49de5419552e60b8a5d0d125f2a0dd6d0bf929181900390910190a1600260009054906101000a9004600160a060020a0316600160a060020a0316633c16c5006040518163ffffffff1660e060020a028152600401600060405180830381600087803b1580156200047d57600080fd5b505af115801562000492573d6000803e3d6000fd5b505050505b50919050565b600254600160a060020a031681565b600054600160a060020a031681565b6001546000908190600160a060020a0316156200064457600154604080517f9f7e1bf6000000000000000000000000000000000000000000000000000000008152600160a060020a038c8116600483015291519190921691639f7e1bf69160248083019260209291908290030181600087803b1580156200053b57600080fd5b505af115801562000550573d6000803e3d6000fd5b505050506040513d60208110156200056757600080fd5b505115156200057557600080fd5b836fffffffffffffffffffffffffffffffff16620a299014158015620005b05750836fffffffffffffffffffffffffffffffff16620a2d7814155b15156200064457604080517f08c379a000000000000000000000000000000000000000000000000000000000815260206004820152602481018290527f54686f736520616d6f756e747320617265207573656420666f7220746573746960448201527f6e672c20646f206e6f7420616c6c6f7720666f72207265616c20626f756e7479606482015290519081900360840190fd5b600054600160a060020a031689898989898989620006616200077c565b600160a060020a03808a16825288166020808301919091526040820188905284151560808301526fffffffffffffffffffffffffffffffff80851660a0840152831660c083015260e06060830181815290830187905290610100830190889088028082843782019150509950505050505050505050604051809103906000f080158015620006f3573d6000803e3d6000fd5b5060408051338152600160a060020a038316602082015281519293507fc57d6ed2bf1e49ac8cbd0173b4f7b36b009f1b6e599c1e0af94757cd3e7f88e2929081900390910190a1600160a060020a0381166000908152600360205260409020805473ffffffffffffffffffffffffffffffffffffffff1916331790559050979650505050505050565b604051611185806200078e833901905600608060405260058054608060020a60ff02191690553480156200002157600080fd5b50604051620011853803806200118583398101604090815281516020830151918301516060840151608085015160a086015160c08701519496939492909301929091600160a060020a03871615156200007a57620006fe565b6103e86001608060020a038216106200009257600080fd5b6000826001608060020a0316118015620000c057506b040000000000000000000000826001608060020a0316105b1515620000cc57600080fd5b600080546001608060020a03808416700100000000000000000000000000000000029116178155604080517f2443f0ae000000000000000000000000000000000000000000000000000000008152851515602482015260048101918252865160448201528651600160a060020a038a1693632443f0ae9389938993919283926064909201916020808801929102908190849084905b838110156200017b57818101518382015260200162000161565b505050509050019350505050602060405180830381600087803b158015620001a257600080fd5b505af1158015620001b7573d6000803e3d6000fd5b505050506040513d6020811015620001ce57600080fd5b505160035560048054600160a060020a038816600160a060020a031990911681178255600580546001608060020a038087166001608060020a031992831617909255600080546002880290931692909116919091178155604080517fb80907f20000000000000000000000000000000000000000000000000000000081529051929363b80907f2938282019360209391929183900390910190829087803b1580156200027957600080fd5b505af11580156200028e573d6000803e3d6000fd5b505050506040513d6020811015620002a557600080fd5b505160018054600160a060020a031916600160a060020a03928316179081905560008054604080517f579158970000000000000000000000000000000000000000000000000000000081526001608060020a03909216600483015251929093169263579158979260248083019360209383900390910190829087803b1580156200032e57600080fd5b505af115801562000343573d6000803e3d6000fd5b505050506040513d60208110156200035a57600080fd5b505060008054600154604080517f70a0823100000000000000000000000000000000000000000000000000000000815230600482015290516001608060020a0390931693600160a060020a03909216926370a0823192602480840193602093929083900390910190829087803b158015620003d457600080fd5b505af1158015620003e9573d6000803e3d6000fd5b505050506040513d60208110156200040057600080fd5b5051146200040a57fe5b6040517fae8cbc81000000000000000000000000000000000000000000000000000000008152600160a060020a0387811660048301908152602483018890528515156064840152608060448401908152875160848501528751928b169363ae8cbc81938b938b938b938b9360a4909101906020808701910280838360005b83811015620004a257818101518382015260200162000488565b5050505090500195505050505050602060405180830381600087803b158015620004cb57600080fd5b505af1158015620004e0573d6000803e3d6000fd5b505050506040513d6020811015620004f757600080fd5b505160028054600160a060020a031916600160a060020a039283161790819055600154604080517f095ea7b3000000000000000000000000000000000000000000000000000000008152928416600484015270010000000000000000000000000000000060248401525192169163095ea7b3916044808201926020929091908290030181600087803b1580156200058d57600080fd5b505af1158015620005a2573d6000803e3d6000fd5b505050506040513d6020811015620005b957600080fd5b5050600254604080517f9fe00bbf0000000000000000000000000000000000000000000000000000000081526001608060020a038086166004830152841660248201529051600160a060020a0390921691639fe00bbf9160448082019260009290919082900301818387803b1580156200063257600080fd5b505af115801562000647573d6000803e3d6000fd5b50505050816001608060020a0316620a29901415620006fe57600154604080517fa9059cbb000000000000000000000000000000000000000000000000000000008152600160a060020a0390921660048301819052606460248401529051909163a9059cbb9160448083019260209291908290030181600087803b158015620006cf57600080fd5b505af1158015620006e4573d6000803e3d6000fd5b505050506040513d6020811015620006fb57600080fd5b50505b50505050505050610a7080620007156000396000f30060806040526004361061007f5763ffffffff60e060020a60003504166330fb022481146100845780636901f668146100ad5780636a6be1d9146100c457806372830968146100f5578063826a287f14610126578063a102282e1461013b578063a825ba3d14610150578063c302389914610177578063de16dcca1461018c575b600080fd5b34801561009057600080fd5b506100996101a1565b604080519115158252519081900360200190f35b3480156100b957600080fd5b506100c26101be565b005b3480156100d057600080fd5b506100d9610243565b60408051600160a060020a039092168252519081900360200190f35b34801561010157600080fd5b5061010a610252565b604080516001608060020a039092168252519081900360200190f35b34801561013257600080fd5b5061010a610261565b34801561014757600080fd5b506100d9610284565b34801561015c57600080fd5b50610165610293565b60408051918252519081900360200190f35b34801561018357600080fd5b506100d9610299565b34801561019857600080fd5b5061010a6102a8565b600554700100000000000000000000000000000000900460ff1681565b600554700100000000000000000000000000000000900460ff16156101e257610241565b6005805470ff0000000000000000000000000000000019167001000000000000000000000000000000001790556102176102b7565b6040517f8fce3301e80cf917ce4c6e2b16b8323799f73469be2157dcbb210a93539c22c590600090a15b565b600154600160a060020a031681565b6000546001608060020a031681565b60005470010000000000000000000000000000000090046001608060020a031681565b600454600160a060020a031681565b60035481565b600254600160a060020a031681565b6005546001608060020a031681565b60008060006102c4610838565b60009250600260009054906101000a9004600160a060020a0316600160a060020a031663d18959a26040518163ffffffff1660e060020a028152600401602060405180830381600087803b15801561031b57600080fd5b505af115801561032f573d6000803e3d6000fd5b505050506040513d602081101561034557600080fd5b50511561068757600260009054906101000a9004600160a060020a0316600160a060020a031663fbe787056040518163ffffffff1660e060020a028152600401602060405180830381600087803b15801561039f57600080fd5b505af11580156103b3573d6000803e3d6000fd5b505050506040513d60208110156103c957600080fd5b5051600354604080517fdd62f6f300000000000000000000000000000000000000000000000000000000815290519294509091600160a060020a0385169163dd62f6f39160048083019260209291908290030181600087803b15801561042e57600080fd5b505af1158015610442573d6000803e3d6000fd5b505050506040513d602081101561045857600080fd5b5051146104c657604080517f08c379a000000000000000000000000000000000000000000000000000000000815260206004820152601a60248201527f576520676f74206120626164206469737075746520746f6b656e000000000000604482015290519081900360640190fd5b60048054604080517ff76514c7000000000000000000000000000000000000000000000000000000008152600160a060020a03868116948201949094529051929091169163f76514c7916024808201926020929091908290030181600087803b15801561053257600080fd5b505af1158015610546573d6000803e3d6000fd5b505050506040513d602081101561055c57600080fd5b5051156105f757604080517f70a082310000000000000000000000000000000000000000000000000000000081523060048201529051600160a060020a038416916370a082319160248083019260209291908290030181600087803b1580156105c457600080fd5b505af11580156105d8573d6000803e3d6000fd5b505050506040513d60208110156105ee57600080fd5b50519250610687565b604080517f70a082310000000000000000000000000000000000000000000000000000000081523060048201529051600160a060020a038416916370a082319160248083019260209291908290030181600087803b15801561065857600080fd5b505af115801561066c573d6000803e3d6000fd5b505050506040513d602081101561068257600080fd5b505192505b6000546001608060020a0316831061069e57610833565b6000546103e8906001608060020a0370010000000000000000000000000000000090910481168201168402600054919004600a0191506001608060020a031681106106e857610833565b600080546fffffffffffffffffffffffffffffffff1981166001608060020a03918216849003821617808355600154604080517f70a0823100000000000000000000000000000000000000000000000000000000815230600482015290519290931693600160a060020a03909116926370a082319260248083019360209383900390910190829087803b15801561077e57600080fd5b505af1158015610792573d6000803e3d6000fd5b505050506040513d60208110156107a857600080fd5b5051101561081757604080517f08c379a000000000000000000000000000000000000000000000000000000000815260206004820152601260248201527f66756e6473206d75737420626520534146550000000000000000000000000000604482015290519081900360640190fd5b6005546001608060020a0316620a2d781415610833575b61082e565b505050565b600260009054906101000a9004600160a060020a0316600160a060020a031663d18959a26040518163ffffffff1660e060020a028152600401602060405180830381600087803b15801561088b57600080fd5b505af115801561089f573d6000803e3d6000fd5b505050506040513d60208110156108b557600080fd5b5051151561092d57600260009054906101000a9004600160a060020a0316600160a060020a0316630d616d206040518163ffffffff1660e060020a028152600401600060405180830381600087803b15801561091057600080fd5b505af1158015610924573d6000803e3d6000fd5b50505050610241565b600254604080517f57be2cb80000000000000000000000000000000000000000000000000000000081523060048201529051600160a060020a03909216916357be2cb8916024808201926020929091908290030181600087803b15801561099357600080fd5b505af11580156109a7573d6000803e3d6000fd5b505050506040513d60208110156109bd57600080fd5b5051151561024157600254604080517f62810c810000000000000000000000000000000000000000000000000000000081523060048201529051600160a060020a03909216916362810c819160248082019260009290919082900301818387803b158015610a2a57600080fd5b505af1158015610a3e573d6000803e3d6000fd5b505050505600a165627a7a72305820f57b17c880cb6d80d8b8e6b0cab5b81722c8f36a960121d630f5404a7f91894b0029a165627a7a72305820e43f60061987d1c9eda564f0872aa533abd705d3f1b698d6910ed557717564c30029608060405234801561001057600080fd5b5060008054600160a060020a03191633178155600155610237806100356000396000f3006080604052600436106100615763ffffffff7c01000000000000000000000000000000000000000000000000000000006000350416631915aea281146100665780633c16c5001461008f578063a0087416146100a6578063deff41c1146100cd575b600080fd5b34801561007257600080fd5b5061007b61010b565b604080519115158252519081900360200190f35b34801561009b57600080fd5b506100a4610113565b005b3480156100b257600080fd5b506100bb6101e9565b60408051918252519081900360200190f35b3480156100d957600080fd5b506100e26101ef565b6040805173ffffffffffffffffffffffffffffffffffffffff9092168252519081900360200190f35b600154151590565b60005473ffffffffffffffffffffffffffffffffffffffff16331461019957604080517f08c379a000000000000000000000000000000000000000000000000000000000815260206004820152600c60248201527f556e617574686f72697a65640000000000000000000000000000000000000000604482015290519081900360640190fd5b600154156101a657600080fd5b4215156101af57fe5b42600181905560408051918252517f22b7577583f048b2eda63f4c097c575fb3c19bb4fd850783998f416f2f53af6d9181900360200190a1565b60015481565b60005473ffffffffffffffffffffffffffffffffffffffff16815600a165627a7a723058200935274a2d3a1d5c80cae30dafa24226508c1b30da4242a5e5d45f41d1752f2e0029",
  "source": "pragma solidity 0.4.24;\n\nimport \"./Faucet.sol\";\nimport \"../ICrowdsourcer.sol\";\nimport \"../Crowdsourcer.sol\";\nimport \"../CrowdsourcerFactory.sol\";\nimport \"./Victim.sol\";\nimport \"./Notary.sol\";\n\ncontract VictimFactory {\n  event VictimCreated(address hacker, Victim victim);\n  event ClaimFailed(address hacker, Victim victim);\n  event ClaimSucceeded(address hacker, Victim victim);\n\n  CrowdsourcerFactory public m_factory;\n  Universe public m_trustedUniverse;\n  Notary public m_notary;\n  mapping(address => address) public m_hackers;\n\n  constructor(CrowdsourcerFactory factory, Universe trustedUniverse) public {\n    m_trustedUniverse = trustedUniverse;\n    m_factory = factory;\n    m_notary = new Notary();\n  }\n\n  function createVictim(\n    Market market,\n    uint256 feeWindowId,\n    uint256[] payoutNumerators,\n    bool invalid,\n    uint128 amount,\n    uint128 fee\n  ) external returns(Victim) {\n    // when universe is 0, it is a test case for how bounty handles funds loss\n    if (address(m_trustedUniverse) != 0) {\n      // do not allow shady markets, that would be too easy\n      require(m_trustedUniverse.isContainerForMarket(market));\n      require(\n        amount != 666000 && amount != 667000,\n        \"Those amounts are used for testing, do not allow for real bounty\"\n      );\n    }\n\n    Victim victim = new Victim(\n      m_factory,\n      market,\n      feeWindowId,\n      payoutNumerators,\n      invalid,\n      amount,\n      fee\n    );\n\n    emit VictimCreated(msg.sender, victim);\n\n    m_hackers[victim] = msg.sender;\n    return victim;\n  }\n\n  function claimHacked(Victim victim) external returns(bool) {\n    // gotta have lots of gas for this one, don't want it to fail with\n    // out-of-gas somewhere in the middle of validation\n    require(gasleft() >= 5900000);\n    require(m_hackers[victim] == msg.sender, \"It is not yours\");\n    // allow only claim once per victim\n    m_hackers[victim] = 0;\n\n    // hopefully 5M gas will be enough, isValid will be false if validation\n    // failed (including case of infinite loop)\n    bool isValid = address(victim).call.gas(5000000)(\n      bytes4(keccak256(\"validate()\"))\n    );\n\n    if (isValid) {\n      emit ClaimFailed(msg.sender, victim);\n    } else {\n      emit ClaimSucceeded(msg.sender, victim);\n      m_notary.reportHacked();\n    }\n  }\n\n  function isHacked() external view returns(bool) {\n    return m_notary.isHacked();\n  }\n}\n",
  "sourcePath": "/src/contracts/bounty/VictimFactory.sol",
  "compiler": {
    "name": "solc",
    "version": "0.4.24+commit.e67f0147.Emscripten.clang"
  },
  "schemaVersion": "2.0.1",
  "updatedAt": "2018-11-06T03:40:32.612Z"
}