{
  "contractName": "Victim",
  "abi": [
    {
      "constant": true,
      "inputs": [],
      "name": "m_validated",
      "outputs": [
        {
          "name": "",
          "type": "bool"
        }
      ],
      "payable": false,
      "stateMutability": "view",
      "type": "function"
    },
    {
      "constant": true,
      "inputs": [],
      "name": "m_rep",
      "outputs": [
        {
          "name": "",
          "type": "address"
        }
      ],
      "payable": false,
      "stateMutability": "view",
      "type": "function"
    },
    {
      "constant": true,
      "inputs": [],
      "name": "m_expectedBalance",
      "outputs": [
        {
          "name": "",
          "type": "uint128"
        }
      ],
      "payable": false,
      "stateMutability": "view",
      "type": "function"
    },
    {
      "constant": true,
      "inputs": [],
      "name": "m_fee",
      "outputs": [
        {
          "name": "",
          "type": "uint128"
        }
      ],
      "payable": false,
      "stateMutability": "view",
      "type": "function"
    },
    {
      "constant": true,
      "inputs": [],
      "name": "m_market",
      "outputs": [
        {
          "name": "",
          "type": "address"
        }
      ],
      "payable": false,
      "stateMutability": "view",
      "type": "function"
    },
    {
      "constant": true,
      "inputs": [],
      "name": "m_payoutDistributionHash",
      "outputs": [
        {
          "name": "",
          "type": "bytes32"
        }
      ],
      "payable": false,
      "stateMutability": "view",
      "type": "function"
    },
    {
      "constant": true,
      "inputs": [],
      "name": "m_crowdsourcer",
      "outputs": [
        {
          "name": "",
          "type": "address"
        }
      ],
      "payable": false,
      "stateMutability": "view",
      "type": "function"
    },
    {
      "constant": true,
      "inputs": [],
      "name": "m_amount",
      "outputs": [
        {
          "name": "",
          "type": "uint128"
        }
      ],
      "payable": false,
      "stateMutability": "view",
      "type": "function"
    },
    {
      "inputs": [
        {
          "name": "factory",
          "type": "address"
        },
        {
          "name": "market",
          "type": "address"
        },
        {
          "name": "feeWindowId",
          "type": "uint256"
        },
        {
          "name": "payoutNumerators",
          "type": "uint256[]"
        },
        {
          "name": "invalid",
          "type": "bool"
        },
        {
          "name": "amount",
          "type": "uint128"
        },
        {
          "name": "fee",
          "type": "uint128"
        }
      ],
      "payable": false,
      "stateMutability": "nonpayable",
      "type": "constructor"
    },
    {
      "anonymous": false,
      "inputs": [],
      "name": "Validated",
      "type": "event"
    },
    {
      "constant": false,
      "inputs": [],
      "name": "validate",
      "outputs": [],
      "payable": false,
      "stateMutability": "nonpayable",
      "type": "function"
    }
  ],
  "bytecode": "0x608060405260058054608060020a60ff02191690553480156200002157600080fd5b506040516200116e3803806200116e83398101604090815281516020830151918301516060840151608085015160a086015160c087015194969394929093019290916103e86001608060020a038216106200007b57600080fd5b6000826001608060020a0316118015620000a957506b040000000000000000000000826001608060020a0316105b1515620000b557600080fd5b600080546001608060020a03808416700100000000000000000000000000000000029116178155604080517f2443f0ae000000000000000000000000000000000000000000000000000000008152851515602482015260048101918252865160448201528651600160a060020a038a1693632443f0ae9389938993919283926064909201916020808801929102908190849084905b83811015620001645781810151838201526020016200014a565b505050509050019350505050602060405180830381600087803b1580156200018b57600080fd5b505af1158015620001a0573d6000803e3d6000fd5b505050506040513d6020811015620001b757600080fd5b505160035560048054600160a060020a038816600160a060020a031990911681178255600580546001608060020a038087166001608060020a031992831617909255600080546002880290931692909116919091178155604080517fb80907f20000000000000000000000000000000000000000000000000000000081529051929363b80907f2938282019360209391929183900390910190829087803b1580156200026257600080fd5b505af115801562000277573d6000803e3d6000fd5b505050506040513d60208110156200028e57600080fd5b505160018054600160a060020a031916600160a060020a03928316179081905560008054604080517f579158970000000000000000000000000000000000000000000000000000000081526001608060020a03909216600483015251929093169263579158979260248083019360209383900390910190829087803b1580156200031757600080fd5b505af11580156200032c573d6000803e3d6000fd5b505050506040513d60208110156200034357600080fd5b505060008054600154604080517f70a0823100000000000000000000000000000000000000000000000000000000815230600482015290516001608060020a0390931693600160a060020a03909216926370a0823192602480840193602093929083900390910190829087803b158015620003bd57600080fd5b505af1158015620003d2573d6000803e3d6000fd5b505050506040513d6020811015620003e957600080fd5b505114620003f357fe5b6040517fae8cbc81000000000000000000000000000000000000000000000000000000008152600160a060020a0387811660048301908152602483018890528515156064840152608060448401908152875160848501528751928b169363ae8cbc81938b938b938b938b9360a4909101906020808701910280838360005b838110156200048b57818101518382015260200162000471565b5050505090500195505050505050602060405180830381600087803b158015620004b457600080fd5b505af1158015620004c9573d6000803e3d6000fd5b505050506040513d6020811015620004e057600080fd5b505160028054600160a060020a031916600160a060020a039283161790819055600154604080517f095ea7b3000000000000000000000000000000000000000000000000000000008152928416600484015270010000000000000000000000000000000060248401525192169163095ea7b3916044808201926020929091908290030181600087803b1580156200057657600080fd5b505af11580156200058b573d6000803e3d6000fd5b505050506040513d6020811015620005a257600080fd5b5050600254604080517f9fe00bbf0000000000000000000000000000000000000000000000000000000081526001608060020a038086166004830152841660248201529051600160a060020a0390921691639fe00bbf9160448082019260009290919082900301818387803b1580156200061b57600080fd5b505af115801562000630573d6000803e3d6000fd5b50505050816001608060020a0316620a29901415620006e757600154604080517fa9059cbb000000000000000000000000000000000000000000000000000000008152600160a060020a0390921660048301819052606460248401529051909163a9059cbb9160448083019260209291908290030181600087803b158015620006b857600080fd5b505af1158015620006cd573d6000803e3d6000fd5b505050506040513d6020811015620006e457600080fd5b50505b50505050505050610a7080620006fe6000396000f30060806040526004361061007f5763ffffffff60e060020a60003504166330fb022481146100845780636901f668146100ad5780636a6be1d9146100c457806372830968146100f5578063826a287f14610126578063a102282e1461013b578063a825ba3d14610150578063c302389914610177578063de16dcca1461018c575b600080fd5b34801561009057600080fd5b506100996101a1565b604080519115158252519081900360200190f35b3480156100b957600080fd5b506100c26101be565b005b3480156100d057600080fd5b506100d9610243565b60408051600160a060020a039092168252519081900360200190f35b34801561010157600080fd5b5061010a610252565b604080516001608060020a039092168252519081900360200190f35b34801561013257600080fd5b5061010a610261565b34801561014757600080fd5b506100d9610284565b34801561015c57600080fd5b50610165610293565b60408051918252519081900360200190f35b34801561018357600080fd5b506100d9610299565b34801561019857600080fd5b5061010a6102a8565b600554700100000000000000000000000000000000900460ff1681565b600554700100000000000000000000000000000000900460ff16156101e257610241565b6005805470ff0000000000000000000000000000000019167001000000000000000000000000000000001790556102176102b7565b6040517f8fce3301e80cf917ce4c6e2b16b8323799f73469be2157dcbb210a93539c22c590600090a15b565b600154600160a060020a031681565b6000546001608060020a031681565b60005470010000000000000000000000000000000090046001608060020a031681565b600454600160a060020a031681565b60035481565b600254600160a060020a031681565b6005546001608060020a031681565b60008060006102c4610838565b60009250600260009054906101000a9004600160a060020a0316600160a060020a031663d18959a26040518163ffffffff1660e060020a028152600401602060405180830381600087803b15801561031b57600080fd5b505af115801561032f573d6000803e3d6000fd5b505050506040513d602081101561034557600080fd5b50511561068757600260009054906101000a9004600160a060020a0316600160a060020a031663fbe787056040518163ffffffff1660e060020a028152600401602060405180830381600087803b15801561039f57600080fd5b505af11580156103b3573d6000803e3d6000fd5b505050506040513d60208110156103c957600080fd5b5051600354604080517fdd62f6f300000000000000000000000000000000000000000000000000000000815290519294509091600160a060020a0385169163dd62f6f39160048083019260209291908290030181600087803b15801561042e57600080fd5b505af1158015610442573d6000803e3d6000fd5b505050506040513d602081101561045857600080fd5b5051146104c657604080517f08c379a000000000000000000000000000000000000000000000000000000000815260206004820152601a60248201527f576520676f74206120626164206469737075746520746f6b656e000000000000604482015290519081900360640190fd5b60048054604080517ff76514c7000000000000000000000000000000000000000000000000000000008152600160a060020a03868116948201949094529051929091169163f76514c7916024808201926020929091908290030181600087803b15801561053257600080fd5b505af1158015610546573d6000803e3d6000fd5b505050506040513d602081101561055c57600080fd5b5051156105f757604080517f70a082310000000000000000000000000000000000000000000000000000000081523060048201529051600160a060020a038416916370a082319160248083019260209291908290030181600087803b1580156105c457600080fd5b505af11580156105d8573d6000803e3d6000fd5b505050506040513d60208110156105ee57600080fd5b50519250610687565b604080517f70a082310000000000000000000000000000000000000000000000000000000081523060048201529051600160a060020a038416916370a082319160248083019260209291908290030181600087803b15801561065857600080fd5b505af115801561066c573d6000803e3d6000fd5b505050506040513d602081101561068257600080fd5b505192505b6000546001608060020a0316831061069e57610833565b6000546103e8906001608060020a0370010000000000000000000000000000000090910481168201168402600054919004600a0191506001608060020a031681106106e857610833565b600080546fffffffffffffffffffffffffffffffff1981166001608060020a03918216849003821617808355600154604080517f70a0823100000000000000000000000000000000000000000000000000000000815230600482015290519290931693600160a060020a03909116926370a082319260248083019360209383900390910190829087803b15801561077e57600080fd5b505af1158015610792573d6000803e3d6000fd5b505050506040513d60208110156107a857600080fd5b5051101561081757604080517f08c379a000000000000000000000000000000000000000000000000000000000815260206004820152601260248201527f66756e6473206d75737420626520534146550000000000000000000000000000604482015290519081900360640190fd5b6005546001608060020a0316620a2d781415610833575b61082e565b505050565b600260009054906101000a9004600160a060020a0316600160a060020a031663d18959a26040518163ffffffff1660e060020a028152600401602060405180830381600087803b15801561088b57600080fd5b505af115801561089f573d6000803e3d6000fd5b505050506040513d60208110156108b557600080fd5b5051151561092d57600260009054906101000a9004600160a060020a0316600160a060020a0316630d616d206040518163ffffffff1660e060020a028152600401600060405180830381600087803b15801561091057600080fd5b505af1158015610924573d6000803e3d6000fd5b50505050610241565b600254604080517f57be2cb80000000000000000000000000000000000000000000000000000000081523060048201529051600160a060020a03909216916357be2cb8916024808201926020929091908290030181600087803b15801561099357600080fd5b505af11580156109a7573d6000803e3d6000fd5b505050506040513d60208110156109bd57600080fd5b5051151561024157600254604080517f62810c810000000000000000000000000000000000000000000000000000000081523060048201529051600160a060020a03909216916362810c819160248082019260009290919082900301818387803b158015610a2a57600080fd5b505af1158015610a3e573d6000803e3d6000fd5b505050505600a165627a7a72305820df251742987d6c43e51045bbbd674c4decfd8b88e0d1aa1447f48d81e8136c670029",
  "source": "pragma solidity 0.4.24;\n\nimport \"./Faucet.sol\";\nimport \"../ICrowdsourcer.sol\";\nimport \"../Crowdsourcer.sol\";\nimport \"../CrowdsourcerFactory.sol\";\n\ncontract Victim {\n  uint128 public m_expectedBalance;\n  uint128 public m_fee;\n  IERC20 public m_rep;\n  ICrowdsourcer public m_crowdsourcer;\n  bytes32 public m_payoutDistributionHash;\n  Market public m_market;\n  uint128 public m_amount;\n  bool public m_validated = false;\n\n  event Validated();\n\n  // parent will check quality of market\n  // before invoking this constructor\n  // so here we trust market\n  constructor(\n    CrowdsourcerFactory factory,\n    Market market,\n    uint256 feeWindowId,\n    uint256[] payoutNumerators,\n    bool invalid,\n    uint128 amount,\n    uint128 fee\n  ) public {\n    require(fee < 1000);\n    require(amount > 0 && amount < 2 ** 90);\n    m_fee = fee;\n\n    m_payoutDistributionHash = market.derivePayoutDistributionHash(\n      payoutNumerators,\n      invalid\n    );\n    m_market = market;\n    m_amount = amount;\n\n    // mint some extra to pay fees\n    m_expectedBalance = 2 * amount;\n    m_rep = market.getReputationToken();\n    Faucet(m_rep).faucet(m_expectedBalance);\n    assert(m_rep.balanceOf(this) == m_expectedBalance);\n\n    // place funds into crowdsourcer\n    m_crowdsourcer = factory.getInitializedCrowdsourcer(\n      market,\n      feeWindowId,\n      payoutNumerators,\n      invalid\n    );\n    m_rep.approve(m_crowdsourcer, 2 ** 128);\n    m_crowdsourcer.contribute(amount, fee);\n\n    // special case for testing of funds loss\n    if (amount == 666000) {\n      // \"lose\" 100 attorep by sending then to rep itself\n      m_rep.transfer(m_rep, 100);\n    }\n  }\n\n  function validate() external {\n    if (m_validated) {\n      return;\n    }\n    m_validated = true;\n    validateImpl();\n    emit Validated();\n  }\n\n  function withdrawWhatWeCanFromCrowdsourcer() internal {\n    if (!m_crowdsourcer.hasDisputed()) {\n      m_crowdsourcer.withdrawContribution();\n    } else if (!Crowdsourcer(m_crowdsourcer).m_proceedsCollected(this)) {\n      m_crowdsourcer.withdrawProceeds(this);\n    }\n  }\n\n  // if this throws, we are in bad state\n  // solhint-disable-next-line code-complexity,function-max-lines\n  function validateImpl() internal {\n    withdrawWhatWeCanFromCrowdsourcer();\n\n    uint256 disputeTokens = 0;\n    if (m_crowdsourcer.hasDisputed()) {\n      IERC20 disputeToken = m_crowdsourcer.getDisputeToken();\n      // check quality of that dispute token\n      require(\n        ReportingParticipant(disputeToken).getPayoutDistributionHash(\n\n        ) == m_payoutDistributionHash,\n        \"We got a bad dispute token\"\n      );\n      if (m_market.isContainerForReportingParticipant(\n        ReportingParticipant(disputeToken)\n      )) {\n        // dispute token is still in dispute and is trusted\n        disputeTokens = disputeToken.balanceOf(this);\n      } else {\n        // disavowed or fake dispute token, we don't care\n        // as long as we can withdraw REP from it.\n        //\n        // Augur requires waiting for next week until disavowed dispute tokens\n        // can be redeemed.\n        // We don't want to slow down bounty that much, so if claim is called\n        // before fee window is over, we just consider it acceptable\n\n        // so we just consider this token OK-ish\n        // this will not catch fake dispute tokens, but I don't want to make\n        // bounty too complex\n        disputeTokens = disputeToken.balanceOf(this);\n      }\n    }\n\n    if (disputeTokens >= m_expectedBalance) {\n      // in case someone managed to generate so many dispute tokens that\n      // following math will overflow\n      //\n      // we got more dispute tokens than we had REP, this is good\n      return;\n    }\n\n    // will not overflow due to constraints on m_fee and m_expectedBalance\n    // and check above (+10 is for rounding errors)\n    uint256 expectedToPay = disputeTokens * (1000 + m_fee) / 1000 + 10;\n\n    if (expectedToPay >= m_expectedBalance) {\n      return;\n    }\n\n    m_expectedBalance -= uint128(expectedToPay);\n\n    require(m_rep.balanceOf(this) >= m_expectedBalance, \"funds must be SAFU\");\n\n    if (m_amount == 667000) {\n      // solhint-disable-next-line no-empty-blocks\n      while (true) {\n\n      }\n    }\n  }\n}\n",
  "sourcePath": "/src/contracts/bounty/Victim.sol",
  "compiler": {
    "name": "solc",
    "version": "0.4.24+commit.e67f0147.Emscripten.clang"
  },
  "schemaVersion": "2.0.1",
  "updatedAt": "2018-11-06T03:07:09.664Z"
}